{
  "_format": "hh-sol-artifact-1",
  "contractName": "MyNFT",
  "sourceName": "contracts/MyNFT.sol",
  "abi": [
    {
      "inputs": [],
      "stateMutability": "nonpayable",
      "type": "constructor"
    },
    {
      "anonymous": false,
      "inputs": [
        {
          "indexed": true,
          "internalType": "address",
          "name": "owner",
          "type": "address"
        },
        {
          "indexed": true,
          "internalType": "address",
          "name": "approved",
          "type": "address"
        },
        {
          "indexed": true,
          "internalType": "uint256",
          "name": "tokenId",
          "type": "uint256"
        }
      ],
      "name": "Approval",
      "type": "event"
    },
    {
      "anonymous": false,
      "inputs": [
        {
          "indexed": true,
          "internalType": "address",
          "name": "owner",
          "type": "address"
        },
        {
          "indexed": true,
          "internalType": "address",
          "name": "operator",
          "type": "address"
        },
        {
          "indexed": false,
          "internalType": "bool",
          "name": "approved",
          "type": "bool"
        }
      ],
      "name": "ApprovalForAll",
      "type": "event"
    },
    {
      "anonymous": false,
      "inputs": [
        {
          "indexed": false,
          "internalType": "address",
          "name": "sender",
          "type": "address"
        },
        {
          "indexed": false,
          "internalType": "uint256",
          "name": "tokenId",
          "type": "uint256"
        },
        {
          "indexed": false,
          "internalType": "string",
          "name": "imageURI",
          "type": "string"
        }
      ],
      "name": "MintReceipt",
      "type": "event"
    },
    {
      "anonymous": false,
      "inputs": [
        {
          "indexed": true,
          "internalType": "address",
          "name": "from",
          "type": "address"
        },
        {
          "indexed": true,
          "internalType": "address",
          "name": "to",
          "type": "address"
        },
        {
          "indexed": true,
          "internalType": "uint256",
          "name": "tokenId",
          "type": "uint256"
        }
      ],
      "name": "Transfer",
      "type": "event"
    },
    {
      "inputs": [
        {
          "internalType": "address",
          "name": "to",
          "type": "address"
        },
        {
          "internalType": "uint256",
          "name": "tokenId",
          "type": "uint256"
        }
      ],
      "name": "approve",
      "outputs": [],
      "stateMutability": "nonpayable",
      "type": "function"
    },
    {
      "inputs": [
        {
          "internalType": "address",
          "name": "owner",
          "type": "address"
        }
      ],
      "name": "balanceOf",
      "outputs": [
        {
          "internalType": "uint256",
          "name": "",
          "type": "uint256"
        }
      ],
      "stateMutability": "view",
      "type": "function"
    },
    {
      "inputs": [
        {
          "internalType": "uint256",
          "name": "tokenId",
          "type": "uint256"
        }
      ],
      "name": "burn",
      "outputs": [],
      "stateMutability": "nonpayable",
      "type": "function"
    },
    {
      "inputs": [],
      "name": "checkForUsersNFTs",
      "outputs": [
        {
          "internalType": "string[]",
          "name": "yoCardsInGame",
          "type": "string[]"
        }
      ],
      "stateMutability": "view",
      "type": "function"
    },
    {
      "inputs": [
        {
          "internalType": "uint256",
          "name": "tokenId",
          "type": "uint256"
        }
      ],
      "name": "checkRedemptionStatus",
      "outputs": [
        {
          "internalType": "uint256",
          "name": "",
          "type": "uint256"
        }
      ],
      "stateMutability": "view",
      "type": "function"
    },
    {
      "inputs": [
        {
          "internalType": "uint256",
          "name": "tokenId",
          "type": "uint256"
        }
      ],
      "name": "getApproved",
      "outputs": [
        {
          "internalType": "address",
          "name": "",
          "type": "address"
        }
      ],
      "stateMutability": "view",
      "type": "function"
    },
    {
      "inputs": [
        {
          "internalType": "address",
          "name": "owner",
          "type": "address"
        },
        {
          "internalType": "address",
          "name": "operator",
          "type": "address"
        }
      ],
      "name": "isApprovedForAll",
      "outputs": [
        {
          "internalType": "bool",
          "name": "",
          "type": "bool"
        }
      ],
      "stateMutability": "view",
      "type": "function"
    },
    {
      "inputs": [],
      "name": "name",
      "outputs": [
        {
          "internalType": "string",
          "name": "",
          "type": "string"
        }
      ],
      "stateMutability": "view",
      "type": "function"
    },
    {
      "inputs": [
        {
          "internalType": "uint256",
          "name": "",
          "type": "uint256"
        }
      ],
      "name": "nftHolderAttributes",
      "outputs": [
        {
          "internalType": "string",
          "name": "name",
          "type": "string"
        },
        {
          "internalType": "string",
          "name": "imageURI",
          "type": "string"
        },
        {
          "internalType": "uint256",
          "name": "percievedLoudness",
          "type": "uint256"
        },
        {
          "internalType": "uint256",
          "name": "tailLength",
          "type": "uint256"
        },
        {
          "internalType": "uint256",
          "name": "bodyLength",
          "type": "uint256"
        },
        {
          "internalType": "uint256",
          "name": "dynamicRange",
          "type": "uint256"
        },
        {
          "internalType": "uint256",
          "name": "duration",
          "type": "uint256"
        },
        {
          "internalType": "uint256",
          "name": "redeemed",
          "type": "uint256"
        }
      ],
      "stateMutability": "view",
      "type": "function"
    },
    {
      "inputs": [
        {
          "internalType": "address",
          "name": "",
          "type": "address"
        },
        {
          "internalType": "uint256",
          "name": "",
          "type": "uint256"
        }
      ],
      "name": "nftHolders",
      "outputs": [
        {
          "internalType": "uint256",
          "name": "",
          "type": "uint256"
        }
      ],
      "stateMutability": "view",
      "type": "function"
    },
    {
      "inputs": [
        {
          "internalType": "uint256",
          "name": "tokenId",
          "type": "uint256"
        }
      ],
      "name": "ownerOf",
      "outputs": [
        {
          "internalType": "address",
          "name": "",
          "type": "address"
        }
      ],
      "stateMutability": "view",
      "type": "function"
    },
    {
      "inputs": [
        {
          "internalType": "string",
          "name": "_name",
          "type": "string"
        },
        {
          "internalType": "string",
          "name": "_imageURI",
          "type": "string"
        },
        {
          "internalType": "uint256",
          "name": "_percievedLoudness",
          "type": "uint256"
        },
        {
          "internalType": "uint256",
          "name": "_tailLength",
          "type": "uint256"
        },
        {
          "internalType": "uint256",
          "name": "_bodyLength",
          "type": "uint256"
        },
        {
          "internalType": "uint256",
          "name": "_dynamicRange",
          "type": "uint256"
        },
        {
          "internalType": "uint256",
          "name": "_duration",
          "type": "uint256"
        },
        {
          "internalType": "uint256",
          "name": "_redeemed",
          "type": "uint256"
        }
      ],
      "name": "safeMint",
      "outputs": [],
      "stateMutability": "nonpayable",
      "type": "function"
    },
    {
      "inputs": [
        {
          "internalType": "address",
          "name": "from",
          "type": "address"
        },
        {
          "internalType": "address",
          "name": "to",
          "type": "address"
        },
        {
          "internalType": "uint256",
          "name": "tokenId",
          "type": "uint256"
        }
      ],
      "name": "safeTransferFrom",
      "outputs": [],
      "stateMutability": "nonpayable",
      "type": "function"
    },
    {
      "inputs": [
        {
          "internalType": "address",
          "name": "from",
          "type": "address"
        },
        {
          "internalType": "address",
          "name": "to",
          "type": "address"
        },
        {
          "internalType": "uint256",
          "name": "tokenId",
          "type": "uint256"
        },
        {
          "internalType": "bytes",
          "name": "data",
          "type": "bytes"
        }
      ],
      "name": "safeTransferFrom",
      "outputs": [],
      "stateMutability": "nonpayable",
      "type": "function"
    },
    {
      "inputs": [
        {
          "internalType": "address",
          "name": "operator",
          "type": "address"
        },
        {
          "internalType": "bool",
          "name": "approved",
          "type": "bool"
        }
      ],
      "name": "setApprovalForAll",
      "outputs": [],
      "stateMutability": "nonpayable",
      "type": "function"
    },
    {
      "inputs": [
        {
          "internalType": "bytes4",
          "name": "interfaceId",
          "type": "bytes4"
        }
      ],
      "name": "supportsInterface",
      "outputs": [
        {
          "internalType": "bool",
          "name": "",
          "type": "bool"
        }
      ],
      "stateMutability": "view",
      "type": "function"
    },
    {
      "inputs": [
        {
          "internalType": "uint256",
          "name": "tokenId",
          "type": "uint256"
        }
      ],
      "name": "switchRedeemed",
      "outputs": [],
      "stateMutability": "nonpayable",
      "type": "function"
    },
    {
      "inputs": [],
      "name": "symbol",
      "outputs": [
        {
          "internalType": "string",
          "name": "",
          "type": "string"
        }
      ],
      "stateMutability": "view",
      "type": "function"
    },
    {
      "inputs": [
        {
          "internalType": "uint256",
          "name": "_tokenId",
          "type": "uint256"
        }
      ],
      "name": "tokenURI",
      "outputs": [
        {
          "internalType": "string",
          "name": "",
          "type": "string"
        }
      ],
      "stateMutability": "view",
      "type": "function"
    },
    {
      "inputs": [
        {
          "internalType": "address",
          "name": "from",
          "type": "address"
        },
        {
          "internalType": "address",
          "name": "to",
          "type": "address"
        },
        {
          "internalType": "uint256",
          "name": "tokenId",
          "type": "uint256"
        }
      ],
      "name": "transferFrom",
      "outputs": [],
      "stateMutability": "nonpayable",
      "type": "function"
    },
    {
      "inputs": [
        {
          "internalType": "address",
          "name": "",
          "type": "address"
        },
        {
          "internalType": "uint256",
          "name": "",
          "type": "uint256"
        }
      ],
      "name": "yourCardsInGameMapping",
      "outputs": [
        {
          "internalType": "string",
          "name": "",
          "type": "string"
        }
      ],
      "stateMutability": "view",
      "type": "function"
    }
  ],
  "bytecode": "0x60806040523480156200001157600080fd5b506040518060400160405280600781526020017f4d79546f6b656e000000000000000000000000000000000000000000000000008152506040518060400160405280600381526020017f4d544b000000000000000000000000000000000000000000000000000000000081525081600090816200008f919062000351565b508060019081620000a1919062000351565b505050620000bb6006620000c160201b620015311760201c565b62000438565b6001816000016000828254019250508190555050565b600081519050919050565b7f4e487b7100000000000000000000000000000000000000000000000000000000600052604160045260246000fd5b7f4e487b7100000000000000000000000000000000000000000000000000000000600052602260045260246000fd5b600060028204905060018216806200015957607f821691505b6020821081036200016f576200016e62000111565b5b50919050565b60008190508160005260206000209050919050565b60006020601f8301049050919050565b600082821b905092915050565b600060088302620001d97fffffffffffffffffffffffffffffffffffffffffffffffffffffffffffffffff826200019a565b620001e586836200019a565b95508019841693508086168417925050509392505050565b6000819050919050565b6000819050919050565b6000620002326200022c6200022684620001fd565b62000207565b620001fd565b9050919050565b6000819050919050565b6200024e8362000211565b620002666200025d8262000239565b848454620001a7565b825550505050565b600090565b6200027d6200026e565b6200028a81848462000243565b505050565b5b81811015620002b257620002a660008262000273565b60018101905062000290565b5050565b601f8211156200030157620002cb8162000175565b620002d6846200018a565b81016020851015620002e6578190505b620002fe620002f5856200018a565b8301826200028f565b50505b505050565b600082821c905092915050565b6000620003266000198460080262000306565b1980831691505092915050565b600062000341838362000313565b9150826002028217905092915050565b6200035c82620000d7565b67ffffffffffffffff811115620003785762000377620000e2565b5b62000384825462000140565b62000391828285620002b6565b600060209050601f831160018114620003c95760008415620003b4578287015190505b620003c0858262000333565b86555062000430565b601f198416620003d98662000175565b60005b828110156200040357848901518255600182019150602085019450602081019050620003dc565b868310156200042357848901516200041f601f89168262000313565b8355505b6001600288020188555050505b505050505050565b61441880620004486000396000f3fe608060405234801561001057600080fd5b50600436106101375760003560e01c806352a0a661116100b857806398da4c951161007c57806398da4c9514610370578063a22cb465146103a7578063b88d4fde146103c3578063c87b56dd146103df578063cf1ac6e51461040f578063e985e9c51461042d57610137565b806352a0a661146102a65780636352211e146102c257806370a08231146102f2578063775bb50e1461032257806395d89b411461035257610137565b806321d8f773116100ff57806321d8f773146101f257806323b872dd146102225780633f3a1c7a1461023e57806342842e0e1461026e57806342966c681461028a57610137565b806301ffc9a71461013c57806306fdde031461016c578063081812fc1461018a578063095ea7b3146101ba57806309e13835146101d6575b600080fd5b61015660048036038101906101519190612845565b61045d565b604051610163919061288d565b60405180910390f35b61017461053f565b6040516101819190612938565b60405180910390f35b6101a4600480360381019061019f9190612990565b6105d1565b6040516101b191906129fe565b60405180910390f35b6101d460048036038101906101cf9190612a45565b610617565b005b6101f060048036038101906101eb9190612bba565b61072e565b005b61020c60048036038101906102079190612990565b6109ef565b6040516102199190612cb7565b60405180910390f35b61023c60048036038101906102379190612cd2565b610b80565b005b61025860048036038101906102539190612a45565b610be0565b6040516102659190612938565b60405180910390f35b61028860048036038101906102839190612cd2565b610c99565b005b6102a4600480360381019061029f9190612990565b610cb9565b005b6102c060048036038101906102bb9190612990565b610d15565b005b6102dc60048036038101906102d79190612990565b610d3a565b6040516102e991906129fe565b60405180910390f35b61030c60048036038101906103079190612d25565b610dc0565b6040516103199190612cb7565b60405180910390f35b61033c60048036038101906103379190612a45565b610e77565b6040516103499190612cb7565b60405180910390f35b61035a610ea8565b6040516103679190612938565b60405180910390f35b61038a60048036038101906103859190612990565b610f3a565b60405161039e989796959493929190612d52565b60405180910390f35b6103c160048036038101906103bc9190612e0a565b611092565b005b6103dd60048036038101906103d89190612eeb565b6110a8565b005b6103f960048036038101906103f49190612990565b61110a565b6040516104069190612938565b60405180910390f35b610417611387565b604051610424919061307a565b60405180910390f35b6104476004803603810190610442919061309c565b61149d565b604051610454919061288d565b60405180910390f35b60007f80ac58cd000000000000000000000000000000000000000000000000000000007bffffffffffffffffffffffffffffffffffffffffffffffffffffffff1916827bffffffffffffffffffffffffffffffffffffffffffffffffffffffff1916148061052857507f5b5e139f000000000000000000000000000000000000000000000000000000007bffffffffffffffffffffffffffffffffffffffffffffffffffffffff1916827bffffffffffffffffffffffffffffffffffffffffffffffffffffffff1916145b80610538575061053782611547565b5b9050919050565b60606000805461054e9061310b565b80601f016020809104026020016040519081016040528092919081815260200182805461057a9061310b565b80156105c75780601f1061059c576101008083540402835291602001916105c7565b820191906000526020600020905b8154815290600101906020018083116105aa57829003601f168201915b5050505050905090565b60006105dc826115b1565b6004600083815260200190815260200160002060009054906101000a900473ffffffffffffffffffffffffffffffffffffffff169050919050565b600061062282610d3a565b90508073ffffffffffffffffffffffffffffffffffffffff168373ffffffffffffffffffffffffffffffffffffffff1603610692576040517f08c379a0000000000000000000000000000000000000000000000000000000008152600401610689906131ae565b60405180910390fd5b8073ffffffffffffffffffffffffffffffffffffffff166106b16115fc565b73ffffffffffffffffffffffffffffffffffffffff1614806106e057506106df816106da6115fc565b61149d565b5b61071f576040517f08c379a000000000000000000000000000000000000000000000000000000000815260040161071690613240565b60405180910390fd5b6107298383611604565b505050565b600061073a60066116bd565b905061074633826116cb565b600760003373ffffffffffffffffffffffffffffffffffffffff1673ffffffffffffffffffffffffffffffffffffffff1681526020019081526020016000208190806001815401808255809150506001900390600052602060002001600090919091909150556040518061010001604052808a81526020018981526020018881526020018781526020018681526020018581526020018481526020018381525060086000838152602001908152602001600020600082015181600001908161080e919061340c565b506020820151816001019081610824919061340c565b5060408201518160020155606082015181600301556080820151816004015560a0820151816005015560c0820151816006015560e08201518160070155905050600a60003373ffffffffffffffffffffffffffffffffffffffff1673ffffffffffffffffffffffffffffffffffffffff168152602001908152602001600020889080600181540180825580915050600190039060005260206000200160009091909190915090816108d5919061340c565b506108f96040518060600160405280602e81526020016143b5602e9139828b6116e9565b60096008600083815260200190815260200160002090806001815401808255809150506001900390600052602060002090600802016000909190919091506000820181600001908161094b91906134f4565b506001820181600101908161096091906134f4565b5060028201548160020155600382015481600301556004820154816004015560058201548160050155600682015481600601556007820154816007015550507f5788c7306c84c84150f42f0489236f2cc7d2a76252025a2a0f136acb4c25ca6933828a6040516109d2939291906135dc565b60405180910390a16109e46006611531565b505050505050505050565b6000806008600084815260200190815260200160002060405180610100016040529081600082018054610a219061310b565b80601f0160208091040260200160405190810160405280929190818152602001828054610a4d9061310b565b8015610a9a5780601f10610a6f57610100808354040283529160200191610a9a565b820191906000526020600020905b815481529060010190602001808311610a7d57829003601f168201915b50505050508152602001600182018054610ab39061310b565b80601f0160208091040260200160405190810160405280929190818152602001828054610adf9061310b565b8015610b2c5780601f10610b0157610100808354040283529160200191610b2c565b820191906000526020600020905b815481529060010190602001808311610b0f57829003601f168201915b50505050508152602001600282015481526020016003820154815260200160048201548152602001600582015481526020016006820154815260200160078201548152505090508060e00151915050919050565b610b91610b8b6115fc565b82611788565b610bd0576040517f08c379a0000000000000000000000000000000000000000000000000000000008152600401610bc79061368c565b60405180910390fd5b610bdb83838361181d565b505050565b600a6020528160005260406000208181548110610bfc57600080fd5b90600052602060002001600091509150508054610c189061310b565b80601f0160208091040260200160405190810160405280929190818152602001828054610c449061310b565b8015610c915780601f10610c6657610100808354040283529160200191610c91565b820191906000526020600020905b815481529060010190602001808311610c7457829003601f168201915b505050505081565b610cb4838383604051806020016040528060008152506110a8565b505050565b610cca610cc46115fc565b82611788565b610d09576040517f08c379a0000000000000000000000000000000000000000000000000000000008152600401610d009061368c565b60405180910390fd5b610d1281611b16565b50565b6000600860008381526020019081526020016000209050600181600701819055505050565b600080610d4683611c64565b9050600073ffffffffffffffffffffffffffffffffffffffff168173ffffffffffffffffffffffffffffffffffffffff1603610db7576040517f08c379a0000000000000000000000000000000000000000000000000000000008152600401610dae906136f8565b60405180910390fd5b80915050919050565b60008073ffffffffffffffffffffffffffffffffffffffff168273ffffffffffffffffffffffffffffffffffffffff1603610e30576040517f08c379a0000000000000000000000000000000000000000000000000000000008152600401610e279061378a565b60405180910390fd5b600360008373ffffffffffffffffffffffffffffffffffffffff1673ffffffffffffffffffffffffffffffffffffffff168152602001908152602001600020549050919050565b60076020528160005260406000208181548110610e9357600080fd5b90600052602060002001600091509150505481565b606060018054610eb79061310b565b80601f0160208091040260200160405190810160405280929190818152602001828054610ee39061310b565b8015610f305780601f10610f0557610100808354040283529160200191610f30565b820191906000526020600020905b815481529060010190602001808311610f1357829003601f168201915b5050505050905090565b6008602052806000526040600020600091509050806000018054610f5d9061310b565b80601f0160208091040260200160405190810160405280929190818152602001828054610f899061310b565b8015610fd65780601f10610fab57610100808354040283529160200191610fd6565b820191906000526020600020905b815481529060010190602001808311610fb957829003601f168201915b505050505090806001018054610feb9061310b565b80601f01602080910402602001604051908101604052809291908181526020018280546110179061310b565b80156110645780601f1061103957610100808354040283529160200191611064565b820191906000526020600020905b81548152906001019060200180831161104757829003601f168201915b5050505050908060020154908060030154908060040154908060050154908060060154908060070154905088565b6110a461109d6115fc565b8383611ca1565b5050565b6110b96110b36115fc565b83611788565b6110f8576040517f08c379a00000000000000000000000000000000000000000000000000000000081526004016110ef9061368c565b60405180910390fd5b61110484848484611e0d565b50505050565b60606000600860008481526020019081526020016000206040518061010001604052908160008201805461113d9061310b565b80601f01602080910402602001604051908101604052809291908181526020018280546111699061310b565b80156111b65780601f1061118b576101008083540402835291602001916111b6565b820191906000526020600020905b81548152906001019060200180831161119957829003601f168201915b505050505081526020016001820180546111cf9061310b565b80601f01602080910402602001604051908101604052809291908181526020018280546111fb9061310b565b80156112485780601f1061121d57610100808354040283529160200191611248565b820191906000526020600020905b81548152906001019060200180831161122b57829003601f168201915b5050505050815260200160028201548152602001600382015481526020016004820154815260200160058201548152602001600682015481526020016007820154815250509050600061129e8260400151611e69565b905060006112af8360600151611e69565b905060006112c08460800151611e69565b905060006112d18560c00151611e69565b905060006112e28660a00151611e69565b905060006112f38760e00151611e69565b905060006113016001611e69565b9050600061134f89600001516113168d611e69565b8b602001518b87878d8d8c8e60405160200161133b9a99989796959493929190613ca6565b604051602081830303815290604052611f37565b90506000816040516020016113649190613df7565b6040516020818303038152906040529050809a5050505050505050505050919050565b6060600a60003373ffffffffffffffffffffffffffffffffffffffff1673ffffffffffffffffffffffffffffffffffffffff168152602001908152602001600020805480602002602001604051908101604052809291908181526020016000905b828210156114945783829060005260206000200180546114079061310b565b80601f01602080910402602001604051908101604052809291908181526020018280546114339061310b565b80156114805780601f1061145557610100808354040283529160200191611480565b820191906000526020600020905b81548152906001019060200180831161146357829003601f168201915b5050505050815260200190600101906113e8565b50505050905090565b6000600560008473ffffffffffffffffffffffffffffffffffffffff1673ffffffffffffffffffffffffffffffffffffffff16815260200190815260200160002060008373ffffffffffffffffffffffffffffffffffffffff1673ffffffffffffffffffffffffffffffffffffffff16815260200190815260200160002060009054906101000a900460ff16905092915050565b6001816000016000828254019250508190555050565b60007f01ffc9a7000000000000000000000000000000000000000000000000000000007bffffffffffffffffffffffffffffffffffffffffffffffffffffffff1916827bffffffffffffffffffffffffffffffffffffffffffffffffffffffff1916149050919050565b6115ba816120ce565b6115f9576040517f08c379a00000000000000000000000000000000000000000000000000000000081526004016115f0906136f8565b60405180910390fd5b50565b600033905090565b816004600083815260200190815260200160002060006101000a81548173ffffffffffffffffffffffffffffffffffffffff021916908373ffffffffffffffffffffffffffffffffffffffff160217905550808273ffffffffffffffffffffffffffffffffffffffff1661167783610d3a565b73ffffffffffffffffffffffffffffffffffffffff167f8c5be1e5ebec7d5bd14f71427d1e84f3dd0314c0f7b2291e5b200ac8c7c3b92560405160405180910390a45050565b600081600001549050919050565b6116e582826040518060200160405280600081525061210f565b5050565b61178383838360405160240161170193929190613e19565b6040516020818303038152906040527f5970e089000000000000000000000000000000000000000000000000000000007bffffffffffffffffffffffffffffffffffffffffffffffffffffffff19166020820180517bffffffffffffffffffffffffffffffffffffffffffffffffffffffff838183161783525050505061216a565b505050565b60008061179483610d3a565b90508073ffffffffffffffffffffffffffffffffffffffff168473ffffffffffffffffffffffffffffffffffffffff1614806117d657506117d5818561149d565b5b8061181457508373ffffffffffffffffffffffffffffffffffffffff166117fc846105d1565b73ffffffffffffffffffffffffffffffffffffffff16145b91505092915050565b8273ffffffffffffffffffffffffffffffffffffffff1661183d82610d3a565b73ffffffffffffffffffffffffffffffffffffffff1614611893576040517f08c379a000000000000000000000000000000000000000000000000000000000815260040161188a90613ed0565b60405180910390fd5b600073ffffffffffffffffffffffffffffffffffffffff168273ffffffffffffffffffffffffffffffffffffffff1603611902576040517f08c379a00000000000000000000000000000000000000000000000000000000081526004016118f990613f62565b60405180910390fd5b61190f8383836001612193565b8273ffffffffffffffffffffffffffffffffffffffff1661192f82610d3a565b73ffffffffffffffffffffffffffffffffffffffff1614611985576040517f08c379a000000000000000000000000000000000000000000000000000000000815260040161197c90613ed0565b60405180910390fd5b6004600082815260200190815260200160002060006101000a81549073ffffffffffffffffffffffffffffffffffffffff02191690556001600360008573ffffffffffffffffffffffffffffffffffffffff1673ffffffffffffffffffffffffffffffffffffffff168152602001908152602001600020600082825403925050819055506001600360008473ffffffffffffffffffffffffffffffffffffffff1673ffffffffffffffffffffffffffffffffffffffff16815260200190815260200160002060008282540192505081905550816002600083815260200190815260200160002060006101000a81548173ffffffffffffffffffffffffffffffffffffffff021916908373ffffffffffffffffffffffffffffffffffffffff160217905550808273ffffffffffffffffffffffffffffffffffffffff168473ffffffffffffffffffffffffffffffffffffffff167fddf252ad1be2c89b69c2b068fc378daa952ba7f163c4a11628f55a4df523b3ef60405160405180910390a4611b1183838360016122b9565b505050565b6000611b2182610d3a565b9050611b31816000846001612193565b611b3a82610d3a565b90506004600083815260200190815260200160002060006101000a81549073ffffffffffffffffffffffffffffffffffffffff02191690556001600360008373ffffffffffffffffffffffffffffffffffffffff1673ffffffffffffffffffffffffffffffffffffffff168152602001908152602001600020600082825403925050819055506002600083815260200190815260200160002060006101000a81549073ffffffffffffffffffffffffffffffffffffffff021916905581600073ffffffffffffffffffffffffffffffffffffffff168273ffffffffffffffffffffffffffffffffffffffff167fddf252ad1be2c89b69c2b068fc378daa952ba7f163c4a11628f55a4df523b3ef60405160405180910390a4611c608160008460016122b9565b5050565b60006002600083815260200190815260200160002060009054906101000a900473ffffffffffffffffffffffffffffffffffffffff169050919050565b8173ffffffffffffffffffffffffffffffffffffffff168373ffffffffffffffffffffffffffffffffffffffff1603611d0f576040517f08c379a0000000000000000000000000000000000000000000000000000000008152600401611d0690613fce565b60405180910390fd5b80600560008573ffffffffffffffffffffffffffffffffffffffff1673ffffffffffffffffffffffffffffffffffffffff16815260200190815260200160002060008473ffffffffffffffffffffffffffffffffffffffff1673ffffffffffffffffffffffffffffffffffffffff16815260200190815260200160002060006101000a81548160ff0219169083151502179055508173ffffffffffffffffffffffffffffffffffffffff168373ffffffffffffffffffffffffffffffffffffffff167f17307eab39ab6107e8899845ad3d59bd9653f200f220920489ca2b5937696c3183604051611e00919061288d565b60405180910390a3505050565b611e1884848461181d565b611e24848484846122bf565b611e63576040517f08c379a0000000000000000000000000000000000000000000000000000000008152600401611e5a90614060565b60405180910390fd5b50505050565b606060006001611e7884612446565b01905060008167ffffffffffffffff811115611e9757611e96612a8f565b5b6040519080825280601f01601f191660200182016040528015611ec95781602001600182028036833780820191505090505b509050600082602001820190505b600115611f2c578080600190039150507f3031323334353637383961626364656600000000000000000000000000000000600a86061a8153600a8581611f2057611f1f614080565b5b04945060008503611ed7575b819350505050919050565b606060008251905060008103611f5f57604051806020016040528060008152509150506120c9565b60006003600283611f7091906140de565b611f7a9190614112565b6004611f869190614143565b90506000602082611f9791906140de565b67ffffffffffffffff811115611fb057611faf612a8f565b5b6040519080825280601f01601f191660200182016040528015611fe25781602001600182028036833780820191505090505b5090506000604051806060016040528060408152602001614375604091399050600181016020830160005b868110156120865760038101905062ffffff818a015116603f8160121c168401518060081b905060ff603f83600c1c1686015116810190508060081b905060ff603f8360061c1686015116810190508060081b905060ff603f831686015116810190508060e01b9050808452600484019350505061200d565b5060038606600181146120a057600281146120b0576120bb565b613d3d60f01b60028303526120bb565b603d60f81b60018303525b508484525050819450505050505b919050565b60008073ffffffffffffffffffffffffffffffffffffffff166120f083611c64565b73ffffffffffffffffffffffffffffffffffffffff1614159050919050565b6121198383612599565b61212660008484846122bf565b612165576040517f08c379a000000000000000000000000000000000000000000000000000000000815260040161215c90614060565b60405180910390fd5b505050565b60008151905060006a636f6e736f6c652e6c6f679050602083016000808483855afa5050505050565b60018111156122b357600073ffffffffffffffffffffffffffffffffffffffff168473ffffffffffffffffffffffffffffffffffffffff16146122275780600360008673ffffffffffffffffffffffffffffffffffffffff1673ffffffffffffffffffffffffffffffffffffffff168152602001908152602001600020600082825461221f9190614185565b925050819055505b600073ffffffffffffffffffffffffffffffffffffffff168373ffffffffffffffffffffffffffffffffffffffff16146122b25780600360008573ffffffffffffffffffffffffffffffffffffffff1673ffffffffffffffffffffffffffffffffffffffff16815260200190815260200160002060008282546122aa91906140de565b925050819055505b5b50505050565b50505050565b60006122e08473ffffffffffffffffffffffffffffffffffffffff166127b6565b15612439578373ffffffffffffffffffffffffffffffffffffffff1663150b7a026123096115fc565b8786866040518563ffffffff1660e01b815260040161232b949392919061420e565b6020604051808303816000875af192505050801561236757506040513d601f19601f82011682018060405250810190612364919061426f565b60015b6123e9573d8060008114612397576040519150601f19603f3d011682016040523d82523d6000602084013e61239c565b606091505b5060008151036123e1576040517f08c379a00000000000000000000000000000000000000000000000000000000081526004016123d890614060565b60405180910390fd5b805181602001fd5b63150b7a0260e01b7bffffffffffffffffffffffffffffffffffffffffffffffffffffffff1916817bffffffffffffffffffffffffffffffffffffffffffffffffffffffff19161491505061243e565b600190505b949350505050565b600080600090507a184f03e93ff9f4daa797ed6e38ed64bf6a1f01000000000000000083106124a4577a184f03e93ff9f4daa797ed6e38ed64bf6a1f010000000000000000838161249a57612499614080565b5b0492506040810190505b6d04ee2d6d415b85acef810000000083106124e1576d04ee2d6d415b85acef810000000083816124d7576124d6614080565b5b0492506020810190505b662386f26fc10000831061251057662386f26fc10000838161250657612505614080565b5b0492506010810190505b6305f5e1008310612539576305f5e100838161252f5761252e614080565b5b0492506008810190505b612710831061255e57612710838161255457612553614080565b5b0492506004810190505b60648310612581576064838161257757612576614080565b5b0492506002810190505b600a8310612590576001810190505b80915050919050565b600073ffffffffffffffffffffffffffffffffffffffff168273ffffffffffffffffffffffffffffffffffffffff1603612608576040517f08c379a00000000000000000000000000000000000000000000000000000000081526004016125ff906142e8565b60405180910390fd5b612611816120ce565b15612651576040517f08c379a000000000000000000000000000000000000000000000000000000000815260040161264890614354565b60405180910390fd5b61265f600083836001612193565b612668816120ce565b156126a8576040517f08c379a000000000000000000000000000000000000000000000000000000000815260040161269f90614354565b60405180910390fd5b6001600360008473ffffffffffffffffffffffffffffffffffffffff1673ffffffffffffffffffffffffffffffffffffffff16815260200190815260200160002060008282540192505081905550816002600083815260200190815260200160002060006101000a81548173ffffffffffffffffffffffffffffffffffffffff021916908373ffffffffffffffffffffffffffffffffffffffff160217905550808273ffffffffffffffffffffffffffffffffffffffff16600073ffffffffffffffffffffffffffffffffffffffff167fddf252ad1be2c89b69c2b068fc378daa952ba7f163c4a11628f55a4df523b3ef60405160405180910390a46127b26000838360016122b9565b5050565b6000808273ffffffffffffffffffffffffffffffffffffffff163b119050919050565b6000604051905090565b600080fd5b600080fd5b60007fffffffff0000000000000000000000000000000000000000000000000000000082169050919050565b612822816127ed565b811461282d57600080fd5b50565b60008135905061283f81612819565b92915050565b60006020828403121561285b5761285a6127e3565b5b600061286984828501612830565b91505092915050565b60008115159050919050565b61288781612872565b82525050565b60006020820190506128a2600083018461287e565b92915050565b600081519050919050565b600082825260208201905092915050565b60005b838110156128e25780820151818401526020810190506128c7565b60008484015250505050565b6000601f19601f8301169050919050565b600061290a826128a8565b61291481856128b3565b93506129248185602086016128c4565b61292d816128ee565b840191505092915050565b6000602082019050818103600083015261295281846128ff565b905092915050565b6000819050919050565b61296d8161295a565b811461297857600080fd5b50565b60008135905061298a81612964565b92915050565b6000602082840312156129a6576129a56127e3565b5b60006129b48482850161297b565b91505092915050565b600073ffffffffffffffffffffffffffffffffffffffff82169050919050565b60006129e8826129bd565b9050919050565b6129f8816129dd565b82525050565b6000602082019050612a1360008301846129ef565b92915050565b612a22816129dd565b8114612a2d57600080fd5b50565b600081359050612a3f81612a19565b92915050565b60008060408385031215612a5c57612a5b6127e3565b5b6000612a6a85828601612a30565b9250506020612a7b8582860161297b565b9150509250929050565b600080fd5b600080fd5b7f4e487b7100000000000000000000000000000000000000000000000000000000600052604160045260246000fd5b612ac7826128ee565b810181811067ffffffffffffffff82111715612ae657612ae5612a8f565b5b80604052505050565b6000612af96127d9565b9050612b058282612abe565b919050565b600067ffffffffffffffff821115612b2557612b24612a8f565b5b612b2e826128ee565b9050602081019050919050565b82818337600083830152505050565b6000612b5d612b5884612b0a565b612aef565b905082815260208101848484011115612b7957612b78612a8a565b5b612b84848285612b3b565b509392505050565b600082601f830112612ba157612ba0612a85565b5b8135612bb1848260208601612b4a565b91505092915050565b600080600080600080600080610100898b031215612bdb57612bda6127e3565b5b600089013567ffffffffffffffff811115612bf957612bf86127e8565b5b612c058b828c01612b8c565b985050602089013567ffffffffffffffff811115612c2657612c256127e8565b5b612c328b828c01612b8c565b9750506040612c438b828c0161297b565b9650506060612c548b828c0161297b565b9550506080612c658b828c0161297b565b94505060a0612c768b828c0161297b565b93505060c0612c878b828c0161297b565b92505060e0612c988b828c0161297b565b9150509295985092959890939650565b612cb18161295a565b82525050565b6000602082019050612ccc6000830184612ca8565b92915050565b600080600060608486031215612ceb57612cea6127e3565b5b6000612cf986828701612a30565b9350506020612d0a86828701612a30565b9250506040612d1b8682870161297b565b9150509250925092565b600060208284031215612d3b57612d3a6127e3565b5b6000612d4984828501612a30565b91505092915050565b6000610100820190508181036000830152612d6d818b6128ff565b90508181036020830152612d81818a6128ff565b9050612d906040830189612ca8565b612d9d6060830188612ca8565b612daa6080830187612ca8565b612db760a0830186612ca8565b612dc460c0830185612ca8565b612dd160e0830184612ca8565b9998505050505050505050565b612de781612872565b8114612df257600080fd5b50565b600081359050612e0481612dde565b92915050565b60008060408385031215612e2157612e206127e3565b5b6000612e2f85828601612a30565b9250506020612e4085828601612df5565b9150509250929050565b600067ffffffffffffffff821115612e6557612e64612a8f565b5b612e6e826128ee565b9050602081019050919050565b6000612e8e612e8984612e4a565b612aef565b905082815260208101848484011115612eaa57612ea9612a8a565b5b612eb5848285612b3b565b509392505050565b600082601f830112612ed257612ed1612a85565b5b8135612ee2848260208601612e7b565b91505092915050565b60008060008060808587031215612f0557612f046127e3565b5b6000612f1387828801612a30565b9450506020612f2487828801612a30565b9350506040612f358782880161297b565b925050606085013567ffffffffffffffff811115612f5657612f556127e8565b5b612f6287828801612ebd565b91505092959194509250565b600081519050919050565b600082825260208201905092915050565b6000819050602082019050919050565b600082825260208201905092915050565b6000612fb6826128a8565b612fc08185612f9a565b9350612fd08185602086016128c4565b612fd9816128ee565b840191505092915050565b6000612ff08383612fab565b905092915050565b6000602082019050919050565b600061301082612f6e565b61301a8185612f79565b93508360208202850161302c85612f8a565b8060005b8581101561306857848403895281516130498582612fe4565b945061305483612ff8565b925060208a01995050600181019050613030565b50829750879550505050505092915050565b600060208201905081810360008301526130948184613005565b905092915050565b600080604083850312156130b3576130b26127e3565b5b60006130c185828601612a30565b92505060206130d285828601612a30565b9150509250929050565b7f4e487b7100000000000000000000000000000000000000000000000000000000600052602260045260246000fd5b6000600282049050600182168061312357607f821691505b602082108103613136576131356130dc565b5b50919050565b7f4552433732313a20617070726f76616c20746f2063757272656e74206f776e6560008201527f7200000000000000000000000000000000000000000000000000000000000000602082015250565b60006131986021836128b3565b91506131a38261313c565b604082019050919050565b600060208201905081810360008301526131c78161318b565b9050919050565b7f4552433732313a20617070726f76652063616c6c6572206973206e6f7420746f60008201527f6b656e206f776e6572206f7220617070726f76656420666f7220616c6c000000602082015250565b600061322a603d836128b3565b9150613235826131ce565b604082019050919050565b600060208201905081810360008301526132598161321d565b9050919050565b60008190508160005260206000209050919050565b60006020601f8301049050919050565b600082821b905092915050565b6000600883026132c27fffffffffffffffffffffffffffffffffffffffffffffffffffffffffffffffff82613285565b6132cc8683613285565b95508019841693508086168417925050509392505050565b6000819050919050565b60006133096133046132ff8461295a565b6132e4565b61295a565b9050919050565b6000819050919050565b613323836132ee565b61333761332f82613310565b848454613292565b825550505050565b600090565b61334c61333f565b61335781848461331a565b505050565b5b8181101561337b57613370600082613344565b60018101905061335d565b5050565b601f8211156133c05761339181613260565b61339a84613275565b810160208510156133a9578190505b6133bd6133b585613275565b83018261335c565b50505b505050565b600082821c905092915050565b60006133e3600019846008026133c5565b1980831691505092915050565b60006133fc83836133d2565b9150826002028217905092915050565b613415826128a8565b67ffffffffffffffff81111561342e5761342d612a8f565b5b613438825461310b565b61344382828561337f565b600060209050601f8311600181146134765760008415613464578287015190505b61346e85826133f0565b8655506134d6565b601f19841661348486613260565b60005b828110156134ac57848901518255600182019150602085019450602081019050613487565b868310156134c957848901516134c5601f8916826133d2565b8355505b6001600288020188555050505b505050505050565b6000815490506134ed8161310b565b9050919050565b8181036135025750506135da565b61350b826134de565b67ffffffffffffffff81111561352457613523612a8f565b5b61352e825461310b565b61353982828561337f565b6000601f8311600181146135685760008415613556578287015490505b61356085826133f0565b8655506135d3565b601f19841661357687613260565b965061358186613260565b60005b828110156135a957848901548255600182019150600185019450602081019050613584565b868310156135c657848901546135c2601f8916826133d2565b8355505b6001600288020188555050505b5050505050505b565b60006060820190506135f160008301866129ef565b6135fe6020830185612ca8565b818103604083015261361081846128ff565b9050949350505050565b7f4552433732313a2063616c6c6572206973206e6f7420746f6b656e206f776e6560008201527f72206f7220617070726f76656400000000000000000000000000000000000000602082015250565b6000613676602d836128b3565b91506136818261361a565b604082019050919050565b600060208201905081810360008301526136a581613669565b9050919050565b7f4552433732313a20696e76616c696420746f6b656e2049440000000000000000600082015250565b60006136e26018836128b3565b91506136ed826136ac565b602082019050919050565b60006020820190508181036000830152613711816136d5565b9050919050565b7f4552433732313a2061646472657373207a65726f206973206e6f74206120766160008201527f6c6964206f776e65720000000000000000000000000000000000000000000000602082015250565b60006137746029836128b3565b915061377f82613718565b604082019050919050565b600060208201905081810360008301526137a381613767565b9050919050565b600081905092915050565b7f7b226e616d65223a202200000000000000000000000000000000000000000000600082015250565b60006137eb600a836137aa565b91506137f6826137b5565b600a82019050919050565b600061380c826128a8565b61381681856137aa565b93506138268185602086016128c4565b80840191505092915050565b7f202d2d204e465420233a20000000000000000000000000000000000000000000600082015250565b6000613868600b836137aa565b915061387382613832565b600b82019050919050565b7f222c20226465736372697074696f6e223a20225468697320697320616e204e4660008201527f542074686174206c6574732070656f706c6520706c617920616e64207472616460208201527f6520666f72206120536f6e69632047616d6521222c2022696d616765223a202260408201527f697066733a2f2f00000000000000000000000000000000000000000000000000606082015250565b60006139266067836137aa565b91506139318261387e565b606782019050919050565b7f222c202261747472696275746573223a205b207b202274726169745f7479706560008201527f223a2022506572636965766564204c6f75646e657373222c202276616c75652260208201527f3a20000000000000000000000000000000000000000000000000000000000000604082015250565b60006139be6042836137aa565b91506139c98261393c565b604282019050919050565b7f7d2c7b202274726169745f74797065223a202252656465656d6564222c20227660008201527f616c7565223a2000000000000000000000000000000000000000000000000000602082015250565b6000613a306027836137aa565b9150613a3b826139d4565b602782019050919050565b7f2c20226d61785f76616c7565223a000000000000000000000000000000000000600082015250565b6000613a7c600e836137aa565b9150613a8782613a46565b600e82019050919050565b7f7d2c207b202274726169745f74797065223a20225461696c204c656e6774682260008201527f2c202276616c7565223a20000000000000000000000000000000000000000000602082015250565b6000613aee602b836137aa565b9150613af982613a92565b602b82019050919050565b7f7d2c207b202274726169745f74797065223a2022426f6479204c656e6774682260008201527f2c202276616c7565223a20000000000000000000000000000000000000000000602082015250565b6000613b60602b836137aa565b9150613b6b82613b04565b602b82019050919050565b7f7d2c207b202274726169745f74797065223a202244796e616d69632052616e6760008201527f65222c202276616c7565223a2000000000000000000000000000000000000000602082015250565b6000613bd2602d836137aa565b9150613bdd82613b76565b602d82019050919050565b7f7d2c20207b202274726169745f74797065223a20224475726174696f6e222c2060008201527f2276616c7565223a200000000000000000000000000000000000000000000000602082015250565b6000613c446029836137aa565b9150613c4f82613be8565b602982019050919050565b7f7d205d7d00000000000000000000000000000000000000000000000000000000600082015250565b6000613c906004836137aa565b9150613c9b82613c5a565b600482019050919050565b6000613cb1826137de565b9150613cbd828d613801565b9150613cc88261385b565b9150613cd4828c613801565b9150613cdf82613919565b9150613ceb828b613801565b9150613cf6826139b1565b9150613d02828a613801565b9150613d0d82613a23565b9150613d198289613801565b9150613d2482613a6f565b9150613d308288613801565b9150613d3b82613ae1565b9150613d478287613801565b9150613d5282613b53565b9150613d5e8286613801565b9150613d6982613bc5565b9150613d758285613801565b9150613d8082613c37565b9150613d8c8284613801565b9150613d9782613c83565b91508190509b9a5050505050505050505050565b7f646174613a6170706c69636174696f6e2f6a736f6e3b6261736536342c000000600082015250565b6000613de1601d836137aa565b9150613dec82613dab565b601d82019050919050565b6000613e0282613dd4565b9150613e0e8284613801565b915081905092915050565b60006060820190508181036000830152613e3381866128ff565b9050613e426020830185612ca8565b8181036040830152613e5481846128ff565b9050949350505050565b7f4552433732313a207472616e736665722066726f6d20696e636f72726563742060008201527f6f776e6572000000000000000000000000000000000000000000000000000000602082015250565b6000613eba6025836128b3565b9150613ec582613e5e565b604082019050919050565b60006020820190508181036000830152613ee981613ead565b9050919050565b7f4552433732313a207472616e7366657220746f20746865207a65726f2061646460008201527f7265737300000000000000000000000000000000000000000000000000000000602082015250565b6000613f4c6024836128b3565b9150613f5782613ef0565b604082019050919050565b60006020820190508181036000830152613f7b81613f3f565b9050919050565b7f4552433732313a20617070726f766520746f2063616c6c657200000000000000600082015250565b6000613fb86019836128b3565b9150613fc382613f82565b602082019050919050565b60006020820190508181036000830152613fe781613fab565b9050919050565b7f4552433732313a207472616e7366657220746f206e6f6e20455243373231526560008201527f63656976657220696d706c656d656e7465720000000000000000000000000000602082015250565b600061404a6032836128b3565b915061405582613fee565b604082019050919050565b600060208201905081810360008301526140798161403d565b9050919050565b7f4e487b7100000000000000000000000000000000000000000000000000000000600052601260045260246000fd5b7f4e487b7100000000000000000000000000000000000000000000000000000000600052601160045260246000fd5b60006140e98261295a565b91506140f48361295a565b925082820190508082111561410c5761410b6140af565b5b92915050565b600061411d8261295a565b91506141288361295a565b92508261413857614137614080565b5b828204905092915050565b600061414e8261295a565b91506141598361295a565b92508282026141678161295a565b9150828204841483151761417e5761417d6140af565b5b5092915050565b60006141908261295a565b915061419b8361295a565b92508282039050818111156141b3576141b26140af565b5b92915050565b600081519050919050565b600082825260208201905092915050565b60006141e0826141b9565b6141ea81856141c4565b93506141fa8185602086016128c4565b614203816128ee565b840191505092915050565b600060808201905061422360008301876129ef565b61423060208301866129ef565b61423d6040830185612ca8565b818103606083015261424f81846141d5565b905095945050505050565b60008151905061426981612819565b92915050565b600060208284031215614285576142846127e3565b5b60006142938482850161425a565b91505092915050565b7f4552433732313a206d696e7420746f20746865207a65726f2061646472657373600082015250565b60006142d26020836128b3565b91506142dd8261429c565b602082019050919050565b60006020820190508181036000830152614301816142c5565b9050919050565b7f4552433732313a20746f6b656e20616c7265616479206d696e74656400000000600082015250565b600061433e601c836128b3565b915061434982614308565b602082019050919050565b6000602082019050818103600083015261436d81614331565b905091905056fe4142434445464748494a4b4c4d4e4f505152535455565758595a6162636465666768696a6b6c6d6e6f707172737475767778797a303132333435363738392b2f4d696e746564204e465420772f20746f6b656e496420257320616e6420636861726163746572496e646578202573a2646970667358221220bb72dbb0bb678841e66615bac04f5e97ac2e851716d56801398c8594e02ab52364736f6c63430008110033",
  "linkReferences": {},
  "deployedLinkReferences": {}
}