{
    "_format": "hh-sol-artifact-1",
    "contractName": "MyNFT",
    "sourceName": "contracts/MyNFT.sol",
    "abi": [
        {
            "inputs": [],
            "stateMutability": "nonpayable",
            "type": "constructor"
        },
        {
            "anonymous": false,
            "inputs": [
                {
                    "indexed": true,
                    "internalType": "address",
                    "name": "owner",
                    "type": "address"
                },
                {
                    "indexed": true,
                    "internalType": "address",
                    "name": "approved",
                    "type": "address"
                },
                {
                    "indexed": true,
                    "internalType": "uint256",
                    "name": "tokenId",
                    "type": "uint256"
                }
            ],
            "name": "Approval",
            "type": "event"
        },
        {
            "anonymous": false,
            "inputs": [
                {
                    "indexed": true,
                    "internalType": "address",
                    "name": "owner",
                    "type": "address"
                },
                {
                    "indexed": true,
                    "internalType": "address",
                    "name": "operator",
                    "type": "address"
                },
                {
                    "indexed": false,
                    "internalType": "bool",
                    "name": "approved",
                    "type": "bool"
                }
            ],
            "name": "ApprovalForAll",
            "type": "event"
        },
        {
            "anonymous": false,
            "inputs": [
                {
                    "indexed": false,
                    "internalType": "address",
                    "name": "sender",
                    "type": "address"
                },
                {
                    "indexed": false,
                    "internalType": "uint256",
                    "name": "tokenId",
                    "type": "uint256"
                }
            ],
            "name": "MintReceipt",
            "type": "event"
        },
        {
            "anonymous": false,
            "inputs": [
                {
                    "indexed": true,
                    "internalType": "bytes32",
                    "name": "role",
                    "type": "bytes32"
                },
                {
                    "indexed": true,
                    "internalType": "bytes32",
                    "name": "previousAdminRole",
                    "type": "bytes32"
                },
                {
                    "indexed": true,
                    "internalType": "bytes32",
                    "name": "newAdminRole",
                    "type": "bytes32"
                }
            ],
            "name": "RoleAdminChanged",
            "type": "event"
        },
        {
            "anonymous": false,
            "inputs": [
                {
                    "indexed": true,
                    "internalType": "bytes32",
                    "name": "role",
                    "type": "bytes32"
                },
                {
                    "indexed": true,
                    "internalType": "address",
                    "name": "account",
                    "type": "address"
                },
                {
                    "indexed": true,
                    "internalType": "address",
                    "name": "sender",
                    "type": "address"
                }
            ],
            "name": "RoleGranted",
            "type": "event"
        },
        {
            "anonymous": false,
            "inputs": [
                {
                    "indexed": true,
                    "internalType": "bytes32",
                    "name": "role",
                    "type": "bytes32"
                },
                {
                    "indexed": true,
                    "internalType": "address",
                    "name": "account",
                    "type": "address"
                },
                {
                    "indexed": true,
                    "internalType": "address",
                    "name": "sender",
                    "type": "address"
                }
            ],
            "name": "RoleRevoked",
            "type": "event"
        },
        {
            "anonymous": false,
            "inputs": [
                {
                    "indexed": true,
                    "internalType": "address",
                    "name": "from",
                    "type": "address"
                },
                {
                    "indexed": true,
                    "internalType": "address",
                    "name": "to",
                    "type": "address"
                },
                {
                    "indexed": true,
                    "internalType": "uint256",
                    "name": "tokenId",
                    "type": "uint256"
                }
            ],
            "name": "Transfer",
            "type": "event"
        },
        {
            "inputs": [],
            "name": "DEFAULT_ADMIN_ROLE",
            "outputs": [
                {
                    "internalType": "bytes32",
                    "name": "",
                    "type": "bytes32"
                }
            ],
            "stateMutability": "view",
            "type": "function"
        },
        {
            "inputs": [],
            "name": "MINTER_ROLE",
            "outputs": [
                {
                    "internalType": "bytes32",
                    "name": "",
                    "type": "bytes32"
                }
            ],
            "stateMutability": "view",
            "type": "function"
        },
        {
            "inputs": [
                {
                    "internalType": "address",
                    "name": "to",
                    "type": "address"
                },
                {
                    "internalType": "uint256",
                    "name": "tokenId",
                    "type": "uint256"
                }
            ],
            "name": "approve",
            "outputs": [],
            "stateMutability": "nonpayable",
            "type": "function"
        },
        {
            "inputs": [
                {
                    "internalType": "address",
                    "name": "owner",
                    "type": "address"
                }
            ],
            "name": "balanceOf",
            "outputs": [
                {
                    "internalType": "uint256",
                    "name": "",
                    "type": "uint256"
                }
            ],
            "stateMutability": "view",
            "type": "function"
        },
        {
            "inputs": [
                {
                    "internalType": "uint256",
                    "name": "tokenId",
                    "type": "uint256"
                }
            ],
            "name": "burn",
            "outputs": [],
            "stateMutability": "nonpayable",
            "type": "function"
        },
        {
            "inputs": [
                {
                    "internalType": "uint256",
                    "name": "tokenId",
                    "type": "uint256"
                }
            ],
            "name": "getApproved",
            "outputs": [
                {
                    "internalType": "address",
                    "name": "",
                    "type": "address"
                }
            ],
            "stateMutability": "view",
            "type": "function"
        },
        {
            "inputs": [
                {
                    "internalType": "bytes32",
                    "name": "role",
                    "type": "bytes32"
                }
            ],
            "name": "getRoleAdmin",
            "outputs": [
                {
                    "internalType": "bytes32",
                    "name": "",
                    "type": "bytes32"
                }
            ],
            "stateMutability": "view",
            "type": "function"
        },
        {
            "inputs": [
                {
                    "internalType": "bytes32",
                    "name": "role",
                    "type": "bytes32"
                },
                {
                    "internalType": "address",
                    "name": "account",
                    "type": "address"
                }
            ],
            "name": "grantRole",
            "outputs": [],
            "stateMutability": "nonpayable",
            "type": "function"
        },
        {
            "inputs": [
                {
                    "internalType": "bytes32",
                    "name": "role",
                    "type": "bytes32"
                },
                {
                    "internalType": "address",
                    "name": "account",
                    "type": "address"
                }
            ],
            "name": "hasRole",
            "outputs": [
                {
                    "internalType": "bool",
                    "name": "",
                    "type": "bool"
                }
            ],
            "stateMutability": "view",
            "type": "function"
        },
        {
            "inputs": [
                {
                    "internalType": "address",
                    "name": "owner",
                    "type": "address"
                },
                {
                    "internalType": "address",
                    "name": "operator",
                    "type": "address"
                }
            ],
            "name": "isApprovedForAll",
            "outputs": [
                {
                    "internalType": "bool",
                    "name": "",
                    "type": "bool"
                }
            ],
            "stateMutability": "view",
            "type": "function"
        },
        {
            "inputs": [],
            "name": "name",
            "outputs": [
                {
                    "internalType": "string",
                    "name": "",
                    "type": "string"
                }
            ],
            "stateMutability": "view",
            "type": "function"
        },
        {
            "inputs": [
                {
                    "internalType": "uint256",
                    "name": "",
                    "type": "uint256"
                }
            ],
            "name": "nftHolderAttributes",
            "outputs": [
                {
                    "internalType": "string",
                    "name": "name",
                    "type": "string"
                },
                {
                    "internalType": "string",
                    "name": "imageURI",
                    "type": "string"
                },
                {
                    "internalType": "uint256",
                    "name": "percievedLoudness",
                    "type": "uint256"
                },
                {
                    "internalType": "uint256",
                    "name": "tailLength",
                    "type": "uint256"
                },
                {
                    "internalType": "uint256",
                    "name": "bodyLength",
                    "type": "uint256"
                },
                {
                    "internalType": "uint256",
                    "name": "dynamicRange",
                    "type": "uint256"
                },
                {
                    "internalType": "uint256",
                    "name": "duration",
                    "type": "uint256"
                }
            ],
            "stateMutability": "view",
            "type": "function"
        },
        {
            "inputs": [
                {
                    "internalType": "address",
                    "name": "",
                    "type": "address"
                }
            ],
            "name": "nftHolders",
            "outputs": [
                {
                    "internalType": "uint256",
                    "name": "",
                    "type": "uint256"
                }
            ],
            "stateMutability": "view",
            "type": "function"
        },
        {
            "inputs": [
                {
                    "internalType": "uint256",
                    "name": "tokenId",
                    "type": "uint256"
                }
            ],
            "name": "ownerOf",
            "outputs": [
                {
                    "internalType": "address",
                    "name": "",
                    "type": "address"
                }
            ],
            "stateMutability": "view",
            "type": "function"
        },
        {
            "inputs": [
                {
                    "internalType": "bytes32",
                    "name": "role",
                    "type": "bytes32"
                },
                {
                    "internalType": "address",
                    "name": "account",
                    "type": "address"
                }
            ],
            "name": "renounceRole",
            "outputs": [],
            "stateMutability": "nonpayable",
            "type": "function"
        },
        {
            "inputs": [
                {
                    "internalType": "bytes32",
                    "name": "role",
                    "type": "bytes32"
                },
                {
                    "internalType": "address",
                    "name": "account",
                    "type": "address"
                }
            ],
            "name": "revokeRole",
            "outputs": [],
            "stateMutability": "nonpayable",
            "type": "function"
        },
        {
            "inputs": [
                {
                    "internalType": "string",
                    "name": "_name",
                    "type": "string"
                },
                {
                    "internalType": "string",
                    "name": "_imageURI",
                    "type": "string"
                },
                {
                    "internalType": "uint256",
                    "name": "_percievedLoudness",
                    "type": "uint256"
                },
                {
                    "internalType": "uint256",
                    "name": "_tailLength",
                    "type": "uint256"
                },
                {
                    "internalType": "uint256",
                    "name": "_bodyLength",
                    "type": "uint256"
                },
                {
                    "internalType": "uint256",
                    "name": "_dynamicRange",
                    "type": "uint256"
                },
                {
                    "internalType": "uint256",
                    "name": "_duration",
                    "type": "uint256"
                }
            ],
            "name": "safeMint",
            "outputs": [],
            "stateMutability": "nonpayable",
            "type": "function"
        },
        {
            "inputs": [
                {
                    "internalType": "address",
                    "name": "from",
                    "type": "address"
                },
                {
                    "internalType": "address",
                    "name": "to",
                    "type": "address"
                },
                {
                    "internalType": "uint256",
                    "name": "tokenId",
                    "type": "uint256"
                }
            ],
            "name": "safeTransferFrom",
            "outputs": [],
            "stateMutability": "nonpayable",
            "type": "function"
        },
        {
            "inputs": [
                {
                    "internalType": "address",
                    "name": "from",
                    "type": "address"
                },
                {
                    "internalType": "address",
                    "name": "to",
                    "type": "address"
                },
                {
                    "internalType": "uint256",
                    "name": "tokenId",
                    "type": "uint256"
                },
                {
                    "internalType": "bytes",
                    "name": "data",
                    "type": "bytes"
                }
            ],
            "name": "safeTransferFrom",
            "outputs": [],
            "stateMutability": "nonpayable",
            "type": "function"
        },
        {
            "inputs": [
                {
                    "internalType": "address",
                    "name": "operator",
                    "type": "address"
                },
                {
                    "internalType": "bool",
                    "name": "approved",
                    "type": "bool"
                }
            ],
            "name": "setApprovalForAll",
            "outputs": [],
            "stateMutability": "nonpayable",
            "type": "function"
        },
        {
            "inputs": [
                {
                    "internalType": "bytes4",
                    "name": "interfaceId",
                    "type": "bytes4"
                }
            ],
            "name": "supportsInterface",
            "outputs": [
                {
                    "internalType": "bool",
                    "name": "",
                    "type": "bool"
                }
            ],
            "stateMutability": "view",
            "type": "function"
        },
        {
            "inputs": [],
            "name": "symbol",
            "outputs": [
                {
                    "internalType": "string",
                    "name": "",
                    "type": "string"
                }
            ],
            "stateMutability": "view",
            "type": "function"
        },
        {
            "inputs": [
                {
                    "internalType": "uint256",
                    "name": "_tokenId",
                    "type": "uint256"
                }
            ],
            "name": "tokenURI",
            "outputs": [
                {
                    "internalType": "string",
                    "name": "",
                    "type": "string"
                }
            ],
            "stateMutability": "view",
            "type": "function"
        },
        {
            "inputs": [
                {
                    "internalType": "address",
                    "name": "from",
                    "type": "address"
                },
                {
                    "internalType": "address",
                    "name": "to",
                    "type": "address"
                },
                {
                    "internalType": "uint256",
                    "name": "tokenId",
                    "type": "uint256"
                }
            ],
            "name": "transferFrom",
            "outputs": [],
            "stateMutability": "nonpayable",
            "type": "function"
        }
    ],
    "bytecode": "0x60806040523480156200001157600080fd5b506040518060400160405280600781526020017f4d79546f6b656e000000000000000000000000000000000000000000000000008152506040518060400160405280600381526020017f4d544b000000000000000000000000000000000000000000000000000000000081525081600090816200008f9190620004d0565b508060019081620000a19190620004d0565b505050620000b96000801b33620000f160201b60201c565b620000eb7f9f2df0fed2c77648de5860a4cc508cd0818c85b8b8a1ab4ceeef8d981c8956a633620000f160201b60201c565b620005b7565b620001038282620001e360201b60201c565b620001df5760016006600084815260200190815260200160002060000160008373ffffffffffffffffffffffffffffffffffffffff1673ffffffffffffffffffffffffffffffffffffffff16815260200190815260200160002060006101000a81548160ff021916908315150217905550620001846200024e60201b60201c565b73ffffffffffffffffffffffffffffffffffffffff168173ffffffffffffffffffffffffffffffffffffffff16837f2f8788117e7eff1d82e926ec794901d17c78024a50270940304540a733656f0d60405160405180910390a45b5050565b60006006600084815260200190815260200160002060000160008373ffffffffffffffffffffffffffffffffffffffff1673ffffffffffffffffffffffffffffffffffffffff16815260200190815260200160002060009054906101000a900460ff16905092915050565b600033905090565b600081519050919050565b7f4e487b7100000000000000000000000000000000000000000000000000000000600052604160045260246000fd5b7f4e487b7100000000000000000000000000000000000000000000000000000000600052602260045260246000fd5b60006002820490506001821680620002d857607f821691505b602082108103620002ee57620002ed62000290565b5b50919050565b60008190508160005260206000209050919050565b60006020601f8301049050919050565b600082821b905092915050565b600060088302620003587fffffffffffffffffffffffffffffffffffffffffffffffffffffffffffffffff8262000319565b62000364868362000319565b95508019841693508086168417925050509392505050565b6000819050919050565b6000819050919050565b6000620003b1620003ab620003a5846200037c565b62000386565b6200037c565b9050919050565b6000819050919050565b620003cd8362000390565b620003e5620003dc82620003b8565b84845462000326565b825550505050565b600090565b620003fc620003ed565b62000409818484620003c2565b505050565b5b81811015620004315762000425600082620003f2565b6001810190506200040f565b5050565b601f82111562000480576200044a81620002f4565b620004558462000309565b8101602085101562000465578190505b6200047d620004748562000309565b8301826200040e565b50505b505050565b600082821c905092915050565b6000620004a56000198460080262000485565b1980831691505092915050565b6000620004c0838362000492565b9150826002028217905092915050565b620004db8262000256565b67ffffffffffffffff811115620004f757620004f662000261565b5b620005038254620002bf565b6200051082828562000435565b600060209050601f83116001811462000548576000841562000533578287015190505b6200053f8582620004b2565b865550620005af565b601f1984166200055886620002f4565b60005b8281101562000582578489015182556001820191506020850194506020810190506200055b565b86831015620005a257848901516200059e601f89168262000492565b8355505b6001600288020188555050505b505050505050565b6147a080620005c76000396000f3fe608060405234801561001057600080fd5b50600436106101585760003560e01c80637df124a1116100c3578063b88d4fde1161007c578063b88d4fde14610401578063c87b56dd1461041d578063d2753cf21461044d578063d539139314610469578063d547741f14610487578063e985e9c5146104a357610158565b80637df124a11461031357806391d148541461034357806395d89b411461037357806398da4c9514610391578063a217fddf146103c7578063a22cb465146103e557610158565b80632f2ff15d116101155780632f2ff15d1461024357806336568abe1461025f57806342842e0e1461027b57806342966c68146102975780636352211e146102b357806370a08231146102e357610158565b806301ffc9a71461015d57806306fdde031461018d578063081812fc146101ab578063095ea7b3146101db57806323b872dd146101f7578063248a9ca314610213575b600080fd5b61017760048036038101906101729190612b2c565b6104d3565b6040516101849190612b74565b60405180910390f35b6101956104e5565b6040516101a29190612c1f565b60405180910390f35b6101c560048036038101906101c09190612c77565b610577565b6040516101d29190612ce5565b60405180910390f35b6101f560048036038101906101f09190612d2c565b6105bd565b005b610211600480360381019061020c9190612d6c565b6106d4565b005b61022d60048036038101906102289190612df5565b610734565b60405161023a9190612e31565b60405180910390f35b61025d60048036038101906102589190612e4c565b610754565b005b61027960048036038101906102749190612e4c565b610775565b005b61029560048036038101906102909190612d6c565b6107f8565b005b6102b160048036038101906102ac9190612c77565b610818565b005b6102cd60048036038101906102c89190612c77565b610874565b6040516102da9190612ce5565b60405180910390f35b6102fd60048036038101906102f89190612e8c565b6108fa565b60405161030a9190612ec8565b60405180910390f35b61032d60048036038101906103289190612e8c565b6109b1565b60405161033a9190612ec8565b60405180910390f35b61035d60048036038101906103589190612e4c565b6109c9565b60405161036a9190612b74565b60405180910390f35b61037b610a34565b6040516103889190612c1f565b60405180910390f35b6103ab60048036038101906103a69190612c77565b610ac6565b6040516103be9796959493929190612ee3565b60405180910390f35b6103cf610c18565b6040516103dc9190612e31565b60405180910390f35b6103ff60048036038101906103fa9190612f8c565b610c1f565b005b61041b60048036038101906104169190613101565b610c35565b005b61043760048036038101906104329190612c77565b610c97565b6040516104449190612c1f565b60405180910390f35b61046760048036038101906104629190613225565b610ee4565b005b61047161111e565b60405161047e9190612e31565b60405180910390f35b6104a1600480360381019061049c9190612e4c565b611142565b005b6104bd60048036038101906104b891906132ff565b611163565b6040516104ca9190612b74565b60405180910390f35b60006104de826111f7565b9050919050565b6060600080546104f49061336e565b80601f01602080910402602001604051908101604052809291908181526020018280546105209061336e565b801561056d5780601f106105425761010080835404028352916020019161056d565b820191906000526020600020905b81548152906001019060200180831161055057829003601f168201915b5050505050905090565b600061058282611271565b6004600083815260200190815260200160002060009054906101000a900473ffffffffffffffffffffffffffffffffffffffff169050919050565b60006105c882610874565b90508073ffffffffffffffffffffffffffffffffffffffff168373ffffffffffffffffffffffffffffffffffffffff1603610638576040517f08c379a000000000000000000000000000000000000000000000000000000000815260040161062f90613411565b60405180910390fd5b8073ffffffffffffffffffffffffffffffffffffffff166106576112bc565b73ffffffffffffffffffffffffffffffffffffffff1614806106865750610685816106806112bc565b611163565b5b6106c5576040517f08c379a00000000000000000000000000000000000000000000000000000000081526004016106bc906134a3565b60405180910390fd5b6106cf83836112c4565b505050565b6106e56106df6112bc565b8261137d565b610724576040517f08c379a000000000000000000000000000000000000000000000000000000000815260040161071b90613535565b60405180910390fd5b61072f838383611412565b505050565b600060066000838152602001908152602001600020600101549050919050565b61075d82610734565b6107668161170b565b610770838361171f565b505050565b61077d6112bc565b73ffffffffffffffffffffffffffffffffffffffff168173ffffffffffffffffffffffffffffffffffffffff16146107ea576040517f08c379a00000000000000000000000000000000000000000000000000000000081526004016107e1906135c7565b60405180910390fd5b6107f48282611800565b5050565b61081383838360405180602001604052806000815250610c35565b505050565b6108296108236112bc565b8261137d565b610868576040517f08c379a000000000000000000000000000000000000000000000000000000000815260040161085f90613535565b60405180910390fd5b610871816118e2565b50565b60008061088083611a30565b9050600073ffffffffffffffffffffffffffffffffffffffff168173ffffffffffffffffffffffffffffffffffffffff16036108f1576040517f08c379a00000000000000000000000000000000000000000000000000000000081526004016108e890613633565b60405180910390fd5b80915050919050565b60008073ffffffffffffffffffffffffffffffffffffffff168273ffffffffffffffffffffffffffffffffffffffff160361096a576040517f08c379a0000000000000000000000000000000000000000000000000000000008152600401610961906136c5565b60405180910390fd5b600360008373ffffffffffffffffffffffffffffffffffffffff1673ffffffffffffffffffffffffffffffffffffffff168152602001908152602001600020549050919050565b60086020528060005260406000206000915090505481565b60006006600084815260200190815260200160002060000160008373ffffffffffffffffffffffffffffffffffffffff1673ffffffffffffffffffffffffffffffffffffffff16815260200190815260200160002060009054906101000a900460ff16905092915050565b606060018054610a439061336e565b80601f0160208091040260200160405190810160405280929190818152602001828054610a6f9061336e565b8015610abc5780601f10610a9157610100808354040283529160200191610abc565b820191906000526020600020905b815481529060010190602001808311610a9f57829003601f168201915b5050505050905090565b6009602052806000526040600020600091509050806000018054610ae99061336e565b80601f0160208091040260200160405190810160405280929190818152602001828054610b159061336e565b8015610b625780601f10610b3757610100808354040283529160200191610b62565b820191906000526020600020905b815481529060010190602001808311610b4557829003601f168201915b505050505090806001018054610b779061336e565b80601f0160208091040260200160405190810160405280929190818152602001828054610ba39061336e565b8015610bf05780601f10610bc557610100808354040283529160200191610bf0565b820191906000526020600020905b815481529060010190602001808311610bd357829003601f168201915b5050505050908060020154908060030154908060040154908060050154908060060154905087565b6000801b81565b610c31610c2a6112bc565b8383611a6d565b5050565b610c46610c406112bc565b8361137d565b610c85576040517f08c379a0000000000000000000000000000000000000000000000000000000008152600401610c7c90613535565b60405180910390fd5b610c9184848484611bd9565b50505050565b60606000600960008481526020019081526020016000206040518060e0016040529081600082018054610cc99061336e565b80601f0160208091040260200160405190810160405280929190818152602001828054610cf59061336e565b8015610d425780601f10610d1757610100808354040283529160200191610d42565b820191906000526020600020905b815481529060010190602001808311610d2557829003601f168201915b50505050508152602001600182018054610d5b9061336e565b80601f0160208091040260200160405190810160405280929190818152602001828054610d879061336e565b8015610dd45780601f10610da957610100808354040283529160200191610dd4565b820191906000526020600020905b815481529060010190602001808311610db757829003601f168201915b505050505081526020016002820154815260200160038201548152602001600482015481526020016005820154815260200160068201548152505090506000610e208260400151611c35565b90506000610e318360600151611c35565b90506000610e428460800151611c35565b90506000610e538560c00151611c35565b90506000610e648660a00151611c35565b90506000610eae8760000151610e798b611c35565b8960200151898989888a604051602001610e9a989796959493929190613b23565b604051602081830303815290604052611d03565b9050600081604051602001610ec39190613c44565b60405160208183030381529060405290508098505050505050505050919050565b7f9f2df0fed2c77648de5860a4cc508cd0818c85b8b8a1ab4ceeef8d981c8956a6610f0e8161170b565b6000610f1a6007611e9a565b9050610f263382611ea8565b80600860003373ffffffffffffffffffffffffffffffffffffffff1673ffffffffffffffffffffffffffffffffffffffff168152602001908152602001600020819055506040518060e001604052808a815260200189815260200188815260200187815260200186815260200185815260200184815250600960008381526020019081526020016000206000820151816000019081610fc59190613e12565b506020820151816001019081610fdb9190613e12565b5060408201518160020155606082015181600301556080820151816004015560a0820151816005015560c082015181600601559050506110346040518060600160405280602e815260200161473d602e9139828b611ec6565b600a600960008381526020019081526020016000209080600181540180825580915050600190039060005260206000209060070201600090919091909150600082018160000190816110869190613efa565b506001820181600101908161109b9190613efa565b50600282015481600201556003820154816003015560048201548160040155600582015481600501556006820154816006015550507f1fc669908b9d25690fe5308881be77af12afc6f62a2b0f26464380452a6228803382604051611101929190613fe2565b60405180910390a16111136007611f65565b505050505050505050565b7f9f2df0fed2c77648de5860a4cc508cd0818c85b8b8a1ab4ceeef8d981c8956a681565b61114b82610734565b6111548161170b565b61115e8383611800565b505050565b6000600560008473ffffffffffffffffffffffffffffffffffffffff1673ffffffffffffffffffffffffffffffffffffffff16815260200190815260200160002060008373ffffffffffffffffffffffffffffffffffffffff1673ffffffffffffffffffffffffffffffffffffffff16815260200190815260200160002060009054906101000a900460ff16905092915050565b60007f7965db0b000000000000000000000000000000000000000000000000000000007bffffffffffffffffffffffffffffffffffffffffffffffffffffffff1916827bffffffffffffffffffffffffffffffffffffffffffffffffffffffff1916148061126a575061126982611f7b565b5b9050919050565b61127a8161205d565b6112b9576040517f08c379a00000000000000000000000000000000000000000000000000000000081526004016112b090613633565b60405180910390fd5b50565b600033905090565b816004600083815260200190815260200160002060006101000a81548173ffffffffffffffffffffffffffffffffffffffff021916908373ffffffffffffffffffffffffffffffffffffffff160217905550808273ffffffffffffffffffffffffffffffffffffffff1661133783610874565b73ffffffffffffffffffffffffffffffffffffffff167f8c5be1e5ebec7d5bd14f71427d1e84f3dd0314c0f7b2291e5b200ac8c7c3b92560405160405180910390a45050565b60008061138983610874565b90508073ffffffffffffffffffffffffffffffffffffffff168473ffffffffffffffffffffffffffffffffffffffff1614806113cb57506113ca8185611163565b5b8061140957508373ffffffffffffffffffffffffffffffffffffffff166113f184610577565b73ffffffffffffffffffffffffffffffffffffffff16145b91505092915050565b8273ffffffffffffffffffffffffffffffffffffffff1661143282610874565b73ffffffffffffffffffffffffffffffffffffffff1614611488576040517f08c379a000000000000000000000000000000000000000000000000000000000815260040161147f9061407d565b60405180910390fd5b600073ffffffffffffffffffffffffffffffffffffffff168273ffffffffffffffffffffffffffffffffffffffff16036114f7576040517f08c379a00000000000000000000000000000000000000000000000000000000081526004016114ee9061410f565b60405180910390fd5b611504838383600161209e565b8273ffffffffffffffffffffffffffffffffffffffff1661152482610874565b73ffffffffffffffffffffffffffffffffffffffff161461157a576040517f08c379a00000000000000000000000000000000000000000000000000000000081526004016115719061407d565b60405180910390fd5b6004600082815260200190815260200160002060006101000a81549073ffffffffffffffffffffffffffffffffffffffff02191690556001600360008573ffffffffffffffffffffffffffffffffffffffff1673ffffffffffffffffffffffffffffffffffffffff168152602001908152602001600020600082825403925050819055506001600360008473ffffffffffffffffffffffffffffffffffffffff1673ffffffffffffffffffffffffffffffffffffffff16815260200190815260200160002060008282540192505081905550816002600083815260200190815260200160002060006101000a81548173ffffffffffffffffffffffffffffffffffffffff021916908373ffffffffffffffffffffffffffffffffffffffff160217905550808273ffffffffffffffffffffffffffffffffffffffff168473ffffffffffffffffffffffffffffffffffffffff167fddf252ad1be2c89b69c2b068fc378daa952ba7f163c4a11628f55a4df523b3ef60405160405180910390a461170683838360016121c4565b505050565b61171c816117176112bc565b6121ca565b50565b61172982826109c9565b6117fc5760016006600084815260200190815260200160002060000160008373ffffffffffffffffffffffffffffffffffffffff1673ffffffffffffffffffffffffffffffffffffffff16815260200190815260200160002060006101000a81548160ff0219169083151502179055506117a16112bc565b73ffffffffffffffffffffffffffffffffffffffff168173ffffffffffffffffffffffffffffffffffffffff16837f2f8788117e7eff1d82e926ec794901d17c78024a50270940304540a733656f0d60405160405180910390a45b5050565b61180a82826109c9565b156118de5760006006600084815260200190815260200160002060000160008373ffffffffffffffffffffffffffffffffffffffff1673ffffffffffffffffffffffffffffffffffffffff16815260200190815260200160002060006101000a81548160ff0219169083151502179055506118836112bc565b73ffffffffffffffffffffffffffffffffffffffff168173ffffffffffffffffffffffffffffffffffffffff16837ff6391f5c32d9c69d2a47ea670b442974b53935d1edc7fd64eb21e047a839171b60405160405180910390a45b5050565b60006118ed82610874565b90506118fd81600084600161209e565b61190682610874565b90506004600083815260200190815260200160002060006101000a81549073ffffffffffffffffffffffffffffffffffffffff02191690556001600360008373ffffffffffffffffffffffffffffffffffffffff1673ffffffffffffffffffffffffffffffffffffffff168152602001908152602001600020600082825403925050819055506002600083815260200190815260200160002060006101000a81549073ffffffffffffffffffffffffffffffffffffffff021916905581600073ffffffffffffffffffffffffffffffffffffffff168273ffffffffffffffffffffffffffffffffffffffff167fddf252ad1be2c89b69c2b068fc378daa952ba7f163c4a11628f55a4df523b3ef60405160405180910390a4611a2c8160008460016121c4565b5050565b60006002600083815260200190815260200160002060009054906101000a900473ffffffffffffffffffffffffffffffffffffffff169050919050565b8173ffffffffffffffffffffffffffffffffffffffff168373ffffffffffffffffffffffffffffffffffffffff1603611adb576040517f08c379a0000000000000000000000000000000000000000000000000000000008152600401611ad29061417b565b60405180910390fd5b80600560008573ffffffffffffffffffffffffffffffffffffffff1673ffffffffffffffffffffffffffffffffffffffff16815260200190815260200160002060008473ffffffffffffffffffffffffffffffffffffffff1673ffffffffffffffffffffffffffffffffffffffff16815260200190815260200160002060006101000a81548160ff0219169083151502179055508173ffffffffffffffffffffffffffffffffffffffff168373ffffffffffffffffffffffffffffffffffffffff167f17307eab39ab6107e8899845ad3d59bd9653f200f220920489ca2b5937696c3183604051611bcc9190612b74565b60405180910390a3505050565b611be4848484611412565b611bf08484848461224f565b611c2f576040517f08c379a0000000000000000000000000000000000000000000000000000000008152600401611c269061420d565b60405180910390fd5b50505050565b606060006001611c44846123d6565b01905060008167ffffffffffffffff811115611c6357611c62612fd6565b5b6040519080825280601f01601f191660200182016040528015611c955781602001600182028036833780820191505090505b509050600082602001820190505b600115611cf8578080600190039150507f3031323334353637383961626364656600000000000000000000000000000000600a86061a8153600a8581611cec57611ceb61422d565b5b04945060008503611ca3575b819350505050919050565b606060008251905060008103611d2b5760405180602001604052806000815250915050611e95565b60006003600283611d3c919061428b565b611d4691906142bf565b6004611d5291906142f0565b90506000602082611d63919061428b565b67ffffffffffffffff811115611d7c57611d7b612fd6565b5b6040519080825280601f01601f191660200182016040528015611dae5781602001600182028036833780820191505090505b50905060006040518060600160405280604081526020016146fd604091399050600181016020830160005b86811015611e525760038101905062ffffff818a015116603f8160121c168401518060081b905060ff603f83600c1c1686015116810190508060081b905060ff603f8360061c1686015116810190508060081b905060ff603f831686015116810190508060e01b90508084526004840193505050611dd9565b506003860660018114611e6c5760028114611e7c57611e87565b613d3d60f01b6002830352611e87565b603d60f81b60018303525b508484525050819450505050505b919050565b600081600001549050919050565b611ec2828260405180602001604052806000815250612529565b5050565b611f60838383604051602401611ede93929190614332565b6040516020818303038152906040527f5970e089000000000000000000000000000000000000000000000000000000007bffffffffffffffffffffffffffffffffffffffffffffffffffffffff19166020820180517bffffffffffffffffffffffffffffffffffffffffffffffffffffffff8381831617835250505050612584565b505050565b6001816000016000828254019250508190555050565b60007f80ac58cd000000000000000000000000000000000000000000000000000000007bffffffffffffffffffffffffffffffffffffffffffffffffffffffff1916827bffffffffffffffffffffffffffffffffffffffffffffffffffffffff1916148061204657507f5b5e139f000000000000000000000000000000000000000000000000000000007bffffffffffffffffffffffffffffffffffffffffffffffffffffffff1916827bffffffffffffffffffffffffffffffffffffffffffffffffffffffff1916145b806120565750612055826125ad565b5b9050919050565b60008073ffffffffffffffffffffffffffffffffffffffff1661207f83611a30565b73ffffffffffffffffffffffffffffffffffffffff1614159050919050565b60018111156121be57600073ffffffffffffffffffffffffffffffffffffffff168473ffffffffffffffffffffffffffffffffffffffff16146121325780600360008673ffffffffffffffffffffffffffffffffffffffff1673ffffffffffffffffffffffffffffffffffffffff168152602001908152602001600020600082825461212a9190614377565b925050819055505b600073ffffffffffffffffffffffffffffffffffffffff168373ffffffffffffffffffffffffffffffffffffffff16146121bd5780600360008573ffffffffffffffffffffffffffffffffffffffff1673ffffffffffffffffffffffffffffffffffffffff16815260200190815260200160002060008282546121b5919061428b565b925050819055505b5b50505050565b50505050565b6121d482826109c9565b61224b576121e181612617565b6121ef8360001c6020612644565b604051602001612200929190614443565b6040516020818303038152906040526040517f08c379a00000000000000000000000000000000000000000000000000000000081526004016122429190612c1f565b60405180910390fd5b5050565b60006122708473ffffffffffffffffffffffffffffffffffffffff16612880565b156123c9578373ffffffffffffffffffffffffffffffffffffffff1663150b7a026122996112bc565b8786866040518563ffffffff1660e01b81526004016122bb94939291906144d2565b6020604051808303816000875af19250505080156122f757506040513d601f19601f820116820180604052508101906122f49190614533565b60015b612379573d8060008114612327576040519150601f19603f3d011682016040523d82523d6000602084013e61232c565b606091505b506000815103612371576040517f08c379a00000000000000000000000000000000000000000000000000000000081526004016123689061420d565b60405180910390fd5b805181602001fd5b63150b7a0260e01b7bffffffffffffffffffffffffffffffffffffffffffffffffffffffff1916817bffffffffffffffffffffffffffffffffffffffffffffffffffffffff1916149150506123ce565b600190505b949350505050565b600080600090507a184f03e93ff9f4daa797ed6e38ed64bf6a1f0100000000000000008310612434577a184f03e93ff9f4daa797ed6e38ed64bf6a1f010000000000000000838161242a5761242961422d565b5b0492506040810190505b6d04ee2d6d415b85acef81000000008310612471576d04ee2d6d415b85acef810000000083816124675761246661422d565b5b0492506020810190505b662386f26fc1000083106124a057662386f26fc1000083816124965761249561422d565b5b0492506010810190505b6305f5e10083106124c9576305f5e10083816124bf576124be61422d565b5b0492506008810190505b61271083106124ee5761271083816124e4576124e361422d565b5b0492506004810190505b6064831061251157606483816125075761250661422d565b5b0492506002810190505b600a8310612520576001810190505b80915050919050565b61253383836128a3565b612540600084848461224f565b61257f576040517f08c379a00000000000000000000000000000000000000000000000000000000081526004016125769061420d565b60405180910390fd5b505050565b60008151905060006a636f6e736f6c652e6c6f679050602083016000808483855afa5050505050565b60007f01ffc9a7000000000000000000000000000000000000000000000000000000007bffffffffffffffffffffffffffffffffffffffffffffffffffffffff1916827bffffffffffffffffffffffffffffffffffffffffffffffffffffffff1916149050919050565b606061263d8273ffffffffffffffffffffffffffffffffffffffff16601460ff16612644565b9050919050565b60606000600283600261265791906142f0565b612661919061428b565b67ffffffffffffffff81111561267a57612679612fd6565b5b6040519080825280601f01601f1916602001820160405280156126ac5781602001600182028036833780820191505090505b5090507f3000000000000000000000000000000000000000000000000000000000000000816000815181106126e4576126e3614560565b5b60200101907effffffffffffffffffffffffffffffffffffffffffffffffffffffffffffff1916908160001a9053507f78000000000000000000000000000000000000000000000000000000000000008160018151811061274857612747614560565b5b60200101907effffffffffffffffffffffffffffffffffffffffffffffffffffffffffffff1916908160001a9053506000600184600261278891906142f0565b612792919061428b565b90505b6001811115612832577f3031323334353637383961626364656600000000000000000000000000000000600f8616601081106127d4576127d3614560565b5b1a60f81b8282815181106127eb576127ea614560565b5b60200101907effffffffffffffffffffffffffffffffffffffffffffffffffffffffffffff1916908160001a905350600485901c94508061282b9061458f565b9050612795565b5060008414612876576040517f08c379a000000000000000000000000000000000000000000000000000000000815260040161286d90614604565b60405180910390fd5b8091505092915050565b6000808273ffffffffffffffffffffffffffffffffffffffff163b119050919050565b600073ffffffffffffffffffffffffffffffffffffffff168273ffffffffffffffffffffffffffffffffffffffff1603612912576040517f08c379a000000000000000000000000000000000000000000000000000000000815260040161290990614670565b60405180910390fd5b61291b8161205d565b1561295b576040517f08c379a0000000000000000000000000000000000000000000000000000000008152600401612952906146dc565b60405180910390fd5b61296960008383600161209e565b6129728161205d565b156129b2576040517f08c379a00000000000000000000000000000000000000000000000000000000081526004016129a9906146dc565b60405180910390fd5b6001600360008473ffffffffffffffffffffffffffffffffffffffff1673ffffffffffffffffffffffffffffffffffffffff16815260200190815260200160002060008282540192505081905550816002600083815260200190815260200160002060006101000a81548173ffffffffffffffffffffffffffffffffffffffff021916908373ffffffffffffffffffffffffffffffffffffffff160217905550808273ffffffffffffffffffffffffffffffffffffffff16600073ffffffffffffffffffffffffffffffffffffffff167fddf252ad1be2c89b69c2b068fc378daa952ba7f163c4a11628f55a4df523b3ef60405160405180910390a4612abc6000838360016121c4565b5050565b6000604051905090565b600080fd5b600080fd5b60007fffffffff0000000000000000000000000000000000000000000000000000000082169050919050565b612b0981612ad4565b8114612b1457600080fd5b50565b600081359050612b2681612b00565b92915050565b600060208284031215612b4257612b41612aca565b5b6000612b5084828501612b17565b91505092915050565b60008115159050919050565b612b6e81612b59565b82525050565b6000602082019050612b896000830184612b65565b92915050565b600081519050919050565b600082825260208201905092915050565b60005b83811015612bc9578082015181840152602081019050612bae565b60008484015250505050565b6000601f19601f8301169050919050565b6000612bf182612b8f565b612bfb8185612b9a565b9350612c0b818560208601612bab565b612c1481612bd5565b840191505092915050565b60006020820190508181036000830152612c398184612be6565b905092915050565b6000819050919050565b612c5481612c41565b8114612c5f57600080fd5b50565b600081359050612c7181612c4b565b92915050565b600060208284031215612c8d57612c8c612aca565b5b6000612c9b84828501612c62565b91505092915050565b600073ffffffffffffffffffffffffffffffffffffffff82169050919050565b6000612ccf82612ca4565b9050919050565b612cdf81612cc4565b82525050565b6000602082019050612cfa6000830184612cd6565b92915050565b612d0981612cc4565b8114612d1457600080fd5b50565b600081359050612d2681612d00565b92915050565b60008060408385031215612d4357612d42612aca565b5b6000612d5185828601612d17565b9250506020612d6285828601612c62565b9150509250929050565b600080600060608486031215612d8557612d84612aca565b5b6000612d9386828701612d17565b9350506020612da486828701612d17565b9250506040612db586828701612c62565b9150509250925092565b6000819050919050565b612dd281612dbf565b8114612ddd57600080fd5b50565b600081359050612def81612dc9565b92915050565b600060208284031215612e0b57612e0a612aca565b5b6000612e1984828501612de0565b91505092915050565b612e2b81612dbf565b82525050565b6000602082019050612e466000830184612e22565b92915050565b60008060408385031215612e6357612e62612aca565b5b6000612e7185828601612de0565b9250506020612e8285828601612d17565b9150509250929050565b600060208284031215612ea257612ea1612aca565b5b6000612eb084828501612d17565b91505092915050565b612ec281612c41565b82525050565b6000602082019050612edd6000830184612eb9565b92915050565b600060e0820190508181036000830152612efd818a612be6565b90508181036020830152612f118189612be6565b9050612f206040830188612eb9565b612f2d6060830187612eb9565b612f3a6080830186612eb9565b612f4760a0830185612eb9565b612f5460c0830184612eb9565b98975050505050505050565b612f6981612b59565b8114612f7457600080fd5b50565b600081359050612f8681612f60565b92915050565b60008060408385031215612fa357612fa2612aca565b5b6000612fb185828601612d17565b9250506020612fc285828601612f77565b9150509250929050565b600080fd5b600080fd5b7f4e487b7100000000000000000000000000000000000000000000000000000000600052604160045260246000fd5b61300e82612bd5565b810181811067ffffffffffffffff8211171561302d5761302c612fd6565b5b80604052505050565b6000613040612ac0565b905061304c8282613005565b919050565b600067ffffffffffffffff82111561306c5761306b612fd6565b5b61307582612bd5565b9050602081019050919050565b82818337600083830152505050565b60006130a461309f84613051565b613036565b9050828152602081018484840111156130c0576130bf612fd1565b5b6130cb848285613082565b509392505050565b600082601f8301126130e8576130e7612fcc565b5b81356130f8848260208601613091565b91505092915050565b6000806000806080858703121561311b5761311a612aca565b5b600061312987828801612d17565b945050602061313a87828801612d17565b935050604061314b87828801612c62565b925050606085013567ffffffffffffffff81111561316c5761316b612acf565b5b613178878288016130d3565b91505092959194509250565b600067ffffffffffffffff82111561319f5761319e612fd6565b5b6131a882612bd5565b9050602081019050919050565b60006131c86131c384613184565b613036565b9050828152602081018484840111156131e4576131e3612fd1565b5b6131ef848285613082565b509392505050565b600082601f83011261320c5761320b612fcc565b5b813561321c8482602086016131b5565b91505092915050565b600080600080600080600060e0888a03121561324457613243612aca565b5b600088013567ffffffffffffffff81111561326257613261612acf565b5b61326e8a828b016131f7565b975050602088013567ffffffffffffffff81111561328f5761328e612acf565b5b61329b8a828b016131f7565b96505060406132ac8a828b01612c62565b95505060606132bd8a828b01612c62565b94505060806132ce8a828b01612c62565b93505060a06132df8a828b01612c62565b92505060c06132f08a828b01612c62565b91505092959891949750929550565b6000806040838503121561331657613315612aca565b5b600061332485828601612d17565b925050602061333585828601612d17565b9150509250929050565b7f4e487b7100000000000000000000000000000000000000000000000000000000600052602260045260246000fd5b6000600282049050600182168061338657607f821691505b6020821081036133995761339861333f565b5b50919050565b7f4552433732313a20617070726f76616c20746f2063757272656e74206f776e6560008201527f7200000000000000000000000000000000000000000000000000000000000000602082015250565b60006133fb602183612b9a565b91506134068261339f565b604082019050919050565b6000602082019050818103600083015261342a816133ee565b9050919050565b7f4552433732313a20617070726f76652063616c6c6572206973206e6f7420746f60008201527f6b656e206f776e6572206f7220617070726f76656420666f7220616c6c000000602082015250565b600061348d603d83612b9a565b915061349882613431565b604082019050919050565b600060208201905081810360008301526134bc81613480565b9050919050565b7f4552433732313a2063616c6c6572206973206e6f7420746f6b656e206f776e6560008201527f72206f7220617070726f76656400000000000000000000000000000000000000602082015250565b600061351f602d83612b9a565b915061352a826134c3565b604082019050919050565b6000602082019050818103600083015261354e81613512565b9050919050565b7f416363657373436f6e74726f6c3a2063616e206f6e6c792072656e6f756e636560008201527f20726f6c657320666f722073656c660000000000000000000000000000000000602082015250565b60006135b1602f83612b9a565b91506135bc82613555565b604082019050919050565b600060208201905081810360008301526135e0816135a4565b9050919050565b7f4552433732313a20696e76616c696420746f6b656e2049440000000000000000600082015250565b600061361d601883612b9a565b9150613628826135e7565b602082019050919050565b6000602082019050818103600083015261364c81613610565b9050919050565b7f4552433732313a2061646472657373207a65726f206973206e6f74206120766160008201527f6c6964206f776e65720000000000000000000000000000000000000000000000602082015250565b60006136af602983612b9a565b91506136ba82613653565b604082019050919050565b600060208201905081810360008301526136de816136a2565b9050919050565b600081905092915050565b7f7b226e616d65223a202200000000000000000000000000000000000000000000600082015250565b6000613726600a836136e5565b9150613731826136f0565b600a82019050919050565b600061374782612b8f565b61375181856136e5565b9350613761818560208601612bab565b80840191505092915050565b7f202d2d204e465420233a20000000000000000000000000000000000000000000600082015250565b60006137a3600b836136e5565b91506137ae8261376d565b600b82019050919050565b7f222c20226465736372697074696f6e223a20225468697320697320616e204e4660008201527f542074686174206c6574732070656f706c6520706c617920616e64207472616460208201527f6520666f72206120536f6e69632047616d6521222c2022696d616765223a202260408201527f697066733a2f2f00000000000000000000000000000000000000000000000000606082015250565b60006138616067836136e5565b915061386c826137b9565b606782019050919050565b7f222c202261747472696275746573223a205b207b202274726169745f7479706560008201527f223a2022506572636965766564204c6f75646e657373222c202276616c75652260208201527f3a20000000000000000000000000000000000000000000000000000000000000604082015250565b60006138f96042836136e5565b915061390482613877565b604282019050919050565b7f7d2c207b202274726169745f74797065223a20225461696c204c656e6774682260008201527f2c202276616c7565223a20000000000000000000000000000000000000000000602082015250565b600061396b602b836136e5565b91506139768261390f565b602b82019050919050565b7f7d2c207b202274726169745f74797065223a2022426f6479204c656e6774682260008201527f2c202276616c7565223a20000000000000000000000000000000000000000000602082015250565b60006139dd602b836136e5565b91506139e882613981565b602b82019050919050565b7f7d2c207b202274726169745f74797065223a202244796e616d69632052616e6760008201527f65222c202276616c7565223a2000000000000000000000000000000000000000602082015250565b6000613a4f602d836136e5565b9150613a5a826139f3565b602d82019050919050565b7f7d2c20207b202274726169745f74797065223a20224475726174696f6e222c2060008201527f2276616c7565223a200000000000000000000000000000000000000000000000602082015250565b6000613ac16029836136e5565b9150613acc82613a65565b602982019050919050565b7f7d205d7d00000000000000000000000000000000000000000000000000000000600082015250565b6000613b0d6004836136e5565b9150613b1882613ad7565b600482019050919050565b6000613b2e82613719565b9150613b3a828b61373c565b9150613b4582613796565b9150613b51828a61373c565b9150613b5c82613854565b9150613b68828961373c565b9150613b73826138ec565b9150613b7f828861373c565b9150613b8a8261395e565b9150613b96828761373c565b9150613ba1826139d0565b9150613bad828661373c565b9150613bb882613a42565b9150613bc4828561373c565b9150613bcf82613ab4565b9150613bdb828461373c565b9150613be682613b00565b91508190509998505050505050505050565b7f646174613a6170706c69636174696f6e2f6a736f6e3b6261736536342c000000600082015250565b6000613c2e601d836136e5565b9150613c3982613bf8565b601d82019050919050565b6000613c4f82613c21565b9150613c5b828461373c565b915081905092915050565b60008190508160005260206000209050919050565b60006020601f8301049050919050565b600082821b905092915050565b600060088302613cc87fffffffffffffffffffffffffffffffffffffffffffffffffffffffffffffffff82613c8b565b613cd28683613c8b565b95508019841693508086168417925050509392505050565b6000819050919050565b6000613d0f613d0a613d0584612c41565b613cea565b612c41565b9050919050565b6000819050919050565b613d2983613cf4565b613d3d613d3582613d16565b848454613c98565b825550505050565b600090565b613d52613d45565b613d5d818484613d20565b505050565b5b81811015613d8157613d76600082613d4a565b600181019050613d63565b5050565b601f821115613dc657613d9781613c66565b613da084613c7b565b81016020851015613daf578190505b613dc3613dbb85613c7b565b830182613d62565b50505b505050565b600082821c905092915050565b6000613de960001984600802613dcb565b1980831691505092915050565b6000613e028383613dd8565b9150826002028217905092915050565b613e1b82612b8f565b67ffffffffffffffff811115613e3457613e33612fd6565b5b613e3e825461336e565b613e49828285613d85565b600060209050601f831160018114613e7c5760008415613e6a578287015190505b613e748582613df6565b865550613edc565b601f198416613e8a86613c66565b60005b82811015613eb257848901518255600182019150602085019450602081019050613e8d565b86831015613ecf5784890151613ecb601f891682613dd8565b8355505b6001600288020188555050505b505050505050565b600081549050613ef38161336e565b9050919050565b818103613f08575050613fe0565b613f1182613ee4565b67ffffffffffffffff811115613f2a57613f29612fd6565b5b613f34825461336e565b613f3f828285613d85565b6000601f831160018114613f6e5760008415613f5c578287015490505b613f668582613df6565b865550613fd9565b601f198416613f7c87613c66565b9650613f8786613c66565b60005b82811015613faf57848901548255600182019150600185019450602081019050613f8a565b86831015613fcc5784890154613fc8601f891682613dd8565b8355505b6001600288020188555050505b5050505050505b565b6000604082019050613ff76000830185612cd6565b6140046020830184612eb9565b9392505050565b7f4552433732313a207472616e736665722066726f6d20696e636f72726563742060008201527f6f776e6572000000000000000000000000000000000000000000000000000000602082015250565b6000614067602583612b9a565b91506140728261400b565b604082019050919050565b600060208201905081810360008301526140968161405a565b9050919050565b7f4552433732313a207472616e7366657220746f20746865207a65726f2061646460008201527f7265737300000000000000000000000000000000000000000000000000000000602082015250565b60006140f9602483612b9a565b91506141048261409d565b604082019050919050565b60006020820190508181036000830152614128816140ec565b9050919050565b7f4552433732313a20617070726f766520746f2063616c6c657200000000000000600082015250565b6000614165601983612b9a565b91506141708261412f565b602082019050919050565b6000602082019050818103600083015261419481614158565b9050919050565b7f4552433732313a207472616e7366657220746f206e6f6e20455243373231526560008201527f63656976657220696d706c656d656e7465720000000000000000000000000000602082015250565b60006141f7603283612b9a565b91506142028261419b565b604082019050919050565b60006020820190508181036000830152614226816141ea565b9050919050565b7f4e487b7100000000000000000000000000000000000000000000000000000000600052601260045260246000fd5b7f4e487b7100000000000000000000000000000000000000000000000000000000600052601160045260246000fd5b600061429682612c41565b91506142a183612c41565b92508282019050808211156142b9576142b861425c565b5b92915050565b60006142ca82612c41565b91506142d583612c41565b9250826142e5576142e461422d565b5b828204905092915050565b60006142fb82612c41565b915061430683612c41565b925082820261431481612c41565b9150828204841483151761432b5761432a61425c565b5b5092915050565b6000606082019050818103600083015261434c8186612be6565b905061435b6020830185612eb9565b818103604083015261436d8184612be6565b9050949350505050565b600061438282612c41565b915061438d83612c41565b92508282039050818111156143a5576143a461425c565b5b92915050565b7f416363657373436f6e74726f6c3a206163636f756e7420000000000000000000600082015250565b60006143e16017836136e5565b91506143ec826143ab565b601782019050919050565b7f206973206d697373696e6720726f6c6520000000000000000000000000000000600082015250565b600061442d6011836136e5565b9150614438826143f7565b601182019050919050565b600061444e826143d4565b915061445a828561373c565b915061446582614420565b9150614471828461373c565b91508190509392505050565b600081519050919050565b600082825260208201905092915050565b60006144a48261447d565b6144ae8185614488565b93506144be818560208601612bab565b6144c781612bd5565b840191505092915050565b60006080820190506144e76000830187612cd6565b6144f46020830186612cd6565b6145016040830185612eb9565b81810360608301526145138184614499565b905095945050505050565b60008151905061452d81612b00565b92915050565b60006020828403121561454957614548612aca565b5b60006145578482850161451e565b91505092915050565b7f4e487b7100000000000000000000000000000000000000000000000000000000600052603260045260246000fd5b600061459a82612c41565b9150600082036145ad576145ac61425c565b5b600182039050919050565b7f537472696e67733a20686578206c656e67746820696e73756666696369656e74600082015250565b60006145ee602083612b9a565b91506145f9826145b8565b602082019050919050565b6000602082019050818103600083015261461d816145e1565b9050919050565b7f4552433732313a206d696e7420746f20746865207a65726f2061646472657373600082015250565b600061465a602083612b9a565b915061466582614624565b602082019050919050565b600060208201905081810360008301526146898161464d565b9050919050565b7f4552433732313a20746f6b656e20616c7265616479206d696e74656400000000600082015250565b60006146c6601c83612b9a565b91506146d182614690565b602082019050919050565b600060208201905081810360008301526146f5816146b9565b905091905056fe4142434445464748494a4b4c4d4e4f505152535455565758595a6162636465666768696a6b6c6d6e6f707172737475767778797a303132333435363738392b2f4d696e746564204e465420772f20746f6b656e496420257320616e6420636861726163746572496e646578202573a2646970667358221220363c7d80ca63a4b97745b19aac579c02a3efdab5892f36f2fe2a68fcc981d07564736f6c63430008110033",
    "linkReferences": {},
    "deployedLinkReferences": {}
}