{
  "_format": "hh-sol-artifact-1",
  "contractName": "MyNFT",
  "sourceName": "contracts/MyNFT.sol",
  "abi": [
    {
      "inputs": [],
      "stateMutability": "nonpayable",
      "type": "constructor"
    },
    {
      "anonymous": false,
      "inputs": [
        {
          "indexed": true,
          "internalType": "address",
          "name": "owner",
          "type": "address"
        },
        {
          "indexed": true,
          "internalType": "address",
          "name": "approved",
          "type": "address"
        },
        {
          "indexed": true,
          "internalType": "uint256",
          "name": "tokenId",
          "type": "uint256"
        }
      ],
      "name": "Approval",
      "type": "event"
    },
    {
      "anonymous": false,
      "inputs": [
        {
          "indexed": true,
          "internalType": "address",
          "name": "owner",
          "type": "address"
        },
        {
          "indexed": true,
          "internalType": "address",
          "name": "operator",
          "type": "address"
        },
        {
          "indexed": false,
          "internalType": "bool",
          "name": "approved",
          "type": "bool"
        }
      ],
      "name": "ApprovalForAll",
      "type": "event"
    },
    {
      "anonymous": false,
      "inputs": [
        {
          "indexed": false,
          "internalType": "address",
          "name": "sender",
          "type": "address"
        },
        {
          "indexed": false,
          "internalType": "uint256",
          "name": "tokenId",
          "type": "uint256"
        }
      ],
      "name": "MintReceipt",
      "type": "event"
    },
    {
      "anonymous": false,
      "inputs": [
        {
          "indexed": true,
          "internalType": "bytes32",
          "name": "role",
          "type": "bytes32"
        },
        {
          "indexed": true,
          "internalType": "bytes32",
          "name": "previousAdminRole",
          "type": "bytes32"
        },
        {
          "indexed": true,
          "internalType": "bytes32",
          "name": "newAdminRole",
          "type": "bytes32"
        }
      ],
      "name": "RoleAdminChanged",
      "type": "event"
    },
    {
      "anonymous": false,
      "inputs": [
        {
          "indexed": true,
          "internalType": "bytes32",
          "name": "role",
          "type": "bytes32"
        },
        {
          "indexed": true,
          "internalType": "address",
          "name": "account",
          "type": "address"
        },
        {
          "indexed": true,
          "internalType": "address",
          "name": "sender",
          "type": "address"
        }
      ],
      "name": "RoleGranted",
      "type": "event"
    },
    {
      "anonymous": false,
      "inputs": [
        {
          "indexed": true,
          "internalType": "bytes32",
          "name": "role",
          "type": "bytes32"
        },
        {
          "indexed": true,
          "internalType": "address",
          "name": "account",
          "type": "address"
        },
        {
          "indexed": true,
          "internalType": "address",
          "name": "sender",
          "type": "address"
        }
      ],
      "name": "RoleRevoked",
      "type": "event"
    },
    {
      "anonymous": false,
      "inputs": [
        {
          "indexed": true,
          "internalType": "address",
          "name": "from",
          "type": "address"
        },
        {
          "indexed": true,
          "internalType": "address",
          "name": "to",
          "type": "address"
        },
        {
          "indexed": true,
          "internalType": "uint256",
          "name": "tokenId",
          "type": "uint256"
        }
      ],
      "name": "Transfer",
      "type": "event"
    },
    {
      "inputs": [],
      "name": "DEFAULT_ADMIN_ROLE",
      "outputs": [
        {
          "internalType": "bytes32",
          "name": "",
          "type": "bytes32"
        }
      ],
      "stateMutability": "view",
      "type": "function"
    },
    {
      "inputs": [],
      "name": "MINTER_ROLE",
      "outputs": [
        {
          "internalType": "bytes32",
          "name": "",
          "type": "bytes32"
        }
      ],
      "stateMutability": "view",
      "type": "function"
    },
    {
      "inputs": [
        {
          "internalType": "address",
          "name": "to",
          "type": "address"
        },
        {
          "internalType": "uint256",
          "name": "tokenId",
          "type": "uint256"
        }
      ],
      "name": "approve",
      "outputs": [],
      "stateMutability": "nonpayable",
      "type": "function"
    },
    {
      "inputs": [
        {
          "internalType": "address",
          "name": "owner",
          "type": "address"
        }
      ],
      "name": "balanceOf",
      "outputs": [
        {
          "internalType": "uint256",
          "name": "",
          "type": "uint256"
        }
      ],
      "stateMutability": "view",
      "type": "function"
    },
    {
      "inputs": [
        {
          "internalType": "uint256",
          "name": "tokenId",
          "type": "uint256"
        }
      ],
      "name": "burn",
      "outputs": [],
      "stateMutability": "nonpayable",
      "type": "function"
    },
    {
      "inputs": [],
      "name": "checkForUsersNFTs",
      "outputs": [
        {
          "internalType": "string[]",
          "name": "yoCardsInGame",
          "type": "string[]"
        }
      ],
      "stateMutability": "view",
      "type": "function"
    },
    {
      "inputs": [
        {
          "internalType": "uint256",
          "name": "tokenId",
          "type": "uint256"
        }
      ],
      "name": "checkRedemptionStatus",
      "outputs": [
        {
          "internalType": "bool",
          "name": "",
          "type": "bool"
        }
      ],
      "stateMutability": "view",
      "type": "function"
    },
    {
      "inputs": [
        {
          "internalType": "bool",
          "name": "redeemed",
          "type": "bool"
        }
      ],
      "name": "convertBoolToNumber",
      "outputs": [
        {
          "internalType": "uint256",
          "name": "redeemedBinary",
          "type": "uint256"
        }
      ],
      "stateMutability": "pure",
      "type": "function"
    },
    {
      "inputs": [
        {
          "internalType": "uint256",
          "name": "tokenId",
          "type": "uint256"
        }
      ],
      "name": "getApproved",
      "outputs": [
        {
          "internalType": "address",
          "name": "",
          "type": "address"
        }
      ],
      "stateMutability": "view",
      "type": "function"
    },
    {
      "inputs": [
        {
          "internalType": "bytes32",
          "name": "role",
          "type": "bytes32"
        }
      ],
      "name": "getRoleAdmin",
      "outputs": [
        {
          "internalType": "bytes32",
          "name": "",
          "type": "bytes32"
        }
      ],
      "stateMutability": "view",
      "type": "function"
    },
    {
      "inputs": [
        {
          "internalType": "bytes32",
          "name": "role",
          "type": "bytes32"
        },
        {
          "internalType": "address",
          "name": "account",
          "type": "address"
        }
      ],
      "name": "grantRole",
      "outputs": [],
      "stateMutability": "nonpayable",
      "type": "function"
    },
    {
      "inputs": [
        {
          "internalType": "bytes32",
          "name": "role",
          "type": "bytes32"
        },
        {
          "internalType": "address",
          "name": "account",
          "type": "address"
        }
      ],
      "name": "hasRole",
      "outputs": [
        {
          "internalType": "bool",
          "name": "",
          "type": "bool"
        }
      ],
      "stateMutability": "view",
      "type": "function"
    },
    {
      "inputs": [
        {
          "internalType": "address",
          "name": "owner",
          "type": "address"
        },
        {
          "internalType": "address",
          "name": "operator",
          "type": "address"
        }
      ],
      "name": "isApprovedForAll",
      "outputs": [
        {
          "internalType": "bool",
          "name": "",
          "type": "bool"
        }
      ],
      "stateMutability": "view",
      "type": "function"
    },
    {
      "inputs": [],
      "name": "name",
      "outputs": [
        {
          "internalType": "string",
          "name": "",
          "type": "string"
        }
      ],
      "stateMutability": "view",
      "type": "function"
    },
    {
      "inputs": [
        {
          "internalType": "uint256",
          "name": "",
          "type": "uint256"
        }
      ],
      "name": "nftHolderAttributes",
      "outputs": [
        {
          "internalType": "string",
          "name": "name",
          "type": "string"
        },
        {
          "internalType": "string",
          "name": "imageURI",
          "type": "string"
        },
        {
          "internalType": "uint256",
          "name": "percievedLoudness",
          "type": "uint256"
        },
        {
          "internalType": "uint256",
          "name": "tailLength",
          "type": "uint256"
        },
        {
          "internalType": "uint256",
          "name": "bodyLength",
          "type": "uint256"
        },
        {
          "internalType": "uint256",
          "name": "dynamicRange",
          "type": "uint256"
        },
        {
          "internalType": "uint256",
          "name": "duration",
          "type": "uint256"
        },
        {
          "internalType": "bool",
          "name": "redeemed",
          "type": "bool"
        }
      ],
      "stateMutability": "view",
      "type": "function"
    },
    {
      "inputs": [
        {
          "internalType": "address",
          "name": "",
          "type": "address"
        },
        {
          "internalType": "uint256",
          "name": "",
          "type": "uint256"
        }
      ],
      "name": "nftHolders",
      "outputs": [
        {
          "internalType": "uint256",
          "name": "",
          "type": "uint256"
        }
      ],
      "stateMutability": "view",
      "type": "function"
    },
    {
      "inputs": [
        {
          "internalType": "uint256",
          "name": "tokenId",
          "type": "uint256"
        }
      ],
      "name": "ownerOf",
      "outputs": [
        {
          "internalType": "address",
          "name": "",
          "type": "address"
        }
      ],
      "stateMutability": "view",
      "type": "function"
    },
    {
      "inputs": [
        {
          "internalType": "bytes32",
          "name": "role",
          "type": "bytes32"
        },
        {
          "internalType": "address",
          "name": "account",
          "type": "address"
        }
      ],
      "name": "renounceRole",
      "outputs": [],
      "stateMutability": "nonpayable",
      "type": "function"
    },
    {
      "inputs": [
        {
          "internalType": "bytes32",
          "name": "role",
          "type": "bytes32"
        },
        {
          "internalType": "address",
          "name": "account",
          "type": "address"
        }
      ],
      "name": "revokeRole",
      "outputs": [],
      "stateMutability": "nonpayable",
      "type": "function"
    },
    {
      "inputs": [
        {
          "internalType": "string",
          "name": "_name",
          "type": "string"
        },
        {
          "internalType": "string",
          "name": "_imageURI",
          "type": "string"
        },
        {
          "internalType": "uint256",
          "name": "_percievedLoudness",
          "type": "uint256"
        },
        {
          "internalType": "uint256",
          "name": "_tailLength",
          "type": "uint256"
        },
        {
          "internalType": "uint256",
          "name": "_bodyLength",
          "type": "uint256"
        },
        {
          "internalType": "uint256",
          "name": "_dynamicRange",
          "type": "uint256"
        },
        {
          "internalType": "uint256",
          "name": "_duration",
          "type": "uint256"
        },
        {
          "internalType": "bool",
          "name": "_redeemed",
          "type": "bool"
        }
      ],
      "name": "safeMint",
      "outputs": [],
      "stateMutability": "nonpayable",
      "type": "function"
    },
    {
      "inputs": [
        {
          "internalType": "address",
          "name": "from",
          "type": "address"
        },
        {
          "internalType": "address",
          "name": "to",
          "type": "address"
        },
        {
          "internalType": "uint256",
          "name": "tokenId",
          "type": "uint256"
        }
      ],
      "name": "safeTransferFrom",
      "outputs": [],
      "stateMutability": "nonpayable",
      "type": "function"
    },
    {
      "inputs": [
        {
          "internalType": "address",
          "name": "from",
          "type": "address"
        },
        {
          "internalType": "address",
          "name": "to",
          "type": "address"
        },
        {
          "internalType": "uint256",
          "name": "tokenId",
          "type": "uint256"
        },
        {
          "internalType": "bytes",
          "name": "data",
          "type": "bytes"
        }
      ],
      "name": "safeTransferFrom",
      "outputs": [],
      "stateMutability": "nonpayable",
      "type": "function"
    },
    {
      "inputs": [
        {
          "internalType": "address",
          "name": "operator",
          "type": "address"
        },
        {
          "internalType": "bool",
          "name": "approved",
          "type": "bool"
        }
      ],
      "name": "setApprovalForAll",
      "outputs": [],
      "stateMutability": "nonpayable",
      "type": "function"
    },
    {
      "inputs": [
        {
          "internalType": "bytes4",
          "name": "interfaceId",
          "type": "bytes4"
        }
      ],
      "name": "supportsInterface",
      "outputs": [
        {
          "internalType": "bool",
          "name": "",
          "type": "bool"
        }
      ],
      "stateMutability": "view",
      "type": "function"
    },
    {
      "inputs": [
        {
          "internalType": "uint256",
          "name": "tokenId",
          "type": "uint256"
        }
      ],
      "name": "switchRedeemed",
      "outputs": [],
      "stateMutability": "nonpayable",
      "type": "function"
    },
    {
      "inputs": [],
      "name": "symbol",
      "outputs": [
        {
          "internalType": "string",
          "name": "",
          "type": "string"
        }
      ],
      "stateMutability": "view",
      "type": "function"
    },
    {
      "inputs": [
        {
          "internalType": "uint256",
          "name": "_tokenId",
          "type": "uint256"
        }
      ],
      "name": "tokenURI",
      "outputs": [
        {
          "internalType": "string",
          "name": "",
          "type": "string"
        }
      ],
      "stateMutability": "view",
      "type": "function"
    },
    {
      "inputs": [
        {
          "internalType": "address",
          "name": "from",
          "type": "address"
        },
        {
          "internalType": "address",
          "name": "to",
          "type": "address"
        },
        {
          "internalType": "uint256",
          "name": "tokenId",
          "type": "uint256"
        }
      ],
      "name": "transferFrom",
      "outputs": [],
      "stateMutability": "nonpayable",
      "type": "function"
    },
    {
      "inputs": [
        {
          "internalType": "address",
          "name": "",
          "type": "address"
        },
        {
          "internalType": "uint256",
          "name": "",
          "type": "uint256"
        }
      ],
      "name": "yourCardsInGameMapping",
      "outputs": [
        {
          "internalType": "string",
          "name": "",
          "type": "string"
        }
      ],
      "stateMutability": "view",
      "type": "function"
    }
  ],
  "bytecode": "0x60806040523480156200001157600080fd5b506040518060400160405280600781526020017f4d79546f6b656e000000000000000000000000000000000000000000000000008152506040518060400160405280600381526020017f4d544b000000000000000000000000000000000000000000000000000000000081525081600090816200008f9190620004fd565b508060019081620000a19190620004fd565b505050620000b96000801b336200010860201b60201c565b620000eb7f9f2df0fed2c77648de5860a4cc508cd0818c85b8b8a1ab4ceeef8d981c8956a6336200010860201b60201c565b620001026007620001fa60201b620018691760201c565b620005e4565b6200011a82826200021060201b60201c565b620001f65760016006600084815260200190815260200160002060000160008373ffffffffffffffffffffffffffffffffffffffff1673ffffffffffffffffffffffffffffffffffffffff16815260200190815260200160002060006101000a81548160ff0219169083151502179055506200019b6200027b60201b60201c565b73ffffffffffffffffffffffffffffffffffffffff168173ffffffffffffffffffffffffffffffffffffffff16837f2f8788117e7eff1d82e926ec794901d17c78024a50270940304540a733656f0d60405160405180910390a45b5050565b6001816000016000828254019250508190555050565b60006006600084815260200190815260200160002060000160008373ffffffffffffffffffffffffffffffffffffffff1673ffffffffffffffffffffffffffffffffffffffff16815260200190815260200160002060009054906101000a900460ff16905092915050565b600033905090565b600081519050919050565b7f4e487b7100000000000000000000000000000000000000000000000000000000600052604160045260246000fd5b7f4e487b7100000000000000000000000000000000000000000000000000000000600052602260045260246000fd5b600060028204905060018216806200030557607f821691505b6020821081036200031b576200031a620002bd565b5b50919050565b60008190508160005260206000209050919050565b60006020601f8301049050919050565b600082821b905092915050565b600060088302620003857fffffffffffffffffffffffffffffffffffffffffffffffffffffffffffffffff8262000346565b62000391868362000346565b95508019841693508086168417925050509392505050565b6000819050919050565b6000819050919050565b6000620003de620003d8620003d284620003a9565b620003b3565b620003a9565b9050919050565b6000819050919050565b620003fa83620003bd565b620004126200040982620003e5565b84845462000353565b825550505050565b600090565b620004296200041a565b62000436818484620003ef565b505050565b5b818110156200045e57620004526000826200041f565b6001810190506200043c565b5050565b601f821115620004ad57620004778162000321565b620004828462000336565b8101602085101562000492578190505b620004aa620004a18562000336565b8301826200043b565b50505b505050565b600082821c905092915050565b6000620004d260001984600802620004b2565b1980831691505092915050565b6000620004ed8383620004bf565b9150826002028217905092915050565b620005088262000283565b67ffffffffffffffff8111156200052457620005236200028e565b5b620005308254620002ec565b6200053d82828562000462565b600060209050601f83116001811462000575576000841562000560578287015190505b6200056c8582620004df565b865550620005dc565b601f198416620005858662000321565b60005b82811015620005af5784890151825560018201915060208501945060208101905062000588565b86831015620005cf5784890151620005cb601f891682620004bf565b8355505b6001600288020188555050505b505050505050565b61507e80620005f46000396000f3fe608060405234801561001057600080fd5b50600436106101cf5760003560e01c806370a0823111610104578063b49f9fd7116100a2578063d539139311610071578063d53913931461058f578063d547741f146105ad578063e8197a25146105c9578063e985e9c5146105e5576101cf565b8063b49f9fd7146104f5578063b88d4fde14610525578063c87b56dd14610541578063cf1ac6e514610571576101cf565b806395d89b41116100de57806395d89b411461046657806398da4c9514610484578063a217fddf146104bb578063a22cb465146104d9576101cf565b806370a08231146103d6578063775bb50e1461040657806391d1485414610436576101cf565b80632f2ff15d1161017157806342842e0e1161014b57806342842e0e1461035257806342966c681461036e57806352a0a6611461038a5780636352211e146103a6576101cf565b80632f2ff15d146102ea57806336568abe146103065780633f3a1c7a14610322576101cf565b8063095ea7b3116101ad578063095ea7b31461025257806321d8f7731461026e57806323b872dd1461029e578063248a9ca3146102ba576101cf565b806301ffc9a7146101d457806306fdde0314610204578063081812fc14610222575b600080fd5b6101ee60048036038101906101e9919061319e565b610615565b6040516101fb91906131e6565b60405180910390f35b61020c610627565b6040516102199190613291565b60405180910390f35b61023c600480360381019061023791906132e9565b6106b9565b6040516102499190613357565b60405180910390f35b61026c6004803603810190610267919061339e565b6106ff565b005b610288600480360381019061028391906132e9565b610816565b60405161029591906131e6565b60405180910390f35b6102b860048036038101906102b391906133de565b6109b8565b005b6102d460048036038101906102cf9190613467565b610a18565b6040516102e191906134a3565b60405180910390f35b61030460048036038101906102ff91906134be565b610a38565b005b610320600480360381019061031b91906134be565b610a59565b005b61033c6004803603810190610337919061339e565b610adc565b6040516103499190613291565b60405180910390f35b61036c600480360381019061036791906133de565b610b95565b005b610388600480360381019061038391906132e9565b610bb5565b005b6103a4600480360381019061039f91906132e9565b610c11565b005b6103c060048036038101906103bb91906132e9565b610c49565b6040516103cd9190613357565b60405180910390f35b6103f060048036038101906103eb91906134fe565b610ccf565b6040516103fd919061353a565b60405180910390f35b610420600480360381019061041b919061339e565b610d86565b60405161042d919061353a565b60405180910390f35b610450600480360381019061044b91906134be565b610db7565b60405161045d91906131e6565b60405180910390f35b61046e610e22565b60405161047b9190613291565b60405180910390f35b61049e600480360381019061049991906132e9565b610eb4565b6040516104b2989796959493929190613555565b60405180910390f35b6104c3611019565b6040516104d091906134a3565b60405180910390f35b6104f360048036038101906104ee919061360d565b611020565b005b61050f600480360381019061050a919061364d565b611036565b60405161051c919061353a565b60405180910390f35b61053f600480360381019061053a91906137af565b611057565b005b61055b600480360381019061055691906132e9565b6110b9565b6040516105689190613291565b60405180910390f35b610579611355565b604051610586919061393e565b60405180910390f35b61059761146b565b6040516105a491906134a3565b60405180910390f35b6105c760048036038101906105c291906134be565b61148f565b005b6105e360048036038101906105de9190613a01565b6114b0565b005b6105ff60048036038101906105fa9190613aef565b6117d5565b60405161060c91906131e6565b60405180910390f35b60006106208261187f565b9050919050565b60606000805461063690613b5e565b80601f016020809104026020016040519081016040528092919081815260200182805461066290613b5e565b80156106af5780601f10610684576101008083540402835291602001916106af565b820191906000526020600020905b81548152906001019060200180831161069257829003601f168201915b5050505050905090565b60006106c4826118f9565b6004600083815260200190815260200160002060009054906101000a900473ffffffffffffffffffffffffffffffffffffffff169050919050565b600061070a82610c49565b90508073ffffffffffffffffffffffffffffffffffffffff168373ffffffffffffffffffffffffffffffffffffffff160361077a576040517f08c379a000000000000000000000000000000000000000000000000000000000815260040161077190613c01565b60405180910390fd5b8073ffffffffffffffffffffffffffffffffffffffff16610799611944565b73ffffffffffffffffffffffffffffffffffffffff1614806107c857506107c7816107c2611944565b6117d5565b5b610807576040517f08c379a00000000000000000000000000000000000000000000000000000000081526004016107fe90613c93565b60405180910390fd5b610811838361194c565b505050565b600080600960008481526020019081526020016000206040518061010001604052908160008201805461084890613b5e565b80601f016020809104026020016040519081016040528092919081815260200182805461087490613b5e565b80156108c15780601f10610896576101008083540402835291602001916108c1565b820191906000526020600020905b8154815290600101906020018083116108a457829003601f168201915b505050505081526020016001820180546108da90613b5e565b80601f016020809104026020016040519081016040528092919081815260200182805461090690613b5e565b80156109535780601f1061092857610100808354040283529160200191610953565b820191906000526020600020905b81548152906001019060200180831161093657829003601f168201915b5050505050815260200160028201548152602001600382015481526020016004820154815260200160058201548152602001600682015481526020016007820160009054906101000a900460ff16151515158152505090508060e00151915050919050565b6109c96109c3611944565b82611a05565b610a08576040517f08c379a00000000000000000000000000000000000000000000000000000000081526004016109ff90613d25565b60405180910390fd5b610a13838383611a9a565b505050565b600060066000838152602001908152602001600020600101549050919050565b610a4182610a18565b610a4a81611d93565b610a548383611da7565b505050565b610a61611944565b73ffffffffffffffffffffffffffffffffffffffff168173ffffffffffffffffffffffffffffffffffffffff1614610ace576040517f08c379a0000000000000000000000000000000000000000000000000000000008152600401610ac590613db7565b60405180910390fd5b610ad88282611e88565b5050565b600b6020528160005260406000208181548110610af857600080fd5b90600052602060002001600091509150508054610b1490613b5e565b80601f0160208091040260200160405190810160405280929190818152602001828054610b4090613b5e565b8015610b8d5780601f10610b6257610100808354040283529160200191610b8d565b820191906000526020600020905b815481529060010190602001808311610b7057829003601f168201915b505050505081565b610bb083838360405180602001604052806000815250611057565b505050565b610bc6610bc0611944565b82611a05565b610c05576040517f08c379a0000000000000000000000000000000000000000000000000000000008152600401610bfc90613d25565b60405180910390fd5b610c0e81611f6a565b50565b600060096000838152602001908152602001600020905060018160070160006101000a81548160ff0219169083151502179055505050565b600080610c55836120b8565b9050600073ffffffffffffffffffffffffffffffffffffffff168173ffffffffffffffffffffffffffffffffffffffff1603610cc6576040517f08c379a0000000000000000000000000000000000000000000000000000000008152600401610cbd90613e23565b60405180910390fd5b80915050919050565b60008073ffffffffffffffffffffffffffffffffffffffff168273ffffffffffffffffffffffffffffffffffffffff1603610d3f576040517f08c379a0000000000000000000000000000000000000000000000000000000008152600401610d3690613eb5565b60405180910390fd5b600360008373ffffffffffffffffffffffffffffffffffffffff1673ffffffffffffffffffffffffffffffffffffffff168152602001908152602001600020549050919050565b60086020528160005260406000208181548110610da257600080fd5b90600052602060002001600091509150505481565b60006006600084815260200190815260200160002060000160008373ffffffffffffffffffffffffffffffffffffffff1673ffffffffffffffffffffffffffffffffffffffff16815260200190815260200160002060009054906101000a900460ff16905092915050565b606060018054610e3190613b5e565b80601f0160208091040260200160405190810160405280929190818152602001828054610e5d90613b5e565b8015610eaa5780601f10610e7f57610100808354040283529160200191610eaa565b820191906000526020600020905b815481529060010190602001808311610e8d57829003601f168201915b5050505050905090565b6009602052806000526040600020600091509050806000018054610ed790613b5e565b80601f0160208091040260200160405190810160405280929190818152602001828054610f0390613b5e565b8015610f505780601f10610f2557610100808354040283529160200191610f50565b820191906000526020600020905b815481529060010190602001808311610f3357829003601f168201915b505050505090806001018054610f6590613b5e565b80601f0160208091040260200160405190810160405280929190818152602001828054610f9190613b5e565b8015610fde5780601f10610fb357610100808354040283529160200191610fde565b820191906000526020600020905b815481529060010190602001808311610fc157829003601f168201915b5050505050908060020154908060030154908060040154908060050154908060060154908060070160009054906101000a900460ff16905088565b6000801b81565b61103261102b611944565b83836120f5565b5050565b6000600115158215150361104d5760019050611052565b600090505b919050565b611068611062611944565b83611a05565b6110a7576040517f08c379a000000000000000000000000000000000000000000000000000000000815260040161109e90613d25565b60405180910390fd5b6110b384848484612261565b50505050565b6060600060096000848152602001908152602001600020604051806101000160405290816000820180546110ec90613b5e565b80601f016020809104026020016040519081016040528092919081815260200182805461111890613b5e565b80156111655780601f1061113a57610100808354040283529160200191611165565b820191906000526020600020905b81548152906001019060200180831161114857829003601f168201915b5050505050815260200160018201805461117e90613b5e565b80601f01602080910402602001604051908101604052809291908181526020018280546111aa90613b5e565b80156111f75780601f106111cc576101008083540402835291602001916111f7565b820191906000526020600020905b8154815290600101906020018083116111da57829003601f168201915b5050505050815260200160028201548152602001600382015481526020016004820154815260200160058201548152602001600682015481526020016007820160009054906101000a900460ff1615151515815250509050600061125e82604001516122bd565b9050600061126f83606001516122bd565b9050600061128084608001516122bd565b905060006112918560c001516122bd565b905060006112a28660a001516122bd565b905060006112b38760e00151611036565b905060006112c0826122bd565b905060006112ce60016122bd565b9050600061131c8a600001516112e38e6122bd565b8c602001518c87878e8e8d8f6040516020016113089a999897969594939291906143d1565b60405160208183030381529060405261238b565b90506000816040516020016113319190614522565b6040516020818303038152906040529050809b505050505050505050505050919050565b6060600b60003373ffffffffffffffffffffffffffffffffffffffff1673ffffffffffffffffffffffffffffffffffffffff168152602001908152602001600020805480602002602001604051908101604052809291908181526020016000905b828210156114625783829060005260206000200180546113d590613b5e565b80601f016020809104026020016040519081016040528092919081815260200182805461140190613b5e565b801561144e5780601f106114235761010080835404028352916020019161144e565b820191906000526020600020905b81548152906001019060200180831161143157829003601f168201915b5050505050815260200190600101906113b6565b50505050905090565b7f9f2df0fed2c77648de5860a4cc508cd0818c85b8b8a1ab4ceeef8d981c8956a681565b61149882610a18565b6114a181611d93565b6114ab8383611e88565b505050565b7f9f2df0fed2c77648de5860a4cc508cd0818c85b8b8a1ab4ceeef8d981c8956a66114da81611d93565b60006114e66007612522565b90506114f23382612530565b600860003373ffffffffffffffffffffffffffffffffffffffff1673ffffffffffffffffffffffffffffffffffffffff1681526020019081526020016000208190806001815401808255809150506001900390600052602060002001600090919091909150556040518061010001604052808b81526020018a81526020018981526020018881526020018781526020018681526020018581526020018415158152506009600083815260200190815260200160002060008201518160000190816115bc91906146f0565b5060208201518160010190816115d291906146f0565b5060408201518160020155606082015181600301556080820151816004015560a0820151816005015560c0820151816006015560e08201518160070160006101000a81548160ff021916908315150217905550905050600b60003373ffffffffffffffffffffffffffffffffffffffff1673ffffffffffffffffffffffffffffffffffffffff1681526020019081526020016000208990806001815401808255809150506001900390600052602060002001600090919091909150908161169991906146f0565b506116bd6040518060600160405280602e815260200161501b602e9139828c61254e565b600a6009600083815260200190815260200160002090806001815401808255809150506001900390600052602060002090600802016000909190919091506000820181600001908161170f91906147d8565b506001820181600101908161172491906147d8565b5060028201548160020155600382015481600301556004820154816004015560058201548160050155600682015481600601556007820160009054906101000a900460ff168160070160006101000a81548160ff02191690831515021790555050507f1fc669908b9d25690fe5308881be77af12afc6f62a2b0f26464380452a62288033826040516117b79291906148c0565b60405180910390a16117c96007611869565b50505050505050505050565b6000600560008473ffffffffffffffffffffffffffffffffffffffff1673ffffffffffffffffffffffffffffffffffffffff16815260200190815260200160002060008373ffffffffffffffffffffffffffffffffffffffff1673ffffffffffffffffffffffffffffffffffffffff16815260200190815260200160002060009054906101000a900460ff16905092915050565b6001816000016000828254019250508190555050565b60007f7965db0b000000000000000000000000000000000000000000000000000000007bffffffffffffffffffffffffffffffffffffffffffffffffffffffff1916827bffffffffffffffffffffffffffffffffffffffffffffffffffffffff191614806118f257506118f1826125ed565b5b9050919050565b611902816126cf565b611941576040517f08c379a000000000000000000000000000000000000000000000000000000000815260040161193890613e23565b60405180910390fd5b50565b600033905090565b816004600083815260200190815260200160002060006101000a81548173ffffffffffffffffffffffffffffffffffffffff021916908373ffffffffffffffffffffffffffffffffffffffff160217905550808273ffffffffffffffffffffffffffffffffffffffff166119bf83610c49565b73ffffffffffffffffffffffffffffffffffffffff167f8c5be1e5ebec7d5bd14f71427d1e84f3dd0314c0f7b2291e5b200ac8c7c3b92560405160405180910390a45050565b600080611a1183610c49565b90508073ffffffffffffffffffffffffffffffffffffffff168473ffffffffffffffffffffffffffffffffffffffff161480611a535750611a5281856117d5565b5b80611a9157508373ffffffffffffffffffffffffffffffffffffffff16611a79846106b9565b73ffffffffffffffffffffffffffffffffffffffff16145b91505092915050565b8273ffffffffffffffffffffffffffffffffffffffff16611aba82610c49565b73ffffffffffffffffffffffffffffffffffffffff1614611b10576040517f08c379a0000000000000000000000000000000000000000000000000000000008152600401611b079061495b565b60405180910390fd5b600073ffffffffffffffffffffffffffffffffffffffff168273ffffffffffffffffffffffffffffffffffffffff1603611b7f576040517f08c379a0000000000000000000000000000000000000000000000000000000008152600401611b76906149ed565b60405180910390fd5b611b8c8383836001612710565b8273ffffffffffffffffffffffffffffffffffffffff16611bac82610c49565b73ffffffffffffffffffffffffffffffffffffffff1614611c02576040517f08c379a0000000000000000000000000000000000000000000000000000000008152600401611bf99061495b565b60405180910390fd5b6004600082815260200190815260200160002060006101000a81549073ffffffffffffffffffffffffffffffffffffffff02191690556001600360008573ffffffffffffffffffffffffffffffffffffffff1673ffffffffffffffffffffffffffffffffffffffff168152602001908152602001600020600082825403925050819055506001600360008473ffffffffffffffffffffffffffffffffffffffff1673ffffffffffffffffffffffffffffffffffffffff16815260200190815260200160002060008282540192505081905550816002600083815260200190815260200160002060006101000a81548173ffffffffffffffffffffffffffffffffffffffff021916908373ffffffffffffffffffffffffffffffffffffffff160217905550808273ffffffffffffffffffffffffffffffffffffffff168473ffffffffffffffffffffffffffffffffffffffff167fddf252ad1be2c89b69c2b068fc378daa952ba7f163c4a11628f55a4df523b3ef60405160405180910390a4611d8e8383836001612836565b505050565b611da481611d9f611944565b61283c565b50565b611db18282610db7565b611e845760016006600084815260200190815260200160002060000160008373ffffffffffffffffffffffffffffffffffffffff1673ffffffffffffffffffffffffffffffffffffffff16815260200190815260200160002060006101000a81548160ff021916908315150217905550611e29611944565b73ffffffffffffffffffffffffffffffffffffffff168173ffffffffffffffffffffffffffffffffffffffff16837f2f8788117e7eff1d82e926ec794901d17c78024a50270940304540a733656f0d60405160405180910390a45b5050565b611e928282610db7565b15611f665760006006600084815260200190815260200160002060000160008373ffffffffffffffffffffffffffffffffffffffff1673ffffffffffffffffffffffffffffffffffffffff16815260200190815260200160002060006101000a81548160ff021916908315150217905550611f0b611944565b73ffffffffffffffffffffffffffffffffffffffff168173ffffffffffffffffffffffffffffffffffffffff16837ff6391f5c32d9c69d2a47ea670b442974b53935d1edc7fd64eb21e047a839171b60405160405180910390a45b5050565b6000611f7582610c49565b9050611f85816000846001612710565b611f8e82610c49565b90506004600083815260200190815260200160002060006101000a81549073ffffffffffffffffffffffffffffffffffffffff02191690556001600360008373ffffffffffffffffffffffffffffffffffffffff1673ffffffffffffffffffffffffffffffffffffffff168152602001908152602001600020600082825403925050819055506002600083815260200190815260200160002060006101000a81549073ffffffffffffffffffffffffffffffffffffffff021916905581600073ffffffffffffffffffffffffffffffffffffffff168273ffffffffffffffffffffffffffffffffffffffff167fddf252ad1be2c89b69c2b068fc378daa952ba7f163c4a11628f55a4df523b3ef60405160405180910390a46120b4816000846001612836565b5050565b60006002600083815260200190815260200160002060009054906101000a900473ffffffffffffffffffffffffffffffffffffffff169050919050565b8173ffffffffffffffffffffffffffffffffffffffff168373ffffffffffffffffffffffffffffffffffffffff1603612163576040517f08c379a000000000000000000000000000000000000000000000000000000000815260040161215a90614a59565b60405180910390fd5b80600560008573ffffffffffffffffffffffffffffffffffffffff1673ffffffffffffffffffffffffffffffffffffffff16815260200190815260200160002060008473ffffffffffffffffffffffffffffffffffffffff1673ffffffffffffffffffffffffffffffffffffffff16815260200190815260200160002060006101000a81548160ff0219169083151502179055508173ffffffffffffffffffffffffffffffffffffffff168373ffffffffffffffffffffffffffffffffffffffff167f17307eab39ab6107e8899845ad3d59bd9653f200f220920489ca2b5937696c318360405161225491906131e6565b60405180910390a3505050565b61226c848484611a9a565b612278848484846128c1565b6122b7576040517f08c379a00000000000000000000000000000000000000000000000000000000081526004016122ae90614aeb565b60405180910390fd5b50505050565b6060600060016122cc84612a48565b01905060008167ffffffffffffffff8111156122eb576122ea613684565b5b6040519080825280601f01601f19166020018201604052801561231d5781602001600182028036833780820191505090505b509050600082602001820190505b600115612380578080600190039150507f3031323334353637383961626364656600000000000000000000000000000000600a86061a8153600a858161237457612373614b0b565b5b0494506000850361232b575b819350505050919050565b6060600082519050600081036123b3576040518060200160405280600081525091505061251d565b600060036002836123c49190614b69565b6123ce9190614b9d565b60046123da9190614bce565b905060006020826123eb9190614b69565b67ffffffffffffffff81111561240457612403613684565b5b6040519080825280601f01601f1916602001820160405280156124365781602001600182028036833780820191505090505b5090506000604051806060016040528060408152602001614fdb604091399050600181016020830160005b868110156124da5760038101905062ffffff818a015116603f8160121c168401518060081b905060ff603f83600c1c1686015116810190508060081b905060ff603f8360061c1686015116810190508060081b905060ff603f831686015116810190508060e01b90508084526004840193505050612461565b5060038606600181146124f457600281146125045761250f565b613d3d60f01b600283035261250f565b603d60f81b60018303525b508484525050819450505050505b919050565b600081600001549050919050565b61254a828260405180602001604052806000815250612b9b565b5050565b6125e883838360405160240161256693929190614c10565b6040516020818303038152906040527f5970e089000000000000000000000000000000000000000000000000000000007bffffffffffffffffffffffffffffffffffffffffffffffffffffffff19166020820180517bffffffffffffffffffffffffffffffffffffffffffffffffffffffff8381831617835250505050612bf6565b505050565b60007f80ac58cd000000000000000000000000000000000000000000000000000000007bffffffffffffffffffffffffffffffffffffffffffffffffffffffff1916827bffffffffffffffffffffffffffffffffffffffffffffffffffffffff191614806126b857507f5b5e139f000000000000000000000000000000000000000000000000000000007bffffffffffffffffffffffffffffffffffffffffffffffffffffffff1916827bffffffffffffffffffffffffffffffffffffffffffffffffffffffff1916145b806126c857506126c782612c1f565b5b9050919050565b60008073ffffffffffffffffffffffffffffffffffffffff166126f1836120b8565b73ffffffffffffffffffffffffffffffffffffffff1614159050919050565b600181111561283057600073ffffffffffffffffffffffffffffffffffffffff168473ffffffffffffffffffffffffffffffffffffffff16146127a45780600360008673ffffffffffffffffffffffffffffffffffffffff1673ffffffffffffffffffffffffffffffffffffffff168152602001908152602001600020600082825461279c9190614c55565b925050819055505b600073ffffffffffffffffffffffffffffffffffffffff168373ffffffffffffffffffffffffffffffffffffffff161461282f5780600360008573ffffffffffffffffffffffffffffffffffffffff1673ffffffffffffffffffffffffffffffffffffffff16815260200190815260200160002060008282546128279190614b69565b925050819055505b5b50505050565b50505050565b6128468282610db7565b6128bd5761285381612c89565b6128618360001c6020612cb6565b604051602001612872929190614d21565b6040516020818303038152906040526040517f08c379a00000000000000000000000000000000000000000000000000000000081526004016128b49190613291565b60405180910390fd5b5050565b60006128e28473ffffffffffffffffffffffffffffffffffffffff16612ef2565b15612a3b578373ffffffffffffffffffffffffffffffffffffffff1663150b7a0261290b611944565b8786866040518563ffffffff1660e01b815260040161292d9493929190614db0565b6020604051808303816000875af192505050801561296957506040513d601f19601f820116820180604052508101906129669190614e11565b60015b6129eb573d8060008114612999576040519150601f19603f3d011682016040523d82523d6000602084013e61299e565b606091505b5060008151036129e3576040517f08c379a00000000000000000000000000000000000000000000000000000000081526004016129da90614aeb565b60405180910390fd5b805181602001fd5b63150b7a0260e01b7bffffffffffffffffffffffffffffffffffffffffffffffffffffffff1916817bffffffffffffffffffffffffffffffffffffffffffffffffffffffff191614915050612a40565b600190505b949350505050565b600080600090507a184f03e93ff9f4daa797ed6e38ed64bf6a1f0100000000000000008310612aa6577a184f03e93ff9f4daa797ed6e38ed64bf6a1f0100000000000000008381612a9c57612a9b614b0b565b5b0492506040810190505b6d04ee2d6d415b85acef81000000008310612ae3576d04ee2d6d415b85acef81000000008381612ad957612ad8614b0b565b5b0492506020810190505b662386f26fc100008310612b1257662386f26fc100008381612b0857612b07614b0b565b5b0492506010810190505b6305f5e1008310612b3b576305f5e1008381612b3157612b30614b0b565b5b0492506008810190505b6127108310612b60576127108381612b5657612b55614b0b565b5b0492506004810190505b60648310612b835760648381612b7957612b78614b0b565b5b0492506002810190505b600a8310612b92576001810190505b80915050919050565b612ba58383612f15565b612bb260008484846128c1565b612bf1576040517f08c379a0000000000000000000000000000000000000000000000000000000008152600401612be890614aeb565b60405180910390fd5b505050565b60008151905060006a636f6e736f6c652e6c6f679050602083016000808483855afa5050505050565b60007f01ffc9a7000000000000000000000000000000000000000000000000000000007bffffffffffffffffffffffffffffffffffffffffffffffffffffffff1916827bffffffffffffffffffffffffffffffffffffffffffffffffffffffff1916149050919050565b6060612caf8273ffffffffffffffffffffffffffffffffffffffff16601460ff16612cb6565b9050919050565b606060006002836002612cc99190614bce565b612cd39190614b69565b67ffffffffffffffff811115612cec57612ceb613684565b5b6040519080825280601f01601f191660200182016040528015612d1e5781602001600182028036833780820191505090505b5090507f300000000000000000000000000000000000000000000000000000000000000081600081518110612d5657612d55614e3e565b5b60200101907effffffffffffffffffffffffffffffffffffffffffffffffffffffffffffff1916908160001a9053507f780000000000000000000000000000000000000000000000000000000000000081600181518110612dba57612db9614e3e565b5b60200101907effffffffffffffffffffffffffffffffffffffffffffffffffffffffffffff1916908160001a90535060006001846002612dfa9190614bce565b612e049190614b69565b90505b6001811115612ea4577f3031323334353637383961626364656600000000000000000000000000000000600f861660108110612e4657612e45614e3e565b5b1a60f81b828281518110612e5d57612e5c614e3e565b5b60200101907effffffffffffffffffffffffffffffffffffffffffffffffffffffffffffff1916908160001a905350600485901c945080612e9d90614e6d565b9050612e07565b5060008414612ee8576040517f08c379a0000000000000000000000000000000000000000000000000000000008152600401612edf90614ee2565b60405180910390fd5b8091505092915050565b6000808273ffffffffffffffffffffffffffffffffffffffff163b119050919050565b600073ffffffffffffffffffffffffffffffffffffffff168273ffffffffffffffffffffffffffffffffffffffff1603612f84576040517f08c379a0000000000000000000000000000000000000000000000000000000008152600401612f7b90614f4e565b60405180910390fd5b612f8d816126cf565b15612fcd576040517f08c379a0000000000000000000000000000000000000000000000000000000008152600401612fc490614fba565b60405180910390fd5b612fdb600083836001612710565b612fe4816126cf565b15613024576040517f08c379a000000000000000000000000000000000000000000000000000000000815260040161301b90614fba565b60405180910390fd5b6001600360008473ffffffffffffffffffffffffffffffffffffffff1673ffffffffffffffffffffffffffffffffffffffff16815260200190815260200160002060008282540192505081905550816002600083815260200190815260200160002060006101000a81548173ffffffffffffffffffffffffffffffffffffffff021916908373ffffffffffffffffffffffffffffffffffffffff160217905550808273ffffffffffffffffffffffffffffffffffffffff16600073ffffffffffffffffffffffffffffffffffffffff167fddf252ad1be2c89b69c2b068fc378daa952ba7f163c4a11628f55a4df523b3ef60405160405180910390a461312e600083836001612836565b5050565b6000604051905090565b600080fd5b600080fd5b60007fffffffff0000000000000000000000000000000000000000000000000000000082169050919050565b61317b81613146565b811461318657600080fd5b50565b60008135905061319881613172565b92915050565b6000602082840312156131b4576131b361313c565b5b60006131c284828501613189565b91505092915050565b60008115159050919050565b6131e0816131cb565b82525050565b60006020820190506131fb60008301846131d7565b92915050565b600081519050919050565b600082825260208201905092915050565b60005b8381101561323b578082015181840152602081019050613220565b60008484015250505050565b6000601f19601f8301169050919050565b600061326382613201565b61326d818561320c565b935061327d81856020860161321d565b61328681613247565b840191505092915050565b600060208201905081810360008301526132ab8184613258565b905092915050565b6000819050919050565b6132c6816132b3565b81146132d157600080fd5b50565b6000813590506132e3816132bd565b92915050565b6000602082840312156132ff576132fe61313c565b5b600061330d848285016132d4565b91505092915050565b600073ffffffffffffffffffffffffffffffffffffffff82169050919050565b600061334182613316565b9050919050565b61335181613336565b82525050565b600060208201905061336c6000830184613348565b92915050565b61337b81613336565b811461338657600080fd5b50565b60008135905061339881613372565b92915050565b600080604083850312156133b5576133b461313c565b5b60006133c385828601613389565b92505060206133d4858286016132d4565b9150509250929050565b6000806000606084860312156133f7576133f661313c565b5b600061340586828701613389565b935050602061341686828701613389565b9250506040613427868287016132d4565b9150509250925092565b6000819050919050565b61344481613431565b811461344f57600080fd5b50565b6000813590506134618161343b565b92915050565b60006020828403121561347d5761347c61313c565b5b600061348b84828501613452565b91505092915050565b61349d81613431565b82525050565b60006020820190506134b86000830184613494565b92915050565b600080604083850312156134d5576134d461313c565b5b60006134e385828601613452565b92505060206134f485828601613389565b9150509250929050565b6000602082840312156135145761351361313c565b5b600061352284828501613389565b91505092915050565b613534816132b3565b82525050565b600060208201905061354f600083018461352b565b92915050565b6000610100820190508181036000830152613570818b613258565b90508181036020830152613584818a613258565b9050613593604083018961352b565b6135a0606083018861352b565b6135ad608083018761352b565b6135ba60a083018661352b565b6135c760c083018561352b565b6135d460e08301846131d7565b9998505050505050505050565b6135ea816131cb565b81146135f557600080fd5b50565b600081359050613607816135e1565b92915050565b600080604083850312156136245761362361313c565b5b600061363285828601613389565b9250506020613643858286016135f8565b9150509250929050565b6000602082840312156136635761366261313c565b5b6000613671848285016135f8565b91505092915050565b600080fd5b600080fd5b7f4e487b7100000000000000000000000000000000000000000000000000000000600052604160045260246000fd5b6136bc82613247565b810181811067ffffffffffffffff821117156136db576136da613684565b5b80604052505050565b60006136ee613132565b90506136fa82826136b3565b919050565b600067ffffffffffffffff82111561371a57613719613684565b5b61372382613247565b9050602081019050919050565b82818337600083830152505050565b600061375261374d846136ff565b6136e4565b90508281526020810184848401111561376e5761376d61367f565b5b613779848285613730565b509392505050565b600082601f8301126137965761379561367a565b5b81356137a684826020860161373f565b91505092915050565b600080600080608085870312156137c9576137c861313c565b5b60006137d787828801613389565b94505060206137e887828801613389565b93505060406137f9878288016132d4565b925050606085013567ffffffffffffffff81111561381a57613819613141565b5b61382687828801613781565b91505092959194509250565b600081519050919050565b600082825260208201905092915050565b6000819050602082019050919050565b600082825260208201905092915050565b600061387a82613201565b613884818561385e565b935061389481856020860161321d565b61389d81613247565b840191505092915050565b60006138b4838361386f565b905092915050565b6000602082019050919050565b60006138d482613832565b6138de818561383d565b9350836020820285016138f08561384e565b8060005b8581101561392c578484038952815161390d85826138a8565b9450613918836138bc565b925060208a019950506001810190506138f4565b50829750879550505050505092915050565b6000602082019050818103600083015261395881846138c9565b905092915050565b600067ffffffffffffffff82111561397b5761397a613684565b5b61398482613247565b9050602081019050919050565b60006139a461399f84613960565b6136e4565b9050828152602081018484840111156139c0576139bf61367f565b5b6139cb848285613730565b509392505050565b600082601f8301126139e8576139e761367a565b5b81356139f8848260208601613991565b91505092915050565b600080600080600080600080610100898b031215613a2257613a2161313c565b5b600089013567ffffffffffffffff811115613a4057613a3f613141565b5b613a4c8b828c016139d3565b985050602089013567ffffffffffffffff811115613a6d57613a6c613141565b5b613a798b828c016139d3565b9750506040613a8a8b828c016132d4565b9650506060613a9b8b828c016132d4565b9550506080613aac8b828c016132d4565b94505060a0613abd8b828c016132d4565b93505060c0613ace8b828c016132d4565b92505060e0613adf8b828c016135f8565b9150509295985092959890939650565b60008060408385031215613b0657613b0561313c565b5b6000613b1485828601613389565b9250506020613b2585828601613389565b9150509250929050565b7f4e487b7100000000000000000000000000000000000000000000000000000000600052602260045260246000fd5b60006002820490506001821680613b7657607f821691505b602082108103613b8957613b88613b2f565b5b50919050565b7f4552433732313a20617070726f76616c20746f2063757272656e74206f776e6560008201527f7200000000000000000000000000000000000000000000000000000000000000602082015250565b6000613beb60218361320c565b9150613bf682613b8f565b604082019050919050565b60006020820190508181036000830152613c1a81613bde565b9050919050565b7f4552433732313a20617070726f76652063616c6c6572206973206e6f7420746f60008201527f6b656e206f776e6572206f7220617070726f76656420666f7220616c6c000000602082015250565b6000613c7d603d8361320c565b9150613c8882613c21565b604082019050919050565b60006020820190508181036000830152613cac81613c70565b9050919050565b7f4552433732313a2063616c6c6572206973206e6f7420746f6b656e206f776e6560008201527f72206f7220617070726f76656400000000000000000000000000000000000000602082015250565b6000613d0f602d8361320c565b9150613d1a82613cb3565b604082019050919050565b60006020820190508181036000830152613d3e81613d02565b9050919050565b7f416363657373436f6e74726f6c3a2063616e206f6e6c792072656e6f756e636560008201527f20726f6c657320666f722073656c660000000000000000000000000000000000602082015250565b6000613da1602f8361320c565b9150613dac82613d45565b604082019050919050565b60006020820190508181036000830152613dd081613d94565b9050919050565b7f4552433732313a20696e76616c696420746f6b656e2049440000000000000000600082015250565b6000613e0d60188361320c565b9150613e1882613dd7565b602082019050919050565b60006020820190508181036000830152613e3c81613e00565b9050919050565b7f4552433732313a2061646472657373207a65726f206973206e6f74206120766160008201527f6c6964206f776e65720000000000000000000000000000000000000000000000602082015250565b6000613e9f60298361320c565b9150613eaa82613e43565b604082019050919050565b60006020820190508181036000830152613ece81613e92565b9050919050565b600081905092915050565b7f7b226e616d65223a202200000000000000000000000000000000000000000000600082015250565b6000613f16600a83613ed5565b9150613f2182613ee0565b600a82019050919050565b6000613f3782613201565b613f418185613ed5565b9350613f5181856020860161321d565b80840191505092915050565b7f202d2d204e465420233a20000000000000000000000000000000000000000000600082015250565b6000613f93600b83613ed5565b9150613f9e82613f5d565b600b82019050919050565b7f222c20226465736372697074696f6e223a20225468697320697320616e204e4660008201527f542074686174206c6574732070656f706c6520706c617920616e64207472616460208201527f6520666f72206120536f6e69632047616d6521222c2022696d616765223a202260408201527f697066733a2f2f00000000000000000000000000000000000000000000000000606082015250565b6000614051606783613ed5565b915061405c82613fa9565b606782019050919050565b7f222c202261747472696275746573223a205b207b202274726169745f7479706560008201527f223a2022506572636965766564204c6f75646e657373222c202276616c75652260208201527f3a20000000000000000000000000000000000000000000000000000000000000604082015250565b60006140e9604283613ed5565b91506140f482614067565b604282019050919050565b7f7d2c7b202274726169745f74797065223a202252656465656d6564222c20227660008201527f616c7565223a2000000000000000000000000000000000000000000000000000602082015250565b600061415b602783613ed5565b9150614166826140ff565b602782019050919050565b7f2c20226d61785f76616c7565223a000000000000000000000000000000000000600082015250565b60006141a7600e83613ed5565b91506141b282614171565b600e82019050919050565b7f7d2c207b202274726169745f74797065223a20225461696c204c656e6774682260008201527f2c202276616c7565223a20000000000000000000000000000000000000000000602082015250565b6000614219602b83613ed5565b9150614224826141bd565b602b82019050919050565b7f7d2c207b202274726169745f74797065223a2022426f6479204c656e6774682260008201527f2c202276616c7565223a20000000000000000000000000000000000000000000602082015250565b600061428b602b83613ed5565b91506142968261422f565b602b82019050919050565b7f7d2c207b202274726169745f74797065223a202244796e616d69632052616e6760008201527f65222c202276616c7565223a2000000000000000000000000000000000000000602082015250565b60006142fd602d83613ed5565b9150614308826142a1565b602d82019050919050565b7f7d2c20207b202274726169745f74797065223a20224475726174696f6e222c2060008201527f2276616c7565223a200000000000000000000000000000000000000000000000602082015250565b600061436f602983613ed5565b915061437a82614313565b602982019050919050565b7f7d205d7d00000000000000000000000000000000000000000000000000000000600082015250565b60006143bb600483613ed5565b91506143c682614385565b600482019050919050565b60006143dc82613f09565b91506143e8828d613f2c565b91506143f382613f86565b91506143ff828c613f2c565b915061440a82614044565b9150614416828b613f2c565b9150614421826140dc565b915061442d828a613f2c565b91506144388261414e565b91506144448289613f2c565b915061444f8261419a565b915061445b8288613f2c565b91506144668261420c565b91506144728287613f2c565b915061447d8261427e565b91506144898286613f2c565b9150614494826142f0565b91506144a08285613f2c565b91506144ab82614362565b91506144b78284613f2c565b91506144c2826143ae565b91508190509b9a5050505050505050505050565b7f646174613a6170706c69636174696f6e2f6a736f6e3b6261736536342c000000600082015250565b600061450c601d83613ed5565b9150614517826144d6565b601d82019050919050565b600061452d826144ff565b91506145398284613f2c565b915081905092915050565b60008190508160005260206000209050919050565b60006020601f8301049050919050565b600082821b905092915050565b6000600883026145a67fffffffffffffffffffffffffffffffffffffffffffffffffffffffffffffffff82614569565b6145b08683614569565b95508019841693508086168417925050509392505050565b6000819050919050565b60006145ed6145e86145e3846132b3565b6145c8565b6132b3565b9050919050565b6000819050919050565b614607836145d2565b61461b614613826145f4565b848454614576565b825550505050565b600090565b614630614623565b61463b8184846145fe565b505050565b5b8181101561465f57614654600082614628565b600181019050614641565b5050565b601f8211156146a45761467581614544565b61467e84614559565b8101602085101561468d578190505b6146a161469985614559565b830182614640565b50505b505050565b600082821c905092915050565b60006146c7600019846008026146a9565b1980831691505092915050565b60006146e083836146b6565b9150826002028217905092915050565b6146f982613201565b67ffffffffffffffff81111561471257614711613684565b5b61471c8254613b5e565b614727828285614663565b600060209050601f83116001811461475a5760008415614748578287015190505b61475285826146d4565b8655506147ba565b601f19841661476886614544565b60005b828110156147905784890151825560018201915060208501945060208101905061476b565b868310156147ad57848901516147a9601f8916826146b6565b8355505b6001600288020188555050505b505050505050565b6000815490506147d181613b5e565b9050919050565b8181036147e65750506148be565b6147ef826147c2565b67ffffffffffffffff81111561480857614807613684565b5b6148128254613b5e565b61481d828285614663565b6000601f83116001811461484c576000841561483a578287015490505b61484485826146d4565b8655506148b7565b601f19841661485a87614544565b965061486586614544565b60005b8281101561488d57848901548255600182019150600185019450602081019050614868565b868310156148aa57848901546148a6601f8916826146b6565b8355505b6001600288020188555050505b5050505050505b565b60006040820190506148d56000830185613348565b6148e2602083018461352b565b9392505050565b7f4552433732313a207472616e736665722066726f6d20696e636f72726563742060008201527f6f776e6572000000000000000000000000000000000000000000000000000000602082015250565b600061494560258361320c565b9150614950826148e9565b604082019050919050565b6000602082019050818103600083015261497481614938565b9050919050565b7f4552433732313a207472616e7366657220746f20746865207a65726f2061646460008201527f7265737300000000000000000000000000000000000000000000000000000000602082015250565b60006149d760248361320c565b91506149e28261497b565b604082019050919050565b60006020820190508181036000830152614a06816149ca565b9050919050565b7f4552433732313a20617070726f766520746f2063616c6c657200000000000000600082015250565b6000614a4360198361320c565b9150614a4e82614a0d565b602082019050919050565b60006020820190508181036000830152614a7281614a36565b9050919050565b7f4552433732313a207472616e7366657220746f206e6f6e20455243373231526560008201527f63656976657220696d706c656d656e7465720000000000000000000000000000602082015250565b6000614ad560328361320c565b9150614ae082614a79565b604082019050919050565b60006020820190508181036000830152614b0481614ac8565b9050919050565b7f4e487b7100000000000000000000000000000000000000000000000000000000600052601260045260246000fd5b7f4e487b7100000000000000000000000000000000000000000000000000000000600052601160045260246000fd5b6000614b74826132b3565b9150614b7f836132b3565b9250828201905080821115614b9757614b96614b3a565b5b92915050565b6000614ba8826132b3565b9150614bb3836132b3565b925082614bc357614bc2614b0b565b5b828204905092915050565b6000614bd9826132b3565b9150614be4836132b3565b9250828202614bf2816132b3565b91508282048414831517614c0957614c08614b3a565b5b5092915050565b60006060820190508181036000830152614c2a8186613258565b9050614c39602083018561352b565b8181036040830152614c4b8184613258565b9050949350505050565b6000614c60826132b3565b9150614c6b836132b3565b9250828203905081811115614c8357614c82614b3a565b5b92915050565b7f416363657373436f6e74726f6c3a206163636f756e7420000000000000000000600082015250565b6000614cbf601783613ed5565b9150614cca82614c89565b601782019050919050565b7f206973206d697373696e6720726f6c6520000000000000000000000000000000600082015250565b6000614d0b601183613ed5565b9150614d1682614cd5565b601182019050919050565b6000614d2c82614cb2565b9150614d388285613f2c565b9150614d4382614cfe565b9150614d4f8284613f2c565b91508190509392505050565b600081519050919050565b600082825260208201905092915050565b6000614d8282614d5b565b614d8c8185614d66565b9350614d9c81856020860161321d565b614da581613247565b840191505092915050565b6000608082019050614dc56000830187613348565b614dd26020830186613348565b614ddf604083018561352b565b8181036060830152614df18184614d77565b905095945050505050565b600081519050614e0b81613172565b92915050565b600060208284031215614e2757614e2661313c565b5b6000614e3584828501614dfc565b91505092915050565b7f4e487b7100000000000000000000000000000000000000000000000000000000600052603260045260246000fd5b6000614e78826132b3565b915060008203614e8b57614e8a614b3a565b5b600182039050919050565b7f537472696e67733a20686578206c656e67746820696e73756666696369656e74600082015250565b6000614ecc60208361320c565b9150614ed782614e96565b602082019050919050565b60006020820190508181036000830152614efb81614ebf565b9050919050565b7f4552433732313a206d696e7420746f20746865207a65726f2061646472657373600082015250565b6000614f3860208361320c565b9150614f4382614f02565b602082019050919050565b60006020820190508181036000830152614f6781614f2b565b9050919050565b7f4552433732313a20746f6b656e20616c7265616479206d696e74656400000000600082015250565b6000614fa4601c8361320c565b9150614faf82614f6e565b602082019050919050565b60006020820190508181036000830152614fd381614f97565b905091905056fe4142434445464748494a4b4c4d4e4f505152535455565758595a6162636465666768696a6b6c6d6e6f707172737475767778797a303132333435363738392b2f4d696e746564204e465420772f20746f6b656e496420257320616e6420636861726163746572496e646578202573a264697066735822122076d622276437dc90cc181d33bbae9cb9cb93c5335470585645c6dcc24302321864736f6c63430008110033",
  "linkReferences": {},
  "deployedLinkReferences": {}
}