{
  "_format": "hh-sol-artifact-1",
  "contractName": "MyNFT",
  "sourceName": "contracts/MyNFT.sol",
  "abi": [
    {
      "inputs": [],
      "stateMutability": "nonpayable",
      "type": "constructor"
    },
    {
      "anonymous": false,
      "inputs": [
        {
          "indexed": true,
          "internalType": "address",
          "name": "owner",
          "type": "address"
        },
        {
          "indexed": true,
          "internalType": "address",
          "name": "approved",
          "type": "address"
        },
        {
          "indexed": true,
          "internalType": "uint256",
          "name": "tokenId",
          "type": "uint256"
        }
      ],
      "name": "Approval",
      "type": "event"
    },
    {
      "anonymous": false,
      "inputs": [
        {
          "indexed": true,
          "internalType": "address",
          "name": "owner",
          "type": "address"
        },
        {
          "indexed": true,
          "internalType": "address",
          "name": "operator",
          "type": "address"
        },
        {
          "indexed": false,
          "internalType": "bool",
          "name": "approved",
          "type": "bool"
        }
      ],
      "name": "ApprovalForAll",
      "type": "event"
    },
    {
      "anonymous": false,
      "inputs": [
        {
          "indexed": false,
          "internalType": "address",
          "name": "sender",
          "type": "address"
        },
        {
          "indexed": false,
          "internalType": "uint256",
          "name": "tokenId",
          "type": "uint256"
        }
      ],
      "name": "MintReceipt",
      "type": "event"
    },
    {
      "anonymous": false,
      "inputs": [
        {
          "indexed": true,
          "internalType": "bytes32",
          "name": "role",
          "type": "bytes32"
        },
        {
          "indexed": true,
          "internalType": "bytes32",
          "name": "previousAdminRole",
          "type": "bytes32"
        },
        {
          "indexed": true,
          "internalType": "bytes32",
          "name": "newAdminRole",
          "type": "bytes32"
        }
      ],
      "name": "RoleAdminChanged",
      "type": "event"
    },
    {
      "anonymous": false,
      "inputs": [
        {
          "indexed": true,
          "internalType": "bytes32",
          "name": "role",
          "type": "bytes32"
        },
        {
          "indexed": true,
          "internalType": "address",
          "name": "account",
          "type": "address"
        },
        {
          "indexed": true,
          "internalType": "address",
          "name": "sender",
          "type": "address"
        }
      ],
      "name": "RoleGranted",
      "type": "event"
    },
    {
      "anonymous": false,
      "inputs": [
        {
          "indexed": true,
          "internalType": "bytes32",
          "name": "role",
          "type": "bytes32"
        },
        {
          "indexed": true,
          "internalType": "address",
          "name": "account",
          "type": "address"
        },
        {
          "indexed": true,
          "internalType": "address",
          "name": "sender",
          "type": "address"
        }
      ],
      "name": "RoleRevoked",
      "type": "event"
    },
    {
      "anonymous": false,
      "inputs": [
        {
          "indexed": true,
          "internalType": "address",
          "name": "from",
          "type": "address"
        },
        {
          "indexed": true,
          "internalType": "address",
          "name": "to",
          "type": "address"
        },
        {
          "indexed": true,
          "internalType": "uint256",
          "name": "tokenId",
          "type": "uint256"
        }
      ],
      "name": "Transfer",
      "type": "event"
    },
    {
      "inputs": [],
      "name": "DEFAULT_ADMIN_ROLE",
      "outputs": [
        {
          "internalType": "bytes32",
          "name": "",
          "type": "bytes32"
        }
      ],
      "stateMutability": "view",
      "type": "function"
    },
    {
      "inputs": [],
      "name": "MINTER_ROLE",
      "outputs": [
        {
          "internalType": "bytes32",
          "name": "",
          "type": "bytes32"
        }
      ],
      "stateMutability": "view",
      "type": "function"
    },
    {
      "inputs": [
        {
          "internalType": "address",
          "name": "to",
          "type": "address"
        },
        {
          "internalType": "uint256",
          "name": "tokenId",
          "type": "uint256"
        }
      ],
      "name": "approve",
      "outputs": [],
      "stateMutability": "nonpayable",
      "type": "function"
    },
    {
      "inputs": [
        {
          "internalType": "address",
          "name": "owner",
          "type": "address"
        }
      ],
      "name": "balanceOf",
      "outputs": [
        {
          "internalType": "uint256",
          "name": "",
          "type": "uint256"
        }
      ],
      "stateMutability": "view",
      "type": "function"
    },
    {
      "inputs": [
        {
          "internalType": "uint256",
          "name": "tokenId",
          "type": "uint256"
        }
      ],
      "name": "burn",
      "outputs": [],
      "stateMutability": "nonpayable",
      "type": "function"
    },
    {
      "inputs": [],
      "name": "checkForUsersNFTs",
      "outputs": [
        {
          "internalType": "string[]",
          "name": "yoCardsInGame",
          "type": "string[]"
        }
      ],
      "stateMutability": "view",
      "type": "function"
    },
    {
      "inputs": [
        {
          "internalType": "uint256",
          "name": "tokenId",
          "type": "uint256"
        }
      ],
      "name": "checkRedemptionStatus",
      "outputs": [
        {
          "internalType": "bool",
          "name": "",
          "type": "bool"
        }
      ],
      "stateMutability": "view",
      "type": "function"
    },
    {
      "inputs": [
        {
          "internalType": "uint256",
          "name": "tokenId",
          "type": "uint256"
        }
      ],
      "name": "getApproved",
      "outputs": [
        {
          "internalType": "address",
          "name": "",
          "type": "address"
        }
      ],
      "stateMutability": "view",
      "type": "function"
    },
    {
      "inputs": [
        {
          "internalType": "bytes32",
          "name": "role",
          "type": "bytes32"
        }
      ],
      "name": "getRoleAdmin",
      "outputs": [
        {
          "internalType": "bytes32",
          "name": "",
          "type": "bytes32"
        }
      ],
      "stateMutability": "view",
      "type": "function"
    },
    {
      "inputs": [
        {
          "internalType": "bytes32",
          "name": "role",
          "type": "bytes32"
        },
        {
          "internalType": "address",
          "name": "account",
          "type": "address"
        }
      ],
      "name": "grantRole",
      "outputs": [],
      "stateMutability": "nonpayable",
      "type": "function"
    },
    {
      "inputs": [
        {
          "internalType": "bytes32",
          "name": "role",
          "type": "bytes32"
        },
        {
          "internalType": "address",
          "name": "account",
          "type": "address"
        }
      ],
      "name": "hasRole",
      "outputs": [
        {
          "internalType": "bool",
          "name": "",
          "type": "bool"
        }
      ],
      "stateMutability": "view",
      "type": "function"
    },
    {
      "inputs": [
        {
          "internalType": "address",
          "name": "owner",
          "type": "address"
        },
        {
          "internalType": "address",
          "name": "operator",
          "type": "address"
        }
      ],
      "name": "isApprovedForAll",
      "outputs": [
        {
          "internalType": "bool",
          "name": "",
          "type": "bool"
        }
      ],
      "stateMutability": "view",
      "type": "function"
    },
    {
      "inputs": [],
      "name": "name",
      "outputs": [
        {
          "internalType": "string",
          "name": "",
          "type": "string"
        }
      ],
      "stateMutability": "view",
      "type": "function"
    },
    {
      "inputs": [
        {
          "internalType": "uint256",
          "name": "",
          "type": "uint256"
        }
      ],
      "name": "nftHolderAttributes",
      "outputs": [
        {
          "internalType": "string",
          "name": "name",
          "type": "string"
        },
        {
          "internalType": "string",
          "name": "imageURI",
          "type": "string"
        },
        {
          "internalType": "uint256",
          "name": "percievedLoudness",
          "type": "uint256"
        },
        {
          "internalType": "uint256",
          "name": "tailLength",
          "type": "uint256"
        },
        {
          "internalType": "uint256",
          "name": "bodyLength",
          "type": "uint256"
        },
        {
          "internalType": "uint256",
          "name": "dynamicRange",
          "type": "uint256"
        },
        {
          "internalType": "uint256",
          "name": "duration",
          "type": "uint256"
        },
        {
          "internalType": "bool",
          "name": "redeemed",
          "type": "bool"
        }
      ],
      "stateMutability": "view",
      "type": "function"
    },
    {
      "inputs": [
        {
          "internalType": "address",
          "name": "",
          "type": "address"
        },
        {
          "internalType": "uint256",
          "name": "",
          "type": "uint256"
        }
      ],
      "name": "nftHolders",
      "outputs": [
        {
          "internalType": "uint256",
          "name": "",
          "type": "uint256"
        }
      ],
      "stateMutability": "view",
      "type": "function"
    },
    {
      "inputs": [
        {
          "internalType": "uint256",
          "name": "tokenId",
          "type": "uint256"
        }
      ],
      "name": "ownerOf",
      "outputs": [
        {
          "internalType": "address",
          "name": "",
          "type": "address"
        }
      ],
      "stateMutability": "view",
      "type": "function"
    },
    {
      "inputs": [
        {
          "internalType": "bytes32",
          "name": "role",
          "type": "bytes32"
        },
        {
          "internalType": "address",
          "name": "account",
          "type": "address"
        }
      ],
      "name": "renounceRole",
      "outputs": [],
      "stateMutability": "nonpayable",
      "type": "function"
    },
    {
      "inputs": [
        {
          "internalType": "bytes32",
          "name": "role",
          "type": "bytes32"
        },
        {
          "internalType": "address",
          "name": "account",
          "type": "address"
        }
      ],
      "name": "revokeRole",
      "outputs": [],
      "stateMutability": "nonpayable",
      "type": "function"
    },
    {
      "inputs": [
        {
          "internalType": "string",
          "name": "_name",
          "type": "string"
        },
        {
          "internalType": "string",
          "name": "_imageURI",
          "type": "string"
        },
        {
          "internalType": "uint256",
          "name": "_percievedLoudness",
          "type": "uint256"
        },
        {
          "internalType": "uint256",
          "name": "_tailLength",
          "type": "uint256"
        },
        {
          "internalType": "uint256",
          "name": "_bodyLength",
          "type": "uint256"
        },
        {
          "internalType": "uint256",
          "name": "_dynamicRange",
          "type": "uint256"
        },
        {
          "internalType": "uint256",
          "name": "_duration",
          "type": "uint256"
        },
        {
          "internalType": "bool",
          "name": "_redeemed",
          "type": "bool"
        }
      ],
      "name": "safeMint",
      "outputs": [],
      "stateMutability": "nonpayable",
      "type": "function"
    },
    {
      "inputs": [
        {
          "internalType": "address",
          "name": "from",
          "type": "address"
        },
        {
          "internalType": "address",
          "name": "to",
          "type": "address"
        },
        {
          "internalType": "uint256",
          "name": "tokenId",
          "type": "uint256"
        }
      ],
      "name": "safeTransferFrom",
      "outputs": [],
      "stateMutability": "nonpayable",
      "type": "function"
    },
    {
      "inputs": [
        {
          "internalType": "address",
          "name": "from",
          "type": "address"
        },
        {
          "internalType": "address",
          "name": "to",
          "type": "address"
        },
        {
          "internalType": "uint256",
          "name": "tokenId",
          "type": "uint256"
        },
        {
          "internalType": "bytes",
          "name": "data",
          "type": "bytes"
        }
      ],
      "name": "safeTransferFrom",
      "outputs": [],
      "stateMutability": "nonpayable",
      "type": "function"
    },
    {
      "inputs": [
        {
          "internalType": "address",
          "name": "operator",
          "type": "address"
        },
        {
          "internalType": "bool",
          "name": "approved",
          "type": "bool"
        }
      ],
      "name": "setApprovalForAll",
      "outputs": [],
      "stateMutability": "nonpayable",
      "type": "function"
    },
    {
      "inputs": [
        {
          "internalType": "bytes4",
          "name": "interfaceId",
          "type": "bytes4"
        }
      ],
      "name": "supportsInterface",
      "outputs": [
        {
          "internalType": "bool",
          "name": "",
          "type": "bool"
        }
      ],
      "stateMutability": "view",
      "type": "function"
    },
    {
      "inputs": [
        {
          "internalType": "uint256",
          "name": "tokenId",
          "type": "uint256"
        }
      ],
      "name": "switchRedeemed",
      "outputs": [],
      "stateMutability": "nonpayable",
      "type": "function"
    },
    {
      "inputs": [],
      "name": "symbol",
      "outputs": [
        {
          "internalType": "string",
          "name": "",
          "type": "string"
        }
      ],
      "stateMutability": "view",
      "type": "function"
    },
    {
      "inputs": [
        {
          "internalType": "uint256",
          "name": "_tokenId",
          "type": "uint256"
        }
      ],
      "name": "tokenURI",
      "outputs": [
        {
          "internalType": "string",
          "name": "",
          "type": "string"
        }
      ],
      "stateMutability": "view",
      "type": "function"
    },
    {
      "inputs": [
        {
          "internalType": "address",
          "name": "from",
          "type": "address"
        },
        {
          "internalType": "address",
          "name": "to",
          "type": "address"
        },
        {
          "internalType": "uint256",
          "name": "tokenId",
          "type": "uint256"
        }
      ],
      "name": "transferFrom",
      "outputs": [],
      "stateMutability": "nonpayable",
      "type": "function"
    },
    {
      "inputs": [
        {
          "internalType": "address",
          "name": "",
          "type": "address"
        },
        {
          "internalType": "uint256",
          "name": "",
          "type": "uint256"
        }
      ],
      "name": "yourCardsInGameMapping",
      "outputs": [
        {
          "internalType": "string",
          "name": "",
          "type": "string"
        }
      ],
      "stateMutability": "view",
      "type": "function"
    }
  ],
  "bytecode": "0x60806040523480156200001157600080fd5b506040518060400160405280600781526020017f4d79546f6b656e000000000000000000000000000000000000000000000000008152506040518060400160405280600381526020017f4d544b000000000000000000000000000000000000000000000000000000000081525081600090816200008f9190620004fd565b508060019081620000a19190620004fd565b505050620000b96000801b336200010860201b60201c565b620000eb7f9f2df0fed2c77648de5860a4cc508cd0818c85b8b8a1ab4ceeef8d981c8956a6336200010860201b60201c565b620001026007620001fa60201b620016701760201c565b620005e4565b6200011a82826200021060201b60201c565b620001f65760016006600084815260200190815260200160002060000160008373ffffffffffffffffffffffffffffffffffffffff1673ffffffffffffffffffffffffffffffffffffffff16815260200190815260200160002060006101000a81548160ff0219169083151502179055506200019b6200027b60201b60201c565b73ffffffffffffffffffffffffffffffffffffffff168173ffffffffffffffffffffffffffffffffffffffff16837f2f8788117e7eff1d82e926ec794901d17c78024a50270940304540a733656f0d60405160405180910390a45b5050565b6001816000016000828254019250508190555050565b60006006600084815260200190815260200160002060000160008373ffffffffffffffffffffffffffffffffffffffff1673ffffffffffffffffffffffffffffffffffffffff16815260200190815260200160002060009054906101000a900460ff16905092915050565b600033905090565b600081519050919050565b7f4e487b7100000000000000000000000000000000000000000000000000000000600052604160045260246000fd5b7f4e487b7100000000000000000000000000000000000000000000000000000000600052602260045260246000fd5b600060028204905060018216806200030557607f821691505b6020821081036200031b576200031a620002bd565b5b50919050565b60008190508160005260206000209050919050565b60006020601f8301049050919050565b600082821b905092915050565b600060088302620003857fffffffffffffffffffffffffffffffffffffffffffffffffffffffffffffffff8262000346565b62000391868362000346565b95508019841693508086168417925050509392505050565b6000819050919050565b6000819050919050565b6000620003de620003d8620003d284620003a9565b620003b3565b620003a9565b9050919050565b6000819050919050565b620003fa83620003bd565b620004126200040982620003e5565b84845462000353565b825550505050565b600090565b620004296200041a565b62000436818484620003ef565b505050565b5b818110156200045e57620004526000826200041f565b6001810190506200043c565b5050565b601f821115620004ad57620004778162000321565b620004828462000336565b8101602085101562000492578190505b620004aa620004a18562000336565b8301826200043b565b50505b505050565b600082821c905092915050565b6000620004d260001984600802620004b2565b1980831691505092915050565b6000620004ed8383620004bf565b9150826002028217905092915050565b620005088262000283565b67ffffffffffffffff8111156200052457620005236200028e565b5b620005308254620002ec565b6200053d82828562000462565b600060209050601f83116001811462000575576000841562000560578287015190505b6200056c8582620004df565b865550620005dc565b601f198416620005858662000321565b60005b82811015620005af5784890151825560018201915060208501945060208101905062000588565b86831015620005cf5784890151620005cb601f891682620004bf565b8355505b6001600288020188555050505b505050505050565b614e4080620005f46000396000f3fe608060405234801561001057600080fd5b50600436106101c45760003560e01c806370a08231116100f9578063b88d4fde11610097578063d539139311610071578063d539139314610554578063d547741f14610572578063e8197a251461058e578063e985e9c5146105aa576101c4565b8063b88d4fde146104ea578063c87b56dd14610506578063cf1ac6e514610536576101c4565b806395d89b41116100d357806395d89b411461045b57806398da4c9514610479578063a217fddf146104b0578063a22cb465146104ce576101c4565b806370a08231146103cb578063775bb50e146103fb57806391d148541461042b576101c4565b80632f2ff15d1161016657806342842e0e1161014057806342842e0e1461034757806342966c681461036357806352a0a6611461037f5780636352211e1461039b576101c4565b80632f2ff15d146102df57806336568abe146102fb5780633f3a1c7a14610317576101c4565b8063095ea7b3116101a2578063095ea7b31461024757806321d8f7731461026357806323b872dd14610293578063248a9ca3146102af576101c4565b806301ffc9a7146101c957806306fdde03146101f9578063081812fc14610217575b600080fd5b6101e360048036038101906101de9190612fa5565b6105da565b6040516101f09190612fed565b60405180910390f35b6102016105ec565b60405161020e9190613098565b60405180910390f35b610231600480360381019061022c91906130f0565b61067e565b60405161023e919061315e565b60405180910390f35b610261600480360381019061025c91906131a5565b6106c4565b005b61027d600480360381019061027891906130f0565b6107db565b60405161028a9190612fed565b60405180910390f35b6102ad60048036038101906102a891906131e5565b61080d565b005b6102c960048036038101906102c4919061326e565b61086d565b6040516102d691906132aa565b60405180910390f35b6102f960048036038101906102f491906132c5565b61088d565b005b610315600480360381019061031091906132c5565b6108ae565b005b610331600480360381019061032c91906131a5565b610931565b60405161033e9190613098565b60405180910390f35b610361600480360381019061035c91906131e5565b6109ea565b005b61037d600480360381019061037891906130f0565b610a0a565b005b610399600480360381019061039491906130f0565b610a66565b005b6103b560048036038101906103b091906130f0565b610a9e565b6040516103c2919061315e565b60405180910390f35b6103e560048036038101906103e09190613305565b610b24565b6040516103f29190613341565b60405180910390f35b610415600480360381019061041091906131a5565b610bdb565b6040516104229190613341565b60405180910390f35b610445600480360381019061044091906132c5565b610c0c565b6040516104529190612fed565b60405180910390f35b610463610c77565b6040516104709190613098565b60405180910390f35b610493600480360381019061048e91906130f0565b610d09565b6040516104a798979695949392919061335c565b60405180910390f35b6104b8610e6e565b6040516104c591906132aa565b60405180910390f35b6104e860048036038101906104e39190613414565b610e75565b005b61050460048036038101906104ff9190613589565b610e8b565b005b610520600480360381019061051b91906130f0565b610eed565b60405161052d9190613098565b60405180910390f35b61053e61115c565b60405161054b9190613718565b60405180910390f35b61055c611272565b60405161056991906132aa565b60405180910390f35b61058c600480360381019061058791906132c5565b611296565b005b6105a860048036038101906105a391906137db565b6112b7565b005b6105c460048036038101906105bf91906138c9565b6115dc565b6040516105d19190612fed565b60405180910390f35b60006105e582611686565b9050919050565b6060600080546105fb90613938565b80601f016020809104026020016040519081016040528092919081815260200182805461062790613938565b80156106745780601f1061064957610100808354040283529160200191610674565b820191906000526020600020905b81548152906001019060200180831161065757829003601f168201915b5050505050905090565b600061068982611700565b6004600083815260200190815260200160002060009054906101000a900473ffffffffffffffffffffffffffffffffffffffff169050919050565b60006106cf82610a9e565b90508073ffffffffffffffffffffffffffffffffffffffff168373ffffffffffffffffffffffffffffffffffffffff160361073f576040517f08c379a0000000000000000000000000000000000000000000000000000000008152600401610736906139db565b60405180910390fd5b8073ffffffffffffffffffffffffffffffffffffffff1661075e61174b565b73ffffffffffffffffffffffffffffffffffffffff16148061078d575061078c8161078761174b565b6115dc565b5b6107cc576040517f08c379a00000000000000000000000000000000000000000000000000000000081526004016107c390613a6d565b60405180910390fd5b6107d68383611753565b505050565b6000806009600084815260200190815260200160002090508060070160009054906101000a900460ff16915050919050565b61081e61081861174b565b8261180c565b61085d576040517f08c379a000000000000000000000000000000000000000000000000000000000815260040161085490613aff565b60405180910390fd5b6108688383836118a1565b505050565b600060066000838152602001908152602001600020600101549050919050565b6108968261086d565b61089f81611b9a565b6108a98383611bae565b505050565b6108b661174b565b73ffffffffffffffffffffffffffffffffffffffff168173ffffffffffffffffffffffffffffffffffffffff1614610923576040517f08c379a000000000000000000000000000000000000000000000000000000000815260040161091a90613b91565b60405180910390fd5b61092d8282611c8f565b5050565b600b602052816000526040600020818154811061094d57600080fd5b9060005260206000200160009150915050805461096990613938565b80601f016020809104026020016040519081016040528092919081815260200182805461099590613938565b80156109e25780601f106109b7576101008083540402835291602001916109e2565b820191906000526020600020905b8154815290600101906020018083116109c557829003601f168201915b505050505081565b610a0583838360405180602001604052806000815250610e8b565b505050565b610a1b610a1561174b565b8261180c565b610a5a576040517f08c379a0000000000000000000000000000000000000000000000000000000008152600401610a5190613aff565b60405180910390fd5b610a6381611d71565b50565b600060096000838152602001908152602001600020905060018160070160006101000a81548160ff0219169083151502179055505050565b600080610aaa83611ebf565b9050600073ffffffffffffffffffffffffffffffffffffffff168173ffffffffffffffffffffffffffffffffffffffff1603610b1b576040517f08c379a0000000000000000000000000000000000000000000000000000000008152600401610b1290613bfd565b60405180910390fd5b80915050919050565b60008073ffffffffffffffffffffffffffffffffffffffff168273ffffffffffffffffffffffffffffffffffffffff1603610b94576040517f08c379a0000000000000000000000000000000000000000000000000000000008152600401610b8b90613c8f565b60405180910390fd5b600360008373ffffffffffffffffffffffffffffffffffffffff1673ffffffffffffffffffffffffffffffffffffffff168152602001908152602001600020549050919050565b60086020528160005260406000208181548110610bf757600080fd5b90600052602060002001600091509150505481565b60006006600084815260200190815260200160002060000160008373ffffffffffffffffffffffffffffffffffffffff1673ffffffffffffffffffffffffffffffffffffffff16815260200190815260200160002060009054906101000a900460ff16905092915050565b606060018054610c8690613938565b80601f0160208091040260200160405190810160405280929190818152602001828054610cb290613938565b8015610cff5780601f10610cd457610100808354040283529160200191610cff565b820191906000526020600020905b815481529060010190602001808311610ce257829003601f168201915b5050505050905090565b6009602052806000526040600020600091509050806000018054610d2c90613938565b80601f0160208091040260200160405190810160405280929190818152602001828054610d5890613938565b8015610da55780601f10610d7a57610100808354040283529160200191610da5565b820191906000526020600020905b815481529060010190602001808311610d8857829003601f168201915b505050505090806001018054610dba90613938565b80601f0160208091040260200160405190810160405280929190818152602001828054610de690613938565b8015610e335780601f10610e0857610100808354040283529160200191610e33565b820191906000526020600020905b815481529060010190602001808311610e1657829003601f168201915b5050505050908060020154908060030154908060040154908060050154908060060154908060070160009054906101000a900460ff16905088565b6000801b81565b610e87610e8061174b565b8383611efc565b5050565b610e9c610e9661174b565b8361180c565b610edb576040517f08c379a0000000000000000000000000000000000000000000000000000000008152600401610ed290613aff565b60405180910390fd5b610ee784848484612068565b50505050565b606060006009600084815260200190815260200160002060405180610100016040529081600082018054610f2090613938565b80601f0160208091040260200160405190810160405280929190818152602001828054610f4c90613938565b8015610f995780601f10610f6e57610100808354040283529160200191610f99565b820191906000526020600020905b815481529060010190602001808311610f7c57829003601f168201915b50505050508152602001600182018054610fb290613938565b80601f0160208091040260200160405190810160405280929190818152602001828054610fde90613938565b801561102b5780601f106110005761010080835404028352916020019161102b565b820191906000526020600020905b81548152906001019060200180831161100e57829003601f168201915b5050505050815260200160028201548152602001600382015481526020016004820154815260200160058201548152602001600682015481526020016007820160009054906101000a900460ff1615151515815250509050600061109282604001516120c4565b905060006110a383606001516120c4565b905060006110b484608001516120c4565b905060006110c58560c001516120c4565b905060006110d68660a001516120c4565b9050600061112687600001516110eb8b6120c4565b8960200151898989888a8f60e00151604051602001611112999897969594939291906141a7565b604051602081830303815290604052612192565b905060008160405160200161113b91906142e4565b60405160208183030381529060405290508098505050505050505050919050565b6060600b60003373ffffffffffffffffffffffffffffffffffffffff1673ffffffffffffffffffffffffffffffffffffffff168152602001908152602001600020805480602002602001604051908101604052809291908181526020016000905b828210156112695783829060005260206000200180546111dc90613938565b80601f016020809104026020016040519081016040528092919081815260200182805461120890613938565b80156112555780601f1061122a57610100808354040283529160200191611255565b820191906000526020600020905b81548152906001019060200180831161123857829003601f168201915b5050505050815260200190600101906111bd565b50505050905090565b7f9f2df0fed2c77648de5860a4cc508cd0818c85b8b8a1ab4ceeef8d981c8956a681565b61129f8261086d565b6112a881611b9a565b6112b28383611c8f565b505050565b7f9f2df0fed2c77648de5860a4cc508cd0818c85b8b8a1ab4ceeef8d981c8956a66112e181611b9a565b60006112ed6007612329565b90506112f93382612337565b600860003373ffffffffffffffffffffffffffffffffffffffff1673ffffffffffffffffffffffffffffffffffffffff1681526020019081526020016000208190806001815401808255809150506001900390600052602060002001600090919091909150556040518061010001604052808b81526020018a81526020018981526020018881526020018781526020018681526020018581526020018415158152506009600083815260200190815260200160002060008201518160000190816113c391906144b2565b5060208201518160010190816113d991906144b2565b5060408201518160020155606082015181600301556080820151816004015560a0820151816005015560c0820151816006015560e08201518160070160006101000a81548160ff021916908315150217905550905050600b60003373ffffffffffffffffffffffffffffffffffffffff1673ffffffffffffffffffffffffffffffffffffffff168152602001908152602001600020899080600181540180825580915050600190039060005260206000200160009091909190915090816114a091906144b2565b506114c46040518060600160405280602e8152602001614ddd602e9139828c612355565b600a60096000838152602001908152602001600020908060018154018082558091505060019003906000526020600020906008020160009091909190915060008201816000019081611516919061459a565b506001820181600101908161152b919061459a565b5060028201548160020155600382015481600301556004820154816004015560058201548160050155600682015481600601556007820160009054906101000a900460ff168160070160006101000a81548160ff02191690831515021790555050507f1fc669908b9d25690fe5308881be77af12afc6f62a2b0f26464380452a62288033826040516115be929190614682565b60405180910390a16115d06007611670565b50505050505050505050565b6000600560008473ffffffffffffffffffffffffffffffffffffffff1673ffffffffffffffffffffffffffffffffffffffff16815260200190815260200160002060008373ffffffffffffffffffffffffffffffffffffffff1673ffffffffffffffffffffffffffffffffffffffff16815260200190815260200160002060009054906101000a900460ff16905092915050565b6001816000016000828254019250508190555050565b60007f7965db0b000000000000000000000000000000000000000000000000000000007bffffffffffffffffffffffffffffffffffffffffffffffffffffffff1916827bffffffffffffffffffffffffffffffffffffffffffffffffffffffff191614806116f957506116f8826123f4565b5b9050919050565b611709816124d6565b611748576040517f08c379a000000000000000000000000000000000000000000000000000000000815260040161173f90613bfd565b60405180910390fd5b50565b600033905090565b816004600083815260200190815260200160002060006101000a81548173ffffffffffffffffffffffffffffffffffffffff021916908373ffffffffffffffffffffffffffffffffffffffff160217905550808273ffffffffffffffffffffffffffffffffffffffff166117c683610a9e565b73ffffffffffffffffffffffffffffffffffffffff167f8c5be1e5ebec7d5bd14f71427d1e84f3dd0314c0f7b2291e5b200ac8c7c3b92560405160405180910390a45050565b60008061181883610a9e565b90508073ffffffffffffffffffffffffffffffffffffffff168473ffffffffffffffffffffffffffffffffffffffff16148061185a575061185981856115dc565b5b8061189857508373ffffffffffffffffffffffffffffffffffffffff166118808461067e565b73ffffffffffffffffffffffffffffffffffffffff16145b91505092915050565b8273ffffffffffffffffffffffffffffffffffffffff166118c182610a9e565b73ffffffffffffffffffffffffffffffffffffffff1614611917576040517f08c379a000000000000000000000000000000000000000000000000000000000815260040161190e9061471d565b60405180910390fd5b600073ffffffffffffffffffffffffffffffffffffffff168273ffffffffffffffffffffffffffffffffffffffff1603611986576040517f08c379a000000000000000000000000000000000000000000000000000000000815260040161197d906147af565b60405180910390fd5b6119938383836001612517565b8273ffffffffffffffffffffffffffffffffffffffff166119b382610a9e565b73ffffffffffffffffffffffffffffffffffffffff1614611a09576040517f08c379a0000000000000000000000000000000000000000000000000000000008152600401611a009061471d565b60405180910390fd5b6004600082815260200190815260200160002060006101000a81549073ffffffffffffffffffffffffffffffffffffffff02191690556001600360008573ffffffffffffffffffffffffffffffffffffffff1673ffffffffffffffffffffffffffffffffffffffff168152602001908152602001600020600082825403925050819055506001600360008473ffffffffffffffffffffffffffffffffffffffff1673ffffffffffffffffffffffffffffffffffffffff16815260200190815260200160002060008282540192505081905550816002600083815260200190815260200160002060006101000a81548173ffffffffffffffffffffffffffffffffffffffff021916908373ffffffffffffffffffffffffffffffffffffffff160217905550808273ffffffffffffffffffffffffffffffffffffffff168473ffffffffffffffffffffffffffffffffffffffff167fddf252ad1be2c89b69c2b068fc378daa952ba7f163c4a11628f55a4df523b3ef60405160405180910390a4611b95838383600161263d565b505050565b611bab81611ba661174b565b612643565b50565b611bb88282610c0c565b611c8b5760016006600084815260200190815260200160002060000160008373ffffffffffffffffffffffffffffffffffffffff1673ffffffffffffffffffffffffffffffffffffffff16815260200190815260200160002060006101000a81548160ff021916908315150217905550611c3061174b565b73ffffffffffffffffffffffffffffffffffffffff168173ffffffffffffffffffffffffffffffffffffffff16837f2f8788117e7eff1d82e926ec794901d17c78024a50270940304540a733656f0d60405160405180910390a45b5050565b611c998282610c0c565b15611d6d5760006006600084815260200190815260200160002060000160008373ffffffffffffffffffffffffffffffffffffffff1673ffffffffffffffffffffffffffffffffffffffff16815260200190815260200160002060006101000a81548160ff021916908315150217905550611d1261174b565b73ffffffffffffffffffffffffffffffffffffffff168173ffffffffffffffffffffffffffffffffffffffff16837ff6391f5c32d9c69d2a47ea670b442974b53935d1edc7fd64eb21e047a839171b60405160405180910390a45b5050565b6000611d7c82610a9e565b9050611d8c816000846001612517565b611d9582610a9e565b90506004600083815260200190815260200160002060006101000a81549073ffffffffffffffffffffffffffffffffffffffff02191690556001600360008373ffffffffffffffffffffffffffffffffffffffff1673ffffffffffffffffffffffffffffffffffffffff168152602001908152602001600020600082825403925050819055506002600083815260200190815260200160002060006101000a81549073ffffffffffffffffffffffffffffffffffffffff021916905581600073ffffffffffffffffffffffffffffffffffffffff168273ffffffffffffffffffffffffffffffffffffffff167fddf252ad1be2c89b69c2b068fc378daa952ba7f163c4a11628f55a4df523b3ef60405160405180910390a4611ebb81600084600161263d565b5050565b60006002600083815260200190815260200160002060009054906101000a900473ffffffffffffffffffffffffffffffffffffffff169050919050565b8173ffffffffffffffffffffffffffffffffffffffff168373ffffffffffffffffffffffffffffffffffffffff1603611f6a576040517f08c379a0000000000000000000000000000000000000000000000000000000008152600401611f619061481b565b60405180910390fd5b80600560008573ffffffffffffffffffffffffffffffffffffffff1673ffffffffffffffffffffffffffffffffffffffff16815260200190815260200160002060008473ffffffffffffffffffffffffffffffffffffffff1673ffffffffffffffffffffffffffffffffffffffff16815260200190815260200160002060006101000a81548160ff0219169083151502179055508173ffffffffffffffffffffffffffffffffffffffff168373ffffffffffffffffffffffffffffffffffffffff167f17307eab39ab6107e8899845ad3d59bd9653f200f220920489ca2b5937696c318360405161205b9190612fed565b60405180910390a3505050565b6120738484846118a1565b61207f848484846126c8565b6120be576040517f08c379a00000000000000000000000000000000000000000000000000000000081526004016120b5906148ad565b60405180910390fd5b50505050565b6060600060016120d38461284f565b01905060008167ffffffffffffffff8111156120f2576120f161345e565b5b6040519080825280601f01601f1916602001820160405280156121245781602001600182028036833780820191505090505b509050600082602001820190505b600115612187578080600190039150507f3031323334353637383961626364656600000000000000000000000000000000600a86061a8153600a858161217b5761217a6148cd565b5b04945060008503612132575b819350505050919050565b6060600082519050600081036121ba5760405180602001604052806000815250915050612324565b600060036002836121cb919061492b565b6121d5919061495f565b60046121e19190614990565b905060006020826121f2919061492b565b67ffffffffffffffff81111561220b5761220a61345e565b5b6040519080825280601f01601f19166020018201604052801561223d5781602001600182028036833780820191505090505b5090506000604051806060016040528060408152602001614d9d604091399050600181016020830160005b868110156122e15760038101905062ffffff818a015116603f8160121c168401518060081b905060ff603f83600c1c1686015116810190508060081b905060ff603f8360061c1686015116810190508060081b905060ff603f831686015116810190508060e01b90508084526004840193505050612268565b5060038606600181146122fb576002811461230b57612316565b613d3d60f01b6002830352612316565b603d60f81b60018303525b508484525050819450505050505b919050565b600081600001549050919050565b6123518282604051806020016040528060008152506129a2565b5050565b6123ef83838360405160240161236d939291906149d2565b6040516020818303038152906040527f5970e089000000000000000000000000000000000000000000000000000000007bffffffffffffffffffffffffffffffffffffffffffffffffffffffff19166020820180517bffffffffffffffffffffffffffffffffffffffffffffffffffffffff83818316178352505050506129fd565b505050565b60007f80ac58cd000000000000000000000000000000000000000000000000000000007bffffffffffffffffffffffffffffffffffffffffffffffffffffffff1916827bffffffffffffffffffffffffffffffffffffffffffffffffffffffff191614806124bf57507f5b5e139f000000000000000000000000000000000000000000000000000000007bffffffffffffffffffffffffffffffffffffffffffffffffffffffff1916827bffffffffffffffffffffffffffffffffffffffffffffffffffffffff1916145b806124cf57506124ce82612a26565b5b9050919050565b60008073ffffffffffffffffffffffffffffffffffffffff166124f883611ebf565b73ffffffffffffffffffffffffffffffffffffffff1614159050919050565b600181111561263757600073ffffffffffffffffffffffffffffffffffffffff168473ffffffffffffffffffffffffffffffffffffffff16146125ab5780600360008673ffffffffffffffffffffffffffffffffffffffff1673ffffffffffffffffffffffffffffffffffffffff16815260200190815260200160002060008282546125a39190614a17565b925050819055505b600073ffffffffffffffffffffffffffffffffffffffff168373ffffffffffffffffffffffffffffffffffffffff16146126365780600360008573ffffffffffffffffffffffffffffffffffffffff1673ffffffffffffffffffffffffffffffffffffffff168152602001908152602001600020600082825461262e919061492b565b925050819055505b5b50505050565b50505050565b61264d8282610c0c565b6126c45761265a81612a90565b6126688360001c6020612abd565b604051602001612679929190614ae3565b6040516020818303038152906040526040517f08c379a00000000000000000000000000000000000000000000000000000000081526004016126bb9190613098565b60405180910390fd5b5050565b60006126e98473ffffffffffffffffffffffffffffffffffffffff16612cf9565b15612842578373ffffffffffffffffffffffffffffffffffffffff1663150b7a0261271261174b565b8786866040518563ffffffff1660e01b81526004016127349493929190614b72565b6020604051808303816000875af192505050801561277057506040513d601f19601f8201168201806040525081019061276d9190614bd3565b60015b6127f2573d80600081146127a0576040519150601f19603f3d011682016040523d82523d6000602084013e6127a5565b606091505b5060008151036127ea576040517f08c379a00000000000000000000000000000000000000000000000000000000081526004016127e1906148ad565b60405180910390fd5b805181602001fd5b63150b7a0260e01b7bffffffffffffffffffffffffffffffffffffffffffffffffffffffff1916817bffffffffffffffffffffffffffffffffffffffffffffffffffffffff191614915050612847565b600190505b949350505050565b600080600090507a184f03e93ff9f4daa797ed6e38ed64bf6a1f01000000000000000083106128ad577a184f03e93ff9f4daa797ed6e38ed64bf6a1f01000000000000000083816128a3576128a26148cd565b5b0492506040810190505b6d04ee2d6d415b85acef810000000083106128ea576d04ee2d6d415b85acef810000000083816128e0576128df6148cd565b5b0492506020810190505b662386f26fc10000831061291957662386f26fc10000838161290f5761290e6148cd565b5b0492506010810190505b6305f5e1008310612942576305f5e1008381612938576129376148cd565b5b0492506008810190505b612710831061296757612710838161295d5761295c6148cd565b5b0492506004810190505b6064831061298a57606483816129805761297f6148cd565b5b0492506002810190505b600a8310612999576001810190505b80915050919050565b6129ac8383612d1c565b6129b960008484846126c8565b6129f8576040517f08c379a00000000000000000000000000000000000000000000000000000000081526004016129ef906148ad565b60405180910390fd5b505050565b60008151905060006a636f6e736f6c652e6c6f679050602083016000808483855afa5050505050565b60007f01ffc9a7000000000000000000000000000000000000000000000000000000007bffffffffffffffffffffffffffffffffffffffffffffffffffffffff1916827bffffffffffffffffffffffffffffffffffffffffffffffffffffffff1916149050919050565b6060612ab68273ffffffffffffffffffffffffffffffffffffffff16601460ff16612abd565b9050919050565b606060006002836002612ad09190614990565b612ada919061492b565b67ffffffffffffffff811115612af357612af261345e565b5b6040519080825280601f01601f191660200182016040528015612b255781602001600182028036833780820191505090505b5090507f300000000000000000000000000000000000000000000000000000000000000081600081518110612b5d57612b5c614c00565b5b60200101907effffffffffffffffffffffffffffffffffffffffffffffffffffffffffffff1916908160001a9053507f780000000000000000000000000000000000000000000000000000000000000081600181518110612bc157612bc0614c00565b5b60200101907effffffffffffffffffffffffffffffffffffffffffffffffffffffffffffff1916908160001a90535060006001846002612c019190614990565b612c0b919061492b565b90505b6001811115612cab577f3031323334353637383961626364656600000000000000000000000000000000600f861660108110612c4d57612c4c614c00565b5b1a60f81b828281518110612c6457612c63614c00565b5b60200101907effffffffffffffffffffffffffffffffffffffffffffffffffffffffffffff1916908160001a905350600485901c945080612ca490614c2f565b9050612c0e565b5060008414612cef576040517f08c379a0000000000000000000000000000000000000000000000000000000008152600401612ce690614ca4565b60405180910390fd5b8091505092915050565b6000808273ffffffffffffffffffffffffffffffffffffffff163b119050919050565b600073ffffffffffffffffffffffffffffffffffffffff168273ffffffffffffffffffffffffffffffffffffffff1603612d8b576040517f08c379a0000000000000000000000000000000000000000000000000000000008152600401612d8290614d10565b60405180910390fd5b612d94816124d6565b15612dd4576040517f08c379a0000000000000000000000000000000000000000000000000000000008152600401612dcb90614d7c565b60405180910390fd5b612de2600083836001612517565b612deb816124d6565b15612e2b576040517f08c379a0000000000000000000000000000000000000000000000000000000008152600401612e2290614d7c565b60405180910390fd5b6001600360008473ffffffffffffffffffffffffffffffffffffffff1673ffffffffffffffffffffffffffffffffffffffff16815260200190815260200160002060008282540192505081905550816002600083815260200190815260200160002060006101000a81548173ffffffffffffffffffffffffffffffffffffffff021916908373ffffffffffffffffffffffffffffffffffffffff160217905550808273ffffffffffffffffffffffffffffffffffffffff16600073ffffffffffffffffffffffffffffffffffffffff167fddf252ad1be2c89b69c2b068fc378daa952ba7f163c4a11628f55a4df523b3ef60405160405180910390a4612f3560008383600161263d565b5050565b6000604051905090565b600080fd5b600080fd5b60007fffffffff0000000000000000000000000000000000000000000000000000000082169050919050565b612f8281612f4d565b8114612f8d57600080fd5b50565b600081359050612f9f81612f79565b92915050565b600060208284031215612fbb57612fba612f43565b5b6000612fc984828501612f90565b91505092915050565b60008115159050919050565b612fe781612fd2565b82525050565b60006020820190506130026000830184612fde565b92915050565b600081519050919050565b600082825260208201905092915050565b60005b83811015613042578082015181840152602081019050613027565b60008484015250505050565b6000601f19601f8301169050919050565b600061306a82613008565b6130748185613013565b9350613084818560208601613024565b61308d8161304e565b840191505092915050565b600060208201905081810360008301526130b2818461305f565b905092915050565b6000819050919050565b6130cd816130ba565b81146130d857600080fd5b50565b6000813590506130ea816130c4565b92915050565b60006020828403121561310657613105612f43565b5b6000613114848285016130db565b91505092915050565b600073ffffffffffffffffffffffffffffffffffffffff82169050919050565b60006131488261311d565b9050919050565b6131588161313d565b82525050565b6000602082019050613173600083018461314f565b92915050565b6131828161313d565b811461318d57600080fd5b50565b60008135905061319f81613179565b92915050565b600080604083850312156131bc576131bb612f43565b5b60006131ca85828601613190565b92505060206131db858286016130db565b9150509250929050565b6000806000606084860312156131fe576131fd612f43565b5b600061320c86828701613190565b935050602061321d86828701613190565b925050604061322e868287016130db565b9150509250925092565b6000819050919050565b61324b81613238565b811461325657600080fd5b50565b60008135905061326881613242565b92915050565b60006020828403121561328457613283612f43565b5b600061329284828501613259565b91505092915050565b6132a481613238565b82525050565b60006020820190506132bf600083018461329b565b92915050565b600080604083850312156132dc576132db612f43565b5b60006132ea85828601613259565b92505060206132fb85828601613190565b9150509250929050565b60006020828403121561331b5761331a612f43565b5b600061332984828501613190565b91505092915050565b61333b816130ba565b82525050565b60006020820190506133566000830184613332565b92915050565b6000610100820190508181036000830152613377818b61305f565b9050818103602083015261338b818a61305f565b905061339a6040830189613332565b6133a76060830188613332565b6133b46080830187613332565b6133c160a0830186613332565b6133ce60c0830185613332565b6133db60e0830184612fde565b9998505050505050505050565b6133f181612fd2565b81146133fc57600080fd5b50565b60008135905061340e816133e8565b92915050565b6000806040838503121561342b5761342a612f43565b5b600061343985828601613190565b925050602061344a858286016133ff565b9150509250929050565b600080fd5b600080fd5b7f4e487b7100000000000000000000000000000000000000000000000000000000600052604160045260246000fd5b6134968261304e565b810181811067ffffffffffffffff821117156134b5576134b461345e565b5b80604052505050565b60006134c8612f39565b90506134d4828261348d565b919050565b600067ffffffffffffffff8211156134f4576134f361345e565b5b6134fd8261304e565b9050602081019050919050565b82818337600083830152505050565b600061352c613527846134d9565b6134be565b90508281526020810184848401111561354857613547613459565b5b61355384828561350a565b509392505050565b600082601f8301126135705761356f613454565b5b8135613580848260208601613519565b91505092915050565b600080600080608085870312156135a3576135a2612f43565b5b60006135b187828801613190565b94505060206135c287828801613190565b93505060406135d3878288016130db565b925050606085013567ffffffffffffffff8111156135f4576135f3612f48565b5b6136008782880161355b565b91505092959194509250565b600081519050919050565b600082825260208201905092915050565b6000819050602082019050919050565b600082825260208201905092915050565b600061365482613008565b61365e8185613638565b935061366e818560208601613024565b6136778161304e565b840191505092915050565b600061368e8383613649565b905092915050565b6000602082019050919050565b60006136ae8261360c565b6136b88185613617565b9350836020820285016136ca85613628565b8060005b8581101561370657848403895281516136e78582613682565b94506136f283613696565b925060208a019950506001810190506136ce565b50829750879550505050505092915050565b6000602082019050818103600083015261373281846136a3565b905092915050565b600067ffffffffffffffff8211156137555761375461345e565b5b61375e8261304e565b9050602081019050919050565b600061377e6137798461373a565b6134be565b90508281526020810184848401111561379a57613799613459565b5b6137a584828561350a565b509392505050565b600082601f8301126137c2576137c1613454565b5b81356137d284826020860161376b565b91505092915050565b600080600080600080600080610100898b0312156137fc576137fb612f43565b5b600089013567ffffffffffffffff81111561381a57613819612f48565b5b6138268b828c016137ad565b985050602089013567ffffffffffffffff81111561384757613846612f48565b5b6138538b828c016137ad565b97505060406138648b828c016130db565b96505060606138758b828c016130db565b95505060806138868b828c016130db565b94505060a06138978b828c016130db565b93505060c06138a88b828c016130db565b92505060e06138b98b828c016133ff565b9150509295985092959890939650565b600080604083850312156138e0576138df612f43565b5b60006138ee85828601613190565b92505060206138ff85828601613190565b9150509250929050565b7f4e487b7100000000000000000000000000000000000000000000000000000000600052602260045260246000fd5b6000600282049050600182168061395057607f821691505b60208210810361396357613962613909565b5b50919050565b7f4552433732313a20617070726f76616c20746f2063757272656e74206f776e6560008201527f7200000000000000000000000000000000000000000000000000000000000000602082015250565b60006139c5602183613013565b91506139d082613969565b604082019050919050565b600060208201905081810360008301526139f4816139b8565b9050919050565b7f4552433732313a20617070726f76652063616c6c6572206973206e6f7420746f60008201527f6b656e206f776e6572206f7220617070726f76656420666f7220616c6c000000602082015250565b6000613a57603d83613013565b9150613a62826139fb565b604082019050919050565b60006020820190508181036000830152613a8681613a4a565b9050919050565b7f4552433732313a2063616c6c6572206973206e6f7420746f6b656e206f776e6560008201527f72206f7220617070726f76656400000000000000000000000000000000000000602082015250565b6000613ae9602d83613013565b9150613af482613a8d565b604082019050919050565b60006020820190508181036000830152613b1881613adc565b9050919050565b7f416363657373436f6e74726f6c3a2063616e206f6e6c792072656e6f756e636560008201527f20726f6c657320666f722073656c660000000000000000000000000000000000602082015250565b6000613b7b602f83613013565b9150613b8682613b1f565b604082019050919050565b60006020820190508181036000830152613baa81613b6e565b9050919050565b7f4552433732313a20696e76616c696420746f6b656e2049440000000000000000600082015250565b6000613be7601883613013565b9150613bf282613bb1565b602082019050919050565b60006020820190508181036000830152613c1681613bda565b9050919050565b7f4552433732313a2061646472657373207a65726f206973206e6f74206120766160008201527f6c6964206f776e65720000000000000000000000000000000000000000000000602082015250565b6000613c79602983613013565b9150613c8482613c1d565b604082019050919050565b60006020820190508181036000830152613ca881613c6c565b9050919050565b600081905092915050565b7f7b226e616d65223a202200000000000000000000000000000000000000000000600082015250565b6000613cf0600a83613caf565b9150613cfb82613cba565b600a82019050919050565b6000613d1182613008565b613d1b8185613caf565b9350613d2b818560208601613024565b80840191505092915050565b7f202d2d204e465420233a20000000000000000000000000000000000000000000600082015250565b6000613d6d600b83613caf565b9150613d7882613d37565b600b82019050919050565b7f222c20226465736372697074696f6e223a20225468697320697320616e204e4660008201527f542074686174206c6574732070656f706c6520706c617920616e64207472616460208201527f6520666f72206120536f6e69632047616d6521222c2022696d616765223a202260408201527f697066733a2f2f00000000000000000000000000000000000000000000000000606082015250565b6000613e2b606783613caf565b9150613e3682613d83565b606782019050919050565b7f222c202261747472696275746573223a205b207b202274726169745f7479706560008201527f223a2022506572636965766564204c6f75646e657373222c202276616c75652260208201527f3a20000000000000000000000000000000000000000000000000000000000000604082015250565b6000613ec3604283613caf565b9150613ece82613e41565b604282019050919050565b7f7d2c207b202274726169745f74797065223a20225461696c204c656e6774682260008201527f2c202276616c7565223a20000000000000000000000000000000000000000000602082015250565b6000613f35602b83613caf565b9150613f4082613ed9565b602b82019050919050565b7f7d2c207b202274726169745f74797065223a2022426f6479204c656e6774682260008201527f2c202276616c7565223a20000000000000000000000000000000000000000000602082015250565b6000613fa7602b83613caf565b9150613fb282613f4b565b602b82019050919050565b7f7d2c207b202274726169745f74797065223a202244796e616d69632052616e6760008201527f65222c202276616c7565223a2000000000000000000000000000000000000000602082015250565b6000614019602d83613caf565b915061402482613fbd565b602d82019050919050565b7f7d2c20207b202274726169745f74797065223a20224475726174696f6e222c2060008201527f2276616c7565223a200000000000000000000000000000000000000000000000602082015250565b600061408b602983613caf565b91506140968261402f565b602982019050919050565b7f7d2c20207b202274726169745f74797065223a202252656465656d6564222c2060008201527f2276616c7565223a200000000000000000000000000000000000000000000000602082015250565b60006140fd602983613caf565b9150614108826140a1565b602982019050919050565b60008160f81b9050919050565b600061412b82614113565b9050919050565b600061413d82614120565b9050919050565b61415561415082612fd2565b614132565b82525050565b7f7d205d7d00000000000000000000000000000000000000000000000000000000600082015250565b6000614191600483613caf565b915061419c8261415b565b600482019050919050565b60006141b282613ce3565b91506141be828c613d06565b91506141c982613d60565b91506141d5828b613d06565b91506141e082613e1e565b91506141ec828a613d06565b91506141f782613eb6565b91506142038289613d06565b915061420e82613f28565b915061421a8288613d06565b915061422582613f9a565b91506142318287613d06565b915061423c8261400c565b91506142488286613d06565b91506142538261407e565b915061425f8285613d06565b915061426a826140f0565b91506142768284614144565b60018201915061428582614184565b91508190509a9950505050505050505050565b7f646174613a6170706c69636174696f6e2f6a736f6e3b6261736536342c000000600082015250565b60006142ce601d83613caf565b91506142d982614298565b601d82019050919050565b60006142ef826142c1565b91506142fb8284613d06565b915081905092915050565b60008190508160005260206000209050919050565b60006020601f8301049050919050565b600082821b905092915050565b6000600883026143687fffffffffffffffffffffffffffffffffffffffffffffffffffffffffffffffff8261432b565b614372868361432b565b95508019841693508086168417925050509392505050565b6000819050919050565b60006143af6143aa6143a5846130ba565b61438a565b6130ba565b9050919050565b6000819050919050565b6143c983614394565b6143dd6143d5826143b6565b848454614338565b825550505050565b600090565b6143f26143e5565b6143fd8184846143c0565b505050565b5b81811015614421576144166000826143ea565b600181019050614403565b5050565b601f8211156144665761443781614306565b6144408461431b565b8101602085101561444f578190505b61446361445b8561431b565b830182614402565b50505b505050565b600082821c905092915050565b60006144896000198460080261446b565b1980831691505092915050565b60006144a28383614478565b9150826002028217905092915050565b6144bb82613008565b67ffffffffffffffff8111156144d4576144d361345e565b5b6144de8254613938565b6144e9828285614425565b600060209050601f83116001811461451c576000841561450a578287015190505b6145148582614496565b86555061457c565b601f19841661452a86614306565b60005b828110156145525784890151825560018201915060208501945060208101905061452d565b8683101561456f578489015161456b601f891682614478565b8355505b6001600288020188555050505b505050505050565b60008154905061459381613938565b9050919050565b8181036145a8575050614680565b6145b182614584565b67ffffffffffffffff8111156145ca576145c961345e565b5b6145d48254613938565b6145df828285614425565b6000601f83116001811461460e57600084156145fc578287015490505b6146068582614496565b865550614679565b601f19841661461c87614306565b965061462786614306565b60005b8281101561464f5784890154825560018201915060018501945060208101905061462a565b8683101561466c5784890154614668601f891682614478565b8355505b6001600288020188555050505b5050505050505b565b6000604082019050614697600083018561314f565b6146a46020830184613332565b9392505050565b7f4552433732313a207472616e736665722066726f6d20696e636f72726563742060008201527f6f776e6572000000000000000000000000000000000000000000000000000000602082015250565b6000614707602583613013565b9150614712826146ab565b604082019050919050565b60006020820190508181036000830152614736816146fa565b9050919050565b7f4552433732313a207472616e7366657220746f20746865207a65726f2061646460008201527f7265737300000000000000000000000000000000000000000000000000000000602082015250565b6000614799602483613013565b91506147a48261473d565b604082019050919050565b600060208201905081810360008301526147c88161478c565b9050919050565b7f4552433732313a20617070726f766520746f2063616c6c657200000000000000600082015250565b6000614805601983613013565b9150614810826147cf565b602082019050919050565b60006020820190508181036000830152614834816147f8565b9050919050565b7f4552433732313a207472616e7366657220746f206e6f6e20455243373231526560008201527f63656976657220696d706c656d656e7465720000000000000000000000000000602082015250565b6000614897603283613013565b91506148a28261483b565b604082019050919050565b600060208201905081810360008301526148c68161488a565b9050919050565b7f4e487b7100000000000000000000000000000000000000000000000000000000600052601260045260246000fd5b7f4e487b7100000000000000000000000000000000000000000000000000000000600052601160045260246000fd5b6000614936826130ba565b9150614941836130ba565b9250828201905080821115614959576149586148fc565b5b92915050565b600061496a826130ba565b9150614975836130ba565b925082614985576149846148cd565b5b828204905092915050565b600061499b826130ba565b91506149a6836130ba565b92508282026149b4816130ba565b915082820484148315176149cb576149ca6148fc565b5b5092915050565b600060608201905081810360008301526149ec818661305f565b90506149fb6020830185613332565b8181036040830152614a0d818461305f565b9050949350505050565b6000614a22826130ba565b9150614a2d836130ba565b9250828203905081811115614a4557614a446148fc565b5b92915050565b7f416363657373436f6e74726f6c3a206163636f756e7420000000000000000000600082015250565b6000614a81601783613caf565b9150614a8c82614a4b565b601782019050919050565b7f206973206d697373696e6720726f6c6520000000000000000000000000000000600082015250565b6000614acd601183613caf565b9150614ad882614a97565b601182019050919050565b6000614aee82614a74565b9150614afa8285613d06565b9150614b0582614ac0565b9150614b118284613d06565b91508190509392505050565b600081519050919050565b600082825260208201905092915050565b6000614b4482614b1d565b614b4e8185614b28565b9350614b5e818560208601613024565b614b678161304e565b840191505092915050565b6000608082019050614b87600083018761314f565b614b94602083018661314f565b614ba16040830185613332565b8181036060830152614bb38184614b39565b905095945050505050565b600081519050614bcd81612f79565b92915050565b600060208284031215614be957614be8612f43565b5b6000614bf784828501614bbe565b91505092915050565b7f4e487b7100000000000000000000000000000000000000000000000000000000600052603260045260246000fd5b6000614c3a826130ba565b915060008203614c4d57614c4c6148fc565b5b600182039050919050565b7f537472696e67733a20686578206c656e67746820696e73756666696369656e74600082015250565b6000614c8e602083613013565b9150614c9982614c58565b602082019050919050565b60006020820190508181036000830152614cbd81614c81565b9050919050565b7f4552433732313a206d696e7420746f20746865207a65726f2061646472657373600082015250565b6000614cfa602083613013565b9150614d0582614cc4565b602082019050919050565b60006020820190508181036000830152614d2981614ced565b9050919050565b7f4552433732313a20746f6b656e20616c7265616479206d696e74656400000000600082015250565b6000614d66601c83613013565b9150614d7182614d30565b602082019050919050565b60006020820190508181036000830152614d9581614d59565b905091905056fe4142434445464748494a4b4c4d4e4f505152535455565758595a6162636465666768696a6b6c6d6e6f707172737475767778797a303132333435363738392b2f4d696e746564204e465420772f20746f6b656e496420257320616e6420636861726163746572496e646578202573a2646970667358221220ddb0604de8718ad4c0ed3016692460f56454beced0ad9b992090dbfb88b5a2ef64736f6c63430008110033",
  "linkReferences": {},
  "deployedLinkReferences": {}
}