{
  "_format": "hh-sol-artifact-1",
  "contractName": "MyNFT",
  "sourceName": "contracts/MyNFT.sol",
  "abi": [
    {
      "inputs": [],
      "stateMutability": "nonpayable",
      "type": "constructor"
    },
    {
      "anonymous": false,
      "inputs": [
        {
          "indexed": true,
          "internalType": "address",
          "name": "owner",
          "type": "address"
        },
        {
          "indexed": true,
          "internalType": "address",
          "name": "approved",
          "type": "address"
        },
        {
          "indexed": true,
          "internalType": "uint256",
          "name": "tokenId",
          "type": "uint256"
        }
      ],
      "name": "Approval",
      "type": "event"
    },
    {
      "anonymous": false,
      "inputs": [
        {
          "indexed": true,
          "internalType": "address",
          "name": "owner",
          "type": "address"
        },
        {
          "indexed": true,
          "internalType": "address",
          "name": "operator",
          "type": "address"
        },
        {
          "indexed": false,
          "internalType": "bool",
          "name": "approved",
          "type": "bool"
        }
      ],
      "name": "ApprovalForAll",
      "type": "event"
    },
    {
      "anonymous": false,
      "inputs": [
        {
          "indexed": false,
          "internalType": "address",
          "name": "sender",
          "type": "address"
        },
        {
          "indexed": false,
          "internalType": "uint256",
          "name": "tokenId",
          "type": "uint256"
        }
      ],
      "name": "MintReceipt",
      "type": "event"
    },
    {
      "anonymous": false,
      "inputs": [
        {
          "indexed": true,
          "internalType": "bytes32",
          "name": "role",
          "type": "bytes32"
        },
        {
          "indexed": true,
          "internalType": "bytes32",
          "name": "previousAdminRole",
          "type": "bytes32"
        },
        {
          "indexed": true,
          "internalType": "bytes32",
          "name": "newAdminRole",
          "type": "bytes32"
        }
      ],
      "name": "RoleAdminChanged",
      "type": "event"
    },
    {
      "anonymous": false,
      "inputs": [
        {
          "indexed": true,
          "internalType": "bytes32",
          "name": "role",
          "type": "bytes32"
        },
        {
          "indexed": true,
          "internalType": "address",
          "name": "account",
          "type": "address"
        },
        {
          "indexed": true,
          "internalType": "address",
          "name": "sender",
          "type": "address"
        }
      ],
      "name": "RoleGranted",
      "type": "event"
    },
    {
      "anonymous": false,
      "inputs": [
        {
          "indexed": true,
          "internalType": "bytes32",
          "name": "role",
          "type": "bytes32"
        },
        {
          "indexed": true,
          "internalType": "address",
          "name": "account",
          "type": "address"
        },
        {
          "indexed": true,
          "internalType": "address",
          "name": "sender",
          "type": "address"
        }
      ],
      "name": "RoleRevoked",
      "type": "event"
    },
    {
      "anonymous": false,
      "inputs": [
        {
          "indexed": true,
          "internalType": "address",
          "name": "from",
          "type": "address"
        },
        {
          "indexed": true,
          "internalType": "address",
          "name": "to",
          "type": "address"
        },
        {
          "indexed": true,
          "internalType": "uint256",
          "name": "tokenId",
          "type": "uint256"
        }
      ],
      "name": "Transfer",
      "type": "event"
    },
    {
      "inputs": [],
      "name": "DEFAULT_ADMIN_ROLE",
      "outputs": [
        {
          "internalType": "bytes32",
          "name": "",
          "type": "bytes32"
        }
      ],
      "stateMutability": "view",
      "type": "function"
    },
    {
      "inputs": [],
      "name": "MINTER_ROLE",
      "outputs": [
        {
          "internalType": "bytes32",
          "name": "",
          "type": "bytes32"
        }
      ],
      "stateMutability": "view",
      "type": "function"
    },
    {
      "inputs": [
        {
          "internalType": "address",
          "name": "to",
          "type": "address"
        },
        {
          "internalType": "uint256",
          "name": "tokenId",
          "type": "uint256"
        }
      ],
      "name": "approve",
      "outputs": [],
      "stateMutability": "nonpayable",
      "type": "function"
    },
    {
      "inputs": [
        {
          "internalType": "address",
          "name": "owner",
          "type": "address"
        }
      ],
      "name": "balanceOf",
      "outputs": [
        {
          "internalType": "uint256",
          "name": "",
          "type": "uint256"
        }
      ],
      "stateMutability": "view",
      "type": "function"
    },
    {
      "inputs": [
        {
          "internalType": "uint256",
          "name": "tokenId",
          "type": "uint256"
        }
      ],
      "name": "burn",
      "outputs": [],
      "stateMutability": "nonpayable",
      "type": "function"
    },
    {
      "inputs": [],
      "name": "checkForUsersNFTs",
      "outputs": [
        {
          "internalType": "string[]",
          "name": "yoCardsInGame",
          "type": "string[]"
        }
      ],
      "stateMutability": "view",
      "type": "function"
    },
    {
      "inputs": [
        {
          "internalType": "uint256",
          "name": "tokenId",
          "type": "uint256"
        }
      ],
      "name": "checkRedemptionStatus",
      "outputs": [
        {
          "internalType": "bool",
          "name": "",
          "type": "bool"
        }
      ],
      "stateMutability": "view",
      "type": "function"
    },
    {
      "inputs": [
        {
          "internalType": "bool",
          "name": "redeemed",
          "type": "bool"
        }
      ],
      "name": "convertBoolToString",
      "outputs": [
        {
          "internalType": "string",
          "name": "redeemedString",
          "type": "string"
        }
      ],
      "stateMutability": "pure",
      "type": "function"
    },
    {
      "inputs": [
        {
          "internalType": "uint256",
          "name": "tokenId",
          "type": "uint256"
        }
      ],
      "name": "getApproved",
      "outputs": [
        {
          "internalType": "address",
          "name": "",
          "type": "address"
        }
      ],
      "stateMutability": "view",
      "type": "function"
    },
    {
      "inputs": [
        {
          "internalType": "bytes32",
          "name": "role",
          "type": "bytes32"
        }
      ],
      "name": "getRoleAdmin",
      "outputs": [
        {
          "internalType": "bytes32",
          "name": "",
          "type": "bytes32"
        }
      ],
      "stateMutability": "view",
      "type": "function"
    },
    {
      "inputs": [
        {
          "internalType": "bytes32",
          "name": "role",
          "type": "bytes32"
        },
        {
          "internalType": "address",
          "name": "account",
          "type": "address"
        }
      ],
      "name": "grantRole",
      "outputs": [],
      "stateMutability": "nonpayable",
      "type": "function"
    },
    {
      "inputs": [
        {
          "internalType": "bytes32",
          "name": "role",
          "type": "bytes32"
        },
        {
          "internalType": "address",
          "name": "account",
          "type": "address"
        }
      ],
      "name": "hasRole",
      "outputs": [
        {
          "internalType": "bool",
          "name": "",
          "type": "bool"
        }
      ],
      "stateMutability": "view",
      "type": "function"
    },
    {
      "inputs": [
        {
          "internalType": "address",
          "name": "owner",
          "type": "address"
        },
        {
          "internalType": "address",
          "name": "operator",
          "type": "address"
        }
      ],
      "name": "isApprovedForAll",
      "outputs": [
        {
          "internalType": "bool",
          "name": "",
          "type": "bool"
        }
      ],
      "stateMutability": "view",
      "type": "function"
    },
    {
      "inputs": [],
      "name": "name",
      "outputs": [
        {
          "internalType": "string",
          "name": "",
          "type": "string"
        }
      ],
      "stateMutability": "view",
      "type": "function"
    },
    {
      "inputs": [
        {
          "internalType": "uint256",
          "name": "",
          "type": "uint256"
        }
      ],
      "name": "nftHolderAttributes",
      "outputs": [
        {
          "internalType": "string",
          "name": "name",
          "type": "string"
        },
        {
          "internalType": "string",
          "name": "imageURI",
          "type": "string"
        },
        {
          "internalType": "uint256",
          "name": "percievedLoudness",
          "type": "uint256"
        },
        {
          "internalType": "uint256",
          "name": "tailLength",
          "type": "uint256"
        },
        {
          "internalType": "uint256",
          "name": "bodyLength",
          "type": "uint256"
        },
        {
          "internalType": "uint256",
          "name": "dynamicRange",
          "type": "uint256"
        },
        {
          "internalType": "uint256",
          "name": "duration",
          "type": "uint256"
        },
        {
          "internalType": "bool",
          "name": "redeemed",
          "type": "bool"
        }
      ],
      "stateMutability": "view",
      "type": "function"
    },
    {
      "inputs": [
        {
          "internalType": "address",
          "name": "",
          "type": "address"
        },
        {
          "internalType": "uint256",
          "name": "",
          "type": "uint256"
        }
      ],
      "name": "nftHolders",
      "outputs": [
        {
          "internalType": "uint256",
          "name": "",
          "type": "uint256"
        }
      ],
      "stateMutability": "view",
      "type": "function"
    },
    {
      "inputs": [
        {
          "internalType": "uint256",
          "name": "tokenId",
          "type": "uint256"
        }
      ],
      "name": "ownerOf",
      "outputs": [
        {
          "internalType": "address",
          "name": "",
          "type": "address"
        }
      ],
      "stateMutability": "view",
      "type": "function"
    },
    {
      "inputs": [
        {
          "internalType": "bytes32",
          "name": "role",
          "type": "bytes32"
        },
        {
          "internalType": "address",
          "name": "account",
          "type": "address"
        }
      ],
      "name": "renounceRole",
      "outputs": [],
      "stateMutability": "nonpayable",
      "type": "function"
    },
    {
      "inputs": [
        {
          "internalType": "bytes32",
          "name": "role",
          "type": "bytes32"
        },
        {
          "internalType": "address",
          "name": "account",
          "type": "address"
        }
      ],
      "name": "revokeRole",
      "outputs": [],
      "stateMutability": "nonpayable",
      "type": "function"
    },
    {
      "inputs": [
        {
          "internalType": "string",
          "name": "_name",
          "type": "string"
        },
        {
          "internalType": "string",
          "name": "_imageURI",
          "type": "string"
        },
        {
          "internalType": "uint256",
          "name": "_percievedLoudness",
          "type": "uint256"
        },
        {
          "internalType": "uint256",
          "name": "_tailLength",
          "type": "uint256"
        },
        {
          "internalType": "uint256",
          "name": "_bodyLength",
          "type": "uint256"
        },
        {
          "internalType": "uint256",
          "name": "_dynamicRange",
          "type": "uint256"
        },
        {
          "internalType": "uint256",
          "name": "_duration",
          "type": "uint256"
        },
        {
          "internalType": "bool",
          "name": "_redeemed",
          "type": "bool"
        }
      ],
      "name": "safeMint",
      "outputs": [],
      "stateMutability": "nonpayable",
      "type": "function"
    },
    {
      "inputs": [
        {
          "internalType": "address",
          "name": "from",
          "type": "address"
        },
        {
          "internalType": "address",
          "name": "to",
          "type": "address"
        },
        {
          "internalType": "uint256",
          "name": "tokenId",
          "type": "uint256"
        }
      ],
      "name": "safeTransferFrom",
      "outputs": [],
      "stateMutability": "nonpayable",
      "type": "function"
    },
    {
      "inputs": [
        {
          "internalType": "address",
          "name": "from",
          "type": "address"
        },
        {
          "internalType": "address",
          "name": "to",
          "type": "address"
        },
        {
          "internalType": "uint256",
          "name": "tokenId",
          "type": "uint256"
        },
        {
          "internalType": "bytes",
          "name": "data",
          "type": "bytes"
        }
      ],
      "name": "safeTransferFrom",
      "outputs": [],
      "stateMutability": "nonpayable",
      "type": "function"
    },
    {
      "inputs": [
        {
          "internalType": "address",
          "name": "operator",
          "type": "address"
        },
        {
          "internalType": "bool",
          "name": "approved",
          "type": "bool"
        }
      ],
      "name": "setApprovalForAll",
      "outputs": [],
      "stateMutability": "nonpayable",
      "type": "function"
    },
    {
      "inputs": [
        {
          "internalType": "bytes4",
          "name": "interfaceId",
          "type": "bytes4"
        }
      ],
      "name": "supportsInterface",
      "outputs": [
        {
          "internalType": "bool",
          "name": "",
          "type": "bool"
        }
      ],
      "stateMutability": "view",
      "type": "function"
    },
    {
      "inputs": [
        {
          "internalType": "uint256",
          "name": "tokenId",
          "type": "uint256"
        }
      ],
      "name": "switchRedeemed",
      "outputs": [],
      "stateMutability": "nonpayable",
      "type": "function"
    },
    {
      "inputs": [],
      "name": "symbol",
      "outputs": [
        {
          "internalType": "string",
          "name": "",
          "type": "string"
        }
      ],
      "stateMutability": "view",
      "type": "function"
    },
    {
      "inputs": [
        {
          "internalType": "uint256",
          "name": "_tokenId",
          "type": "uint256"
        }
      ],
      "name": "tokenURI",
      "outputs": [
        {
          "internalType": "string",
          "name": "",
          "type": "string"
        }
      ],
      "stateMutability": "view",
      "type": "function"
    },
    {
      "inputs": [
        {
          "internalType": "address",
          "name": "from",
          "type": "address"
        },
        {
          "internalType": "address",
          "name": "to",
          "type": "address"
        },
        {
          "internalType": "uint256",
          "name": "tokenId",
          "type": "uint256"
        }
      ],
      "name": "transferFrom",
      "outputs": [],
      "stateMutability": "nonpayable",
      "type": "function"
    },
    {
      "inputs": [
        {
          "internalType": "address",
          "name": "",
          "type": "address"
        },
        {
          "internalType": "uint256",
          "name": "",
          "type": "uint256"
        }
      ],
      "name": "yourCardsInGameMapping",
      "outputs": [
        {
          "internalType": "string",
          "name": "",
          "type": "string"
        }
      ],
      "stateMutability": "view",
      "type": "function"
    }
  ],
  "bytecode": "0x60806040523480156200001157600080fd5b506040518060400160405280600781526020017f4d79546f6b656e000000000000000000000000000000000000000000000000008152506040518060400160405280600381526020017f4d544b000000000000000000000000000000000000000000000000000000000081525081600090816200008f9190620004fd565b508060019081620000a19190620004fd565b505050620000b96000801b336200010860201b60201c565b620000eb7f9f2df0fed2c77648de5860a4cc508cd0818c85b8b8a1ab4ceeef8d981c8956a6336200010860201b60201c565b620001026007620001fa60201b620018b21760201c565b620005e4565b6200011a82826200021060201b60201c565b620001f65760016006600084815260200190815260200160002060000160008373ffffffffffffffffffffffffffffffffffffffff1673ffffffffffffffffffffffffffffffffffffffff16815260200190815260200160002060006101000a81548160ff0219169083151502179055506200019b6200027b60201b60201c565b73ffffffffffffffffffffffffffffffffffffffff168173ffffffffffffffffffffffffffffffffffffffff16837f2f8788117e7eff1d82e926ec794901d17c78024a50270940304540a733656f0d60405160405180910390a45b5050565b6001816000016000828254019250508190555050565b60006006600084815260200190815260200160002060000160008373ffffffffffffffffffffffffffffffffffffffff1673ffffffffffffffffffffffffffffffffffffffff16815260200190815260200160002060009054906101000a900460ff16905092915050565b600033905090565b600081519050919050565b7f4e487b7100000000000000000000000000000000000000000000000000000000600052604160045260246000fd5b7f4e487b7100000000000000000000000000000000000000000000000000000000600052602260045260246000fd5b600060028204905060018216806200030557607f821691505b6020821081036200031b576200031a620002bd565b5b50919050565b60008190508160005260206000209050919050565b60006020601f8301049050919050565b600082821b905092915050565b600060088302620003857fffffffffffffffffffffffffffffffffffffffffffffffffffffffffffffffff8262000346565b62000391868362000346565b95508019841693508086168417925050509392505050565b6000819050919050565b6000819050919050565b6000620003de620003d8620003d284620003a9565b620003b3565b620003a9565b9050919050565b6000819050919050565b620003fa83620003bd565b620004126200040982620003e5565b84845462000353565b825550505050565b600090565b620004296200041a565b62000436818484620003ef565b505050565b5b818110156200045e57620004526000826200041f565b6001810190506200043c565b5050565b601f821115620004ad57620004778162000321565b620004828462000336565b8101602085101562000492578190505b620004aa620004a18562000336565b8301826200043b565b50505b505050565b600082821c905092915050565b6000620004d260001984600802620004b2565b1980831691505092915050565b6000620004ed8383620004bf565b9150826002028217905092915050565b620005088262000283565b67ffffffffffffffff8111156200052457620005236200028e565b5b620005308254620002ec565b6200053d82828562000462565b600060209050601f83116001811462000575576000841562000560578287015190505b6200056c8582620004df565b865550620005dc565b601f198416620005858662000321565b60005b82811015620005af5784890151825560018201915060208501945060208101905062000588565b86831015620005cf5784890151620005cb601f891682620004bf565b8355505b6001600288020188555050505b505050505050565b61503d80620005f46000396000f3fe608060405234801561001057600080fd5b50600436106101cf5760003560e01c806370a0823111610104578063a22cb465116100a2578063d539139311610071578063d53913931461058f578063d547741f146105ad578063e8197a25146105c9578063e985e9c5146105e5576101cf565b8063a22cb46514610509578063b88d4fde14610525578063c87b56dd14610541578063cf1ac6e514610571576101cf565b806391d14854116100de57806391d148541461046657806395d89b411461049657806398da4c95146104b4578063a217fddf146104eb576101cf565b806370a08231146103d6578063775bb50e14610406578063830745d114610436576101cf565b80632f2ff15d1161017157806342842e0e1161014b57806342842e0e1461035257806342966c681461036e57806352a0a6611461038a5780636352211e146103a6576101cf565b80632f2ff15d146102ea57806336568abe146103065780633f3a1c7a14610322576101cf565b8063095ea7b3116101ad578063095ea7b31461025257806321d8f7731461026e57806323b872dd1461029e578063248a9ca3146102ba576101cf565b806301ffc9a7146101d457806306fdde0314610204578063081812fc14610222575b600080fd5b6101ee60048036038101906101e991906131e7565b610615565b6040516101fb919061322f565b60405180910390f35b61020c610627565b60405161021991906132da565b60405180910390f35b61023c60048036038101906102379190613332565b6106b9565b60405161024991906133a0565b60405180910390f35b61026c600480360381019061026791906133e7565b6106ff565b005b61028860048036038101906102839190613332565b610816565b604051610295919061322f565b60405180910390f35b6102b860048036038101906102b39190613427565b6109b8565b005b6102d460048036038101906102cf91906134b0565b610a18565b6040516102e191906134ec565b60405180910390f35b61030460048036038101906102ff9190613507565b610a38565b005b610320600480360381019061031b9190613507565b610a59565b005b61033c600480360381019061033791906133e7565b610adc565b60405161034991906132da565b60405180910390f35b61036c60048036038101906103679190613427565b610b95565b005b61038860048036038101906103839190613332565b610bb5565b005b6103a4600480360381019061039f9190613332565b610c11565b005b6103c060048036038101906103bb9190613332565b610c49565b6040516103cd91906133a0565b60405180910390f35b6103f060048036038101906103eb9190613547565b610ccf565b6040516103fd9190613583565b60405180910390f35b610420600480360381019061041b91906133e7565b610d86565b60405161042d9190613583565b60405180910390f35b610450600480360381019061044b91906135ca565b610db7565b60405161045d91906132da565b60405180910390f35b610480600480360381019061047b9190613507565b610e40565b60405161048d919061322f565b60405180910390f35b61049e610eab565b6040516104ab91906132da565b60405180910390f35b6104ce60048036038101906104c99190613332565b610f3d565b6040516104e29897969594939291906135f7565b60405180910390f35b6104f36110a2565b60405161050091906134ec565b60405180910390f35b610523600480360381019061051e9190613683565b6110a9565b005b61053f600480360381019061053a91906137f8565b6110bf565b005b61055b60048036038101906105569190613332565b611121565b60405161056891906132da565b60405180910390f35b61057961139e565b6040516105869190613987565b60405180910390f35b6105976114b4565b6040516105a491906134ec565b60405180910390f35b6105c760048036038101906105c29190613507565b6114d8565b005b6105e360048036038101906105de9190613a4a565b6114f9565b005b6105ff60048036038101906105fa9190613b38565b61181e565b60405161060c919061322f565b60405180910390f35b6000610620826118c8565b9050919050565b60606000805461063690613ba7565b80601f016020809104026020016040519081016040528092919081815260200182805461066290613ba7565b80156106af5780601f10610684576101008083540402835291602001916106af565b820191906000526020600020905b81548152906001019060200180831161069257829003601f168201915b5050505050905090565b60006106c482611942565b6004600083815260200190815260200160002060009054906101000a900473ffffffffffffffffffffffffffffffffffffffff169050919050565b600061070a82610c49565b90508073ffffffffffffffffffffffffffffffffffffffff168373ffffffffffffffffffffffffffffffffffffffff160361077a576040517f08c379a000000000000000000000000000000000000000000000000000000000815260040161077190613c4a565b60405180910390fd5b8073ffffffffffffffffffffffffffffffffffffffff1661079961198d565b73ffffffffffffffffffffffffffffffffffffffff1614806107c857506107c7816107c261198d565b61181e565b5b610807576040517f08c379a00000000000000000000000000000000000000000000000000000000081526004016107fe90613cdc565b60405180910390fd5b6108118383611995565b505050565b600080600960008481526020019081526020016000206040518061010001604052908160008201805461084890613ba7565b80601f016020809104026020016040519081016040528092919081815260200182805461087490613ba7565b80156108c15780601f10610896576101008083540402835291602001916108c1565b820191906000526020600020905b8154815290600101906020018083116108a457829003601f168201915b505050505081526020016001820180546108da90613ba7565b80601f016020809104026020016040519081016040528092919081815260200182805461090690613ba7565b80156109535780601f1061092857610100808354040283529160200191610953565b820191906000526020600020905b81548152906001019060200180831161093657829003601f168201915b5050505050815260200160028201548152602001600382015481526020016004820154815260200160058201548152602001600682015481526020016007820160009054906101000a900460ff16151515158152505090508060e00151915050919050565b6109c96109c361198d565b82611a4e565b610a08576040517f08c379a00000000000000000000000000000000000000000000000000000000081526004016109ff90613d6e565b60405180910390fd5b610a13838383611ae3565b505050565b600060066000838152602001908152602001600020600101549050919050565b610a4182610a18565b610a4a81611ddc565b610a548383611df0565b505050565b610a6161198d565b73ffffffffffffffffffffffffffffffffffffffff168173ffffffffffffffffffffffffffffffffffffffff1614610ace576040517f08c379a0000000000000000000000000000000000000000000000000000000008152600401610ac590613e00565b60405180910390fd5b610ad88282611ed1565b5050565b600b6020528160005260406000208181548110610af857600080fd5b90600052602060002001600091509150508054610b1490613ba7565b80601f0160208091040260200160405190810160405280929190818152602001828054610b4090613ba7565b8015610b8d5780601f10610b6257610100808354040283529160200191610b8d565b820191906000526020600020905b815481529060010190602001808311610b7057829003601f168201915b505050505081565b610bb0838383604051806020016040528060008152506110bf565b505050565b610bc6610bc061198d565b82611a4e565b610c05576040517f08c379a0000000000000000000000000000000000000000000000000000000008152600401610bfc90613d6e565b60405180910390fd5b610c0e81611fb3565b50565b600060096000838152602001908152602001600020905060018160070160006101000a81548160ff0219169083151502179055505050565b600080610c5583612101565b9050600073ffffffffffffffffffffffffffffffffffffffff168173ffffffffffffffffffffffffffffffffffffffff1603610cc6576040517f08c379a0000000000000000000000000000000000000000000000000000000008152600401610cbd90613e6c565b60405180910390fd5b80915050919050565b60008073ffffffffffffffffffffffffffffffffffffffff168273ffffffffffffffffffffffffffffffffffffffff1603610d3f576040517f08c379a0000000000000000000000000000000000000000000000000000000008152600401610d3690613efe565b60405180910390fd5b600360008373ffffffffffffffffffffffffffffffffffffffff1673ffffffffffffffffffffffffffffffffffffffff168152602001908152602001600020549050919050565b60086020528160005260406000208181548110610da257600080fd5b90600052602060002001600091509150505481565b60606001151582151503610e02576040518060400160405280600481526020017f74727565000000000000000000000000000000000000000000000000000000008152509050610e3b565b6040518060400160405280600581526020017f66616c736500000000000000000000000000000000000000000000000000000081525090505b919050565b60006006600084815260200190815260200160002060000160008373ffffffffffffffffffffffffffffffffffffffff1673ffffffffffffffffffffffffffffffffffffffff16815260200190815260200160002060009054906101000a900460ff16905092915050565b606060018054610eba90613ba7565b80601f0160208091040260200160405190810160405280929190818152602001828054610ee690613ba7565b8015610f335780601f10610f0857610100808354040283529160200191610f33565b820191906000526020600020905b815481529060010190602001808311610f1657829003601f168201915b5050505050905090565b6009602052806000526040600020600091509050806000018054610f6090613ba7565b80601f0160208091040260200160405190810160405280929190818152602001828054610f8c90613ba7565b8015610fd95780601f10610fae57610100808354040283529160200191610fd9565b820191906000526020600020905b815481529060010190602001808311610fbc57829003601f168201915b505050505090806001018054610fee90613ba7565b80601f016020809104026020016040519081016040528092919081815260200182805461101a90613ba7565b80156110675780601f1061103c57610100808354040283529160200191611067565b820191906000526020600020905b81548152906001019060200180831161104a57829003601f168201915b5050505050908060020154908060030154908060040154908060050154908060060154908060070160009054906101000a900460ff16905088565b6000801b81565b6110bb6110b461198d565b838361213e565b5050565b6110d06110ca61198d565b83611a4e565b61110f576040517f08c379a000000000000000000000000000000000000000000000000000000000815260040161110690613d6e565b60405180910390fd5b61111b848484846122aa565b50505050565b60606000600960008481526020019081526020016000206040518061010001604052908160008201805461115490613ba7565b80601f016020809104026020016040519081016040528092919081815260200182805461118090613ba7565b80156111cd5780601f106111a2576101008083540402835291602001916111cd565b820191906000526020600020905b8154815290600101906020018083116111b057829003601f168201915b505050505081526020016001820180546111e690613ba7565b80601f016020809104026020016040519081016040528092919081815260200182805461121290613ba7565b801561125f5780601f106112345761010080835404028352916020019161125f565b820191906000526020600020905b81548152906001019060200180831161124257829003601f168201915b5050505050815260200160028201548152602001600382015481526020016004820154815260200160058201548152602001600682015481526020016007820160009054906101000a900460ff161515151581525050905060006112c68260400151612306565b905060006112d78360600151612306565b905060006112e88460800151612306565b905060006112f98560c00151612306565b9050600061130a8660a00151612306565b9050600061131b8760e00151610db7565b9050600061136788600001516113308c612306565b848b602001518b8b8b8a8c604051602001611353999897969594939291906143a8565b6040516020818303038152906040526123d4565b905060008160405160200161137c91906144e1565b6040516020818303038152906040529050809950505050505050505050919050565b6060600b60003373ffffffffffffffffffffffffffffffffffffffff1673ffffffffffffffffffffffffffffffffffffffff168152602001908152602001600020805480602002602001604051908101604052809291908181526020016000905b828210156114ab57838290600052602060002001805461141e90613ba7565b80601f016020809104026020016040519081016040528092919081815260200182805461144a90613ba7565b80156114975780601f1061146c57610100808354040283529160200191611497565b820191906000526020600020905b81548152906001019060200180831161147a57829003601f168201915b5050505050815260200190600101906113ff565b50505050905090565b7f9f2df0fed2c77648de5860a4cc508cd0818c85b8b8a1ab4ceeef8d981c8956a681565b6114e182610a18565b6114ea81611ddc565b6114f48383611ed1565b505050565b7f9f2df0fed2c77648de5860a4cc508cd0818c85b8b8a1ab4ceeef8d981c8956a661152381611ddc565b600061152f600761256b565b905061153b3382612579565b600860003373ffffffffffffffffffffffffffffffffffffffff1673ffffffffffffffffffffffffffffffffffffffff1681526020019081526020016000208190806001815401808255809150506001900390600052602060002001600090919091909150556040518061010001604052808b81526020018a815260200189815260200188815260200187815260200186815260200185815260200184151581525060096000838152602001908152602001600020600082015181600001908161160591906146af565b50602082015181600101908161161b91906146af565b5060408201518160020155606082015181600301556080820151816004015560a0820151816005015560c0820151816006015560e08201518160070160006101000a81548160ff021916908315150217905550905050600b60003373ffffffffffffffffffffffffffffffffffffffff1673ffffffffffffffffffffffffffffffffffffffff168152602001908152602001600020899080600181540180825580915050600190039060005260206000200160009091909190915090816116e291906146af565b506117066040518060600160405280602e8152602001614fda602e9139828c612597565b600a600960008381526020019081526020016000209080600181540180825580915050600190039060005260206000209060080201600090919091909150600082018160000190816117589190614797565b506001820181600101908161176d9190614797565b5060028201548160020155600382015481600301556004820154816004015560058201548160050155600682015481600601556007820160009054906101000a900460ff168160070160006101000a81548160ff02191690831515021790555050507f1fc669908b9d25690fe5308881be77af12afc6f62a2b0f26464380452a622880338260405161180092919061487f565b60405180910390a161181260076118b2565b50505050505050505050565b6000600560008473ffffffffffffffffffffffffffffffffffffffff1673ffffffffffffffffffffffffffffffffffffffff16815260200190815260200160002060008373ffffffffffffffffffffffffffffffffffffffff1673ffffffffffffffffffffffffffffffffffffffff16815260200190815260200160002060009054906101000a900460ff16905092915050565b6001816000016000828254019250508190555050565b60007f7965db0b000000000000000000000000000000000000000000000000000000007bffffffffffffffffffffffffffffffffffffffffffffffffffffffff1916827bffffffffffffffffffffffffffffffffffffffffffffffffffffffff1916148061193b575061193a82612636565b5b9050919050565b61194b81612718565b61198a576040517f08c379a000000000000000000000000000000000000000000000000000000000815260040161198190613e6c565b60405180910390fd5b50565b600033905090565b816004600083815260200190815260200160002060006101000a81548173ffffffffffffffffffffffffffffffffffffffff021916908373ffffffffffffffffffffffffffffffffffffffff160217905550808273ffffffffffffffffffffffffffffffffffffffff16611a0883610c49565b73ffffffffffffffffffffffffffffffffffffffff167f8c5be1e5ebec7d5bd14f71427d1e84f3dd0314c0f7b2291e5b200ac8c7c3b92560405160405180910390a45050565b600080611a5a83610c49565b90508073ffffffffffffffffffffffffffffffffffffffff168473ffffffffffffffffffffffffffffffffffffffff161480611a9c5750611a9b818561181e565b5b80611ada57508373ffffffffffffffffffffffffffffffffffffffff16611ac2846106b9565b73ffffffffffffffffffffffffffffffffffffffff16145b91505092915050565b8273ffffffffffffffffffffffffffffffffffffffff16611b0382610c49565b73ffffffffffffffffffffffffffffffffffffffff1614611b59576040517f08c379a0000000000000000000000000000000000000000000000000000000008152600401611b509061491a565b60405180910390fd5b600073ffffffffffffffffffffffffffffffffffffffff168273ffffffffffffffffffffffffffffffffffffffff1603611bc8576040517f08c379a0000000000000000000000000000000000000000000000000000000008152600401611bbf906149ac565b60405180910390fd5b611bd58383836001612759565b8273ffffffffffffffffffffffffffffffffffffffff16611bf582610c49565b73ffffffffffffffffffffffffffffffffffffffff1614611c4b576040517f08c379a0000000000000000000000000000000000000000000000000000000008152600401611c429061491a565b60405180910390fd5b6004600082815260200190815260200160002060006101000a81549073ffffffffffffffffffffffffffffffffffffffff02191690556001600360008573ffffffffffffffffffffffffffffffffffffffff1673ffffffffffffffffffffffffffffffffffffffff168152602001908152602001600020600082825403925050819055506001600360008473ffffffffffffffffffffffffffffffffffffffff1673ffffffffffffffffffffffffffffffffffffffff16815260200190815260200160002060008282540192505081905550816002600083815260200190815260200160002060006101000a81548173ffffffffffffffffffffffffffffffffffffffff021916908373ffffffffffffffffffffffffffffffffffffffff160217905550808273ffffffffffffffffffffffffffffffffffffffff168473ffffffffffffffffffffffffffffffffffffffff167fddf252ad1be2c89b69c2b068fc378daa952ba7f163c4a11628f55a4df523b3ef60405160405180910390a4611dd7838383600161287f565b505050565b611ded81611de861198d565b612885565b50565b611dfa8282610e40565b611ecd5760016006600084815260200190815260200160002060000160008373ffffffffffffffffffffffffffffffffffffffff1673ffffffffffffffffffffffffffffffffffffffff16815260200190815260200160002060006101000a81548160ff021916908315150217905550611e7261198d565b73ffffffffffffffffffffffffffffffffffffffff168173ffffffffffffffffffffffffffffffffffffffff16837f2f8788117e7eff1d82e926ec794901d17c78024a50270940304540a733656f0d60405160405180910390a45b5050565b611edb8282610e40565b15611faf5760006006600084815260200190815260200160002060000160008373ffffffffffffffffffffffffffffffffffffffff1673ffffffffffffffffffffffffffffffffffffffff16815260200190815260200160002060006101000a81548160ff021916908315150217905550611f5461198d565b73ffffffffffffffffffffffffffffffffffffffff168173ffffffffffffffffffffffffffffffffffffffff16837ff6391f5c32d9c69d2a47ea670b442974b53935d1edc7fd64eb21e047a839171b60405160405180910390a45b5050565b6000611fbe82610c49565b9050611fce816000846001612759565b611fd782610c49565b90506004600083815260200190815260200160002060006101000a81549073ffffffffffffffffffffffffffffffffffffffff02191690556001600360008373ffffffffffffffffffffffffffffffffffffffff1673ffffffffffffffffffffffffffffffffffffffff168152602001908152602001600020600082825403925050819055506002600083815260200190815260200160002060006101000a81549073ffffffffffffffffffffffffffffffffffffffff021916905581600073ffffffffffffffffffffffffffffffffffffffff168273ffffffffffffffffffffffffffffffffffffffff167fddf252ad1be2c89b69c2b068fc378daa952ba7f163c4a11628f55a4df523b3ef60405160405180910390a46120fd81600084600161287f565b5050565b60006002600083815260200190815260200160002060009054906101000a900473ffffffffffffffffffffffffffffffffffffffff169050919050565b8173ffffffffffffffffffffffffffffffffffffffff168373ffffffffffffffffffffffffffffffffffffffff16036121ac576040517f08c379a00000000000000000000000000000000000000000000000000000000081526004016121a390614a18565b60405180910390fd5b80600560008573ffffffffffffffffffffffffffffffffffffffff1673ffffffffffffffffffffffffffffffffffffffff16815260200190815260200160002060008473ffffffffffffffffffffffffffffffffffffffff1673ffffffffffffffffffffffffffffffffffffffff16815260200190815260200160002060006101000a81548160ff0219169083151502179055508173ffffffffffffffffffffffffffffffffffffffff168373ffffffffffffffffffffffffffffffffffffffff167f17307eab39ab6107e8899845ad3d59bd9653f200f220920489ca2b5937696c318360405161229d919061322f565b60405180910390a3505050565b6122b5848484611ae3565b6122c18484848461290a565b612300576040517f08c379a00000000000000000000000000000000000000000000000000000000081526004016122f790614aaa565b60405180910390fd5b50505050565b60606000600161231584612a91565b01905060008167ffffffffffffffff811115612334576123336136cd565b5b6040519080825280601f01601f1916602001820160405280156123665781602001600182028036833780820191505090505b509050600082602001820190505b6001156123c9578080600190039150507f3031323334353637383961626364656600000000000000000000000000000000600a86061a8153600a85816123bd576123bc614aca565b5b04945060008503612374575b819350505050919050565b6060600082519050600081036123fc5760405180602001604052806000815250915050612566565b6000600360028361240d9190614b28565b6124179190614b5c565b60046124239190614b8d565b905060006020826124349190614b28565b67ffffffffffffffff81111561244d5761244c6136cd565b5b6040519080825280601f01601f19166020018201604052801561247f5781602001600182028036833780820191505090505b5090506000604051806060016040528060408152602001614f9a604091399050600181016020830160005b868110156125235760038101905062ffffff818a015116603f8160121c168401518060081b905060ff603f83600c1c1686015116810190508060081b905060ff603f8360061c1686015116810190508060081b905060ff603f831686015116810190508060e01b905080845260048401935050506124aa565b50600386066001811461253d576002811461254d57612558565b613d3d60f01b6002830352612558565b603d60f81b60018303525b508484525050819450505050505b919050565b600081600001549050919050565b612593828260405180602001604052806000815250612be4565b5050565b6126318383836040516024016125af93929190614bcf565b6040516020818303038152906040527f5970e089000000000000000000000000000000000000000000000000000000007bffffffffffffffffffffffffffffffffffffffffffffffffffffffff19166020820180517bffffffffffffffffffffffffffffffffffffffffffffffffffffffff8381831617835250505050612c3f565b505050565b60007f80ac58cd000000000000000000000000000000000000000000000000000000007bffffffffffffffffffffffffffffffffffffffffffffffffffffffff1916827bffffffffffffffffffffffffffffffffffffffffffffffffffffffff1916148061270157507f5b5e139f000000000000000000000000000000000000000000000000000000007bffffffffffffffffffffffffffffffffffffffffffffffffffffffff1916827bffffffffffffffffffffffffffffffffffffffffffffffffffffffff1916145b80612711575061271082612c68565b5b9050919050565b60008073ffffffffffffffffffffffffffffffffffffffff1661273a83612101565b73ffffffffffffffffffffffffffffffffffffffff1614159050919050565b600181111561287957600073ffffffffffffffffffffffffffffffffffffffff168473ffffffffffffffffffffffffffffffffffffffff16146127ed5780600360008673ffffffffffffffffffffffffffffffffffffffff1673ffffffffffffffffffffffffffffffffffffffff16815260200190815260200160002060008282546127e59190614c14565b925050819055505b600073ffffffffffffffffffffffffffffffffffffffff168373ffffffffffffffffffffffffffffffffffffffff16146128785780600360008573ffffffffffffffffffffffffffffffffffffffff1673ffffffffffffffffffffffffffffffffffffffff16815260200190815260200160002060008282546128709190614b28565b925050819055505b5b50505050565b50505050565b61288f8282610e40565b6129065761289c81612cd2565b6128aa8360001c6020612cff565b6040516020016128bb929190614ce0565b6040516020818303038152906040526040517f08c379a00000000000000000000000000000000000000000000000000000000081526004016128fd91906132da565b60405180910390fd5b5050565b600061292b8473ffffffffffffffffffffffffffffffffffffffff16612f3b565b15612a84578373ffffffffffffffffffffffffffffffffffffffff1663150b7a0261295461198d565b8786866040518563ffffffff1660e01b81526004016129769493929190614d6f565b6020604051808303816000875af19250505080156129b257506040513d601f19601f820116820180604052508101906129af9190614dd0565b60015b612a34573d80600081146129e2576040519150601f19603f3d011682016040523d82523d6000602084013e6129e7565b606091505b506000815103612a2c576040517f08c379a0000000000000000000000000000000000000000000000000000000008152600401612a2390614aaa565b60405180910390fd5b805181602001fd5b63150b7a0260e01b7bffffffffffffffffffffffffffffffffffffffffffffffffffffffff1916817bffffffffffffffffffffffffffffffffffffffffffffffffffffffff191614915050612a89565b600190505b949350505050565b600080600090507a184f03e93ff9f4daa797ed6e38ed64bf6a1f0100000000000000008310612aef577a184f03e93ff9f4daa797ed6e38ed64bf6a1f0100000000000000008381612ae557612ae4614aca565b5b0492506040810190505b6d04ee2d6d415b85acef81000000008310612b2c576d04ee2d6d415b85acef81000000008381612b2257612b21614aca565b5b0492506020810190505b662386f26fc100008310612b5b57662386f26fc100008381612b5157612b50614aca565b5b0492506010810190505b6305f5e1008310612b84576305f5e1008381612b7a57612b79614aca565b5b0492506008810190505b6127108310612ba9576127108381612b9f57612b9e614aca565b5b0492506004810190505b60648310612bcc5760648381612bc257612bc1614aca565b5b0492506002810190505b600a8310612bdb576001810190505b80915050919050565b612bee8383612f5e565b612bfb600084848461290a565b612c3a576040517f08c379a0000000000000000000000000000000000000000000000000000000008152600401612c3190614aaa565b60405180910390fd5b505050565b60008151905060006a636f6e736f6c652e6c6f679050602083016000808483855afa5050505050565b60007f01ffc9a7000000000000000000000000000000000000000000000000000000007bffffffffffffffffffffffffffffffffffffffffffffffffffffffff1916827bffffffffffffffffffffffffffffffffffffffffffffffffffffffff1916149050919050565b6060612cf88273ffffffffffffffffffffffffffffffffffffffff16601460ff16612cff565b9050919050565b606060006002836002612d129190614b8d565b612d1c9190614b28565b67ffffffffffffffff811115612d3557612d346136cd565b5b6040519080825280601f01601f191660200182016040528015612d675781602001600182028036833780820191505090505b5090507f300000000000000000000000000000000000000000000000000000000000000081600081518110612d9f57612d9e614dfd565b5b60200101907effffffffffffffffffffffffffffffffffffffffffffffffffffffffffffff1916908160001a9053507f780000000000000000000000000000000000000000000000000000000000000081600181518110612e0357612e02614dfd565b5b60200101907effffffffffffffffffffffffffffffffffffffffffffffffffffffffffffff1916908160001a90535060006001846002612e439190614b8d565b612e4d9190614b28565b90505b6001811115612eed577f3031323334353637383961626364656600000000000000000000000000000000600f861660108110612e8f57612e8e614dfd565b5b1a60f81b828281518110612ea657612ea5614dfd565b5b60200101907effffffffffffffffffffffffffffffffffffffffffffffffffffffffffffff1916908160001a905350600485901c945080612ee690614e2c565b9050612e50565b5060008414612f31576040517f08c379a0000000000000000000000000000000000000000000000000000000008152600401612f2890614ea1565b60405180910390fd5b8091505092915050565b6000808273ffffffffffffffffffffffffffffffffffffffff163b119050919050565b600073ffffffffffffffffffffffffffffffffffffffff168273ffffffffffffffffffffffffffffffffffffffff1603612fcd576040517f08c379a0000000000000000000000000000000000000000000000000000000008152600401612fc490614f0d565b60405180910390fd5b612fd681612718565b15613016576040517f08c379a000000000000000000000000000000000000000000000000000000000815260040161300d90614f79565b60405180910390fd5b613024600083836001612759565b61302d81612718565b1561306d576040517f08c379a000000000000000000000000000000000000000000000000000000000815260040161306490614f79565b60405180910390fd5b6001600360008473ffffffffffffffffffffffffffffffffffffffff1673ffffffffffffffffffffffffffffffffffffffff16815260200190815260200160002060008282540192505081905550816002600083815260200190815260200160002060006101000a81548173ffffffffffffffffffffffffffffffffffffffff021916908373ffffffffffffffffffffffffffffffffffffffff160217905550808273ffffffffffffffffffffffffffffffffffffffff16600073ffffffffffffffffffffffffffffffffffffffff167fddf252ad1be2c89b69c2b068fc378daa952ba7f163c4a11628f55a4df523b3ef60405160405180910390a461317760008383600161287f565b5050565b6000604051905090565b600080fd5b600080fd5b60007fffffffff0000000000000000000000000000000000000000000000000000000082169050919050565b6131c48161318f565b81146131cf57600080fd5b50565b6000813590506131e1816131bb565b92915050565b6000602082840312156131fd576131fc613185565b5b600061320b848285016131d2565b91505092915050565b60008115159050919050565b61322981613214565b82525050565b60006020820190506132446000830184613220565b92915050565b600081519050919050565b600082825260208201905092915050565b60005b83811015613284578082015181840152602081019050613269565b60008484015250505050565b6000601f19601f8301169050919050565b60006132ac8261324a565b6132b68185613255565b93506132c6818560208601613266565b6132cf81613290565b840191505092915050565b600060208201905081810360008301526132f481846132a1565b905092915050565b6000819050919050565b61330f816132fc565b811461331a57600080fd5b50565b60008135905061332c81613306565b92915050565b60006020828403121561334857613347613185565b5b60006133568482850161331d565b91505092915050565b600073ffffffffffffffffffffffffffffffffffffffff82169050919050565b600061338a8261335f565b9050919050565b61339a8161337f565b82525050565b60006020820190506133b56000830184613391565b92915050565b6133c48161337f565b81146133cf57600080fd5b50565b6000813590506133e1816133bb565b92915050565b600080604083850312156133fe576133fd613185565b5b600061340c858286016133d2565b925050602061341d8582860161331d565b9150509250929050565b6000806000606084860312156134405761343f613185565b5b600061344e868287016133d2565b935050602061345f868287016133d2565b92505060406134708682870161331d565b9150509250925092565b6000819050919050565b61348d8161347a565b811461349857600080fd5b50565b6000813590506134aa81613484565b92915050565b6000602082840312156134c6576134c5613185565b5b60006134d48482850161349b565b91505092915050565b6134e68161347a565b82525050565b600060208201905061350160008301846134dd565b92915050565b6000806040838503121561351e5761351d613185565b5b600061352c8582860161349b565b925050602061353d858286016133d2565b9150509250929050565b60006020828403121561355d5761355c613185565b5b600061356b848285016133d2565b91505092915050565b61357d816132fc565b82525050565b60006020820190506135986000830184613574565b92915050565b6135a781613214565b81146135b257600080fd5b50565b6000813590506135c48161359e565b92915050565b6000602082840312156135e0576135df613185565b5b60006135ee848285016135b5565b91505092915050565b6000610100820190508181036000830152613612818b6132a1565b90508181036020830152613626818a6132a1565b90506136356040830189613574565b6136426060830188613574565b61364f6080830187613574565b61365c60a0830186613574565b61366960c0830185613574565b61367660e0830184613220565b9998505050505050505050565b6000806040838503121561369a57613699613185565b5b60006136a8858286016133d2565b92505060206136b9858286016135b5565b9150509250929050565b600080fd5b600080fd5b7f4e487b7100000000000000000000000000000000000000000000000000000000600052604160045260246000fd5b61370582613290565b810181811067ffffffffffffffff82111715613724576137236136cd565b5b80604052505050565b600061373761317b565b905061374382826136fc565b919050565b600067ffffffffffffffff821115613763576137626136cd565b5b61376c82613290565b9050602081019050919050565b82818337600083830152505050565b600061379b61379684613748565b61372d565b9050828152602081018484840111156137b7576137b66136c8565b5b6137c2848285613779565b509392505050565b600082601f8301126137df576137de6136c3565b5b81356137ef848260208601613788565b91505092915050565b6000806000806080858703121561381257613811613185565b5b6000613820878288016133d2565b9450506020613831878288016133d2565b93505060406138428782880161331d565b925050606085013567ffffffffffffffff8111156138635761386261318a565b5b61386f878288016137ca565b91505092959194509250565b600081519050919050565b600082825260208201905092915050565b6000819050602082019050919050565b600082825260208201905092915050565b60006138c38261324a565b6138cd81856138a7565b93506138dd818560208601613266565b6138e681613290565b840191505092915050565b60006138fd83836138b8565b905092915050565b6000602082019050919050565b600061391d8261387b565b6139278185613886565b93508360208202850161393985613897565b8060005b85811015613975578484038952815161395685826138f1565b945061396183613905565b925060208a0199505060018101905061393d565b50829750879550505050505092915050565b600060208201905081810360008301526139a18184613912565b905092915050565b600067ffffffffffffffff8211156139c4576139c36136cd565b5b6139cd82613290565b9050602081019050919050565b60006139ed6139e8846139a9565b61372d565b905082815260208101848484011115613a0957613a086136c8565b5b613a14848285613779565b509392505050565b600082601f830112613a3157613a306136c3565b5b8135613a418482602086016139da565b91505092915050565b600080600080600080600080610100898b031215613a6b57613a6a613185565b5b600089013567ffffffffffffffff811115613a8957613a8861318a565b5b613a958b828c01613a1c565b985050602089013567ffffffffffffffff811115613ab657613ab561318a565b5b613ac28b828c01613a1c565b9750506040613ad38b828c0161331d565b9650506060613ae48b828c0161331d565b9550506080613af58b828c0161331d565b94505060a0613b068b828c0161331d565b93505060c0613b178b828c0161331d565b92505060e0613b288b828c016135b5565b9150509295985092959890939650565b60008060408385031215613b4f57613b4e613185565b5b6000613b5d858286016133d2565b9250506020613b6e858286016133d2565b9150509250929050565b7f4e487b7100000000000000000000000000000000000000000000000000000000600052602260045260246000fd5b60006002820490506001821680613bbf57607f821691505b602082108103613bd257613bd1613b78565b5b50919050565b7f4552433732313a20617070726f76616c20746f2063757272656e74206f776e6560008201527f7200000000000000000000000000000000000000000000000000000000000000602082015250565b6000613c34602183613255565b9150613c3f82613bd8565b604082019050919050565b60006020820190508181036000830152613c6381613c27565b9050919050565b7f4552433732313a20617070726f76652063616c6c6572206973206e6f7420746f60008201527f6b656e206f776e6572206f7220617070726f76656420666f7220616c6c000000602082015250565b6000613cc6603d83613255565b9150613cd182613c6a565b604082019050919050565b60006020820190508181036000830152613cf581613cb9565b9050919050565b7f4552433732313a2063616c6c6572206973206e6f7420746f6b656e206f776e6560008201527f72206f7220617070726f76656400000000000000000000000000000000000000602082015250565b6000613d58602d83613255565b9150613d6382613cfc565b604082019050919050565b60006020820190508181036000830152613d8781613d4b565b9050919050565b7f416363657373436f6e74726f6c3a2063616e206f6e6c792072656e6f756e636560008201527f20726f6c657320666f722073656c660000000000000000000000000000000000602082015250565b6000613dea602f83613255565b9150613df582613d8e565b604082019050919050565b60006020820190508181036000830152613e1981613ddd565b9050919050565b7f4552433732313a20696e76616c696420746f6b656e2049440000000000000000600082015250565b6000613e56601883613255565b9150613e6182613e20565b602082019050919050565b60006020820190508181036000830152613e8581613e49565b9050919050565b7f4552433732313a2061646472657373207a65726f206973206e6f74206120766160008201527f6c6964206f776e65720000000000000000000000000000000000000000000000602082015250565b6000613ee8602983613255565b9150613ef382613e8c565b604082019050919050565b60006020820190508181036000830152613f1781613edb565b9050919050565b600081905092915050565b7f7b226e616d65223a202200000000000000000000000000000000000000000000600082015250565b6000613f5f600a83613f1e565b9150613f6a82613f29565b600a82019050919050565b6000613f808261324a565b613f8a8185613f1e565b9350613f9a818560208601613266565b80840191505092915050565b7f202d2d204e465420233a20000000000000000000000000000000000000000000600082015250565b6000613fdc600b83613f1e565b9150613fe782613fa6565b600b82019050919050565b7f222c20226465736372697074696f6e223a20225468697320697320616e204e4660008201527f542074686174206c6574732070656f706c6520706c617920616e64207472616460208201527f6520666f72206120536f6e69632047616d6521222c202272656465656d65642260408201527f3a00000000000000000000000000000000000000000000000000000000000000606082015250565b600061409a606183613f1e565b91506140a582613ff2565b606182019050919050565b7f2c202022696d616765223a2022697066733a2f2f000000000000000000000000600082015250565b60006140e6601483613f1e565b91506140f1826140b0565b601482019050919050565b7f222c202261747472696275746573223a205b207b202274726169745f7479706560008201527f223a2022506572636965766564204c6f75646e657373222c202276616c75652260208201527f3a20000000000000000000000000000000000000000000000000000000000000604082015250565b600061417e604283613f1e565b9150614189826140fc565b604282019050919050565b7f7d2c207b202274726169745f74797065223a20225461696c204c656e6774682260008201527f2c202276616c7565223a20000000000000000000000000000000000000000000602082015250565b60006141f0602b83613f1e565b91506141fb82614194565b602b82019050919050565b7f7d2c207b202274726169745f74797065223a2022426f6479204c656e6774682260008201527f2c202276616c7565223a20000000000000000000000000000000000000000000602082015250565b6000614262602b83613f1e565b915061426d82614206565b602b82019050919050565b7f7d2c207b202274726169745f74797065223a202244796e616d69632052616e6760008201527f65222c202276616c7565223a2000000000000000000000000000000000000000602082015250565b60006142d4602d83613f1e565b91506142df82614278565b602d82019050919050565b7f7d2c20207b202274726169745f74797065223a20224475726174696f6e222c2060008201527f2276616c7565223a200000000000000000000000000000000000000000000000602082015250565b6000614346602983613f1e565b9150614351826142ea565b602982019050919050565b7f7d205d7d00000000000000000000000000000000000000000000000000000000600082015250565b6000614392600483613f1e565b915061439d8261435c565b600482019050919050565b60006143b382613f52565b91506143bf828c613f75565b91506143ca82613fcf565b91506143d6828b613f75565b91506143e18261408d565b91506143ed828a613f75565b91506143f8826140d9565b91506144048289613f75565b915061440f82614171565b915061441b8288613f75565b9150614426826141e3565b91506144328287613f75565b915061443d82614255565b91506144498286613f75565b9150614454826142c7565b91506144608285613f75565b915061446b82614339565b91506144778284613f75565b915061448282614385565b91508190509a9950505050505050505050565b7f646174613a6170706c69636174696f6e2f6a736f6e3b6261736536342c000000600082015250565b60006144cb601d83613f1e565b91506144d682614495565b601d82019050919050565b60006144ec826144be565b91506144f88284613f75565b915081905092915050565b60008190508160005260206000209050919050565b60006020601f8301049050919050565b600082821b905092915050565b6000600883026145657fffffffffffffffffffffffffffffffffffffffffffffffffffffffffffffffff82614528565b61456f8683614528565b95508019841693508086168417925050509392505050565b6000819050919050565b60006145ac6145a76145a2846132fc565b614587565b6132fc565b9050919050565b6000819050919050565b6145c683614591565b6145da6145d2826145b3565b848454614535565b825550505050565b600090565b6145ef6145e2565b6145fa8184846145bd565b505050565b5b8181101561461e576146136000826145e7565b600181019050614600565b5050565b601f8211156146635761463481614503565b61463d84614518565b8101602085101561464c578190505b61466061465885614518565b8301826145ff565b50505b505050565b600082821c905092915050565b600061468660001984600802614668565b1980831691505092915050565b600061469f8383614675565b9150826002028217905092915050565b6146b88261324a565b67ffffffffffffffff8111156146d1576146d06136cd565b5b6146db8254613ba7565b6146e6828285614622565b600060209050601f8311600181146147195760008415614707578287015190505b6147118582614693565b865550614779565b601f19841661472786614503565b60005b8281101561474f5784890151825560018201915060208501945060208101905061472a565b8683101561476c5784890151614768601f891682614675565b8355505b6001600288020188555050505b505050505050565b60008154905061479081613ba7565b9050919050565b8181036147a557505061487d565b6147ae82614781565b67ffffffffffffffff8111156147c7576147c66136cd565b5b6147d18254613ba7565b6147dc828285614622565b6000601f83116001811461480b57600084156147f9578287015490505b6148038582614693565b865550614876565b601f19841661481987614503565b965061482486614503565b60005b8281101561484c57848901548255600182019150600185019450602081019050614827565b868310156148695784890154614865601f891682614675565b8355505b6001600288020188555050505b5050505050505b565b60006040820190506148946000830185613391565b6148a16020830184613574565b9392505050565b7f4552433732313a207472616e736665722066726f6d20696e636f72726563742060008201527f6f776e6572000000000000000000000000000000000000000000000000000000602082015250565b6000614904602583613255565b915061490f826148a8565b604082019050919050565b60006020820190508181036000830152614933816148f7565b9050919050565b7f4552433732313a207472616e7366657220746f20746865207a65726f2061646460008201527f7265737300000000000000000000000000000000000000000000000000000000602082015250565b6000614996602483613255565b91506149a18261493a565b604082019050919050565b600060208201905081810360008301526149c581614989565b9050919050565b7f4552433732313a20617070726f766520746f2063616c6c657200000000000000600082015250565b6000614a02601983613255565b9150614a0d826149cc565b602082019050919050565b60006020820190508181036000830152614a31816149f5565b9050919050565b7f4552433732313a207472616e7366657220746f206e6f6e20455243373231526560008201527f63656976657220696d706c656d656e7465720000000000000000000000000000602082015250565b6000614a94603283613255565b9150614a9f82614a38565b604082019050919050565b60006020820190508181036000830152614ac381614a87565b9050919050565b7f4e487b7100000000000000000000000000000000000000000000000000000000600052601260045260246000fd5b7f4e487b7100000000000000000000000000000000000000000000000000000000600052601160045260246000fd5b6000614b33826132fc565b9150614b3e836132fc565b9250828201905080821115614b5657614b55614af9565b5b92915050565b6000614b67826132fc565b9150614b72836132fc565b925082614b8257614b81614aca565b5b828204905092915050565b6000614b98826132fc565b9150614ba3836132fc565b9250828202614bb1816132fc565b91508282048414831517614bc857614bc7614af9565b5b5092915050565b60006060820190508181036000830152614be981866132a1565b9050614bf86020830185613574565b8181036040830152614c0a81846132a1565b9050949350505050565b6000614c1f826132fc565b9150614c2a836132fc565b9250828203905081811115614c4257614c41614af9565b5b92915050565b7f416363657373436f6e74726f6c3a206163636f756e7420000000000000000000600082015250565b6000614c7e601783613f1e565b9150614c8982614c48565b601782019050919050565b7f206973206d697373696e6720726f6c6520000000000000000000000000000000600082015250565b6000614cca601183613f1e565b9150614cd582614c94565b601182019050919050565b6000614ceb82614c71565b9150614cf78285613f75565b9150614d0282614cbd565b9150614d0e8284613f75565b91508190509392505050565b600081519050919050565b600082825260208201905092915050565b6000614d4182614d1a565b614d4b8185614d25565b9350614d5b818560208601613266565b614d6481613290565b840191505092915050565b6000608082019050614d846000830187613391565b614d916020830186613391565b614d9e6040830185613574565b8181036060830152614db08184614d36565b905095945050505050565b600081519050614dca816131bb565b92915050565b600060208284031215614de657614de5613185565b5b6000614df484828501614dbb565b91505092915050565b7f4e487b7100000000000000000000000000000000000000000000000000000000600052603260045260246000fd5b6000614e37826132fc565b915060008203614e4a57614e49614af9565b5b600182039050919050565b7f537472696e67733a20686578206c656e67746820696e73756666696369656e74600082015250565b6000614e8b602083613255565b9150614e9682614e55565b602082019050919050565b60006020820190508181036000830152614eba81614e7e565b9050919050565b7f4552433732313a206d696e7420746f20746865207a65726f2061646472657373600082015250565b6000614ef7602083613255565b9150614f0282614ec1565b602082019050919050565b60006020820190508181036000830152614f2681614eea565b9050919050565b7f4552433732313a20746f6b656e20616c7265616479206d696e74656400000000600082015250565b6000614f63601c83613255565b9150614f6e82614f2d565b602082019050919050565b60006020820190508181036000830152614f9281614f56565b905091905056fe4142434445464748494a4b4c4d4e4f505152535455565758595a6162636465666768696a6b6c6d6e6f707172737475767778797a303132333435363738392b2f4d696e746564204e465420772f20746f6b656e496420257320616e6420636861726163746572496e646578202573a2646970667358221220008ed0c55246755440bcf2f7097f8a99aa0af4219bf2a02198180e51cf352c2864736f6c63430008110033",
  "linkReferences": {},
  "deployedLinkReferences": {}
}