{
  "_format": "hh-sol-artifact-1",
  "contractName": "MyNFT",
  "sourceName": "contracts/MyNFT.sol",
  "abi": [
    {
      "inputs": [],
      "stateMutability": "nonpayable",
      "type": "constructor"
    },
    {
      "anonymous": false,
      "inputs": [
        {
          "indexed": true,
          "internalType": "address",
          "name": "owner",
          "type": "address"
        },
        {
          "indexed": true,
          "internalType": "address",
          "name": "approved",
          "type": "address"
        },
        {
          "indexed": true,
          "internalType": "uint256",
          "name": "tokenId",
          "type": "uint256"
        }
      ],
      "name": "Approval",
      "type": "event"
    },
    {
      "anonymous": false,
      "inputs": [
        {
          "indexed": true,
          "internalType": "address",
          "name": "owner",
          "type": "address"
        },
        {
          "indexed": true,
          "internalType": "address",
          "name": "operator",
          "type": "address"
        },
        {
          "indexed": false,
          "internalType": "bool",
          "name": "approved",
          "type": "bool"
        }
      ],
      "name": "ApprovalForAll",
      "type": "event"
    },
    {
      "anonymous": false,
      "inputs": [
        {
          "indexed": false,
          "internalType": "address",
          "name": "sender",
          "type": "address"
        },
        {
          "indexed": false,
          "internalType": "uint256",
          "name": "tokenId",
          "type": "uint256"
        }
      ],
      "name": "MintReceipt",
      "type": "event"
    },
    {
      "anonymous": false,
      "inputs": [
        {
          "indexed": true,
          "internalType": "bytes32",
          "name": "role",
          "type": "bytes32"
        },
        {
          "indexed": true,
          "internalType": "bytes32",
          "name": "previousAdminRole",
          "type": "bytes32"
        },
        {
          "indexed": true,
          "internalType": "bytes32",
          "name": "newAdminRole",
          "type": "bytes32"
        }
      ],
      "name": "RoleAdminChanged",
      "type": "event"
    },
    {
      "anonymous": false,
      "inputs": [
        {
          "indexed": true,
          "internalType": "bytes32",
          "name": "role",
          "type": "bytes32"
        },
        {
          "indexed": true,
          "internalType": "address",
          "name": "account",
          "type": "address"
        },
        {
          "indexed": true,
          "internalType": "address",
          "name": "sender",
          "type": "address"
        }
      ],
      "name": "RoleGranted",
      "type": "event"
    },
    {
      "anonymous": false,
      "inputs": [
        {
          "indexed": true,
          "internalType": "bytes32",
          "name": "role",
          "type": "bytes32"
        },
        {
          "indexed": true,
          "internalType": "address",
          "name": "account",
          "type": "address"
        },
        {
          "indexed": true,
          "internalType": "address",
          "name": "sender",
          "type": "address"
        }
      ],
      "name": "RoleRevoked",
      "type": "event"
    },
    {
      "anonymous": false,
      "inputs": [
        {
          "indexed": true,
          "internalType": "address",
          "name": "from",
          "type": "address"
        },
        {
          "indexed": true,
          "internalType": "address",
          "name": "to",
          "type": "address"
        },
        {
          "indexed": true,
          "internalType": "uint256",
          "name": "tokenId",
          "type": "uint256"
        }
      ],
      "name": "Transfer",
      "type": "event"
    },
    {
      "inputs": [],
      "name": "DEFAULT_ADMIN_ROLE",
      "outputs": [
        {
          "internalType": "bytes32",
          "name": "",
          "type": "bytes32"
        }
      ],
      "stateMutability": "view",
      "type": "function"
    },
    {
      "inputs": [],
      "name": "MINTER_ROLE",
      "outputs": [
        {
          "internalType": "bytes32",
          "name": "",
          "type": "bytes32"
        }
      ],
      "stateMutability": "view",
      "type": "function"
    },
    {
      "inputs": [
        {
          "internalType": "address",
          "name": "to",
          "type": "address"
        },
        {
          "internalType": "uint256",
          "name": "tokenId",
          "type": "uint256"
        }
      ],
      "name": "approve",
      "outputs": [],
      "stateMutability": "nonpayable",
      "type": "function"
    },
    {
      "inputs": [
        {
          "internalType": "address",
          "name": "owner",
          "type": "address"
        }
      ],
      "name": "balanceOf",
      "outputs": [
        {
          "internalType": "uint256",
          "name": "",
          "type": "uint256"
        }
      ],
      "stateMutability": "view",
      "type": "function"
    },
    {
      "inputs": [
        {
          "internalType": "uint256",
          "name": "tokenId",
          "type": "uint256"
        }
      ],
      "name": "burn",
      "outputs": [],
      "stateMutability": "nonpayable",
      "type": "function"
    },
    {
      "inputs": [],
      "name": "checkForUsersNFTs",
      "outputs": [
        {
          "internalType": "string[]",
          "name": "yoCardsInGame",
          "type": "string[]"
        }
      ],
      "stateMutability": "view",
      "type": "function"
    },
    {
      "inputs": [
        {
          "internalType": "uint256",
          "name": "tokenId",
          "type": "uint256"
        }
      ],
      "name": "checkRedemptionStatus",
      "outputs": [
        {
          "internalType": "uint256",
          "name": "",
          "type": "uint256"
        }
      ],
      "stateMutability": "view",
      "type": "function"
    },
    {
      "inputs": [
        {
          "internalType": "bool",
          "name": "redeemed",
          "type": "bool"
        }
      ],
      "name": "convertBoolToNumber",
      "outputs": [
        {
          "internalType": "uint256",
          "name": "redeemedBinary",
          "type": "uint256"
        }
      ],
      "stateMutability": "pure",
      "type": "function"
    },
    {
      "inputs": [
        {
          "internalType": "uint256",
          "name": "tokenId",
          "type": "uint256"
        }
      ],
      "name": "getApproved",
      "outputs": [
        {
          "internalType": "address",
          "name": "",
          "type": "address"
        }
      ],
      "stateMutability": "view",
      "type": "function"
    },
    {
      "inputs": [
        {
          "internalType": "bytes32",
          "name": "role",
          "type": "bytes32"
        }
      ],
      "name": "getRoleAdmin",
      "outputs": [
        {
          "internalType": "bytes32",
          "name": "",
          "type": "bytes32"
        }
      ],
      "stateMutability": "view",
      "type": "function"
    },
    {
      "inputs": [
        {
          "internalType": "bytes32",
          "name": "role",
          "type": "bytes32"
        },
        {
          "internalType": "address",
          "name": "account",
          "type": "address"
        }
      ],
      "name": "grantRole",
      "outputs": [],
      "stateMutability": "nonpayable",
      "type": "function"
    },
    {
      "inputs": [
        {
          "internalType": "bytes32",
          "name": "role",
          "type": "bytes32"
        },
        {
          "internalType": "address",
          "name": "account",
          "type": "address"
        }
      ],
      "name": "hasRole",
      "outputs": [
        {
          "internalType": "bool",
          "name": "",
          "type": "bool"
        }
      ],
      "stateMutability": "view",
      "type": "function"
    },
    {
      "inputs": [
        {
          "internalType": "address",
          "name": "owner",
          "type": "address"
        },
        {
          "internalType": "address",
          "name": "operator",
          "type": "address"
        }
      ],
      "name": "isApprovedForAll",
      "outputs": [
        {
          "internalType": "bool",
          "name": "",
          "type": "bool"
        }
      ],
      "stateMutability": "view",
      "type": "function"
    },
    {
      "inputs": [],
      "name": "name",
      "outputs": [
        {
          "internalType": "string",
          "name": "",
          "type": "string"
        }
      ],
      "stateMutability": "view",
      "type": "function"
    },
    {
      "inputs": [
        {
          "internalType": "uint256",
          "name": "",
          "type": "uint256"
        }
      ],
      "name": "nftHolderAttributes",
      "outputs": [
        {
          "internalType": "string",
          "name": "name",
          "type": "string"
        },
        {
          "internalType": "string",
          "name": "imageURI",
          "type": "string"
        },
        {
          "internalType": "uint256",
          "name": "percievedLoudness",
          "type": "uint256"
        },
        {
          "internalType": "uint256",
          "name": "tailLength",
          "type": "uint256"
        },
        {
          "internalType": "uint256",
          "name": "bodyLength",
          "type": "uint256"
        },
        {
          "internalType": "uint256",
          "name": "dynamicRange",
          "type": "uint256"
        },
        {
          "internalType": "uint256",
          "name": "duration",
          "type": "uint256"
        },
        {
          "internalType": "uint256",
          "name": "redeemed",
          "type": "uint256"
        }
      ],
      "stateMutability": "view",
      "type": "function"
    },
    {
      "inputs": [
        {
          "internalType": "address",
          "name": "",
          "type": "address"
        },
        {
          "internalType": "uint256",
          "name": "",
          "type": "uint256"
        }
      ],
      "name": "nftHolders",
      "outputs": [
        {
          "internalType": "uint256",
          "name": "",
          "type": "uint256"
        }
      ],
      "stateMutability": "view",
      "type": "function"
    },
    {
      "inputs": [
        {
          "internalType": "uint256",
          "name": "tokenId",
          "type": "uint256"
        }
      ],
      "name": "ownerOf",
      "outputs": [
        {
          "internalType": "address",
          "name": "",
          "type": "address"
        }
      ],
      "stateMutability": "view",
      "type": "function"
    },
    {
      "inputs": [
        {
          "internalType": "bytes32",
          "name": "role",
          "type": "bytes32"
        },
        {
          "internalType": "address",
          "name": "account",
          "type": "address"
        }
      ],
      "name": "renounceRole",
      "outputs": [],
      "stateMutability": "nonpayable",
      "type": "function"
    },
    {
      "inputs": [
        {
          "internalType": "bytes32",
          "name": "role",
          "type": "bytes32"
        },
        {
          "internalType": "address",
          "name": "account",
          "type": "address"
        }
      ],
      "name": "revokeRole",
      "outputs": [],
      "stateMutability": "nonpayable",
      "type": "function"
    },
    {
      "inputs": [
        {
          "internalType": "string",
          "name": "_name",
          "type": "string"
        },
        {
          "internalType": "string",
          "name": "_imageURI",
          "type": "string"
        },
        {
          "internalType": "uint256",
          "name": "_percievedLoudness",
          "type": "uint256"
        },
        {
          "internalType": "uint256",
          "name": "_tailLength",
          "type": "uint256"
        },
        {
          "internalType": "uint256",
          "name": "_bodyLength",
          "type": "uint256"
        },
        {
          "internalType": "uint256",
          "name": "_dynamicRange",
          "type": "uint256"
        },
        {
          "internalType": "uint256",
          "name": "_duration",
          "type": "uint256"
        },
        {
          "internalType": "uint256",
          "name": "_redeemed",
          "type": "uint256"
        }
      ],
      "name": "safeMint",
      "outputs": [],
      "stateMutability": "nonpayable",
      "type": "function"
    },
    {
      "inputs": [
        {
          "internalType": "address",
          "name": "from",
          "type": "address"
        },
        {
          "internalType": "address",
          "name": "to",
          "type": "address"
        },
        {
          "internalType": "uint256",
          "name": "tokenId",
          "type": "uint256"
        }
      ],
      "name": "safeTransferFrom",
      "outputs": [],
      "stateMutability": "nonpayable",
      "type": "function"
    },
    {
      "inputs": [
        {
          "internalType": "address",
          "name": "from",
          "type": "address"
        },
        {
          "internalType": "address",
          "name": "to",
          "type": "address"
        },
        {
          "internalType": "uint256",
          "name": "tokenId",
          "type": "uint256"
        },
        {
          "internalType": "bytes",
          "name": "data",
          "type": "bytes"
        }
      ],
      "name": "safeTransferFrom",
      "outputs": [],
      "stateMutability": "nonpayable",
      "type": "function"
    },
    {
      "inputs": [
        {
          "internalType": "address",
          "name": "operator",
          "type": "address"
        },
        {
          "internalType": "bool",
          "name": "approved",
          "type": "bool"
        }
      ],
      "name": "setApprovalForAll",
      "outputs": [],
      "stateMutability": "nonpayable",
      "type": "function"
    },
    {
      "inputs": [
        {
          "internalType": "bytes4",
          "name": "interfaceId",
          "type": "bytes4"
        }
      ],
      "name": "supportsInterface",
      "outputs": [
        {
          "internalType": "bool",
          "name": "",
          "type": "bool"
        }
      ],
      "stateMutability": "view",
      "type": "function"
    },
    {
      "inputs": [
        {
          "internalType": "uint256",
          "name": "tokenId",
          "type": "uint256"
        }
      ],
      "name": "switchRedeemed",
      "outputs": [],
      "stateMutability": "nonpayable",
      "type": "function"
    },
    {
      "inputs": [],
      "name": "symbol",
      "outputs": [
        {
          "internalType": "string",
          "name": "",
          "type": "string"
        }
      ],
      "stateMutability": "view",
      "type": "function"
    },
    {
      "inputs": [
        {
          "internalType": "uint256",
          "name": "_tokenId",
          "type": "uint256"
        }
      ],
      "name": "tokenURI",
      "outputs": [
        {
          "internalType": "string",
          "name": "",
          "type": "string"
        }
      ],
      "stateMutability": "view",
      "type": "function"
    },
    {
      "inputs": [
        {
          "internalType": "address",
          "name": "from",
          "type": "address"
        },
        {
          "internalType": "address",
          "name": "to",
          "type": "address"
        },
        {
          "internalType": "uint256",
          "name": "tokenId",
          "type": "uint256"
        }
      ],
      "name": "transferFrom",
      "outputs": [],
      "stateMutability": "nonpayable",
      "type": "function"
    },
    {
      "inputs": [
        {
          "internalType": "address",
          "name": "",
          "type": "address"
        },
        {
          "internalType": "uint256",
          "name": "",
          "type": "uint256"
        }
      ],
      "name": "yourCardsInGameMapping",
      "outputs": [
        {
          "internalType": "string",
          "name": "",
          "type": "string"
        }
      ],
      "stateMutability": "view",
      "type": "function"
    }
  ],
  "bytecode": "0x60806040523480156200001157600080fd5b506040518060400160405280600781526020017f4d79546f6b656e000000000000000000000000000000000000000000000000008152506040518060400160405280600381526020017f4d544b000000000000000000000000000000000000000000000000000000000081525081600090816200008f9190620004fd565b508060019081620000a19190620004fd565b505050620000b96000801b336200010860201b60201c565b620000eb7f9f2df0fed2c77648de5860a4cc508cd0818c85b8b8a1ab4ceeef8d981c8956a6336200010860201b60201c565b620001026007620001fa60201b620017de1760201c565b620005e4565b6200011a82826200021060201b60201c565b620001f65760016006600084815260200190815260200160002060000160008373ffffffffffffffffffffffffffffffffffffffff1673ffffffffffffffffffffffffffffffffffffffff16815260200190815260200160002060006101000a81548160ff0219169083151502179055506200019b6200027b60201b60201c565b73ffffffffffffffffffffffffffffffffffffffff168173ffffffffffffffffffffffffffffffffffffffff16837f2f8788117e7eff1d82e926ec794901d17c78024a50270940304540a733656f0d60405160405180910390a45b5050565b6001816000016000828254019250508190555050565b60006006600084815260200190815260200160002060000160008373ffffffffffffffffffffffffffffffffffffffff1673ffffffffffffffffffffffffffffffffffffffff16815260200190815260200160002060009054906101000a900460ff16905092915050565b600033905090565b600081519050919050565b7f4e487b7100000000000000000000000000000000000000000000000000000000600052604160045260246000fd5b7f4e487b7100000000000000000000000000000000000000000000000000000000600052602260045260246000fd5b600060028204905060018216806200030557607f821691505b6020821081036200031b576200031a620002bd565b5b50919050565b60008190508160005260206000209050919050565b60006020601f8301049050919050565b600082821b905092915050565b600060088302620003857fffffffffffffffffffffffffffffffffffffffffffffffffffffffffffffffff8262000346565b62000391868362000346565b95508019841693508086168417925050509392505050565b6000819050919050565b6000819050919050565b6000620003de620003d8620003d284620003a9565b620003b3565b620003a9565b9050919050565b6000819050919050565b620003fa83620003bd565b620004126200040982620003e5565b84845462000353565b825550505050565b600090565b620004296200041a565b62000436818484620003ef565b505050565b5b818110156200045e57620004526000826200041f565b6001810190506200043c565b5050565b601f821115620004ad57620004778162000321565b620004828462000336565b8101602085101562000492578190505b620004aa620004a18562000336565b8301826200043b565b50505b505050565b600082821c905092915050565b6000620004d260001984600802620004b2565b1980831691505092915050565b6000620004ed8383620004bf565b9150826002028217905092915050565b620005088262000283565b67ffffffffffffffff8111156200052457620005236200028e565b5b620005308254620002ec565b6200053d82828562000462565b600060209050601f83116001811462000575576000841562000560578287015190505b6200056c8582620004df565b865550620005dc565b601f198416620005858662000321565b60005b82811015620005af5784890151825560018201915060208501945060208101905062000588565b86831015620005cf5784890151620005cb601f891682620004bf565b8355505b6001600288020188555050505b505050505050565b614ff380620005f46000396000f3fe608060405234801561001057600080fd5b50600436106101cf5760003560e01c80636352211e11610104578063a22cb465116100a2578063cf1ac6e511610071578063cf1ac6e51461058d578063d5391393146105ab578063d547741f146105c9578063e985e9c5146105e5576101cf565b8063a22cb465146104f5578063b49f9fd714610511578063b88d4fde14610541578063c87b56dd1461055d576101cf565b806391d14854116100de57806391d148541461045257806395d89b411461048257806398da4c95146104a0578063a217fddf146104d7576101cf565b80636352211e146103c257806370a08231146103f2578063775bb50e14610422576101cf565b8063248a9ca3116101715780633f3a1c7a1161014b5780633f3a1c7a1461033e57806342842e0e1461036e57806342966c681461038a57806352a0a661146103a6576101cf565b8063248a9ca3146102d65780632f2ff15d1461030657806336568abe14610322576101cf565b8063095ea7b3116101ad578063095ea7b31461025257806309e138351461026e57806321d8f7731461028a57806323b872dd146102ba576101cf565b806301ffc9a7146101d457806306fdde0314610204578063081812fc14610222575b600080fd5b6101ee60048036038101906101e99190613113565b610615565b6040516101fb919061315b565b60405180910390f35b61020c610627565b6040516102199190613206565b60405180910390f35b61023c6004803603810190610237919061325e565b6106b9565b60405161024991906132cc565b60405180910390f35b61026c60048036038101906102679190613313565b6106ff565b005b61028860048036038101906102839190613488565b610816565b005b6102a4600480360381019061029f919061325e565b610b00565b6040516102b19190613585565b60405180910390f35b6102d460048036038101906102cf91906135a0565b610c91565b005b6102f060048036038101906102eb9190613629565b610cf1565b6040516102fd9190613665565b60405180910390f35b610320600480360381019061031b9190613680565b610d11565b005b61033c60048036038101906103379190613680565b610d32565b005b61035860048036038101906103539190613313565b610db5565b6040516103659190613206565b60405180910390f35b610388600480360381019061038391906135a0565b610e6e565b005b6103a4600480360381019061039f919061325e565b610e8e565b005b6103c060048036038101906103bb919061325e565b610eea565b005b6103dc60048036038101906103d7919061325e565b610f0f565b6040516103e991906132cc565b60405180910390f35b61040c600480360381019061040791906136c0565b610f95565b6040516104199190613585565b60405180910390f35b61043c60048036038101906104379190613313565b61104c565b6040516104499190613585565b60405180910390f35b61046c60048036038101906104679190613680565b61107d565b604051610479919061315b565b60405180910390f35b61048a6110e8565b6040516104979190613206565b60405180910390f35b6104ba60048036038101906104b5919061325e565b61117a565b6040516104ce9897969594939291906136ed565b60405180910390f35b6104df6112d2565b6040516104ec9190613665565b60405180910390f35b61050f600480360381019061050a91906137a5565b6112d9565b005b61052b600480360381019061052691906137e5565b6112ef565b6040516105389190613585565b60405180910390f35b61055b600480360381019061055691906138b3565b611310565b005b6105776004803603810190610572919061325e565b611372565b6040516105849190613206565b60405180910390f35b6105956115ef565b6040516105a29190613a42565b60405180910390f35b6105b3611705565b6040516105c09190613665565b60405180910390f35b6105e360048036038101906105de9190613680565b611729565b005b6105ff60048036038101906105fa9190613a64565b61174a565b60405161060c919061315b565b60405180910390f35b6000610620826117f4565b9050919050565b60606000805461063690613ad3565b80601f016020809104026020016040519081016040528092919081815260200182805461066290613ad3565b80156106af5780601f10610684576101008083540402835291602001916106af565b820191906000526020600020905b81548152906001019060200180831161069257829003601f168201915b5050505050905090565b60006106c48261186e565b6004600083815260200190815260200160002060009054906101000a900473ffffffffffffffffffffffffffffffffffffffff169050919050565b600061070a82610f0f565b90508073ffffffffffffffffffffffffffffffffffffffff168373ffffffffffffffffffffffffffffffffffffffff160361077a576040517f08c379a000000000000000000000000000000000000000000000000000000000815260040161077190613b76565b60405180910390fd5b8073ffffffffffffffffffffffffffffffffffffffff166107996118b9565b73ffffffffffffffffffffffffffffffffffffffff1614806107c857506107c7816107c26118b9565b61174a565b5b610807576040517f08c379a00000000000000000000000000000000000000000000000000000000081526004016107fe90613c08565b60405180910390fd5b61081183836118c1565b505050565b7f9f2df0fed2c77648de5860a4cc508cd0818c85b8b8a1ab4ceeef8d981c8956a66108408161197a565b600061084c600761198e565b9050610858338261199c565b600860003373ffffffffffffffffffffffffffffffffffffffff1673ffffffffffffffffffffffffffffffffffffffff1681526020019081526020016000208190806001815401808255809150506001900390600052602060002001600090919091909150556040518061010001604052808b81526020018a8152602001898152602001888152602001878152602001868152602001858152602001848152506009600083815260200190815260200160002060008201518160000190816109209190613dd4565b5060208201518160010190816109369190613dd4565b5060408201518160020155606082015181600301556080820151816004015560a0820151816005015560c0820151816006015560e08201518160070155905050600b60003373ffffffffffffffffffffffffffffffffffffffff1673ffffffffffffffffffffffffffffffffffffffff168152602001908152602001600020899080600181540180825580915050600190039060005260206000200160009091909190915090816109e79190613dd4565b50610a0b6040518060600160405280602e8152602001614f90602e9139828c6119ba565b600a60096000838152602001908152602001600020908060018154018082558091505060019003906000526020600020906008020160009091909190915060008201816000019081610a5d9190613ebc565b5060018201816001019081610a729190613ebc565b5060028201548160020155600382015481600301556004820154816004015560058201548160050155600682015481600601556007820154816007015550507f1fc669908b9d25690fe5308881be77af12afc6f62a2b0f26464380452a6228803382604051610ae2929190613fa4565b60405180910390a1610af460076117de565b50505050505050505050565b6000806009600084815260200190815260200160002060405180610100016040529081600082018054610b3290613ad3565b80601f0160208091040260200160405190810160405280929190818152602001828054610b5e90613ad3565b8015610bab5780601f10610b8057610100808354040283529160200191610bab565b820191906000526020600020905b815481529060010190602001808311610b8e57829003601f168201915b50505050508152602001600182018054610bc490613ad3565b80601f0160208091040260200160405190810160405280929190818152602001828054610bf090613ad3565b8015610c3d5780601f10610c1257610100808354040283529160200191610c3d565b820191906000526020600020905b815481529060010190602001808311610c2057829003601f168201915b50505050508152602001600282015481526020016003820154815260200160048201548152602001600582015481526020016006820154815260200160078201548152505090508060e00151915050919050565b610ca2610c9c6118b9565b82611a59565b610ce1576040517f08c379a0000000000000000000000000000000000000000000000000000000008152600401610cd89061403f565b60405180910390fd5b610cec838383611aee565b505050565b600060066000838152602001908152602001600020600101549050919050565b610d1a82610cf1565b610d238161197a565b610d2d8383611de7565b505050565b610d3a6118b9565b73ffffffffffffffffffffffffffffffffffffffff168173ffffffffffffffffffffffffffffffffffffffff1614610da7576040517f08c379a0000000000000000000000000000000000000000000000000000000008152600401610d9e906140d1565b60405180910390fd5b610db18282611ec8565b5050565b600b6020528160005260406000208181548110610dd157600080fd5b90600052602060002001600091509150508054610ded90613ad3565b80601f0160208091040260200160405190810160405280929190818152602001828054610e1990613ad3565b8015610e665780601f10610e3b57610100808354040283529160200191610e66565b820191906000526020600020905b815481529060010190602001808311610e4957829003601f168201915b505050505081565b610e8983838360405180602001604052806000815250611310565b505050565b610e9f610e996118b9565b82611a59565b610ede576040517f08c379a0000000000000000000000000000000000000000000000000000000008152600401610ed59061403f565b60405180910390fd5b610ee781611faa565b50565b6000600960008381526020019081526020016000209050600181600701819055505050565b600080610f1b836120f8565b9050600073ffffffffffffffffffffffffffffffffffffffff168173ffffffffffffffffffffffffffffffffffffffff1603610f8c576040517f08c379a0000000000000000000000000000000000000000000000000000000008152600401610f839061413d565b60405180910390fd5b80915050919050565b60008073ffffffffffffffffffffffffffffffffffffffff168273ffffffffffffffffffffffffffffffffffffffff1603611005576040517f08c379a0000000000000000000000000000000000000000000000000000000008152600401610ffc906141cf565b60405180910390fd5b600360008373ffffffffffffffffffffffffffffffffffffffff1673ffffffffffffffffffffffffffffffffffffffff168152602001908152602001600020549050919050565b6008602052816000526040600020818154811061106857600080fd5b90600052602060002001600091509150505481565b60006006600084815260200190815260200160002060000160008373ffffffffffffffffffffffffffffffffffffffff1673ffffffffffffffffffffffffffffffffffffffff16815260200190815260200160002060009054906101000a900460ff16905092915050565b6060600180546110f790613ad3565b80601f016020809104026020016040519081016040528092919081815260200182805461112390613ad3565b80156111705780601f1061114557610100808354040283529160200191611170565b820191906000526020600020905b81548152906001019060200180831161115357829003601f168201915b5050505050905090565b600960205280600052604060002060009150905080600001805461119d90613ad3565b80601f01602080910402602001604051908101604052809291908181526020018280546111c990613ad3565b80156112165780601f106111eb57610100808354040283529160200191611216565b820191906000526020600020905b8154815290600101906020018083116111f957829003601f168201915b50505050509080600101805461122b90613ad3565b80601f016020809104026020016040519081016040528092919081815260200182805461125790613ad3565b80156112a45780601f10611279576101008083540402835291602001916112a4565b820191906000526020600020905b81548152906001019060200180831161128757829003601f168201915b5050505050908060020154908060030154908060040154908060050154908060060154908060070154905088565b6000801b81565b6112eb6112e46118b9565b8383612135565b5050565b60006001151582151503611306576001905061130b565b600090505b919050565b61132161131b6118b9565b83611a59565b611360576040517f08c379a00000000000000000000000000000000000000000000000000000000081526004016113579061403f565b60405180910390fd5b61136c848484846122a1565b50505050565b6060600060096000848152602001908152602001600020604051806101000160405290816000820180546113a590613ad3565b80601f01602080910402602001604051908101604052809291908181526020018280546113d190613ad3565b801561141e5780601f106113f35761010080835404028352916020019161141e565b820191906000526020600020905b81548152906001019060200180831161140157829003601f168201915b5050505050815260200160018201805461143790613ad3565b80601f016020809104026020016040519081016040528092919081815260200182805461146390613ad3565b80156114b05780601f10611485576101008083540402835291602001916114b0565b820191906000526020600020905b81548152906001019060200180831161149357829003601f168201915b5050505050815260200160028201548152602001600382015481526020016004820154815260200160058201548152602001600682015481526020016007820154815250509050600061150682604001516122fd565b9050600061151783606001516122fd565b9050600061152884608001516122fd565b905060006115398560c001516122fd565b9050600061154a8660a001516122fd565b9050600061155b8760e001516122fd565b9050600061156960016122fd565b905060006115b7896000015161157e8d6122fd565b8b602001518b87878d8d8c8e6040516020016115a39a999897969594939291906146eb565b6040516020818303038152906040526123cb565b90506000816040516020016115cc919061483c565b6040516020818303038152906040529050809a5050505050505050505050919050565b6060600b60003373ffffffffffffffffffffffffffffffffffffffff1673ffffffffffffffffffffffffffffffffffffffff168152602001908152602001600020805480602002602001604051908101604052809291908181526020016000905b828210156116fc57838290600052602060002001805461166f90613ad3565b80601f016020809104026020016040519081016040528092919081815260200182805461169b90613ad3565b80156116e85780601f106116bd576101008083540402835291602001916116e8565b820191906000526020600020905b8154815290600101906020018083116116cb57829003601f168201915b505050505081526020019060010190611650565b50505050905090565b7f9f2df0fed2c77648de5860a4cc508cd0818c85b8b8a1ab4ceeef8d981c8956a681565b61173282610cf1565b61173b8161197a565b6117458383611ec8565b505050565b6000600560008473ffffffffffffffffffffffffffffffffffffffff1673ffffffffffffffffffffffffffffffffffffffff16815260200190815260200160002060008373ffffffffffffffffffffffffffffffffffffffff1673ffffffffffffffffffffffffffffffffffffffff16815260200190815260200160002060009054906101000a900460ff16905092915050565b6001816000016000828254019250508190555050565b60007f7965db0b000000000000000000000000000000000000000000000000000000007bffffffffffffffffffffffffffffffffffffffffffffffffffffffff1916827bffffffffffffffffffffffffffffffffffffffffffffffffffffffff19161480611867575061186682612562565b5b9050919050565b61187781612644565b6118b6576040517f08c379a00000000000000000000000000000000000000000000000000000000081526004016118ad9061413d565b60405180910390fd5b50565b600033905090565b816004600083815260200190815260200160002060006101000a81548173ffffffffffffffffffffffffffffffffffffffff021916908373ffffffffffffffffffffffffffffffffffffffff160217905550808273ffffffffffffffffffffffffffffffffffffffff1661193483610f0f565b73ffffffffffffffffffffffffffffffffffffffff167f8c5be1e5ebec7d5bd14f71427d1e84f3dd0314c0f7b2291e5b200ac8c7c3b92560405160405180910390a45050565b61198b816119866118b9565b612685565b50565b600081600001549050919050565b6119b682826040518060200160405280600081525061270a565b5050565b611a548383836040516024016119d29392919061485e565b6040516020818303038152906040527f5970e089000000000000000000000000000000000000000000000000000000007bffffffffffffffffffffffffffffffffffffffffffffffffffffffff19166020820180517bffffffffffffffffffffffffffffffffffffffffffffffffffffffff8381831617835250505050612765565b505050565b600080611a6583610f0f565b90508073ffffffffffffffffffffffffffffffffffffffff168473ffffffffffffffffffffffffffffffffffffffff161480611aa75750611aa6818561174a565b5b80611ae557508373ffffffffffffffffffffffffffffffffffffffff16611acd846106b9565b73ffffffffffffffffffffffffffffffffffffffff16145b91505092915050565b8273ffffffffffffffffffffffffffffffffffffffff16611b0e82610f0f565b73ffffffffffffffffffffffffffffffffffffffff1614611b64576040517f08c379a0000000000000000000000000000000000000000000000000000000008152600401611b5b90614915565b60405180910390fd5b600073ffffffffffffffffffffffffffffffffffffffff168273ffffffffffffffffffffffffffffffffffffffff1603611bd3576040517f08c379a0000000000000000000000000000000000000000000000000000000008152600401611bca906149a7565b60405180910390fd5b611be0838383600161278e565b8273ffffffffffffffffffffffffffffffffffffffff16611c0082610f0f565b73ffffffffffffffffffffffffffffffffffffffff1614611c56576040517f08c379a0000000000000000000000000000000000000000000000000000000008152600401611c4d90614915565b60405180910390fd5b6004600082815260200190815260200160002060006101000a81549073ffffffffffffffffffffffffffffffffffffffff02191690556001600360008573ffffffffffffffffffffffffffffffffffffffff1673ffffffffffffffffffffffffffffffffffffffff168152602001908152602001600020600082825403925050819055506001600360008473ffffffffffffffffffffffffffffffffffffffff1673ffffffffffffffffffffffffffffffffffffffff16815260200190815260200160002060008282540192505081905550816002600083815260200190815260200160002060006101000a81548173ffffffffffffffffffffffffffffffffffffffff021916908373ffffffffffffffffffffffffffffffffffffffff160217905550808273ffffffffffffffffffffffffffffffffffffffff168473ffffffffffffffffffffffffffffffffffffffff167fddf252ad1be2c89b69c2b068fc378daa952ba7f163c4a11628f55a4df523b3ef60405160405180910390a4611de283838360016128b4565b505050565b611df1828261107d565b611ec45760016006600084815260200190815260200160002060000160008373ffffffffffffffffffffffffffffffffffffffff1673ffffffffffffffffffffffffffffffffffffffff16815260200190815260200160002060006101000a81548160ff021916908315150217905550611e696118b9565b73ffffffffffffffffffffffffffffffffffffffff168173ffffffffffffffffffffffffffffffffffffffff16837f2f8788117e7eff1d82e926ec794901d17c78024a50270940304540a733656f0d60405160405180910390a45b5050565b611ed2828261107d565b15611fa65760006006600084815260200190815260200160002060000160008373ffffffffffffffffffffffffffffffffffffffff1673ffffffffffffffffffffffffffffffffffffffff16815260200190815260200160002060006101000a81548160ff021916908315150217905550611f4b6118b9565b73ffffffffffffffffffffffffffffffffffffffff168173ffffffffffffffffffffffffffffffffffffffff16837ff6391f5c32d9c69d2a47ea670b442974b53935d1edc7fd64eb21e047a839171b60405160405180910390a45b5050565b6000611fb582610f0f565b9050611fc581600084600161278e565b611fce82610f0f565b90506004600083815260200190815260200160002060006101000a81549073ffffffffffffffffffffffffffffffffffffffff02191690556001600360008373ffffffffffffffffffffffffffffffffffffffff1673ffffffffffffffffffffffffffffffffffffffff168152602001908152602001600020600082825403925050819055506002600083815260200190815260200160002060006101000a81549073ffffffffffffffffffffffffffffffffffffffff021916905581600073ffffffffffffffffffffffffffffffffffffffff168273ffffffffffffffffffffffffffffffffffffffff167fddf252ad1be2c89b69c2b068fc378daa952ba7f163c4a11628f55a4df523b3ef60405160405180910390a46120f48160008460016128b4565b5050565b60006002600083815260200190815260200160002060009054906101000a900473ffffffffffffffffffffffffffffffffffffffff169050919050565b8173ffffffffffffffffffffffffffffffffffffffff168373ffffffffffffffffffffffffffffffffffffffff16036121a3576040517f08c379a000000000000000000000000000000000000000000000000000000000815260040161219a90614a13565b60405180910390fd5b80600560008573ffffffffffffffffffffffffffffffffffffffff1673ffffffffffffffffffffffffffffffffffffffff16815260200190815260200160002060008473ffffffffffffffffffffffffffffffffffffffff1673ffffffffffffffffffffffffffffffffffffffff16815260200190815260200160002060006101000a81548160ff0219169083151502179055508173ffffffffffffffffffffffffffffffffffffffff168373ffffffffffffffffffffffffffffffffffffffff167f17307eab39ab6107e8899845ad3d59bd9653f200f220920489ca2b5937696c3183604051612294919061315b565b60405180910390a3505050565b6122ac848484611aee565b6122b8848484846128ba565b6122f7576040517f08c379a00000000000000000000000000000000000000000000000000000000081526004016122ee90614aa5565b60405180910390fd5b50505050565b60606000600161230c84612a41565b01905060008167ffffffffffffffff81111561232b5761232a61335d565b5b6040519080825280601f01601f19166020018201604052801561235d5781602001600182028036833780820191505090505b509050600082602001820190505b6001156123c0578080600190039150507f3031323334353637383961626364656600000000000000000000000000000000600a86061a8153600a85816123b4576123b3614ac5565b5b0494506000850361236b575b819350505050919050565b6060600082519050600081036123f3576040518060200160405280600081525091505061255d565b600060036002836124049190614b23565b61240e9190614b57565b600461241a9190614b88565b9050600060208261242b9190614b23565b67ffffffffffffffff8111156124445761244361335d565b5b6040519080825280601f01601f1916602001820160405280156124765781602001600182028036833780820191505090505b5090506000604051806060016040528060408152602001614f50604091399050600181016020830160005b8681101561251a5760038101905062ffffff818a015116603f8160121c168401518060081b905060ff603f83600c1c1686015116810190508060081b905060ff603f8360061c1686015116810190508060081b905060ff603f831686015116810190508060e01b905080845260048401935050506124a1565b50600386066001811461253457600281146125445761254f565b613d3d60f01b600283035261254f565b603d60f81b60018303525b508484525050819450505050505b919050565b60007f80ac58cd000000000000000000000000000000000000000000000000000000007bffffffffffffffffffffffffffffffffffffffffffffffffffffffff1916827bffffffffffffffffffffffffffffffffffffffffffffffffffffffff1916148061262d57507f5b5e139f000000000000000000000000000000000000000000000000000000007bffffffffffffffffffffffffffffffffffffffffffffffffffffffff1916827bffffffffffffffffffffffffffffffffffffffffffffffffffffffff1916145b8061263d575061263c82612b94565b5b9050919050565b60008073ffffffffffffffffffffffffffffffffffffffff16612666836120f8565b73ffffffffffffffffffffffffffffffffffffffff1614159050919050565b61268f828261107d565b6127065761269c81612bfe565b6126aa8360001c6020612c2b565b6040516020016126bb929190614c62565b6040516020818303038152906040526040517f08c379a00000000000000000000000000000000000000000000000000000000081526004016126fd9190613206565b60405180910390fd5b5050565b6127148383612e67565b61272160008484846128ba565b612760576040517f08c379a000000000000000000000000000000000000000000000000000000000815260040161275790614aa5565b60405180910390fd5b505050565b60008151905060006a636f6e736f6c652e6c6f679050602083016000808483855afa5050505050565b60018111156128ae57600073ffffffffffffffffffffffffffffffffffffffff168473ffffffffffffffffffffffffffffffffffffffff16146128225780600360008673ffffffffffffffffffffffffffffffffffffffff1673ffffffffffffffffffffffffffffffffffffffff168152602001908152602001600020600082825461281a9190614c9c565b925050819055505b600073ffffffffffffffffffffffffffffffffffffffff168373ffffffffffffffffffffffffffffffffffffffff16146128ad5780600360008573ffffffffffffffffffffffffffffffffffffffff1673ffffffffffffffffffffffffffffffffffffffff16815260200190815260200160002060008282546128a59190614b23565b925050819055505b5b50505050565b50505050565b60006128db8473ffffffffffffffffffffffffffffffffffffffff16613084565b15612a34578373ffffffffffffffffffffffffffffffffffffffff1663150b7a026129046118b9565b8786866040518563ffffffff1660e01b81526004016129269493929190614d25565b6020604051808303816000875af192505050801561296257506040513d601f19601f8201168201806040525081019061295f9190614d86565b60015b6129e4573d8060008114612992576040519150601f19603f3d011682016040523d82523d6000602084013e612997565b606091505b5060008151036129dc576040517f08c379a00000000000000000000000000000000000000000000000000000000081526004016129d390614aa5565b60405180910390fd5b805181602001fd5b63150b7a0260e01b7bffffffffffffffffffffffffffffffffffffffffffffffffffffffff1916817bffffffffffffffffffffffffffffffffffffffffffffffffffffffff191614915050612a39565b600190505b949350505050565b600080600090507a184f03e93ff9f4daa797ed6e38ed64bf6a1f0100000000000000008310612a9f577a184f03e93ff9f4daa797ed6e38ed64bf6a1f0100000000000000008381612a9557612a94614ac5565b5b0492506040810190505b6d04ee2d6d415b85acef81000000008310612adc576d04ee2d6d415b85acef81000000008381612ad257612ad1614ac5565b5b0492506020810190505b662386f26fc100008310612b0b57662386f26fc100008381612b0157612b00614ac5565b5b0492506010810190505b6305f5e1008310612b34576305f5e1008381612b2a57612b29614ac5565b5b0492506008810190505b6127108310612b59576127108381612b4f57612b4e614ac5565b5b0492506004810190505b60648310612b7c5760648381612b7257612b71614ac5565b5b0492506002810190505b600a8310612b8b576001810190505b80915050919050565b60007f01ffc9a7000000000000000000000000000000000000000000000000000000007bffffffffffffffffffffffffffffffffffffffffffffffffffffffff1916827bffffffffffffffffffffffffffffffffffffffffffffffffffffffff1916149050919050565b6060612c248273ffffffffffffffffffffffffffffffffffffffff16601460ff16612c2b565b9050919050565b606060006002836002612c3e9190614b88565b612c489190614b23565b67ffffffffffffffff811115612c6157612c6061335d565b5b6040519080825280601f01601f191660200182016040528015612c935781602001600182028036833780820191505090505b5090507f300000000000000000000000000000000000000000000000000000000000000081600081518110612ccb57612cca614db3565b5b60200101907effffffffffffffffffffffffffffffffffffffffffffffffffffffffffffff1916908160001a9053507f780000000000000000000000000000000000000000000000000000000000000081600181518110612d2f57612d2e614db3565b5b60200101907effffffffffffffffffffffffffffffffffffffffffffffffffffffffffffff1916908160001a90535060006001846002612d6f9190614b88565b612d799190614b23565b90505b6001811115612e19577f3031323334353637383961626364656600000000000000000000000000000000600f861660108110612dbb57612dba614db3565b5b1a60f81b828281518110612dd257612dd1614db3565b5b60200101907effffffffffffffffffffffffffffffffffffffffffffffffffffffffffffff1916908160001a905350600485901c945080612e1290614de2565b9050612d7c565b5060008414612e5d576040517f08c379a0000000000000000000000000000000000000000000000000000000008152600401612e5490614e57565b60405180910390fd5b8091505092915050565b600073ffffffffffffffffffffffffffffffffffffffff168273ffffffffffffffffffffffffffffffffffffffff1603612ed6576040517f08c379a0000000000000000000000000000000000000000000000000000000008152600401612ecd90614ec3565b60405180910390fd5b612edf81612644565b15612f1f576040517f08c379a0000000000000000000000000000000000000000000000000000000008152600401612f1690614f2f565b60405180910390fd5b612f2d60008383600161278e565b612f3681612644565b15612f76576040517f08c379a0000000000000000000000000000000000000000000000000000000008152600401612f6d90614f2f565b60405180910390fd5b6001600360008473ffffffffffffffffffffffffffffffffffffffff1673ffffffffffffffffffffffffffffffffffffffff16815260200190815260200160002060008282540192505081905550816002600083815260200190815260200160002060006101000a81548173ffffffffffffffffffffffffffffffffffffffff021916908373ffffffffffffffffffffffffffffffffffffffff160217905550808273ffffffffffffffffffffffffffffffffffffffff16600073ffffffffffffffffffffffffffffffffffffffff167fddf252ad1be2c89b69c2b068fc378daa952ba7f163c4a11628f55a4df523b3ef60405160405180910390a46130806000838360016128b4565b5050565b6000808273ffffffffffffffffffffffffffffffffffffffff163b119050919050565b6000604051905090565b600080fd5b600080fd5b60007fffffffff0000000000000000000000000000000000000000000000000000000082169050919050565b6130f0816130bb565b81146130fb57600080fd5b50565b60008135905061310d816130e7565b92915050565b600060208284031215613129576131286130b1565b5b6000613137848285016130fe565b91505092915050565b60008115159050919050565b61315581613140565b82525050565b6000602082019050613170600083018461314c565b92915050565b600081519050919050565b600082825260208201905092915050565b60005b838110156131b0578082015181840152602081019050613195565b60008484015250505050565b6000601f19601f8301169050919050565b60006131d882613176565b6131e28185613181565b93506131f2818560208601613192565b6131fb816131bc565b840191505092915050565b6000602082019050818103600083015261322081846131cd565b905092915050565b6000819050919050565b61323b81613228565b811461324657600080fd5b50565b60008135905061325881613232565b92915050565b600060208284031215613274576132736130b1565b5b600061328284828501613249565b91505092915050565b600073ffffffffffffffffffffffffffffffffffffffff82169050919050565b60006132b68261328b565b9050919050565b6132c6816132ab565b82525050565b60006020820190506132e160008301846132bd565b92915050565b6132f0816132ab565b81146132fb57600080fd5b50565b60008135905061330d816132e7565b92915050565b6000806040838503121561332a576133296130b1565b5b6000613338858286016132fe565b925050602061334985828601613249565b9150509250929050565b600080fd5b600080fd5b7f4e487b7100000000000000000000000000000000000000000000000000000000600052604160045260246000fd5b613395826131bc565b810181811067ffffffffffffffff821117156133b4576133b361335d565b5b80604052505050565b60006133c76130a7565b90506133d3828261338c565b919050565b600067ffffffffffffffff8211156133f3576133f261335d565b5b6133fc826131bc565b9050602081019050919050565b82818337600083830152505050565b600061342b613426846133d8565b6133bd565b90508281526020810184848401111561344757613446613358565b5b613452848285613409565b509392505050565b600082601f83011261346f5761346e613353565b5b813561347f848260208601613418565b91505092915050565b600080600080600080600080610100898b0312156134a9576134a86130b1565b5b600089013567ffffffffffffffff8111156134c7576134c66130b6565b5b6134d38b828c0161345a565b985050602089013567ffffffffffffffff8111156134f4576134f36130b6565b5b6135008b828c0161345a565b97505060406135118b828c01613249565b96505060606135228b828c01613249565b95505060806135338b828c01613249565b94505060a06135448b828c01613249565b93505060c06135558b828c01613249565b92505060e06135668b828c01613249565b9150509295985092959890939650565b61357f81613228565b82525050565b600060208201905061359a6000830184613576565b92915050565b6000806000606084860312156135b9576135b86130b1565b5b60006135c7868287016132fe565b93505060206135d8868287016132fe565b92505060406135e986828701613249565b9150509250925092565b6000819050919050565b613606816135f3565b811461361157600080fd5b50565b600081359050613623816135fd565b92915050565b60006020828403121561363f5761363e6130b1565b5b600061364d84828501613614565b91505092915050565b61365f816135f3565b82525050565b600060208201905061367a6000830184613656565b92915050565b60008060408385031215613697576136966130b1565b5b60006136a585828601613614565b92505060206136b6858286016132fe565b9150509250929050565b6000602082840312156136d6576136d56130b1565b5b60006136e4848285016132fe565b91505092915050565b6000610100820190508181036000830152613708818b6131cd565b9050818103602083015261371c818a6131cd565b905061372b6040830189613576565b6137386060830188613576565b6137456080830187613576565b61375260a0830186613576565b61375f60c0830185613576565b61376c60e0830184613576565b9998505050505050505050565b61378281613140565b811461378d57600080fd5b50565b60008135905061379f81613779565b92915050565b600080604083850312156137bc576137bb6130b1565b5b60006137ca858286016132fe565b92505060206137db85828601613790565b9150509250929050565b6000602082840312156137fb576137fa6130b1565b5b600061380984828501613790565b91505092915050565b600067ffffffffffffffff82111561382d5761382c61335d565b5b613836826131bc565b9050602081019050919050565b600061385661385184613812565b6133bd565b90508281526020810184848401111561387257613871613358565b5b61387d848285613409565b509392505050565b600082601f83011261389a57613899613353565b5b81356138aa848260208601613843565b91505092915050565b600080600080608085870312156138cd576138cc6130b1565b5b60006138db878288016132fe565b94505060206138ec878288016132fe565b93505060406138fd87828801613249565b925050606085013567ffffffffffffffff81111561391e5761391d6130b6565b5b61392a87828801613885565b91505092959194509250565b600081519050919050565b600082825260208201905092915050565b6000819050602082019050919050565b600082825260208201905092915050565b600061397e82613176565b6139888185613962565b9350613998818560208601613192565b6139a1816131bc565b840191505092915050565b60006139b88383613973565b905092915050565b6000602082019050919050565b60006139d882613936565b6139e28185613941565b9350836020820285016139f485613952565b8060005b85811015613a305784840389528151613a1185826139ac565b9450613a1c836139c0565b925060208a019950506001810190506139f8565b50829750879550505050505092915050565b60006020820190508181036000830152613a5c81846139cd565b905092915050565b60008060408385031215613a7b57613a7a6130b1565b5b6000613a89858286016132fe565b9250506020613a9a858286016132fe565b9150509250929050565b7f4e487b7100000000000000000000000000000000000000000000000000000000600052602260045260246000fd5b60006002820490506001821680613aeb57607f821691505b602082108103613afe57613afd613aa4565b5b50919050565b7f4552433732313a20617070726f76616c20746f2063757272656e74206f776e6560008201527f7200000000000000000000000000000000000000000000000000000000000000602082015250565b6000613b60602183613181565b9150613b6b82613b04565b604082019050919050565b60006020820190508181036000830152613b8f81613b53565b9050919050565b7f4552433732313a20617070726f76652063616c6c6572206973206e6f7420746f60008201527f6b656e206f776e6572206f7220617070726f76656420666f7220616c6c000000602082015250565b6000613bf2603d83613181565b9150613bfd82613b96565b604082019050919050565b60006020820190508181036000830152613c2181613be5565b9050919050565b60008190508160005260206000209050919050565b60006020601f8301049050919050565b600082821b905092915050565b600060088302613c8a7fffffffffffffffffffffffffffffffffffffffffffffffffffffffffffffffff82613c4d565b613c948683613c4d565b95508019841693508086168417925050509392505050565b6000819050919050565b6000613cd1613ccc613cc784613228565b613cac565b613228565b9050919050565b6000819050919050565b613ceb83613cb6565b613cff613cf782613cd8565b848454613c5a565b825550505050565b600090565b613d14613d07565b613d1f818484613ce2565b505050565b5b81811015613d4357613d38600082613d0c565b600181019050613d25565b5050565b601f821115613d8857613d5981613c28565b613d6284613c3d565b81016020851015613d71578190505b613d85613d7d85613c3d565b830182613d24565b50505b505050565b600082821c905092915050565b6000613dab60001984600802613d8d565b1980831691505092915050565b6000613dc48383613d9a565b9150826002028217905092915050565b613ddd82613176565b67ffffffffffffffff811115613df657613df561335d565b5b613e008254613ad3565b613e0b828285613d47565b600060209050601f831160018114613e3e5760008415613e2c578287015190505b613e368582613db8565b865550613e9e565b601f198416613e4c86613c28565b60005b82811015613e7457848901518255600182019150602085019450602081019050613e4f565b86831015613e915784890151613e8d601f891682613d9a565b8355505b6001600288020188555050505b505050505050565b600081549050613eb581613ad3565b9050919050565b818103613eca575050613fa2565b613ed382613ea6565b67ffffffffffffffff811115613eec57613eeb61335d565b5b613ef68254613ad3565b613f01828285613d47565b6000601f831160018114613f305760008415613f1e578287015490505b613f288582613db8565b865550613f9b565b601f198416613f3e87613c28565b9650613f4986613c28565b60005b82811015613f7157848901548255600182019150600185019450602081019050613f4c565b86831015613f8e5784890154613f8a601f891682613d9a565b8355505b6001600288020188555050505b5050505050505b565b6000604082019050613fb960008301856132bd565b613fc66020830184613576565b9392505050565b7f4552433732313a2063616c6c6572206973206e6f7420746f6b656e206f776e6560008201527f72206f7220617070726f76656400000000000000000000000000000000000000602082015250565b6000614029602d83613181565b915061403482613fcd565b604082019050919050565b600060208201905081810360008301526140588161401c565b9050919050565b7f416363657373436f6e74726f6c3a2063616e206f6e6c792072656e6f756e636560008201527f20726f6c657320666f722073656c660000000000000000000000000000000000602082015250565b60006140bb602f83613181565b91506140c68261405f565b604082019050919050565b600060208201905081810360008301526140ea816140ae565b9050919050565b7f4552433732313a20696e76616c696420746f6b656e2049440000000000000000600082015250565b6000614127601883613181565b9150614132826140f1565b602082019050919050565b600060208201905081810360008301526141568161411a565b9050919050565b7f4552433732313a2061646472657373207a65726f206973206e6f74206120766160008201527f6c6964206f776e65720000000000000000000000000000000000000000000000602082015250565b60006141b9602983613181565b91506141c48261415d565b604082019050919050565b600060208201905081810360008301526141e8816141ac565b9050919050565b600081905092915050565b7f7b226e616d65223a202200000000000000000000000000000000000000000000600082015250565b6000614230600a836141ef565b915061423b826141fa565b600a82019050919050565b600061425182613176565b61425b81856141ef565b935061426b818560208601613192565b80840191505092915050565b7f202d2d204e465420233a20000000000000000000000000000000000000000000600082015250565b60006142ad600b836141ef565b91506142b882614277565b600b82019050919050565b7f222c20226465736372697074696f6e223a20225468697320697320616e204e4660008201527f542074686174206c6574732070656f706c6520706c617920616e64207472616460208201527f6520666f72206120536f6e69632047616d6521222c2022696d616765223a202260408201527f697066733a2f2f00000000000000000000000000000000000000000000000000606082015250565b600061436b6067836141ef565b9150614376826142c3565b606782019050919050565b7f222c202261747472696275746573223a205b207b202274726169745f7479706560008201527f223a2022506572636965766564204c6f75646e657373222c202276616c75652260208201527f3a20000000000000000000000000000000000000000000000000000000000000604082015250565b60006144036042836141ef565b915061440e82614381565b604282019050919050565b7f7d2c7b202274726169745f74797065223a202252656465656d6564222c20227660008201527f616c7565223a2000000000000000000000000000000000000000000000000000602082015250565b60006144756027836141ef565b915061448082614419565b602782019050919050565b7f2c20226d61785f76616c7565223a000000000000000000000000000000000000600082015250565b60006144c1600e836141ef565b91506144cc8261448b565b600e82019050919050565b7f7d2c207b202274726169745f74797065223a20225461696c204c656e6774682260008201527f2c202276616c7565223a20000000000000000000000000000000000000000000602082015250565b6000614533602b836141ef565b915061453e826144d7565b602b82019050919050565b7f7d2c207b202274726169745f74797065223a2022426f6479204c656e6774682260008201527f2c202276616c7565223a20000000000000000000000000000000000000000000602082015250565b60006145a5602b836141ef565b91506145b082614549565b602b82019050919050565b7f7d2c207b202274726169745f74797065223a202244796e616d69632052616e6760008201527f65222c202276616c7565223a2000000000000000000000000000000000000000602082015250565b6000614617602d836141ef565b9150614622826145bb565b602d82019050919050565b7f7d2c20207b202274726169745f74797065223a20224475726174696f6e222c2060008201527f2276616c7565223a200000000000000000000000000000000000000000000000602082015250565b60006146896029836141ef565b91506146948261462d565b602982019050919050565b7f7d205d7d00000000000000000000000000000000000000000000000000000000600082015250565b60006146d56004836141ef565b91506146e08261469f565b600482019050919050565b60006146f682614223565b9150614702828d614246565b915061470d826142a0565b9150614719828c614246565b91506147248261435e565b9150614730828b614246565b915061473b826143f6565b9150614747828a614246565b915061475282614468565b915061475e8289614246565b9150614769826144b4565b91506147758288614246565b915061478082614526565b915061478c8287614246565b915061479782614598565b91506147a38286614246565b91506147ae8261460a565b91506147ba8285614246565b91506147c58261467c565b91506147d18284614246565b91506147dc826146c8565b91508190509b9a5050505050505050505050565b7f646174613a6170706c69636174696f6e2f6a736f6e3b6261736536342c000000600082015250565b6000614826601d836141ef565b9150614831826147f0565b601d82019050919050565b600061484782614819565b91506148538284614246565b915081905092915050565b6000606082019050818103600083015261487881866131cd565b90506148876020830185613576565b818103604083015261489981846131cd565b9050949350505050565b7f4552433732313a207472616e736665722066726f6d20696e636f72726563742060008201527f6f776e6572000000000000000000000000000000000000000000000000000000602082015250565b60006148ff602583613181565b915061490a826148a3565b604082019050919050565b6000602082019050818103600083015261492e816148f2565b9050919050565b7f4552433732313a207472616e7366657220746f20746865207a65726f2061646460008201527f7265737300000000000000000000000000000000000000000000000000000000602082015250565b6000614991602483613181565b915061499c82614935565b604082019050919050565b600060208201905081810360008301526149c081614984565b9050919050565b7f4552433732313a20617070726f766520746f2063616c6c657200000000000000600082015250565b60006149fd601983613181565b9150614a08826149c7565b602082019050919050565b60006020820190508181036000830152614a2c816149f0565b9050919050565b7f4552433732313a207472616e7366657220746f206e6f6e20455243373231526560008201527f63656976657220696d706c656d656e7465720000000000000000000000000000602082015250565b6000614a8f603283613181565b9150614a9a82614a33565b604082019050919050565b60006020820190508181036000830152614abe81614a82565b9050919050565b7f4e487b7100000000000000000000000000000000000000000000000000000000600052601260045260246000fd5b7f4e487b7100000000000000000000000000000000000000000000000000000000600052601160045260246000fd5b6000614b2e82613228565b9150614b3983613228565b9250828201905080821115614b5157614b50614af4565b5b92915050565b6000614b6282613228565b9150614b6d83613228565b925082614b7d57614b7c614ac5565b5b828204905092915050565b6000614b9382613228565b9150614b9e83613228565b9250828202614bac81613228565b91508282048414831517614bc357614bc2614af4565b5b5092915050565b7f416363657373436f6e74726f6c3a206163636f756e7420000000000000000000600082015250565b6000614c006017836141ef565b9150614c0b82614bca565b601782019050919050565b7f206973206d697373696e6720726f6c6520000000000000000000000000000000600082015250565b6000614c4c6011836141ef565b9150614c5782614c16565b601182019050919050565b6000614c6d82614bf3565b9150614c798285614246565b9150614c8482614c3f565b9150614c908284614246565b91508190509392505050565b6000614ca782613228565b9150614cb283613228565b9250828203905081811115614cca57614cc9614af4565b5b92915050565b600081519050919050565b600082825260208201905092915050565b6000614cf782614cd0565b614d018185614cdb565b9350614d11818560208601613192565b614d1a816131bc565b840191505092915050565b6000608082019050614d3a60008301876132bd565b614d4760208301866132bd565b614d546040830185613576565b8181036060830152614d668184614cec565b905095945050505050565b600081519050614d80816130e7565b92915050565b600060208284031215614d9c57614d9b6130b1565b5b6000614daa84828501614d71565b91505092915050565b7f4e487b7100000000000000000000000000000000000000000000000000000000600052603260045260246000fd5b6000614ded82613228565b915060008203614e0057614dff614af4565b5b600182039050919050565b7f537472696e67733a20686578206c656e67746820696e73756666696369656e74600082015250565b6000614e41602083613181565b9150614e4c82614e0b565b602082019050919050565b60006020820190508181036000830152614e7081614e34565b9050919050565b7f4552433732313a206d696e7420746f20746865207a65726f2061646472657373600082015250565b6000614ead602083613181565b9150614eb882614e77565b602082019050919050565b60006020820190508181036000830152614edc81614ea0565b9050919050565b7f4552433732313a20746f6b656e20616c7265616479206d696e74656400000000600082015250565b6000614f19601c83613181565b9150614f2482614ee3565b602082019050919050565b60006020820190508181036000830152614f4881614f0c565b905091905056fe4142434445464748494a4b4c4d4e4f505152535455565758595a6162636465666768696a6b6c6d6e6f707172737475767778797a303132333435363738392b2f4d696e746564204e465420772f20746f6b656e496420257320616e6420636861726163746572496e646578202573a264697066735822122072a89133260efcf30408a1e95c9ebf6378d587a215ceafd27f3b2e6807509ac864736f6c63430008110033",
  "linkReferences": {},
  "deployedLinkReferences": {}
}