{
  "_format": "hh-sol-artifact-1",
  "contractName": "MyNFT",
  "sourceName": "contracts/MyNFT.sol",
  "abi": [
    {
      "inputs": [],
      "stateMutability": "nonpayable",
      "type": "constructor"
    },
    {
      "anonymous": false,
      "inputs": [
        {
          "indexed": true,
          "internalType": "address",
          "name": "owner",
          "type": "address"
        },
        {
          "indexed": true,
          "internalType": "address",
          "name": "approved",
          "type": "address"
        },
        {
          "indexed": true,
          "internalType": "uint256",
          "name": "tokenId",
          "type": "uint256"
        }
      ],
      "name": "Approval",
      "type": "event"
    },
    {
      "anonymous": false,
      "inputs": [
        {
          "indexed": true,
          "internalType": "address",
          "name": "owner",
          "type": "address"
        },
        {
          "indexed": true,
          "internalType": "address",
          "name": "operator",
          "type": "address"
        },
        {
          "indexed": false,
          "internalType": "bool",
          "name": "approved",
          "type": "bool"
        }
      ],
      "name": "ApprovalForAll",
      "type": "event"
    },
    {
      "anonymous": false,
      "inputs": [
        {
          "indexed": false,
          "internalType": "address",
          "name": "sender",
          "type": "address"
        },
        {
          "indexed": false,
          "internalType": "uint256",
          "name": "tokenId",
          "type": "uint256"
        },
        {
          "indexed": false,
          "internalType": "string",
          "name": "imageURI",
          "type": "string"
        }
      ],
      "name": "MintReceipt",
      "type": "event"
    },
    {
      "anonymous": false,
      "inputs": [
        {
          "indexed": true,
          "internalType": "address",
          "name": "from",
          "type": "address"
        },
        {
          "indexed": true,
          "internalType": "address",
          "name": "to",
          "type": "address"
        },
        {
          "indexed": true,
          "internalType": "uint256",
          "name": "tokenId",
          "type": "uint256"
        }
      ],
      "name": "Transfer",
      "type": "event"
    },
    {
      "inputs": [
        {
          "internalType": "address",
          "name": "to",
          "type": "address"
        },
        {
          "internalType": "uint256",
          "name": "tokenId",
          "type": "uint256"
        }
      ],
      "name": "approve",
      "outputs": [],
      "stateMutability": "nonpayable",
      "type": "function"
    },
    {
      "inputs": [
        {
          "internalType": "address",
          "name": "owner",
          "type": "address"
        }
      ],
      "name": "balanceOf",
      "outputs": [
        {
          "internalType": "uint256",
          "name": "",
          "type": "uint256"
        }
      ],
      "stateMutability": "view",
      "type": "function"
    },
    {
      "inputs": [
        {
          "internalType": "uint256",
          "name": "tokenId",
          "type": "uint256"
        }
      ],
      "name": "burn",
      "outputs": [],
      "stateMutability": "nonpayable",
      "type": "function"
    },
    {
      "inputs": [],
      "name": "checkForUsersNFTs",
      "outputs": [
        {
          "internalType": "string[]",
          "name": "yoCardsInGame",
          "type": "string[]"
        }
      ],
      "stateMutability": "view",
      "type": "function"
    },
    {
      "inputs": [],
      "name": "checkForUsersTokenIDs",
      "outputs": [
        {
          "internalType": "uint256[]",
          "name": "",
          "type": "uint256[]"
        }
      ],
      "stateMutability": "view",
      "type": "function"
    },
    {
      "inputs": [
        {
          "internalType": "uint256",
          "name": "tokenId",
          "type": "uint256"
        }
      ],
      "name": "checkRedemptionStatus",
      "outputs": [
        {
          "internalType": "uint256",
          "name": "",
          "type": "uint256"
        }
      ],
      "stateMutability": "view",
      "type": "function"
    },
    {
      "inputs": [
        {
          "internalType": "uint256",
          "name": "tokenId",
          "type": "uint256"
        }
      ],
      "name": "getApproved",
      "outputs": [
        {
          "internalType": "address",
          "name": "",
          "type": "address"
        }
      ],
      "stateMutability": "view",
      "type": "function"
    },
    {
      "inputs": [
        {
          "internalType": "address",
          "name": "owner",
          "type": "address"
        },
        {
          "internalType": "address",
          "name": "operator",
          "type": "address"
        }
      ],
      "name": "isApprovedForAll",
      "outputs": [
        {
          "internalType": "bool",
          "name": "",
          "type": "bool"
        }
      ],
      "stateMutability": "view",
      "type": "function"
    },
    {
      "inputs": [],
      "name": "name",
      "outputs": [
        {
          "internalType": "string",
          "name": "",
          "type": "string"
        }
      ],
      "stateMutability": "view",
      "type": "function"
    },
    {
      "inputs": [
        {
          "internalType": "uint256",
          "name": "",
          "type": "uint256"
        }
      ],
      "name": "nftHolderAttributes",
      "outputs": [
        {
          "internalType": "string",
          "name": "name",
          "type": "string"
        },
        {
          "internalType": "string",
          "name": "imageURI",
          "type": "string"
        },
        {
          "internalType": "uint256",
          "name": "percievedLoudness",
          "type": "uint256"
        },
        {
          "internalType": "uint256",
          "name": "tailLength",
          "type": "uint256"
        },
        {
          "internalType": "uint256",
          "name": "bodyLength",
          "type": "uint256"
        },
        {
          "internalType": "uint256",
          "name": "dynamicRange",
          "type": "uint256"
        },
        {
          "internalType": "uint256",
          "name": "duration",
          "type": "uint256"
        },
        {
          "internalType": "uint256",
          "name": "redeemed",
          "type": "uint256"
        }
      ],
      "stateMutability": "view",
      "type": "function"
    },
    {
      "inputs": [
        {
          "internalType": "address",
          "name": "",
          "type": "address"
        },
        {
          "internalType": "uint256",
          "name": "",
          "type": "uint256"
        }
      ],
      "name": "nftHolders",
      "outputs": [
        {
          "internalType": "uint256",
          "name": "",
          "type": "uint256"
        }
      ],
      "stateMutability": "view",
      "type": "function"
    },
    {
      "inputs": [
        {
          "internalType": "uint256",
          "name": "tokenId",
          "type": "uint256"
        }
      ],
      "name": "ownerOf",
      "outputs": [
        {
          "internalType": "address",
          "name": "",
          "type": "address"
        }
      ],
      "stateMutability": "view",
      "type": "function"
    },
    {
      "inputs": [
        {
          "internalType": "string",
          "name": "_name",
          "type": "string"
        },
        {
          "internalType": "string",
          "name": "_imageURI",
          "type": "string"
        },
        {
          "internalType": "uint256",
          "name": "_percievedLoudness",
          "type": "uint256"
        },
        {
          "internalType": "uint256",
          "name": "_tailLength",
          "type": "uint256"
        },
        {
          "internalType": "uint256",
          "name": "_bodyLength",
          "type": "uint256"
        },
        {
          "internalType": "uint256",
          "name": "_dynamicRange",
          "type": "uint256"
        },
        {
          "internalType": "uint256",
          "name": "_duration",
          "type": "uint256"
        },
        {
          "internalType": "uint256",
          "name": "_redeemed",
          "type": "uint256"
        }
      ],
      "name": "safeMint",
      "outputs": [],
      "stateMutability": "nonpayable",
      "type": "function"
    },
    {
      "inputs": [
        {
          "internalType": "address",
          "name": "from",
          "type": "address"
        },
        {
          "internalType": "address",
          "name": "to",
          "type": "address"
        },
        {
          "internalType": "uint256",
          "name": "tokenId",
          "type": "uint256"
        }
      ],
      "name": "safeTransferFrom",
      "outputs": [],
      "stateMutability": "nonpayable",
      "type": "function"
    },
    {
      "inputs": [
        {
          "internalType": "address",
          "name": "from",
          "type": "address"
        },
        {
          "internalType": "address",
          "name": "to",
          "type": "address"
        },
        {
          "internalType": "uint256",
          "name": "tokenId",
          "type": "uint256"
        },
        {
          "internalType": "bytes",
          "name": "data",
          "type": "bytes"
        }
      ],
      "name": "safeTransferFrom",
      "outputs": [],
      "stateMutability": "nonpayable",
      "type": "function"
    },
    {
      "inputs": [
        {
          "internalType": "address",
          "name": "operator",
          "type": "address"
        },
        {
          "internalType": "bool",
          "name": "approved",
          "type": "bool"
        }
      ],
      "name": "setApprovalForAll",
      "outputs": [],
      "stateMutability": "nonpayable",
      "type": "function"
    },
    {
      "inputs": [
        {
          "internalType": "bytes4",
          "name": "interfaceId",
          "type": "bytes4"
        }
      ],
      "name": "supportsInterface",
      "outputs": [
        {
          "internalType": "bool",
          "name": "",
          "type": "bool"
        }
      ],
      "stateMutability": "view",
      "type": "function"
    },
    {
      "inputs": [
        {
          "internalType": "uint256",
          "name": "tokenId",
          "type": "uint256"
        }
      ],
      "name": "switchRedeemed",
      "outputs": [],
      "stateMutability": "nonpayable",
      "type": "function"
    },
    {
      "inputs": [],
      "name": "symbol",
      "outputs": [
        {
          "internalType": "string",
          "name": "",
          "type": "string"
        }
      ],
      "stateMutability": "view",
      "type": "function"
    },
    {
      "inputs": [
        {
          "internalType": "uint256",
          "name": "_tokenId",
          "type": "uint256"
        }
      ],
      "name": "tokenURI",
      "outputs": [
        {
          "internalType": "string",
          "name": "",
          "type": "string"
        }
      ],
      "stateMutability": "view",
      "type": "function"
    },
    {
      "inputs": [
        {
          "internalType": "address",
          "name": "from",
          "type": "address"
        },
        {
          "internalType": "address",
          "name": "to",
          "type": "address"
        },
        {
          "internalType": "uint256",
          "name": "tokenId",
          "type": "uint256"
        }
      ],
      "name": "transferFrom",
      "outputs": [],
      "stateMutability": "nonpayable",
      "type": "function"
    },
    {
      "inputs": [
        {
          "internalType": "address",
          "name": "",
          "type": "address"
        },
        {
          "internalType": "uint256",
          "name": "",
          "type": "uint256"
        }
      ],
      "name": "yourCardsInGameMapping",
      "outputs": [
        {
          "internalType": "string",
          "name": "",
          "type": "string"
        }
      ],
      "stateMutability": "view",
      "type": "function"
    }
  ],
  "bytecode": "0x60806040523480156200001157600080fd5b506040518060400160405280600781526020017f4d79546f6b656e000000000000000000000000000000000000000000000000008152506040518060400160405280600381526020017f4d544b000000000000000000000000000000000000000000000000000000000081525081600090816200008f919062000351565b508060019081620000a1919062000351565b505050620000bb6006620000c160201b620015ef1760201c565b62000438565b6001816000016000828254019250508190555050565b600081519050919050565b7f4e487b7100000000000000000000000000000000000000000000000000000000600052604160045260246000fd5b7f4e487b7100000000000000000000000000000000000000000000000000000000600052602260045260246000fd5b600060028204905060018216806200015957607f821691505b6020821081036200016f576200016e62000111565b5b50919050565b60008190508160005260206000209050919050565b60006020601f8301049050919050565b600082821b905092915050565b600060088302620001d97fffffffffffffffffffffffffffffffffffffffffffffffffffffffffffffffff826200019a565b620001e586836200019a565b95508019841693508086168417925050509392505050565b6000819050919050565b6000819050919050565b6000620002326200022c6200022684620001fd565b62000207565b620001fd565b9050919050565b6000819050919050565b6200024e8362000211565b620002666200025d8262000239565b848454620001a7565b825550505050565b600090565b6200027d6200026e565b6200028a81848462000243565b505050565b5b81811015620002b257620002a660008262000273565b60018101905062000290565b5050565b601f8211156200030157620002cb8162000175565b620002d6846200018a565b81016020851015620002e6578190505b620002fe620002f5856200018a565b8301826200028f565b50505b505050565b600082821c905092915050565b6000620003266000198460080262000306565b1980831691505092915050565b600062000341838362000313565b9150826002028217905092915050565b6200035c82620000d7565b67ffffffffffffffff811115620003785762000377620000e2565b5b62000384825462000140565b62000391828285620002b6565b600060209050601f831160018114620003c95760008415620003b4578287015190505b620003c0858262000333565b86555062000430565b601f198416620003d98662000175565b60005b828110156200040357848901518255600182019150602085019450602081019050620003dc565b868310156200042357848901516200041f601f89168262000313565b8355505b6001600288020188555050505b505050505050565b6145b680620004486000396000f3fe608060405234801561001057600080fd5b50600436106101425760003560e01c80636352211e116100b8578063a22cb4651161007c578063a22cb465146103b2578063b88d4fde146103ce578063c87b56dd146103ea578063cf1ac6e51461041a578063e70e868514610438578063e985e9c51461045657610142565b80636352211e146102cd57806370a08231146102fd578063775bb50e1461032d57806395d89b411461035d57806398da4c951461037b57610142565b806321d8f7731161010a57806321d8f773146101fd57806323b872dd1461022d5780633f3a1c7a1461024957806342842e0e1461027957806342966c681461029557806352a0a661146102b157610142565b806301ffc9a71461014757806306fdde0314610177578063081812fc14610195578063095ea7b3146101c557806309e13835146101e1575b600080fd5b610161600480360381019061015c9190612903565b610486565b60405161016e919061294b565b60405180910390f35b61017f610568565b60405161018c91906129f6565b60405180910390f35b6101af60048036038101906101aa9190612a4e565b6105fa565b6040516101bc9190612abc565b60405180910390f35b6101df60048036038101906101da9190612b03565b610640565b005b6101fb60048036038101906101f69190612c78565b610757565b005b61021760048036038101906102129190612a4e565b610a18565b6040516102249190612d75565b60405180910390f35b61024760048036038101906102429190612d90565b610ba9565b005b610263600480360381019061025e9190612b03565b610c09565b60405161027091906129f6565b60405180910390f35b610293600480360381019061028e9190612d90565b610cc2565b005b6102af60048036038101906102aa9190612a4e565b610ce2565b005b6102cb60048036038101906102c69190612a4e565b610d3e565b005b6102e760048036038101906102e29190612a4e565b610d63565b6040516102f49190612abc565b60405180910390f35b61031760048036038101906103129190612de3565b610de9565b6040516103249190612d75565b60405180910390f35b61034760048036038101906103429190612b03565b610ea0565b6040516103549190612d75565b60405180910390f35b610365610ed1565b60405161037291906129f6565b60405180910390f35b61039560048036038101906103909190612a4e565b610f63565b6040516103a9989796959493929190612e10565b60405180910390f35b6103cc60048036038101906103c79190612ec8565b6110bb565b005b6103e860048036038101906103e39190612fa9565b6110d1565b005b61040460048036038101906103ff9190612a4e565b611133565b60405161041191906129f6565b60405180910390f35b6104226113b0565b60405161042f9190613138565b60405180910390f35b6104406114c6565b60405161044d9190613218565b60405180910390f35b610470600480360381019061046b919061323a565b61155b565b60405161047d919061294b565b60405180910390f35b60007f80ac58cd000000000000000000000000000000000000000000000000000000007bffffffffffffffffffffffffffffffffffffffffffffffffffffffff1916827bffffffffffffffffffffffffffffffffffffffffffffffffffffffff1916148061055157507f5b5e139f000000000000000000000000000000000000000000000000000000007bffffffffffffffffffffffffffffffffffffffffffffffffffffffff1916827bffffffffffffffffffffffffffffffffffffffffffffffffffffffff1916145b80610561575061056082611605565b5b9050919050565b606060008054610577906132a9565b80601f01602080910402602001604051908101604052809291908181526020018280546105a3906132a9565b80156105f05780601f106105c5576101008083540402835291602001916105f0565b820191906000526020600020905b8154815290600101906020018083116105d357829003601f168201915b5050505050905090565b60006106058261166f565b6004600083815260200190815260200160002060009054906101000a900473ffffffffffffffffffffffffffffffffffffffff169050919050565b600061064b82610d63565b90508073ffffffffffffffffffffffffffffffffffffffff168373ffffffffffffffffffffffffffffffffffffffff16036106bb576040517f08c379a00000000000000000000000000000000000000000000000000000000081526004016106b29061334c565b60405180910390fd5b8073ffffffffffffffffffffffffffffffffffffffff166106da6116ba565b73ffffffffffffffffffffffffffffffffffffffff1614806107095750610708816107036116ba565b61155b565b5b610748576040517f08c379a000000000000000000000000000000000000000000000000000000000815260040161073f906133de565b60405180910390fd5b61075283836116c2565b505050565b6000610763600661177b565b905061076f3382611789565b600860003373ffffffffffffffffffffffffffffffffffffffff1673ffffffffffffffffffffffffffffffffffffffff1681526020019081526020016000208190806001815401808255809150506001900390600052602060002001600090919091909150556040518061010001604052808a81526020018981526020018881526020018781526020018681526020018581526020018481526020018381525060076000838152602001908152602001600020600082015181600001908161083791906135aa565b50602082015181600101908161084d91906135aa565b5060408201518160020155606082015181600301556080820151816004015560a0820151816005015560c0820151816006015560e08201518160070155905050600960003373ffffffffffffffffffffffffffffffffffffffff1673ffffffffffffffffffffffffffffffffffffffff168152602001908152602001600020889080600181540180825580915050600190039060005260206000200160009091909190915090816108fe91906135aa565b506109226040518060600160405280602e8152602001614553602e9139828b6117a7565b600a600760008381526020019081526020016000209080600181540180825580915050600190039060005260206000209060080201600090919091909150600082018160000190816109749190613692565b50600182018160010190816109899190613692565b5060028201548160020155600382015481600301556004820154816004015560058201548160050155600682015481600601556007820154816007015550507f5788c7306c84c84150f42f0489236f2cc7d2a76252025a2a0f136acb4c25ca6933828a6040516109fb9392919061377a565b60405180910390a1610a0d60066115ef565b505050505050505050565b6000806007600084815260200190815260200160002060405180610100016040529081600082018054610a4a906132a9565b80601f0160208091040260200160405190810160405280929190818152602001828054610a76906132a9565b8015610ac35780601f10610a9857610100808354040283529160200191610ac3565b820191906000526020600020905b815481529060010190602001808311610aa657829003601f168201915b50505050508152602001600182018054610adc906132a9565b80601f0160208091040260200160405190810160405280929190818152602001828054610b08906132a9565b8015610b555780601f10610b2a57610100808354040283529160200191610b55565b820191906000526020600020905b815481529060010190602001808311610b3857829003601f168201915b50505050508152602001600282015481526020016003820154815260200160048201548152602001600582015481526020016006820154815260200160078201548152505090508060e00151915050919050565b610bba610bb46116ba565b82611846565b610bf9576040517f08c379a0000000000000000000000000000000000000000000000000000000008152600401610bf09061382a565b60405180910390fd5b610c048383836118db565b505050565b60096020528160005260406000208181548110610c2557600080fd5b90600052602060002001600091509150508054610c41906132a9565b80601f0160208091040260200160405190810160405280929190818152602001828054610c6d906132a9565b8015610cba5780601f10610c8f57610100808354040283529160200191610cba565b820191906000526020600020905b815481529060010190602001808311610c9d57829003601f168201915b505050505081565b610cdd838383604051806020016040528060008152506110d1565b505050565b610cf3610ced6116ba565b82611846565b610d32576040517f08c379a0000000000000000000000000000000000000000000000000000000008152600401610d299061382a565b60405180910390fd5b610d3b81611bd4565b50565b6000600760008381526020019081526020016000209050600181600701819055505050565b600080610d6f83611d22565b9050600073ffffffffffffffffffffffffffffffffffffffff168173ffffffffffffffffffffffffffffffffffffffff1603610de0576040517f08c379a0000000000000000000000000000000000000000000000000000000008152600401610dd790613896565b60405180910390fd5b80915050919050565b60008073ffffffffffffffffffffffffffffffffffffffff168273ffffffffffffffffffffffffffffffffffffffff1603610e59576040517f08c379a0000000000000000000000000000000000000000000000000000000008152600401610e5090613928565b60405180910390fd5b600360008373ffffffffffffffffffffffffffffffffffffffff1673ffffffffffffffffffffffffffffffffffffffff168152602001908152602001600020549050919050565b60086020528160005260406000208181548110610ebc57600080fd5b90600052602060002001600091509150505481565b606060018054610ee0906132a9565b80601f0160208091040260200160405190810160405280929190818152602001828054610f0c906132a9565b8015610f595780601f10610f2e57610100808354040283529160200191610f59565b820191906000526020600020905b815481529060010190602001808311610f3c57829003601f168201915b5050505050905090565b6007602052806000526040600020600091509050806000018054610f86906132a9565b80601f0160208091040260200160405190810160405280929190818152602001828054610fb2906132a9565b8015610fff5780601f10610fd457610100808354040283529160200191610fff565b820191906000526020600020905b815481529060010190602001808311610fe257829003601f168201915b505050505090806001018054611014906132a9565b80601f0160208091040260200160405190810160405280929190818152602001828054611040906132a9565b801561108d5780601f106110625761010080835404028352916020019161108d565b820191906000526020600020905b81548152906001019060200180831161107057829003601f168201915b5050505050908060020154908060030154908060040154908060050154908060060154908060070154905088565b6110cd6110c66116ba565b8383611d5f565b5050565b6110e26110dc6116ba565b83611846565b611121576040517f08c379a00000000000000000000000000000000000000000000000000000000081526004016111189061382a565b60405180910390fd5b61112d84848484611ecb565b50505050565b606060006007600084815260200190815260200160002060405180610100016040529081600082018054611166906132a9565b80601f0160208091040260200160405190810160405280929190818152602001828054611192906132a9565b80156111df5780601f106111b4576101008083540402835291602001916111df565b820191906000526020600020905b8154815290600101906020018083116111c257829003601f168201915b505050505081526020016001820180546111f8906132a9565b80601f0160208091040260200160405190810160405280929190818152602001828054611224906132a9565b80156112715780601f1061124657610100808354040283529160200191611271565b820191906000526020600020905b81548152906001019060200180831161125457829003601f168201915b505050505081526020016002820154815260200160038201548152602001600482015481526020016005820154815260200160068201548152602001600782015481525050905060006112c78260400151611f27565b905060006112d88360600151611f27565b905060006112e98460800151611f27565b905060006112fa8560c00151611f27565b9050600061130b8660a00151611f27565b9050600061131c8760e00151611f27565b9050600061132a6001611f27565b90506000611378896000015161133f8d611f27565b8b602001518b87878d8d8c8e6040516020016113649a99989796959493929190613e44565b604051602081830303815290604052611ff5565b905060008160405160200161138d9190613f95565b6040516020818303038152906040529050809a5050505050505050505050919050565b6060600960003373ffffffffffffffffffffffffffffffffffffffff1673ffffffffffffffffffffffffffffffffffffffff168152602001908152602001600020805480602002602001604051908101604052809291908181526020016000905b828210156114bd578382906000526020600020018054611430906132a9565b80601f016020809104026020016040519081016040528092919081815260200182805461145c906132a9565b80156114a95780601f1061147e576101008083540402835291602001916114a9565b820191906000526020600020905b81548152906001019060200180831161148c57829003601f168201915b505050505081526020019060010190611411565b50505050905090565b6060600860003373ffffffffffffffffffffffffffffffffffffffff1673ffffffffffffffffffffffffffffffffffffffff16815260200190815260200160002080548060200260200160405190810160405280929190818152602001828054801561155157602002820191906000526020600020905b81548152602001906001019080831161153d575b5050505050905090565b6000600560008473ffffffffffffffffffffffffffffffffffffffff1673ffffffffffffffffffffffffffffffffffffffff16815260200190815260200160002060008373ffffffffffffffffffffffffffffffffffffffff1673ffffffffffffffffffffffffffffffffffffffff16815260200190815260200160002060009054906101000a900460ff16905092915050565b6001816000016000828254019250508190555050565b60007f01ffc9a7000000000000000000000000000000000000000000000000000000007bffffffffffffffffffffffffffffffffffffffffffffffffffffffff1916827bffffffffffffffffffffffffffffffffffffffffffffffffffffffff1916149050919050565b6116788161218c565b6116b7576040517f08c379a00000000000000000000000000000000000000000000000000000000081526004016116ae90613896565b60405180910390fd5b50565b600033905090565b816004600083815260200190815260200160002060006101000a81548173ffffffffffffffffffffffffffffffffffffffff021916908373ffffffffffffffffffffffffffffffffffffffff160217905550808273ffffffffffffffffffffffffffffffffffffffff1661173583610d63565b73ffffffffffffffffffffffffffffffffffffffff167f8c5be1e5ebec7d5bd14f71427d1e84f3dd0314c0f7b2291e5b200ac8c7c3b92560405160405180910390a45050565b600081600001549050919050565b6117a38282604051806020016040528060008152506121cd565b5050565b6118418383836040516024016117bf93929190613fb7565b6040516020818303038152906040527f5970e089000000000000000000000000000000000000000000000000000000007bffffffffffffffffffffffffffffffffffffffffffffffffffffffff19166020820180517bffffffffffffffffffffffffffffffffffffffffffffffffffffffff8381831617835250505050612228565b505050565b60008061185283610d63565b90508073ffffffffffffffffffffffffffffffffffffffff168473ffffffffffffffffffffffffffffffffffffffff1614806118945750611893818561155b565b5b806118d257508373ffffffffffffffffffffffffffffffffffffffff166118ba846105fa565b73ffffffffffffffffffffffffffffffffffffffff16145b91505092915050565b8273ffffffffffffffffffffffffffffffffffffffff166118fb82610d63565b73ffffffffffffffffffffffffffffffffffffffff1614611951576040517f08c379a00000000000000000000000000000000000000000000000000000000081526004016119489061406e565b60405180910390fd5b600073ffffffffffffffffffffffffffffffffffffffff168273ffffffffffffffffffffffffffffffffffffffff16036119c0576040517f08c379a00000000000000000000000000000000000000000000000000000000081526004016119b790614100565b60405180910390fd5b6119cd8383836001612251565b8273ffffffffffffffffffffffffffffffffffffffff166119ed82610d63565b73ffffffffffffffffffffffffffffffffffffffff1614611a43576040517f08c379a0000000000000000000000000000000000000000000000000000000008152600401611a3a9061406e565b60405180910390fd5b6004600082815260200190815260200160002060006101000a81549073ffffffffffffffffffffffffffffffffffffffff02191690556001600360008573ffffffffffffffffffffffffffffffffffffffff1673ffffffffffffffffffffffffffffffffffffffff168152602001908152602001600020600082825403925050819055506001600360008473ffffffffffffffffffffffffffffffffffffffff1673ffffffffffffffffffffffffffffffffffffffff16815260200190815260200160002060008282540192505081905550816002600083815260200190815260200160002060006101000a81548173ffffffffffffffffffffffffffffffffffffffff021916908373ffffffffffffffffffffffffffffffffffffffff160217905550808273ffffffffffffffffffffffffffffffffffffffff168473ffffffffffffffffffffffffffffffffffffffff167fddf252ad1be2c89b69c2b068fc378daa952ba7f163c4a11628f55a4df523b3ef60405160405180910390a4611bcf8383836001612377565b505050565b6000611bdf82610d63565b9050611bef816000846001612251565b611bf882610d63565b90506004600083815260200190815260200160002060006101000a81549073ffffffffffffffffffffffffffffffffffffffff02191690556001600360008373ffffffffffffffffffffffffffffffffffffffff1673ffffffffffffffffffffffffffffffffffffffff168152602001908152602001600020600082825403925050819055506002600083815260200190815260200160002060006101000a81549073ffffffffffffffffffffffffffffffffffffffff021916905581600073ffffffffffffffffffffffffffffffffffffffff168273ffffffffffffffffffffffffffffffffffffffff167fddf252ad1be2c89b69c2b068fc378daa952ba7f163c4a11628f55a4df523b3ef60405160405180910390a4611d1e816000846001612377565b5050565b60006002600083815260200190815260200160002060009054906101000a900473ffffffffffffffffffffffffffffffffffffffff169050919050565b8173ffffffffffffffffffffffffffffffffffffffff168373ffffffffffffffffffffffffffffffffffffffff1603611dcd576040517f08c379a0000000000000000000000000000000000000000000000000000000008152600401611dc49061416c565b60405180910390fd5b80600560008573ffffffffffffffffffffffffffffffffffffffff1673ffffffffffffffffffffffffffffffffffffffff16815260200190815260200160002060008473ffffffffffffffffffffffffffffffffffffffff1673ffffffffffffffffffffffffffffffffffffffff16815260200190815260200160002060006101000a81548160ff0219169083151502179055508173ffffffffffffffffffffffffffffffffffffffff168373ffffffffffffffffffffffffffffffffffffffff167f17307eab39ab6107e8899845ad3d59bd9653f200f220920489ca2b5937696c3183604051611ebe919061294b565b60405180910390a3505050565b611ed68484846118db565b611ee28484848461237d565b611f21576040517f08c379a0000000000000000000000000000000000000000000000000000000008152600401611f18906141fe565b60405180910390fd5b50505050565b606060006001611f3684612504565b01905060008167ffffffffffffffff811115611f5557611f54612b4d565b5b6040519080825280601f01601f191660200182016040528015611f875781602001600182028036833780820191505090505b509050600082602001820190505b600115611fea578080600190039150507f3031323334353637383961626364656600000000000000000000000000000000600a86061a8153600a8581611fde57611fdd61421e565b5b04945060008503611f95575b819350505050919050565b60606000825190506000810361201d5760405180602001604052806000815250915050612187565b6000600360028361202e919061427c565b61203891906142b0565b600461204491906142e1565b90506000602082612055919061427c565b67ffffffffffffffff81111561206e5761206d612b4d565b5b6040519080825280601f01601f1916602001820160405280156120a05781602001600182028036833780820191505090505b5090506000604051806060016040528060408152602001614513604091399050600181016020830160005b868110156121445760038101905062ffffff818a015116603f8160121c168401518060081b905060ff603f83600c1c1686015116810190508060081b905060ff603f8360061c1686015116810190508060081b905060ff603f831686015116810190508060e01b905080845260048401935050506120cb565b50600386066001811461215e576002811461216e57612179565b613d3d60f01b6002830352612179565b603d60f81b60018303525b508484525050819450505050505b919050565b60008073ffffffffffffffffffffffffffffffffffffffff166121ae83611d22565b73ffffffffffffffffffffffffffffffffffffffff1614159050919050565b6121d78383612657565b6121e4600084848461237d565b612223576040517f08c379a000000000000000000000000000000000000000000000000000000000815260040161221a906141fe565b60405180910390fd5b505050565b60008151905060006a636f6e736f6c652e6c6f679050602083016000808483855afa5050505050565b600181111561237157600073ffffffffffffffffffffffffffffffffffffffff168473ffffffffffffffffffffffffffffffffffffffff16146122e55780600360008673ffffffffffffffffffffffffffffffffffffffff1673ffffffffffffffffffffffffffffffffffffffff16815260200190815260200160002060008282546122dd9190614323565b925050819055505b600073ffffffffffffffffffffffffffffffffffffffff168373ffffffffffffffffffffffffffffffffffffffff16146123705780600360008573ffffffffffffffffffffffffffffffffffffffff1673ffffffffffffffffffffffffffffffffffffffff1681526020019081526020016000206000828254612368919061427c565b925050819055505b5b50505050565b50505050565b600061239e8473ffffffffffffffffffffffffffffffffffffffff16612874565b156124f7578373ffffffffffffffffffffffffffffffffffffffff1663150b7a026123c76116ba565b8786866040518563ffffffff1660e01b81526004016123e994939291906143ac565b6020604051808303816000875af192505050801561242557506040513d601f19601f82011682018060405250810190612422919061440d565b60015b6124a7573d8060008114612455576040519150601f19603f3d011682016040523d82523d6000602084013e61245a565b606091505b50600081510361249f576040517f08c379a0000000000000000000000000000000000000000000000000000000008152600401612496906141fe565b60405180910390fd5b805181602001fd5b63150b7a0260e01b7bffffffffffffffffffffffffffffffffffffffffffffffffffffffff1916817bffffffffffffffffffffffffffffffffffffffffffffffffffffffff1916149150506124fc565b600190505b949350505050565b600080600090507a184f03e93ff9f4daa797ed6e38ed64bf6a1f0100000000000000008310612562577a184f03e93ff9f4daa797ed6e38ed64bf6a1f01000000000000000083816125585761255761421e565b5b0492506040810190505b6d04ee2d6d415b85acef8100000000831061259f576d04ee2d6d415b85acef810000000083816125955761259461421e565b5b0492506020810190505b662386f26fc1000083106125ce57662386f26fc1000083816125c4576125c361421e565b5b0492506010810190505b6305f5e10083106125f7576305f5e10083816125ed576125ec61421e565b5b0492506008810190505b612710831061261c5761271083816126125761261161421e565b5b0492506004810190505b6064831061263f57606483816126355761263461421e565b5b0492506002810190505b600a831061264e576001810190505b80915050919050565b600073ffffffffffffffffffffffffffffffffffffffff168273ffffffffffffffffffffffffffffffffffffffff16036126c6576040517f08c379a00000000000000000000000000000000000000000000000000000000081526004016126bd90614486565b60405180910390fd5b6126cf8161218c565b1561270f576040517f08c379a0000000000000000000000000000000000000000000000000000000008152600401612706906144f2565b60405180910390fd5b61271d600083836001612251565b6127268161218c565b15612766576040517f08c379a000000000000000000000000000000000000000000000000000000000815260040161275d906144f2565b60405180910390fd5b6001600360008473ffffffffffffffffffffffffffffffffffffffff1673ffffffffffffffffffffffffffffffffffffffff16815260200190815260200160002060008282540192505081905550816002600083815260200190815260200160002060006101000a81548173ffffffffffffffffffffffffffffffffffffffff021916908373ffffffffffffffffffffffffffffffffffffffff160217905550808273ffffffffffffffffffffffffffffffffffffffff16600073ffffffffffffffffffffffffffffffffffffffff167fddf252ad1be2c89b69c2b068fc378daa952ba7f163c4a11628f55a4df523b3ef60405160405180910390a4612870600083836001612377565b5050565b6000808273ffffffffffffffffffffffffffffffffffffffff163b119050919050565b6000604051905090565b600080fd5b600080fd5b60007fffffffff0000000000000000000000000000000000000000000000000000000082169050919050565b6128e0816128ab565b81146128eb57600080fd5b50565b6000813590506128fd816128d7565b92915050565b600060208284031215612919576129186128a1565b5b6000612927848285016128ee565b91505092915050565b60008115159050919050565b61294581612930565b82525050565b6000602082019050612960600083018461293c565b92915050565b600081519050919050565b600082825260208201905092915050565b60005b838110156129a0578082015181840152602081019050612985565b60008484015250505050565b6000601f19601f8301169050919050565b60006129c882612966565b6129d28185612971565b93506129e2818560208601612982565b6129eb816129ac565b840191505092915050565b60006020820190508181036000830152612a1081846129bd565b905092915050565b6000819050919050565b612a2b81612a18565b8114612a3657600080fd5b50565b600081359050612a4881612a22565b92915050565b600060208284031215612a6457612a636128a1565b5b6000612a7284828501612a39565b91505092915050565b600073ffffffffffffffffffffffffffffffffffffffff82169050919050565b6000612aa682612a7b565b9050919050565b612ab681612a9b565b82525050565b6000602082019050612ad16000830184612aad565b92915050565b612ae081612a9b565b8114612aeb57600080fd5b50565b600081359050612afd81612ad7565b92915050565b60008060408385031215612b1a57612b196128a1565b5b6000612b2885828601612aee565b9250506020612b3985828601612a39565b9150509250929050565b600080fd5b600080fd5b7f4e487b7100000000000000000000000000000000000000000000000000000000600052604160045260246000fd5b612b85826129ac565b810181811067ffffffffffffffff82111715612ba457612ba3612b4d565b5b80604052505050565b6000612bb7612897565b9050612bc38282612b7c565b919050565b600067ffffffffffffffff821115612be357612be2612b4d565b5b612bec826129ac565b9050602081019050919050565b82818337600083830152505050565b6000612c1b612c1684612bc8565b612bad565b905082815260208101848484011115612c3757612c36612b48565b5b612c42848285612bf9565b509392505050565b600082601f830112612c5f57612c5e612b43565b5b8135612c6f848260208601612c08565b91505092915050565b600080600080600080600080610100898b031215612c9957612c986128a1565b5b600089013567ffffffffffffffff811115612cb757612cb66128a6565b5b612cc38b828c01612c4a565b985050602089013567ffffffffffffffff811115612ce457612ce36128a6565b5b612cf08b828c01612c4a565b9750506040612d018b828c01612a39565b9650506060612d128b828c01612a39565b9550506080612d238b828c01612a39565b94505060a0612d348b828c01612a39565b93505060c0612d458b828c01612a39565b92505060e0612d568b828c01612a39565b9150509295985092959890939650565b612d6f81612a18565b82525050565b6000602082019050612d8a6000830184612d66565b92915050565b600080600060608486031215612da957612da86128a1565b5b6000612db786828701612aee565b9350506020612dc886828701612aee565b9250506040612dd986828701612a39565b9150509250925092565b600060208284031215612df957612df86128a1565b5b6000612e0784828501612aee565b91505092915050565b6000610100820190508181036000830152612e2b818b6129bd565b90508181036020830152612e3f818a6129bd565b9050612e4e6040830189612d66565b612e5b6060830188612d66565b612e686080830187612d66565b612e7560a0830186612d66565b612e8260c0830185612d66565b612e8f60e0830184612d66565b9998505050505050505050565b612ea581612930565b8114612eb057600080fd5b50565b600081359050612ec281612e9c565b92915050565b60008060408385031215612edf57612ede6128a1565b5b6000612eed85828601612aee565b9250506020612efe85828601612eb3565b9150509250929050565b600067ffffffffffffffff821115612f2357612f22612b4d565b5b612f2c826129ac565b9050602081019050919050565b6000612f4c612f4784612f08565b612bad565b905082815260208101848484011115612f6857612f67612b48565b5b612f73848285612bf9565b509392505050565b600082601f830112612f9057612f8f612b43565b5b8135612fa0848260208601612f39565b91505092915050565b60008060008060808587031215612fc357612fc26128a1565b5b6000612fd187828801612aee565b9450506020612fe287828801612aee565b9350506040612ff387828801612a39565b925050606085013567ffffffffffffffff811115613014576130136128a6565b5b61302087828801612f7b565b91505092959194509250565b600081519050919050565b600082825260208201905092915050565b6000819050602082019050919050565b600082825260208201905092915050565b600061307482612966565b61307e8185613058565b935061308e818560208601612982565b613097816129ac565b840191505092915050565b60006130ae8383613069565b905092915050565b6000602082019050919050565b60006130ce8261302c565b6130d88185613037565b9350836020820285016130ea85613048565b8060005b85811015613126578484038952815161310785826130a2565b9450613112836130b6565b925060208a019950506001810190506130ee565b50829750879550505050505092915050565b6000602082019050818103600083015261315281846130c3565b905092915050565b600081519050919050565b600082825260208201905092915050565b6000819050602082019050919050565b61318f81612a18565b82525050565b60006131a18383613186565b60208301905092915050565b6000602082019050919050565b60006131c58261315a565b6131cf8185613165565b93506131da83613176565b8060005b8381101561320b5781516131f28882613195565b97506131fd836131ad565b9250506001810190506131de565b5085935050505092915050565b6000602082019050818103600083015261323281846131ba565b905092915050565b60008060408385031215613251576132506128a1565b5b600061325f85828601612aee565b925050602061327085828601612aee565b9150509250929050565b7f4e487b7100000000000000000000000000000000000000000000000000000000600052602260045260246000fd5b600060028204905060018216806132c157607f821691505b6020821081036132d4576132d361327a565b5b50919050565b7f4552433732313a20617070726f76616c20746f2063757272656e74206f776e6560008201527f7200000000000000000000000000000000000000000000000000000000000000602082015250565b6000613336602183612971565b9150613341826132da565b604082019050919050565b6000602082019050818103600083015261336581613329565b9050919050565b7f4552433732313a20617070726f76652063616c6c6572206973206e6f7420746f60008201527f6b656e206f776e6572206f7220617070726f76656420666f7220616c6c000000602082015250565b60006133c8603d83612971565b91506133d38261336c565b604082019050919050565b600060208201905081810360008301526133f7816133bb565b9050919050565b60008190508160005260206000209050919050565b60006020601f8301049050919050565b600082821b905092915050565b6000600883026134607fffffffffffffffffffffffffffffffffffffffffffffffffffffffffffffffff82613423565b61346a8683613423565b95508019841693508086168417925050509392505050565b6000819050919050565b60006134a76134a261349d84612a18565b613482565b612a18565b9050919050565b6000819050919050565b6134c18361348c565b6134d56134cd826134ae565b848454613430565b825550505050565b600090565b6134ea6134dd565b6134f58184846134b8565b505050565b5b818110156135195761350e6000826134e2565b6001810190506134fb565b5050565b601f82111561355e5761352f816133fe565b61353884613413565b81016020851015613547578190505b61355b61355385613413565b8301826134fa565b50505b505050565b600082821c905092915050565b600061358160001984600802613563565b1980831691505092915050565b600061359a8383613570565b9150826002028217905092915050565b6135b382612966565b67ffffffffffffffff8111156135cc576135cb612b4d565b5b6135d682546132a9565b6135e182828561351d565b600060209050601f8311600181146136145760008415613602578287015190505b61360c858261358e565b865550613674565b601f198416613622866133fe565b60005b8281101561364a57848901518255600182019150602085019450602081019050613625565b868310156136675784890151613663601f891682613570565b8355505b6001600288020188555050505b505050505050565b60008154905061368b816132a9565b9050919050565b8181036136a0575050613778565b6136a98261367c565b67ffffffffffffffff8111156136c2576136c1612b4d565b5b6136cc82546132a9565b6136d782828561351d565b6000601f83116001811461370657600084156136f4578287015490505b6136fe858261358e565b865550613771565b601f198416613714876133fe565b965061371f866133fe565b60005b8281101561374757848901548255600182019150600185019450602081019050613722565b868310156137645784890154613760601f891682613570565b8355505b6001600288020188555050505b5050505050505b565b600060608201905061378f6000830186612aad565b61379c6020830185612d66565b81810360408301526137ae81846129bd565b9050949350505050565b7f4552433732313a2063616c6c6572206973206e6f7420746f6b656e206f776e6560008201527f72206f7220617070726f76656400000000000000000000000000000000000000602082015250565b6000613814602d83612971565b915061381f826137b8565b604082019050919050565b6000602082019050818103600083015261384381613807565b9050919050565b7f4552433732313a20696e76616c696420746f6b656e2049440000000000000000600082015250565b6000613880601883612971565b915061388b8261384a565b602082019050919050565b600060208201905081810360008301526138af81613873565b9050919050565b7f4552433732313a2061646472657373207a65726f206973206e6f74206120766160008201527f6c6964206f776e65720000000000000000000000000000000000000000000000602082015250565b6000613912602983612971565b915061391d826138b6565b604082019050919050565b6000602082019050818103600083015261394181613905565b9050919050565b600081905092915050565b7f7b226e616d65223a202200000000000000000000000000000000000000000000600082015250565b6000613989600a83613948565b915061399482613953565b600a82019050919050565b60006139aa82612966565b6139b48185613948565b93506139c4818560208601612982565b80840191505092915050565b7f202d2d204e465420233a20000000000000000000000000000000000000000000600082015250565b6000613a06600b83613948565b9150613a11826139d0565b600b82019050919050565b7f222c20226465736372697074696f6e223a20225468697320697320616e204e4660008201527f542074686174206c6574732070656f706c6520706c617920616e64207472616460208201527f6520666f72206120536f6e69632047616d6521222c2022696d616765223a202260408201527f697066733a2f2f00000000000000000000000000000000000000000000000000606082015250565b6000613ac4606783613948565b9150613acf82613a1c565b606782019050919050565b7f222c202261747472696275746573223a205b207b202274726169745f7479706560008201527f223a2022506572636965766564204c6f75646e657373222c202276616c75652260208201527f3a20000000000000000000000000000000000000000000000000000000000000604082015250565b6000613b5c604283613948565b9150613b6782613ada565b604282019050919050565b7f7d2c7b202274726169745f74797065223a202252656465656d6564222c20227660008201527f616c7565223a2000000000000000000000000000000000000000000000000000602082015250565b6000613bce602783613948565b9150613bd982613b72565b602782019050919050565b7f2c20226d61785f76616c7565223a000000000000000000000000000000000000600082015250565b6000613c1a600e83613948565b9150613c2582613be4565b600e82019050919050565b7f7d2c207b202274726169745f74797065223a20225461696c204c656e6774682260008201527f2c202276616c7565223a20000000000000000000000000000000000000000000602082015250565b6000613c8c602b83613948565b9150613c9782613c30565b602b82019050919050565b7f7d2c207b202274726169745f74797065223a2022426f6479204c656e6774682260008201527f2c202276616c7565223a20000000000000000000000000000000000000000000602082015250565b6000613cfe602b83613948565b9150613d0982613ca2565b602b82019050919050565b7f7d2c207b202274726169745f74797065223a202244796e616d69632052616e6760008201527f65222c202276616c7565223a2000000000000000000000000000000000000000602082015250565b6000613d70602d83613948565b9150613d7b82613d14565b602d82019050919050565b7f7d2c20207b202274726169745f74797065223a20224475726174696f6e222c2060008201527f2276616c7565223a200000000000000000000000000000000000000000000000602082015250565b6000613de2602983613948565b9150613ded82613d86565b602982019050919050565b7f7d205d7d00000000000000000000000000000000000000000000000000000000600082015250565b6000613e2e600483613948565b9150613e3982613df8565b600482019050919050565b6000613e4f8261397c565b9150613e5b828d61399f565b9150613e66826139f9565b9150613e72828c61399f565b9150613e7d82613ab7565b9150613e89828b61399f565b9150613e9482613b4f565b9150613ea0828a61399f565b9150613eab82613bc1565b9150613eb7828961399f565b9150613ec282613c0d565b9150613ece828861399f565b9150613ed982613c7f565b9150613ee5828761399f565b9150613ef082613cf1565b9150613efc828661399f565b9150613f0782613d63565b9150613f13828561399f565b9150613f1e82613dd5565b9150613f2a828461399f565b9150613f3582613e21565b91508190509b9a5050505050505050505050565b7f646174613a6170706c69636174696f6e2f6a736f6e3b6261736536342c000000600082015250565b6000613f7f601d83613948565b9150613f8a82613f49565b601d82019050919050565b6000613fa082613f72565b9150613fac828461399f565b915081905092915050565b60006060820190508181036000830152613fd181866129bd565b9050613fe06020830185612d66565b8181036040830152613ff281846129bd565b9050949350505050565b7f4552433732313a207472616e736665722066726f6d20696e636f72726563742060008201527f6f776e6572000000000000000000000000000000000000000000000000000000602082015250565b6000614058602583612971565b915061406382613ffc565b604082019050919050565b600060208201905081810360008301526140878161404b565b9050919050565b7f4552433732313a207472616e7366657220746f20746865207a65726f2061646460008201527f7265737300000000000000000000000000000000000000000000000000000000602082015250565b60006140ea602483612971565b91506140f58261408e565b604082019050919050565b60006020820190508181036000830152614119816140dd565b9050919050565b7f4552433732313a20617070726f766520746f2063616c6c657200000000000000600082015250565b6000614156601983612971565b915061416182614120565b602082019050919050565b6000602082019050818103600083015261418581614149565b9050919050565b7f4552433732313a207472616e7366657220746f206e6f6e20455243373231526560008201527f63656976657220696d706c656d656e7465720000000000000000000000000000602082015250565b60006141e8603283612971565b91506141f38261418c565b604082019050919050565b60006020820190508181036000830152614217816141db565b9050919050565b7f4e487b7100000000000000000000000000000000000000000000000000000000600052601260045260246000fd5b7f4e487b7100000000000000000000000000000000000000000000000000000000600052601160045260246000fd5b600061428782612a18565b915061429283612a18565b92508282019050808211156142aa576142a961424d565b5b92915050565b60006142bb82612a18565b91506142c683612a18565b9250826142d6576142d561421e565b5b828204905092915050565b60006142ec82612a18565b91506142f783612a18565b925082820261430581612a18565b9150828204841483151761431c5761431b61424d565b5b5092915050565b600061432e82612a18565b915061433983612a18565b92508282039050818111156143515761435061424d565b5b92915050565b600081519050919050565b600082825260208201905092915050565b600061437e82614357565b6143888185614362565b9350614398818560208601612982565b6143a1816129ac565b840191505092915050565b60006080820190506143c16000830187612aad565b6143ce6020830186612aad565b6143db6040830185612d66565b81810360608301526143ed8184614373565b905095945050505050565b600081519050614407816128d7565b92915050565b600060208284031215614423576144226128a1565b5b6000614431848285016143f8565b91505092915050565b7f4552433732313a206d696e7420746f20746865207a65726f2061646472657373600082015250565b6000614470602083612971565b915061447b8261443a565b602082019050919050565b6000602082019050818103600083015261449f81614463565b9050919050565b7f4552433732313a20746f6b656e20616c7265616479206d696e74656400000000600082015250565b60006144dc601c83612971565b91506144e7826144a6565b602082019050919050565b6000602082019050818103600083015261450b816144cf565b905091905056fe4142434445464748494a4b4c4d4e4f505152535455565758595a6162636465666768696a6b6c6d6e6f707172737475767778797a303132333435363738392b2f4d696e746564204e465420772f20746f6b656e496420257320616e6420636861726163746572496e646578202573a264697066735822122026cc28bea357d88361854ec12c7734883a3c958fcd1ae6cd1b24f2ae567f543464736f6c63430008110033",
  "linkReferences": {},
  "deployedLinkReferences": {}
}