{
  "_format": "hh-sol-artifact-1",
  "contractName": "MyNFT",
  "sourceName": "contracts/MyNFT.sol",
  "abi": [
    {
      "inputs": [],
      "stateMutability": "nonpayable",
      "type": "constructor"
    },
    {
      "anonymous": false,
      "inputs": [
        {
          "indexed": true,
          "internalType": "address",
          "name": "owner",
          "type": "address"
        },
        {
          "indexed": true,
          "internalType": "address",
          "name": "approved",
          "type": "address"
        },
        {
          "indexed": true,
          "internalType": "uint256",
          "name": "tokenId",
          "type": "uint256"
        }
      ],
      "name": "Approval",
      "type": "event"
    },
    {
      "anonymous": false,
      "inputs": [
        {
          "indexed": true,
          "internalType": "address",
          "name": "owner",
          "type": "address"
        },
        {
          "indexed": true,
          "internalType": "address",
          "name": "operator",
          "type": "address"
        },
        {
          "indexed": false,
          "internalType": "bool",
          "name": "approved",
          "type": "bool"
        }
      ],
      "name": "ApprovalForAll",
      "type": "event"
    },
    {
      "anonymous": false,
      "inputs": [
        {
          "indexed": false,
          "internalType": "address",
          "name": "sender",
          "type": "address"
        },
        {
          "indexed": false,
          "internalType": "uint256",
          "name": "tokenId",
          "type": "uint256"
        }
      ],
      "name": "MintReceipt",
      "type": "event"
    },
    {
      "anonymous": false,
      "inputs": [
        {
          "indexed": true,
          "internalType": "bytes32",
          "name": "role",
          "type": "bytes32"
        },
        {
          "indexed": true,
          "internalType": "bytes32",
          "name": "previousAdminRole",
          "type": "bytes32"
        },
        {
          "indexed": true,
          "internalType": "bytes32",
          "name": "newAdminRole",
          "type": "bytes32"
        }
      ],
      "name": "RoleAdminChanged",
      "type": "event"
    },
    {
      "anonymous": false,
      "inputs": [
        {
          "indexed": true,
          "internalType": "bytes32",
          "name": "role",
          "type": "bytes32"
        },
        {
          "indexed": true,
          "internalType": "address",
          "name": "account",
          "type": "address"
        },
        {
          "indexed": true,
          "internalType": "address",
          "name": "sender",
          "type": "address"
        }
      ],
      "name": "RoleGranted",
      "type": "event"
    },
    {
      "anonymous": false,
      "inputs": [
        {
          "indexed": true,
          "internalType": "bytes32",
          "name": "role",
          "type": "bytes32"
        },
        {
          "indexed": true,
          "internalType": "address",
          "name": "account",
          "type": "address"
        },
        {
          "indexed": true,
          "internalType": "address",
          "name": "sender",
          "type": "address"
        }
      ],
      "name": "RoleRevoked",
      "type": "event"
    },
    {
      "anonymous": false,
      "inputs": [
        {
          "indexed": true,
          "internalType": "address",
          "name": "from",
          "type": "address"
        },
        {
          "indexed": true,
          "internalType": "address",
          "name": "to",
          "type": "address"
        },
        {
          "indexed": true,
          "internalType": "uint256",
          "name": "tokenId",
          "type": "uint256"
        }
      ],
      "name": "Transfer",
      "type": "event"
    },
    {
      "inputs": [],
      "name": "DEFAULT_ADMIN_ROLE",
      "outputs": [
        {
          "internalType": "bytes32",
          "name": "",
          "type": "bytes32"
        }
      ],
      "stateMutability": "view",
      "type": "function"
    },
    {
      "inputs": [],
      "name": "MINTER_ROLE",
      "outputs": [
        {
          "internalType": "bytes32",
          "name": "",
          "type": "bytes32"
        }
      ],
      "stateMutability": "view",
      "type": "function"
    },
    {
      "inputs": [
        {
          "internalType": "address",
          "name": "to",
          "type": "address"
        },
        {
          "internalType": "uint256",
          "name": "tokenId",
          "type": "uint256"
        }
      ],
      "name": "approve",
      "outputs": [],
      "stateMutability": "nonpayable",
      "type": "function"
    },
    {
      "inputs": [
        {
          "internalType": "address",
          "name": "owner",
          "type": "address"
        }
      ],
      "name": "balanceOf",
      "outputs": [
        {
          "internalType": "uint256",
          "name": "",
          "type": "uint256"
        }
      ],
      "stateMutability": "view",
      "type": "function"
    },
    {
      "inputs": [
        {
          "internalType": "uint256",
          "name": "tokenId",
          "type": "uint256"
        }
      ],
      "name": "burn",
      "outputs": [],
      "stateMutability": "nonpayable",
      "type": "function"
    },
    {
      "inputs": [],
      "name": "checkForUsersNFTs",
      "outputs": [
        {
          "internalType": "string[]",
          "name": "yoCardsInGame",
          "type": "string[]"
        }
      ],
      "stateMutability": "view",
      "type": "function"
    },
    {
      "inputs": [
        {
          "internalType": "uint256",
          "name": "tokenId",
          "type": "uint256"
        }
      ],
      "name": "getApproved",
      "outputs": [
        {
          "internalType": "address",
          "name": "",
          "type": "address"
        }
      ],
      "stateMutability": "view",
      "type": "function"
    },
    {
      "inputs": [
        {
          "internalType": "bytes32",
          "name": "role",
          "type": "bytes32"
        }
      ],
      "name": "getRoleAdmin",
      "outputs": [
        {
          "internalType": "bytes32",
          "name": "",
          "type": "bytes32"
        }
      ],
      "stateMutability": "view",
      "type": "function"
    },
    {
      "inputs": [
        {
          "internalType": "bytes32",
          "name": "role",
          "type": "bytes32"
        },
        {
          "internalType": "address",
          "name": "account",
          "type": "address"
        }
      ],
      "name": "grantRole",
      "outputs": [],
      "stateMutability": "nonpayable",
      "type": "function"
    },
    {
      "inputs": [
        {
          "internalType": "bytes32",
          "name": "role",
          "type": "bytes32"
        },
        {
          "internalType": "address",
          "name": "account",
          "type": "address"
        }
      ],
      "name": "hasRole",
      "outputs": [
        {
          "internalType": "bool",
          "name": "",
          "type": "bool"
        }
      ],
      "stateMutability": "view",
      "type": "function"
    },
    {
      "inputs": [
        {
          "internalType": "address",
          "name": "owner",
          "type": "address"
        },
        {
          "internalType": "address",
          "name": "operator",
          "type": "address"
        }
      ],
      "name": "isApprovedForAll",
      "outputs": [
        {
          "internalType": "bool",
          "name": "",
          "type": "bool"
        }
      ],
      "stateMutability": "view",
      "type": "function"
    },
    {
      "inputs": [],
      "name": "name",
      "outputs": [
        {
          "internalType": "string",
          "name": "",
          "type": "string"
        }
      ],
      "stateMutability": "view",
      "type": "function"
    },
    {
      "inputs": [
        {
          "internalType": "uint256",
          "name": "",
          "type": "uint256"
        }
      ],
      "name": "nftHolderAttributes",
      "outputs": [
        {
          "internalType": "string",
          "name": "name",
          "type": "string"
        },
        {
          "internalType": "string",
          "name": "imageURI",
          "type": "string"
        },
        {
          "internalType": "uint256",
          "name": "percievedLoudness",
          "type": "uint256"
        },
        {
          "internalType": "uint256",
          "name": "tailLength",
          "type": "uint256"
        },
        {
          "internalType": "uint256",
          "name": "bodyLength",
          "type": "uint256"
        },
        {
          "internalType": "uint256",
          "name": "dynamicRange",
          "type": "uint256"
        },
        {
          "internalType": "uint256",
          "name": "duration",
          "type": "uint256"
        }
      ],
      "stateMutability": "view",
      "type": "function"
    },
    {
      "inputs": [
        {
          "internalType": "address",
          "name": "",
          "type": "address"
        },
        {
          "internalType": "uint256",
          "name": "",
          "type": "uint256"
        }
      ],
      "name": "nftHolders",
      "outputs": [
        {
          "internalType": "uint256",
          "name": "",
          "type": "uint256"
        }
      ],
      "stateMutability": "view",
      "type": "function"
    },
    {
      "inputs": [
        {
          "internalType": "uint256",
          "name": "tokenId",
          "type": "uint256"
        }
      ],
      "name": "ownerOf",
      "outputs": [
        {
          "internalType": "address",
          "name": "",
          "type": "address"
        }
      ],
      "stateMutability": "view",
      "type": "function"
    },
    {
      "inputs": [
        {
          "internalType": "bytes32",
          "name": "role",
          "type": "bytes32"
        },
        {
          "internalType": "address",
          "name": "account",
          "type": "address"
        }
      ],
      "name": "renounceRole",
      "outputs": [],
      "stateMutability": "nonpayable",
      "type": "function"
    },
    {
      "inputs": [
        {
          "internalType": "bytes32",
          "name": "role",
          "type": "bytes32"
        },
        {
          "internalType": "address",
          "name": "account",
          "type": "address"
        }
      ],
      "name": "revokeRole",
      "outputs": [],
      "stateMutability": "nonpayable",
      "type": "function"
    },
    {
      "inputs": [
        {
          "internalType": "string",
          "name": "_name",
          "type": "string"
        },
        {
          "internalType": "string",
          "name": "_imageURI",
          "type": "string"
        },
        {
          "internalType": "uint256",
          "name": "_percievedLoudness",
          "type": "uint256"
        },
        {
          "internalType": "uint256",
          "name": "_tailLength",
          "type": "uint256"
        },
        {
          "internalType": "uint256",
          "name": "_bodyLength",
          "type": "uint256"
        },
        {
          "internalType": "uint256",
          "name": "_dynamicRange",
          "type": "uint256"
        },
        {
          "internalType": "uint256",
          "name": "_duration",
          "type": "uint256"
        }
      ],
      "name": "safeMint",
      "outputs": [],
      "stateMutability": "nonpayable",
      "type": "function"
    },
    {
      "inputs": [
        {
          "internalType": "address",
          "name": "from",
          "type": "address"
        },
        {
          "internalType": "address",
          "name": "to",
          "type": "address"
        },
        {
          "internalType": "uint256",
          "name": "tokenId",
          "type": "uint256"
        }
      ],
      "name": "safeTransferFrom",
      "outputs": [],
      "stateMutability": "nonpayable",
      "type": "function"
    },
    {
      "inputs": [
        {
          "internalType": "address",
          "name": "from",
          "type": "address"
        },
        {
          "internalType": "address",
          "name": "to",
          "type": "address"
        },
        {
          "internalType": "uint256",
          "name": "tokenId",
          "type": "uint256"
        },
        {
          "internalType": "bytes",
          "name": "data",
          "type": "bytes"
        }
      ],
      "name": "safeTransferFrom",
      "outputs": [],
      "stateMutability": "nonpayable",
      "type": "function"
    },
    {
      "inputs": [
        {
          "internalType": "address",
          "name": "operator",
          "type": "address"
        },
        {
          "internalType": "bool",
          "name": "approved",
          "type": "bool"
        }
      ],
      "name": "setApprovalForAll",
      "outputs": [],
      "stateMutability": "nonpayable",
      "type": "function"
    },
    {
      "inputs": [
        {
          "internalType": "bytes4",
          "name": "interfaceId",
          "type": "bytes4"
        }
      ],
      "name": "supportsInterface",
      "outputs": [
        {
          "internalType": "bool",
          "name": "",
          "type": "bool"
        }
      ],
      "stateMutability": "view",
      "type": "function"
    },
    {
      "inputs": [],
      "name": "symbol",
      "outputs": [
        {
          "internalType": "string",
          "name": "",
          "type": "string"
        }
      ],
      "stateMutability": "view",
      "type": "function"
    },
    {
      "inputs": [
        {
          "internalType": "uint256",
          "name": "_tokenId",
          "type": "uint256"
        }
      ],
      "name": "tokenURI",
      "outputs": [
        {
          "internalType": "string",
          "name": "",
          "type": "string"
        }
      ],
      "stateMutability": "view",
      "type": "function"
    },
    {
      "inputs": [
        {
          "internalType": "address",
          "name": "from",
          "type": "address"
        },
        {
          "internalType": "address",
          "name": "to",
          "type": "address"
        },
        {
          "internalType": "uint256",
          "name": "tokenId",
          "type": "uint256"
        }
      ],
      "name": "transferFrom",
      "outputs": [],
      "stateMutability": "nonpayable",
      "type": "function"
    },
    {
      "inputs": [
        {
          "internalType": "address",
          "name": "",
          "type": "address"
        },
        {
          "internalType": "uint256",
          "name": "",
          "type": "uint256"
        }
      ],
      "name": "yourCardsInGameMapping",
      "outputs": [
        {
          "internalType": "string",
          "name": "",
          "type": "string"
        }
      ],
      "stateMutability": "view",
      "type": "function"
    }
  ],
  "bytecode": "0x60806040523480156200001157600080fd5b506040518060400160405280600781526020017f4d79546f6b656e000000000000000000000000000000000000000000000000008152506040518060400160405280600381526020017f4d544b000000000000000000000000000000000000000000000000000000000081525081600090816200008f9190620004fd565b508060019081620000a19190620004fd565b505050620000b96000801b336200010860201b60201c565b620000eb7f9f2df0fed2c77648de5860a4cc508cd0818c85b8b8a1ab4ceeef8d981c8956a6336200010860201b60201c565b620001026007620001fa60201b620014f71760201c565b620005e4565b6200011a82826200021060201b60201c565b620001f65760016006600084815260200190815260200160002060000160008373ffffffffffffffffffffffffffffffffffffffff1673ffffffffffffffffffffffffffffffffffffffff16815260200190815260200160002060006101000a81548160ff0219169083151502179055506200019b6200027b60201b60201c565b73ffffffffffffffffffffffffffffffffffffffff168173ffffffffffffffffffffffffffffffffffffffff16837f2f8788117e7eff1d82e926ec794901d17c78024a50270940304540a733656f0d60405160405180910390a45b5050565b6001816000016000828254019250508190555050565b60006006600084815260200190815260200160002060000160008373ffffffffffffffffffffffffffffffffffffffff1673ffffffffffffffffffffffffffffffffffffffff16815260200190815260200160002060009054906101000a900460ff16905092915050565b600033905090565b600081519050919050565b7f4e487b7100000000000000000000000000000000000000000000000000000000600052604160045260246000fd5b7f4e487b7100000000000000000000000000000000000000000000000000000000600052602260045260246000fd5b600060028204905060018216806200030557607f821691505b6020821081036200031b576200031a620002bd565b5b50919050565b60008190508160005260206000209050919050565b60006020601f8301049050919050565b600082821b905092915050565b600060088302620003857fffffffffffffffffffffffffffffffffffffffffffffffffffffffffffffffff8262000346565b62000391868362000346565b95508019841693508086168417925050509392505050565b6000819050919050565b6000819050919050565b6000620003de620003d8620003d284620003a9565b620003b3565b620003a9565b9050919050565b6000819050919050565b620003fa83620003bd565b620004126200040982620003e5565b84845462000353565b825550505050565b600090565b620004296200041a565b62000436818484620003ef565b505050565b5b818110156200045e57620004526000826200041f565b6001810190506200043c565b5050565b601f821115620004ad57620004778162000321565b620004828462000336565b8101602085101562000492578190505b620004aa620004a18562000336565b8301826200043b565b50505b505050565b600082821c905092915050565b6000620004d260001984600802620004b2565b1980831691505092915050565b6000620004ed8383620004bf565b9150826002028217905092915050565b620005088262000283565b67ffffffffffffffff8111156200052457620005236200028e565b5b620005308254620002ec565b6200053d82828562000462565b600060209050601f83116001811462000575576000841562000560578287015190505b6200056c8582620004df565b865550620005dc565b601f198416620005858662000321565b60005b82811015620005af5784890151825560018201915060208501945060208101905062000588565b86831015620005cf5784890151620005cb601f891682620004bf565b8355505b6001600288020188555050505b505050505050565b614bce80620005f46000396000f3fe608060405234801561001057600080fd5b506004361061018e5760003560e01c8063775bb50e116100de578063b88d4fde11610097578063d2753cf211610071578063d2753cf2146104d1578063d5391393146104ed578063d547741f1461050b578063e985e9c5146105275761018e565b8063b88d4fde14610467578063c87b56dd14610483578063cf1ac6e5146104b35761018e565b8063775bb50e1461037957806391d14854146103a957806395d89b41146103d957806398da4c95146103f7578063a217fddf1461042d578063a22cb4651461044b5761018e565b80632f2ff15d1161014b57806342842e0e1161012557806342842e0e146102e157806342966c68146102fd5780636352211e1461031957806370a08231146103495761018e565b80632f2ff15d1461027957806336568abe146102955780633f3a1c7a146102b15761018e565b806301ffc9a71461019357806306fdde03146101c3578063081812fc146101e1578063095ea7b31461021157806323b872dd1461022d578063248a9ca314610249575b600080fd5b6101ad60048036038101906101a89190612e2c565b610557565b6040516101ba9190612e74565b60405180910390f35b6101cb610569565b6040516101d89190612f1f565b60405180910390f35b6101fb60048036038101906101f69190612f77565b6105fb565b6040516102089190612fe5565b60405180910390f35b61022b6004803603810190610226919061302c565b610641565b005b6102476004803603810190610242919061306c565b610758565b005b610263600480360381019061025e91906130f5565b6107b8565b6040516102709190613131565b60405180910390f35b610293600480360381019061028e919061314c565b6107d8565b005b6102af60048036038101906102aa919061314c565b6107f9565b005b6102cb60048036038101906102c6919061302c565b61087c565b6040516102d89190612f1f565b60405180910390f35b6102fb60048036038101906102f6919061306c565b610935565b005b61031760048036038101906103129190612f77565b610955565b005b610333600480360381019061032e9190612f77565b6109b1565b6040516103409190612fe5565b60405180910390f35b610363600480360381019061035e919061318c565b610a37565b60405161037091906131c8565b60405180910390f35b610393600480360381019061038e919061302c565b610aee565b6040516103a091906131c8565b60405180910390f35b6103c360048036038101906103be919061314c565b610b1f565b6040516103d09190612e74565b60405180910390f35b6103e1610b8a565b6040516103ee9190612f1f565b60405180910390f35b610411600480360381019061040c9190612f77565b610c1c565b60405161042497969594939291906131e3565b60405180910390f35b610435610d6e565b6040516104429190613131565b60405180910390f35b6104656004803603810190610460919061328c565b610d75565b005b610481600480360381019061047c9190613401565b610d8b565b005b61049d60048036038101906104989190612f77565b610ded565b6040516104aa9190612f1f565b60405180910390f35b6104bb61103a565b6040516104c89190613590565b60405180910390f35b6104eb60048036038101906104e69190613653565b611150565b005b6104f561141e565b6040516105029190613131565b60405180910390f35b6105256004803603810190610520919061314c565b611442565b005b610541600480360381019061053c919061372d565b611463565b60405161054e9190612e74565b60405180910390f35b60006105628261150d565b9050919050565b6060600080546105789061379c565b80601f01602080910402602001604051908101604052809291908181526020018280546105a49061379c565b80156105f15780601f106105c6576101008083540402835291602001916105f1565b820191906000526020600020905b8154815290600101906020018083116105d457829003601f168201915b5050505050905090565b600061060682611587565b6004600083815260200190815260200160002060009054906101000a900473ffffffffffffffffffffffffffffffffffffffff169050919050565b600061064c826109b1565b90508073ffffffffffffffffffffffffffffffffffffffff168373ffffffffffffffffffffffffffffffffffffffff16036106bc576040517f08c379a00000000000000000000000000000000000000000000000000000000081526004016106b39061383f565b60405180910390fd5b8073ffffffffffffffffffffffffffffffffffffffff166106db6115d2565b73ffffffffffffffffffffffffffffffffffffffff16148061070a5750610709816107046115d2565b611463565b5b610749576040517f08c379a0000000000000000000000000000000000000000000000000000000008152600401610740906138d1565b60405180910390fd5b61075383836115da565b505050565b6107696107636115d2565b82611693565b6107a8576040517f08c379a000000000000000000000000000000000000000000000000000000000815260040161079f90613963565b60405180910390fd5b6107b3838383611728565b505050565b600060066000838152602001908152602001600020600101549050919050565b6107e1826107b8565b6107ea81611a21565b6107f48383611a35565b505050565b6108016115d2565b73ffffffffffffffffffffffffffffffffffffffff168173ffffffffffffffffffffffffffffffffffffffff161461086e576040517f08c379a0000000000000000000000000000000000000000000000000000000008152600401610865906139f5565b60405180910390fd5b6108788282611b16565b5050565b600b602052816000526040600020818154811061089857600080fd5b906000526020600020016000915091505080546108b49061379c565b80601f01602080910402602001604051908101604052809291908181526020018280546108e09061379c565b801561092d5780601f106109025761010080835404028352916020019161092d565b820191906000526020600020905b81548152906001019060200180831161091057829003601f168201915b505050505081565b61095083838360405180602001604052806000815250610d8b565b505050565b6109666109606115d2565b82611693565b6109a5576040517f08c379a000000000000000000000000000000000000000000000000000000000815260040161099c90613963565b60405180910390fd5b6109ae81611bf8565b50565b6000806109bd83611d46565b9050600073ffffffffffffffffffffffffffffffffffffffff168173ffffffffffffffffffffffffffffffffffffffff1603610a2e576040517f08c379a0000000000000000000000000000000000000000000000000000000008152600401610a2590613a61565b60405180910390fd5b80915050919050565b60008073ffffffffffffffffffffffffffffffffffffffff168273ffffffffffffffffffffffffffffffffffffffff1603610aa7576040517f08c379a0000000000000000000000000000000000000000000000000000000008152600401610a9e90613af3565b60405180910390fd5b600360008373ffffffffffffffffffffffffffffffffffffffff1673ffffffffffffffffffffffffffffffffffffffff168152602001908152602001600020549050919050565b60086020528160005260406000208181548110610b0a57600080fd5b90600052602060002001600091509150505481565b60006006600084815260200190815260200160002060000160008373ffffffffffffffffffffffffffffffffffffffff1673ffffffffffffffffffffffffffffffffffffffff16815260200190815260200160002060009054906101000a900460ff16905092915050565b606060018054610b999061379c565b80601f0160208091040260200160405190810160405280929190818152602001828054610bc59061379c565b8015610c125780601f10610be757610100808354040283529160200191610c12565b820191906000526020600020905b815481529060010190602001808311610bf557829003601f168201915b5050505050905090565b6009602052806000526040600020600091509050806000018054610c3f9061379c565b80601f0160208091040260200160405190810160405280929190818152602001828054610c6b9061379c565b8015610cb85780601f10610c8d57610100808354040283529160200191610cb8565b820191906000526020600020905b815481529060010190602001808311610c9b57829003601f168201915b505050505090806001018054610ccd9061379c565b80601f0160208091040260200160405190810160405280929190818152602001828054610cf99061379c565b8015610d465780601f10610d1b57610100808354040283529160200191610d46565b820191906000526020600020905b815481529060010190602001808311610d2957829003601f168201915b5050505050908060020154908060030154908060040154908060050154908060060154905087565b6000801b81565b610d87610d806115d2565b8383611d83565b5050565b610d9c610d966115d2565b83611693565b610ddb576040517f08c379a0000000000000000000000000000000000000000000000000000000008152600401610dd290613963565b60405180910390fd5b610de784848484611eef565b50505050565b60606000600960008481526020019081526020016000206040518060e0016040529081600082018054610e1f9061379c565b80601f0160208091040260200160405190810160405280929190818152602001828054610e4b9061379c565b8015610e985780601f10610e6d57610100808354040283529160200191610e98565b820191906000526020600020905b815481529060010190602001808311610e7b57829003601f168201915b50505050508152602001600182018054610eb19061379c565b80601f0160208091040260200160405190810160405280929190818152602001828054610edd9061379c565b8015610f2a5780601f10610eff57610100808354040283529160200191610f2a565b820191906000526020600020905b815481529060010190602001808311610f0d57829003601f168201915b505050505081526020016002820154815260200160038201548152602001600482015481526020016005820154815260200160068201548152505090506000610f768260400151611f4b565b90506000610f878360600151611f4b565b90506000610f988460800151611f4b565b90506000610fa98560c00151611f4b565b90506000610fba8660a00151611f4b565b905060006110048760000151610fcf8b611f4b565b8960200151898989888a604051602001610ff0989796959493929190613f51565b604051602081830303815290604052612019565b90506000816040516020016110199190614072565b60405160208183030381529060405290508098505050505050505050919050565b6060600b60003373ffffffffffffffffffffffffffffffffffffffff1673ffffffffffffffffffffffffffffffffffffffff168152602001908152602001600020805480602002602001604051908101604052809291908181526020016000905b828210156111475783829060005260206000200180546110ba9061379c565b80601f01602080910402602001604051908101604052809291908181526020018280546110e69061379c565b80156111335780601f1061110857610100808354040283529160200191611133565b820191906000526020600020905b81548152906001019060200180831161111657829003601f168201915b50505050508152602001906001019061109b565b50505050905090565b7f9f2df0fed2c77648de5860a4cc508cd0818c85b8b8a1ab4ceeef8d981c8956a661117a81611a21565b600061118660076121b0565b905061119233826121be565b600860003373ffffffffffffffffffffffffffffffffffffffff1673ffffffffffffffffffffffffffffffffffffffff1681526020019081526020016000208190806001815401808255809150506001900390600052602060002001600090919091909150556040518060e001604052808a8152602001898152602001888152602001878152602001868152602001858152602001848152506009600083815260200190815260200160002060008201518160000190816112539190614240565b5060208201518160010190816112699190614240565b5060408201518160020155606082015181600301556080820151816004015560a0820151816005015560c08201518160060155905050600b60003373ffffffffffffffffffffffffffffffffffffffff1673ffffffffffffffffffffffffffffffffffffffff168152602001908152602001600020889080600181540180825580915050600190039060005260206000200160009091909190915090816113109190614240565b506113346040518060600160405280602e8152602001614b6b602e9139828b6121dc565b600a600960008381526020019081526020016000209080600181540180825580915050600190039060005260206000209060070201600090919091909150600082018160000190816113869190614328565b506001820181600101908161139b9190614328565b50600282015481600201556003820154816003015560048201548160040155600582015481600501556006820154816006015550507f1fc669908b9d25690fe5308881be77af12afc6f62a2b0f26464380452a6228803382604051611401929190614410565b60405180910390a161141360076114f7565b505050505050505050565b7f9f2df0fed2c77648de5860a4cc508cd0818c85b8b8a1ab4ceeef8d981c8956a681565b61144b826107b8565b61145481611a21565b61145e8383611b16565b505050565b6000600560008473ffffffffffffffffffffffffffffffffffffffff1673ffffffffffffffffffffffffffffffffffffffff16815260200190815260200160002060008373ffffffffffffffffffffffffffffffffffffffff1673ffffffffffffffffffffffffffffffffffffffff16815260200190815260200160002060009054906101000a900460ff16905092915050565b6001816000016000828254019250508190555050565b60007f7965db0b000000000000000000000000000000000000000000000000000000007bffffffffffffffffffffffffffffffffffffffffffffffffffffffff1916827bffffffffffffffffffffffffffffffffffffffffffffffffffffffff19161480611580575061157f8261227b565b5b9050919050565b6115908161235d565b6115cf576040517f08c379a00000000000000000000000000000000000000000000000000000000081526004016115c690613a61565b60405180910390fd5b50565b600033905090565b816004600083815260200190815260200160002060006101000a81548173ffffffffffffffffffffffffffffffffffffffff021916908373ffffffffffffffffffffffffffffffffffffffff160217905550808273ffffffffffffffffffffffffffffffffffffffff1661164d836109b1565b73ffffffffffffffffffffffffffffffffffffffff167f8c5be1e5ebec7d5bd14f71427d1e84f3dd0314c0f7b2291e5b200ac8c7c3b92560405160405180910390a45050565b60008061169f836109b1565b90508073ffffffffffffffffffffffffffffffffffffffff168473ffffffffffffffffffffffffffffffffffffffff1614806116e157506116e08185611463565b5b8061171f57508373ffffffffffffffffffffffffffffffffffffffff16611707846105fb565b73ffffffffffffffffffffffffffffffffffffffff16145b91505092915050565b8273ffffffffffffffffffffffffffffffffffffffff16611748826109b1565b73ffffffffffffffffffffffffffffffffffffffff161461179e576040517f08c379a0000000000000000000000000000000000000000000000000000000008152600401611795906144ab565b60405180910390fd5b600073ffffffffffffffffffffffffffffffffffffffff168273ffffffffffffffffffffffffffffffffffffffff160361180d576040517f08c379a00000000000000000000000000000000000000000000000000000000081526004016118049061453d565b60405180910390fd5b61181a838383600161239e565b8273ffffffffffffffffffffffffffffffffffffffff1661183a826109b1565b73ffffffffffffffffffffffffffffffffffffffff1614611890576040517f08c379a0000000000000000000000000000000000000000000000000000000008152600401611887906144ab565b60405180910390fd5b6004600082815260200190815260200160002060006101000a81549073ffffffffffffffffffffffffffffffffffffffff02191690556001600360008573ffffffffffffffffffffffffffffffffffffffff1673ffffffffffffffffffffffffffffffffffffffff168152602001908152602001600020600082825403925050819055506001600360008473ffffffffffffffffffffffffffffffffffffffff1673ffffffffffffffffffffffffffffffffffffffff16815260200190815260200160002060008282540192505081905550816002600083815260200190815260200160002060006101000a81548173ffffffffffffffffffffffffffffffffffffffff021916908373ffffffffffffffffffffffffffffffffffffffff160217905550808273ffffffffffffffffffffffffffffffffffffffff168473ffffffffffffffffffffffffffffffffffffffff167fddf252ad1be2c89b69c2b068fc378daa952ba7f163c4a11628f55a4df523b3ef60405160405180910390a4611a1c83838360016124c4565b505050565b611a3281611a2d6115d2565b6124ca565b50565b611a3f8282610b1f565b611b125760016006600084815260200190815260200160002060000160008373ffffffffffffffffffffffffffffffffffffffff1673ffffffffffffffffffffffffffffffffffffffff16815260200190815260200160002060006101000a81548160ff021916908315150217905550611ab76115d2565b73ffffffffffffffffffffffffffffffffffffffff168173ffffffffffffffffffffffffffffffffffffffff16837f2f8788117e7eff1d82e926ec794901d17c78024a50270940304540a733656f0d60405160405180910390a45b5050565b611b208282610b1f565b15611bf45760006006600084815260200190815260200160002060000160008373ffffffffffffffffffffffffffffffffffffffff1673ffffffffffffffffffffffffffffffffffffffff16815260200190815260200160002060006101000a81548160ff021916908315150217905550611b996115d2565b73ffffffffffffffffffffffffffffffffffffffff168173ffffffffffffffffffffffffffffffffffffffff16837ff6391f5c32d9c69d2a47ea670b442974b53935d1edc7fd64eb21e047a839171b60405160405180910390a45b5050565b6000611c03826109b1565b9050611c1381600084600161239e565b611c1c826109b1565b90506004600083815260200190815260200160002060006101000a81549073ffffffffffffffffffffffffffffffffffffffff02191690556001600360008373ffffffffffffffffffffffffffffffffffffffff1673ffffffffffffffffffffffffffffffffffffffff168152602001908152602001600020600082825403925050819055506002600083815260200190815260200160002060006101000a81549073ffffffffffffffffffffffffffffffffffffffff021916905581600073ffffffffffffffffffffffffffffffffffffffff168273ffffffffffffffffffffffffffffffffffffffff167fddf252ad1be2c89b69c2b068fc378daa952ba7f163c4a11628f55a4df523b3ef60405160405180910390a4611d428160008460016124c4565b5050565b60006002600083815260200190815260200160002060009054906101000a900473ffffffffffffffffffffffffffffffffffffffff169050919050565b8173ffffffffffffffffffffffffffffffffffffffff168373ffffffffffffffffffffffffffffffffffffffff1603611df1576040517f08c379a0000000000000000000000000000000000000000000000000000000008152600401611de8906145a9565b60405180910390fd5b80600560008573ffffffffffffffffffffffffffffffffffffffff1673ffffffffffffffffffffffffffffffffffffffff16815260200190815260200160002060008473ffffffffffffffffffffffffffffffffffffffff1673ffffffffffffffffffffffffffffffffffffffff16815260200190815260200160002060006101000a81548160ff0219169083151502179055508173ffffffffffffffffffffffffffffffffffffffff168373ffffffffffffffffffffffffffffffffffffffff167f17307eab39ab6107e8899845ad3d59bd9653f200f220920489ca2b5937696c3183604051611ee29190612e74565b60405180910390a3505050565b611efa848484611728565b611f068484848461254f565b611f45576040517f08c379a0000000000000000000000000000000000000000000000000000000008152600401611f3c9061463b565b60405180910390fd5b50505050565b606060006001611f5a846126d6565b01905060008167ffffffffffffffff811115611f7957611f786132d6565b5b6040519080825280601f01601f191660200182016040528015611fab5781602001600182028036833780820191505090505b509050600082602001820190505b60011561200e578080600190039150507f3031323334353637383961626364656600000000000000000000000000000000600a86061a8153600a85816120025761200161465b565b5b04945060008503611fb9575b819350505050919050565b60606000825190506000810361204157604051806020016040528060008152509150506121ab565b6000600360028361205291906146b9565b61205c91906146ed565b6004612068919061471e565b9050600060208261207991906146b9565b67ffffffffffffffff811115612092576120916132d6565b5b6040519080825280601f01601f1916602001820160405280156120c45781602001600182028036833780820191505090505b5090506000604051806060016040528060408152602001614b2b604091399050600181016020830160005b868110156121685760038101905062ffffff818a015116603f8160121c168401518060081b905060ff603f83600c1c1686015116810190508060081b905060ff603f8360061c1686015116810190508060081b905060ff603f831686015116810190508060e01b905080845260048401935050506120ef565b50600386066001811461218257600281146121925761219d565b613d3d60f01b600283035261219d565b603d60f81b60018303525b508484525050819450505050505b919050565b600081600001549050919050565b6121d8828260405180602001604052806000815250612829565b5050565b6122768383836040516024016121f493929190614760565b6040516020818303038152906040527f5970e089000000000000000000000000000000000000000000000000000000007bffffffffffffffffffffffffffffffffffffffffffffffffffffffff19166020820180517bffffffffffffffffffffffffffffffffffffffffffffffffffffffff8381831617835250505050612884565b505050565b60007f80ac58cd000000000000000000000000000000000000000000000000000000007bffffffffffffffffffffffffffffffffffffffffffffffffffffffff1916827bffffffffffffffffffffffffffffffffffffffffffffffffffffffff1916148061234657507f5b5e139f000000000000000000000000000000000000000000000000000000007bffffffffffffffffffffffffffffffffffffffffffffffffffffffff1916827bffffffffffffffffffffffffffffffffffffffffffffffffffffffff1916145b806123565750612355826128ad565b5b9050919050565b60008073ffffffffffffffffffffffffffffffffffffffff1661237f83611d46565b73ffffffffffffffffffffffffffffffffffffffff1614159050919050565b60018111156124be57600073ffffffffffffffffffffffffffffffffffffffff168473ffffffffffffffffffffffffffffffffffffffff16146124325780600360008673ffffffffffffffffffffffffffffffffffffffff1673ffffffffffffffffffffffffffffffffffffffff168152602001908152602001600020600082825461242a91906147a5565b925050819055505b600073ffffffffffffffffffffffffffffffffffffffff168373ffffffffffffffffffffffffffffffffffffffff16146124bd5780600360008573ffffffffffffffffffffffffffffffffffffffff1673ffffffffffffffffffffffffffffffffffffffff16815260200190815260200160002060008282546124b591906146b9565b925050819055505b5b50505050565b50505050565b6124d48282610b1f565b61254b576124e181612917565b6124ef8360001c6020612944565b604051602001612500929190614871565b6040516020818303038152906040526040517f08c379a00000000000000000000000000000000000000000000000000000000081526004016125429190612f1f565b60405180910390fd5b5050565b60006125708473ffffffffffffffffffffffffffffffffffffffff16612b80565b156126c9578373ffffffffffffffffffffffffffffffffffffffff1663150b7a026125996115d2565b8786866040518563ffffffff1660e01b81526004016125bb9493929190614900565b6020604051808303816000875af19250505080156125f757506040513d601f19601f820116820180604052508101906125f49190614961565b60015b612679573d8060008114612627576040519150601f19603f3d011682016040523d82523d6000602084013e61262c565b606091505b506000815103612671576040517f08c379a00000000000000000000000000000000000000000000000000000000081526004016126689061463b565b60405180910390fd5b805181602001fd5b63150b7a0260e01b7bffffffffffffffffffffffffffffffffffffffffffffffffffffffff1916817bffffffffffffffffffffffffffffffffffffffffffffffffffffffff1916149150506126ce565b600190505b949350505050565b600080600090507a184f03e93ff9f4daa797ed6e38ed64bf6a1f0100000000000000008310612734577a184f03e93ff9f4daa797ed6e38ed64bf6a1f010000000000000000838161272a5761272961465b565b5b0492506040810190505b6d04ee2d6d415b85acef81000000008310612771576d04ee2d6d415b85acef810000000083816127675761276661465b565b5b0492506020810190505b662386f26fc1000083106127a057662386f26fc1000083816127965761279561465b565b5b0492506010810190505b6305f5e10083106127c9576305f5e10083816127bf576127be61465b565b5b0492506008810190505b61271083106127ee5761271083816127e4576127e361465b565b5b0492506004810190505b6064831061281157606483816128075761280661465b565b5b0492506002810190505b600a8310612820576001810190505b80915050919050565b6128338383612ba3565b612840600084848461254f565b61287f576040517f08c379a00000000000000000000000000000000000000000000000000000000081526004016128769061463b565b60405180910390fd5b505050565b60008151905060006a636f6e736f6c652e6c6f679050602083016000808483855afa5050505050565b60007f01ffc9a7000000000000000000000000000000000000000000000000000000007bffffffffffffffffffffffffffffffffffffffffffffffffffffffff1916827bffffffffffffffffffffffffffffffffffffffffffffffffffffffff1916149050919050565b606061293d8273ffffffffffffffffffffffffffffffffffffffff16601460ff16612944565b9050919050565b606060006002836002612957919061471e565b61296191906146b9565b67ffffffffffffffff81111561297a576129796132d6565b5b6040519080825280601f01601f1916602001820160405280156129ac5781602001600182028036833780820191505090505b5090507f3000000000000000000000000000000000000000000000000000000000000000816000815181106129e4576129e361498e565b5b60200101907effffffffffffffffffffffffffffffffffffffffffffffffffffffffffffff1916908160001a9053507f780000000000000000000000000000000000000000000000000000000000000081600181518110612a4857612a4761498e565b5b60200101907effffffffffffffffffffffffffffffffffffffffffffffffffffffffffffff1916908160001a90535060006001846002612a88919061471e565b612a9291906146b9565b90505b6001811115612b32577f3031323334353637383961626364656600000000000000000000000000000000600f861660108110612ad457612ad361498e565b5b1a60f81b828281518110612aeb57612aea61498e565b5b60200101907effffffffffffffffffffffffffffffffffffffffffffffffffffffffffffff1916908160001a905350600485901c945080612b2b906149bd565b9050612a95565b5060008414612b76576040517f08c379a0000000000000000000000000000000000000000000000000000000008152600401612b6d90614a32565b60405180910390fd5b8091505092915050565b6000808273ffffffffffffffffffffffffffffffffffffffff163b119050919050565b600073ffffffffffffffffffffffffffffffffffffffff168273ffffffffffffffffffffffffffffffffffffffff1603612c12576040517f08c379a0000000000000000000000000000000000000000000000000000000008152600401612c0990614a9e565b60405180910390fd5b612c1b8161235d565b15612c5b576040517f08c379a0000000000000000000000000000000000000000000000000000000008152600401612c5290614b0a565b60405180910390fd5b612c6960008383600161239e565b612c728161235d565b15612cb2576040517f08c379a0000000000000000000000000000000000000000000000000000000008152600401612ca990614b0a565b60405180910390fd5b6001600360008473ffffffffffffffffffffffffffffffffffffffff1673ffffffffffffffffffffffffffffffffffffffff16815260200190815260200160002060008282540192505081905550816002600083815260200190815260200160002060006101000a81548173ffffffffffffffffffffffffffffffffffffffff021916908373ffffffffffffffffffffffffffffffffffffffff160217905550808273ffffffffffffffffffffffffffffffffffffffff16600073ffffffffffffffffffffffffffffffffffffffff167fddf252ad1be2c89b69c2b068fc378daa952ba7f163c4a11628f55a4df523b3ef60405160405180910390a4612dbc6000838360016124c4565b5050565b6000604051905090565b600080fd5b600080fd5b60007fffffffff0000000000000000000000000000000000000000000000000000000082169050919050565b612e0981612dd4565b8114612e1457600080fd5b50565b600081359050612e2681612e00565b92915050565b600060208284031215612e4257612e41612dca565b5b6000612e5084828501612e17565b91505092915050565b60008115159050919050565b612e6e81612e59565b82525050565b6000602082019050612e896000830184612e65565b92915050565b600081519050919050565b600082825260208201905092915050565b60005b83811015612ec9578082015181840152602081019050612eae565b60008484015250505050565b6000601f19601f8301169050919050565b6000612ef182612e8f565b612efb8185612e9a565b9350612f0b818560208601612eab565b612f1481612ed5565b840191505092915050565b60006020820190508181036000830152612f398184612ee6565b905092915050565b6000819050919050565b612f5481612f41565b8114612f5f57600080fd5b50565b600081359050612f7181612f4b565b92915050565b600060208284031215612f8d57612f8c612dca565b5b6000612f9b84828501612f62565b91505092915050565b600073ffffffffffffffffffffffffffffffffffffffff82169050919050565b6000612fcf82612fa4565b9050919050565b612fdf81612fc4565b82525050565b6000602082019050612ffa6000830184612fd6565b92915050565b61300981612fc4565b811461301457600080fd5b50565b60008135905061302681613000565b92915050565b6000806040838503121561304357613042612dca565b5b600061305185828601613017565b925050602061306285828601612f62565b9150509250929050565b60008060006060848603121561308557613084612dca565b5b600061309386828701613017565b93505060206130a486828701613017565b92505060406130b586828701612f62565b9150509250925092565b6000819050919050565b6130d2816130bf565b81146130dd57600080fd5b50565b6000813590506130ef816130c9565b92915050565b60006020828403121561310b5761310a612dca565b5b6000613119848285016130e0565b91505092915050565b61312b816130bf565b82525050565b60006020820190506131466000830184613122565b92915050565b6000806040838503121561316357613162612dca565b5b6000613171858286016130e0565b925050602061318285828601613017565b9150509250929050565b6000602082840312156131a2576131a1612dca565b5b60006131b084828501613017565b91505092915050565b6131c281612f41565b82525050565b60006020820190506131dd60008301846131b9565b92915050565b600060e08201905081810360008301526131fd818a612ee6565b905081810360208301526132118189612ee6565b905061322060408301886131b9565b61322d60608301876131b9565b61323a60808301866131b9565b61324760a08301856131b9565b61325460c08301846131b9565b98975050505050505050565b61326981612e59565b811461327457600080fd5b50565b60008135905061328681613260565b92915050565b600080604083850312156132a3576132a2612dca565b5b60006132b185828601613017565b92505060206132c285828601613277565b9150509250929050565b600080fd5b600080fd5b7f4e487b7100000000000000000000000000000000000000000000000000000000600052604160045260246000fd5b61330e82612ed5565b810181811067ffffffffffffffff8211171561332d5761332c6132d6565b5b80604052505050565b6000613340612dc0565b905061334c8282613305565b919050565b600067ffffffffffffffff82111561336c5761336b6132d6565b5b61337582612ed5565b9050602081019050919050565b82818337600083830152505050565b60006133a461339f84613351565b613336565b9050828152602081018484840111156133c0576133bf6132d1565b5b6133cb848285613382565b509392505050565b600082601f8301126133e8576133e76132cc565b5b81356133f8848260208601613391565b91505092915050565b6000806000806080858703121561341b5761341a612dca565b5b600061342987828801613017565b945050602061343a87828801613017565b935050604061344b87828801612f62565b925050606085013567ffffffffffffffff81111561346c5761346b612dcf565b5b613478878288016133d3565b91505092959194509250565b600081519050919050565b600082825260208201905092915050565b6000819050602082019050919050565b600082825260208201905092915050565b60006134cc82612e8f565b6134d681856134b0565b93506134e6818560208601612eab565b6134ef81612ed5565b840191505092915050565b600061350683836134c1565b905092915050565b6000602082019050919050565b600061352682613484565b613530818561348f565b935083602082028501613542856134a0565b8060005b8581101561357e578484038952815161355f85826134fa565b945061356a8361350e565b925060208a01995050600181019050613546565b50829750879550505050505092915050565b600060208201905081810360008301526135aa818461351b565b905092915050565b600067ffffffffffffffff8211156135cd576135cc6132d6565b5b6135d682612ed5565b9050602081019050919050565b60006135f66135f1846135b2565b613336565b905082815260208101848484011115613612576136116132d1565b5b61361d848285613382565b509392505050565b600082601f83011261363a576136396132cc565b5b813561364a8482602086016135e3565b91505092915050565b600080600080600080600060e0888a03121561367257613671612dca565b5b600088013567ffffffffffffffff8111156136905761368f612dcf565b5b61369c8a828b01613625565b975050602088013567ffffffffffffffff8111156136bd576136bc612dcf565b5b6136c98a828b01613625565b96505060406136da8a828b01612f62565b95505060606136eb8a828b01612f62565b94505060806136fc8a828b01612f62565b93505060a061370d8a828b01612f62565b92505060c061371e8a828b01612f62565b91505092959891949750929550565b6000806040838503121561374457613743612dca565b5b600061375285828601613017565b925050602061376385828601613017565b9150509250929050565b7f4e487b7100000000000000000000000000000000000000000000000000000000600052602260045260246000fd5b600060028204905060018216806137b457607f821691505b6020821081036137c7576137c661376d565b5b50919050565b7f4552433732313a20617070726f76616c20746f2063757272656e74206f776e6560008201527f7200000000000000000000000000000000000000000000000000000000000000602082015250565b6000613829602183612e9a565b9150613834826137cd565b604082019050919050565b600060208201905081810360008301526138588161381c565b9050919050565b7f4552433732313a20617070726f76652063616c6c6572206973206e6f7420746f60008201527f6b656e206f776e6572206f7220617070726f76656420666f7220616c6c000000602082015250565b60006138bb603d83612e9a565b91506138c68261385f565b604082019050919050565b600060208201905081810360008301526138ea816138ae565b9050919050565b7f4552433732313a2063616c6c6572206973206e6f7420746f6b656e206f776e6560008201527f72206f7220617070726f76656400000000000000000000000000000000000000602082015250565b600061394d602d83612e9a565b9150613958826138f1565b604082019050919050565b6000602082019050818103600083015261397c81613940565b9050919050565b7f416363657373436f6e74726f6c3a2063616e206f6e6c792072656e6f756e636560008201527f20726f6c657320666f722073656c660000000000000000000000000000000000602082015250565b60006139df602f83612e9a565b91506139ea82613983565b604082019050919050565b60006020820190508181036000830152613a0e816139d2565b9050919050565b7f4552433732313a20696e76616c696420746f6b656e2049440000000000000000600082015250565b6000613a4b601883612e9a565b9150613a5682613a15565b602082019050919050565b60006020820190508181036000830152613a7a81613a3e565b9050919050565b7f4552433732313a2061646472657373207a65726f206973206e6f74206120766160008201527f6c6964206f776e65720000000000000000000000000000000000000000000000602082015250565b6000613add602983612e9a565b9150613ae882613a81565b604082019050919050565b60006020820190508181036000830152613b0c81613ad0565b9050919050565b600081905092915050565b7f7b226e616d65223a202200000000000000000000000000000000000000000000600082015250565b6000613b54600a83613b13565b9150613b5f82613b1e565b600a82019050919050565b6000613b7582612e8f565b613b7f8185613b13565b9350613b8f818560208601612eab565b80840191505092915050565b7f202d2d204e465420233a20000000000000000000000000000000000000000000600082015250565b6000613bd1600b83613b13565b9150613bdc82613b9b565b600b82019050919050565b7f222c20226465736372697074696f6e223a20225468697320697320616e204e4660008201527f542074686174206c6574732070656f706c6520706c617920616e64207472616460208201527f6520666f72206120536f6e69632047616d6521222c2022696d616765223a202260408201527f697066733a2f2f00000000000000000000000000000000000000000000000000606082015250565b6000613c8f606783613b13565b9150613c9a82613be7565b606782019050919050565b7f222c202261747472696275746573223a205b207b202274726169745f7479706560008201527f223a2022506572636965766564204c6f75646e657373222c202276616c75652260208201527f3a20000000000000000000000000000000000000000000000000000000000000604082015250565b6000613d27604283613b13565b9150613d3282613ca5565b604282019050919050565b7f7d2c207b202274726169745f74797065223a20225461696c204c656e6774682260008201527f2c202276616c7565223a20000000000000000000000000000000000000000000602082015250565b6000613d99602b83613b13565b9150613da482613d3d565b602b82019050919050565b7f7d2c207b202274726169745f74797065223a2022426f6479204c656e6774682260008201527f2c202276616c7565223a20000000000000000000000000000000000000000000602082015250565b6000613e0b602b83613b13565b9150613e1682613daf565b602b82019050919050565b7f7d2c207b202274726169745f74797065223a202244796e616d69632052616e6760008201527f65222c202276616c7565223a2000000000000000000000000000000000000000602082015250565b6000613e7d602d83613b13565b9150613e8882613e21565b602d82019050919050565b7f7d2c20207b202274726169745f74797065223a20224475726174696f6e222c2060008201527f2276616c7565223a200000000000000000000000000000000000000000000000602082015250565b6000613eef602983613b13565b9150613efa82613e93565b602982019050919050565b7f7d205d7d00000000000000000000000000000000000000000000000000000000600082015250565b6000613f3b600483613b13565b9150613f4682613f05565b600482019050919050565b6000613f5c82613b47565b9150613f68828b613b6a565b9150613f7382613bc4565b9150613f7f828a613b6a565b9150613f8a82613c82565b9150613f968289613b6a565b9150613fa182613d1a565b9150613fad8288613b6a565b9150613fb882613d8c565b9150613fc48287613b6a565b9150613fcf82613dfe565b9150613fdb8286613b6a565b9150613fe682613e70565b9150613ff28285613b6a565b9150613ffd82613ee2565b91506140098284613b6a565b915061401482613f2e565b91508190509998505050505050505050565b7f646174613a6170706c69636174696f6e2f6a736f6e3b6261736536342c000000600082015250565b600061405c601d83613b13565b915061406782614026565b601d82019050919050565b600061407d8261404f565b91506140898284613b6a565b915081905092915050565b60008190508160005260206000209050919050565b60006020601f8301049050919050565b600082821b905092915050565b6000600883026140f67fffffffffffffffffffffffffffffffffffffffffffffffffffffffffffffffff826140b9565b61410086836140b9565b95508019841693508086168417925050509392505050565b6000819050919050565b600061413d61413861413384612f41565b614118565b612f41565b9050919050565b6000819050919050565b61415783614122565b61416b61416382614144565b8484546140c6565b825550505050565b600090565b614180614173565b61418b81848461414e565b505050565b5b818110156141af576141a4600082614178565b600181019050614191565b5050565b601f8211156141f4576141c581614094565b6141ce846140a9565b810160208510156141dd578190505b6141f16141e9856140a9565b830182614190565b50505b505050565b600082821c905092915050565b6000614217600019846008026141f9565b1980831691505092915050565b60006142308383614206565b9150826002028217905092915050565b61424982612e8f565b67ffffffffffffffff811115614262576142616132d6565b5b61426c825461379c565b6142778282856141b3565b600060209050601f8311600181146142aa5760008415614298578287015190505b6142a28582614224565b86555061430a565b601f1984166142b886614094565b60005b828110156142e0578489015182556001820191506020850194506020810190506142bb565b868310156142fd57848901516142f9601f891682614206565b8355505b6001600288020188555050505b505050505050565b6000815490506143218161379c565b9050919050565b81810361433657505061440e565b61433f82614312565b67ffffffffffffffff811115614358576143576132d6565b5b614362825461379c565b61436d8282856141b3565b6000601f83116001811461439c576000841561438a578287015490505b6143948582614224565b865550614407565b601f1984166143aa87614094565b96506143b586614094565b60005b828110156143dd578489015482556001820191506001850194506020810190506143b8565b868310156143fa57848901546143f6601f891682614206565b8355505b6001600288020188555050505b5050505050505b565b60006040820190506144256000830185612fd6565b61443260208301846131b9565b9392505050565b7f4552433732313a207472616e736665722066726f6d20696e636f72726563742060008201527f6f776e6572000000000000000000000000000000000000000000000000000000602082015250565b6000614495602583612e9a565b91506144a082614439565b604082019050919050565b600060208201905081810360008301526144c481614488565b9050919050565b7f4552433732313a207472616e7366657220746f20746865207a65726f2061646460008201527f7265737300000000000000000000000000000000000000000000000000000000602082015250565b6000614527602483612e9a565b9150614532826144cb565b604082019050919050565b600060208201905081810360008301526145568161451a565b9050919050565b7f4552433732313a20617070726f766520746f2063616c6c657200000000000000600082015250565b6000614593601983612e9a565b915061459e8261455d565b602082019050919050565b600060208201905081810360008301526145c281614586565b9050919050565b7f4552433732313a207472616e7366657220746f206e6f6e20455243373231526560008201527f63656976657220696d706c656d656e7465720000000000000000000000000000602082015250565b6000614625603283612e9a565b9150614630826145c9565b604082019050919050565b6000602082019050818103600083015261465481614618565b9050919050565b7f4e487b7100000000000000000000000000000000000000000000000000000000600052601260045260246000fd5b7f4e487b7100000000000000000000000000000000000000000000000000000000600052601160045260246000fd5b60006146c482612f41565b91506146cf83612f41565b92508282019050808211156146e7576146e661468a565b5b92915050565b60006146f882612f41565b915061470383612f41565b9250826147135761471261465b565b5b828204905092915050565b600061472982612f41565b915061473483612f41565b925082820261474281612f41565b915082820484148315176147595761475861468a565b5b5092915050565b6000606082019050818103600083015261477a8186612ee6565b905061478960208301856131b9565b818103604083015261479b8184612ee6565b9050949350505050565b60006147b082612f41565b91506147bb83612f41565b92508282039050818111156147d3576147d261468a565b5b92915050565b7f416363657373436f6e74726f6c3a206163636f756e7420000000000000000000600082015250565b600061480f601783613b13565b915061481a826147d9565b601782019050919050565b7f206973206d697373696e6720726f6c6520000000000000000000000000000000600082015250565b600061485b601183613b13565b915061486682614825565b601182019050919050565b600061487c82614802565b91506148888285613b6a565b91506148938261484e565b915061489f8284613b6a565b91508190509392505050565b600081519050919050565b600082825260208201905092915050565b60006148d2826148ab565b6148dc81856148b6565b93506148ec818560208601612eab565b6148f581612ed5565b840191505092915050565b60006080820190506149156000830187612fd6565b6149226020830186612fd6565b61492f60408301856131b9565b818103606083015261494181846148c7565b905095945050505050565b60008151905061495b81612e00565b92915050565b60006020828403121561497757614976612dca565b5b60006149858482850161494c565b91505092915050565b7f4e487b7100000000000000000000000000000000000000000000000000000000600052603260045260246000fd5b60006149c882612f41565b9150600082036149db576149da61468a565b5b600182039050919050565b7f537472696e67733a20686578206c656e67746820696e73756666696369656e74600082015250565b6000614a1c602083612e9a565b9150614a27826149e6565b602082019050919050565b60006020820190508181036000830152614a4b81614a0f565b9050919050565b7f4552433732313a206d696e7420746f20746865207a65726f2061646472657373600082015250565b6000614a88602083612e9a565b9150614a9382614a52565b602082019050919050565b60006020820190508181036000830152614ab781614a7b565b9050919050565b7f4552433732313a20746f6b656e20616c7265616479206d696e74656400000000600082015250565b6000614af4601c83612e9a565b9150614aff82614abe565b602082019050919050565b60006020820190508181036000830152614b2381614ae7565b905091905056fe4142434445464748494a4b4c4d4e4f505152535455565758595a6162636465666768696a6b6c6d6e6f707172737475767778797a303132333435363738392b2f4d696e746564204e465420772f20746f6b656e496420257320616e6420636861726163746572496e646578202573a264697066735822122041329e287acd893daf86ba6e58a2e74dc52fe1fd7fa7b82fcb7cbc815fc406dc64736f6c63430008110033",
  "linkReferences": {},
  "deployedLinkReferences": {}
}